ARM GAS  C:\Users\CHUNGN~1\AppData\Local\Temp\ccjIQNej.s 			page 1


   1              		.syntax unified
   2              		.cpu cortex-m0
   3              		.fpu softvfp
   4              		.eabi_attribute 20, 1
   5              		.eabi_attribute 21, 1
   6              		.eabi_attribute 23, 3
   7              		.eabi_attribute 24, 1
   8              		.eabi_attribute 25, 1
   9              		.eabi_attribute 26, 1
  10              		.eabi_attribute 30, 1
  11              		.eabi_attribute 34, 0
  12              		.eabi_attribute 18, 4
  13              		.thumb
  14              		.syntax unified
  15              		.file	"CyFlash.c"
  16              		.text
  17              	.Ltext0:
  18              		.cfi_sections	.debug_frame
  19              		.section	.text.CySysFlashClockBackup,"ax",%progbits
  20              		.align	2
  21              		.code	16
  22              		.thumb_func
  23              		.type	CySysFlashClockBackup, %function
  24              	CySysFlashClockBackup:
  25              	.LFB2:
  26              		.file 1 "Generated_Source\\PSoC4\\CyFlash.c"
   1:Generated_Source\PSoC4/CyFlash.c **** /***************************************************************************//**
   2:Generated_Source\PSoC4/CyFlash.c **** * \file CyFlash.c
   3:Generated_Source\PSoC4/CyFlash.c **** * \version 5.80
   4:Generated_Source\PSoC4/CyFlash.c **** *
   5:Generated_Source\PSoC4/CyFlash.c **** * \brief Provides an API for the FLASH.
   6:Generated_Source\PSoC4/CyFlash.c **** *
   7:Generated_Source\PSoC4/CyFlash.c **** * \note This code is endian agnostic.
   8:Generated_Source\PSoC4/CyFlash.c **** *
   9:Generated_Source\PSoC4/CyFlash.c **** * \note Documentation of the API's in this file is located in the System
  10:Generated_Source\PSoC4/CyFlash.c **** * Reference Guide provided with PSoC Creator.
  11:Generated_Source\PSoC4/CyFlash.c **** *
  12:Generated_Source\PSoC4/CyFlash.c **** ********************************************************************************
  13:Generated_Source\PSoC4/CyFlash.c **** * \copyright
  14:Generated_Source\PSoC4/CyFlash.c **** * Copyright 2010-2018, Cypress Semiconductor Corporation.  All rights reserved.
  15:Generated_Source\PSoC4/CyFlash.c **** * You may use this file only in accordance with the license, terms, conditions,
  16:Generated_Source\PSoC4/CyFlash.c **** * disclaimers, and limitations in the end user license agreement accompanying
  17:Generated_Source\PSoC4/CyFlash.c **** * the software package with which this file was provided.
  18:Generated_Source\PSoC4/CyFlash.c **** *******************************************************************************/
  19:Generated_Source\PSoC4/CyFlash.c **** 
  20:Generated_Source\PSoC4/CyFlash.c **** #include "CyFlash.h"
  21:Generated_Source\PSoC4/CyFlash.c **** 
  22:Generated_Source\PSoC4/CyFlash.c **** 
  23:Generated_Source\PSoC4/CyFlash.c **** /*******************************************************************************
  24:Generated_Source\PSoC4/CyFlash.c **** * Cypress identified a defect with the Flash write functionality of the
  25:Generated_Source\PSoC4/CyFlash.c **** * PSoC 4000, PSoC 4000U, PSoC 4100, and PSoC 4200 devices. The 
  26:Generated_Source\PSoC4/CyFlash.c **** * CySysFlashWriteRow() function now checks the data to be written and, if 
  27:Generated_Source\PSoC4/CyFlash.c **** * necessary, modifies it to have a non-zero checksum. After writing to Flash, 
  28:Generated_Source\PSoC4/CyFlash.c **** * the modified data is replaced (Flash program) with 
  29:Generated_Source\PSoC4/CyFlash.c **** * the correct (original) data.
  30:Generated_Source\PSoC4/CyFlash.c **** *******************************************************************************/
  31:Generated_Source\PSoC4/CyFlash.c **** #define CY_FLASH_CHECKSUM_WORKAROUND    (CY_PSOC4_4000 || CY_PSOC4_4100 || CY_PSOC4_4200 || CY_PSOC
ARM GAS  C:\Users\CHUNGN~1\AppData\Local\Temp\ccjIQNej.s 			page 2


  32:Generated_Source\PSoC4/CyFlash.c **** 
  33:Generated_Source\PSoC4/CyFlash.c **** #if (CY_IP_FM || ((!CY_PSOC4_4000) && CY_IP_SPCIF_SYNCHRONOUS) || (!CY_IP_FM) && CY_PSOC4_4000)
  34:Generated_Source\PSoC4/CyFlash.c ****     static CY_SYS_FLASH_CLOCK_BACKUP_STRUCT cySysFlashBackup;
  35:Generated_Source\PSoC4/CyFlash.c **** #endif /* (CY_IP_FM || ((!CY_PSOC4_4000) && CY_IP_SPCIF_SYNCHRONOUS) || (!CY_IP_FM) && CY_PSOC4_400
  36:Generated_Source\PSoC4/CyFlash.c **** 
  37:Generated_Source\PSoC4/CyFlash.c **** static cystatus CySysFlashClockBackup(void);
  38:Generated_Source\PSoC4/CyFlash.c **** static cystatus CySysFlashClockRestore(void);
  39:Generated_Source\PSoC4/CyFlash.c **** #if(CY_IP_SPCIF_SYNCHRONOUS)
  40:Generated_Source\PSoC4/CyFlash.c ****     static cystatus CySysFlashClockConfig(void);
  41:Generated_Source\PSoC4/CyFlash.c **** #endif  /* (CY_IP_SPCIF_SYNCHRONOUS) */
  42:Generated_Source\PSoC4/CyFlash.c **** 
  43:Generated_Source\PSoC4/CyFlash.c **** 
  44:Generated_Source\PSoC4/CyFlash.c **** /*******************************************************************************
  45:Generated_Source\PSoC4/CyFlash.c **** * Function Name: CySysFlashWriteRow
  46:Generated_Source\PSoC4/CyFlash.c **** ****************************************************************************//**
  47:Generated_Source\PSoC4/CyFlash.c **** *
  48:Generated_Source\PSoC4/CyFlash.c **** * Erases a row of Flash and programs it with the new data.
  49:Generated_Source\PSoC4/CyFlash.c **** *
  50:Generated_Source\PSoC4/CyFlash.c **** * The IMO must be enabled before calling this function. The operation of the
  51:Generated_Source\PSoC4/CyFlash.c **** * flash writing hardware is dependent on the IMO.
  52:Generated_Source\PSoC4/CyFlash.c **** *
  53:Generated_Source\PSoC4/CyFlash.c **** * For PSoC 4000, PSoC 4100 BLE and PSoC 4200 BLE devices (PSoC 4100 BLE and
  54:Generated_Source\PSoC4/CyFlash.c **** * PSoC 4200 BLE devices with 256K of Flash memory are not affected), this API
  55:Generated_Source\PSoC4/CyFlash.c **** * will automatically modify the clock settings for the device. Writing to
  56:Generated_Source\PSoC4/CyFlash.c **** * flash requires that changes be made to the IMO and HFCLK settings. The
  57:Generated_Source\PSoC4/CyFlash.c **** * configuration is restored before returning. This will impact the operation
  58:Generated_Source\PSoC4/CyFlash.c **** * of most of the hardware in the device.
  59:Generated_Source\PSoC4/CyFlash.c **** *
  60:Generated_Source\PSoC4/CyFlash.c **** * For PSoC 4000 devices this API will automatically modify the clock settings
  61:Generated_Source\PSoC4/CyFlash.c **** * for the device. Writing to flash requires that changes be made to the IMO
  62:Generated_Source\PSoC4/CyFlash.c **** * and HFCLK settings. The configuration is restored before returning. HFCLK
  63:Generated_Source\PSoC4/CyFlash.c **** * will have several frequency changes during the operation of this API between
  64:Generated_Source\PSoC4/CyFlash.c **** * a minimum frequency of the current IMO frequency divided by 8 and a maximum
  65:Generated_Source\PSoC4/CyFlash.c **** * frequency of 12 MHz. This will impact the operation of most of the hardware
  66:Generated_Source\PSoC4/CyFlash.c **** * in the device.
  67:Generated_Source\PSoC4/CyFlash.c **** *
  68:Generated_Source\PSoC4/CyFlash.c **** * \param rowNum The flash row number. The number of the flash rows is defined by
  69:Generated_Source\PSoC4/CyFlash.c **** * the \ref CY_FLASH_NUMBER_ROWS macro for the selected device. Refer to the
  70:Generated_Source\PSoC4/CyFlash.c **** * device datasheet for the details.
  71:Generated_Source\PSoC4/CyFlash.c **** * \note The target flash array is calculated based on the specified flash row.
  72:Generated_Source\PSoC4/CyFlash.c **** *
  73:Generated_Source\PSoC4/CyFlash.c **** * \param rowData Array of bytes to write. The size of the array must be equal to
  74:Generated_Source\PSoC4/CyFlash.c **** * the flash row size. The flash row size for the selected device is defined by
  75:Generated_Source\PSoC4/CyFlash.c **** * the \ref CY_FLASH_SIZEOF_ROW macro. Refer to the device datasheet for the
  76:Generated_Source\PSoC4/CyFlash.c **** * details.
  77:Generated_Source\PSoC4/CyFlash.c **** *
  78:Generated_Source\PSoC4/CyFlash.c **** * \return \ref group_flash_status_codes
  79:Generated_Source\PSoC4/CyFlash.c **** *
  80:Generated_Source\PSoC4/CyFlash.c **** *******************************************************************************/
  81:Generated_Source\PSoC4/CyFlash.c **** uint32 CySysFlashWriteRow(uint32 rowNum, const uint8 rowData[])
  82:Generated_Source\PSoC4/CyFlash.c **** {
  83:Generated_Source\PSoC4/CyFlash.c ****     volatile uint32 retValue = CY_SYS_FLASH_SUCCESS;
  84:Generated_Source\PSoC4/CyFlash.c ****     volatile uint32 clkCnfRetValue = CY_SYS_FLASH_SUCCESS;
  85:Generated_Source\PSoC4/CyFlash.c ****     volatile uint32 parameters[(CY_FLASH_SIZEOF_ROW + CY_FLASH_SRAM_ROM_DATA) / sizeof(uint32)];
  86:Generated_Source\PSoC4/CyFlash.c ****     uint8  interruptState;
  87:Generated_Source\PSoC4/CyFlash.c **** 
  88:Generated_Source\PSoC4/CyFlash.c ****     #if (CY_FLASH_CHECKSUM_WORKAROUND)
ARM GAS  C:\Users\CHUNGN~1\AppData\Local\Temp\ccjIQNej.s 			page 3


  89:Generated_Source\PSoC4/CyFlash.c ****         uint32 needChecksumWorkaround = 0u;
  90:Generated_Source\PSoC4/CyFlash.c ****         uint32 savedIndex = 0u;
  91:Generated_Source\PSoC4/CyFlash.c ****         uint32 savedValue = 0u;
  92:Generated_Source\PSoC4/CyFlash.c ****         uint32 checksum = 0u;
  93:Generated_Source\PSoC4/CyFlash.c ****         uint32 bits = 0u;
  94:Generated_Source\PSoC4/CyFlash.c ****         uint32 i;
  95:Generated_Source\PSoC4/CyFlash.c ****     #endif  /* (CY_FLASH_CHECKSUM_WORKAROUND) */
  96:Generated_Source\PSoC4/CyFlash.c **** 
  97:Generated_Source\PSoC4/CyFlash.c ****     if ((rowNum < CY_FLASH_NUMBER_ROWS) && (rowData != 0u))
  98:Generated_Source\PSoC4/CyFlash.c ****     {
  99:Generated_Source\PSoC4/CyFlash.c ****         /* Copy data to be written into internal variable */
 100:Generated_Source\PSoC4/CyFlash.c ****         (void)memcpy((void *)&parameters[2u], rowData, CY_FLASH_SIZEOF_ROW);
 101:Generated_Source\PSoC4/CyFlash.c **** 
 102:Generated_Source\PSoC4/CyFlash.c ****         #if (CY_FLASH_CHECKSUM_WORKAROUND)
 103:Generated_Source\PSoC4/CyFlash.c **** 
 104:Generated_Source\PSoC4/CyFlash.c ****             for (i = 2u; i < ((CY_FLASH_SIZEOF_ROW / sizeof(uint32)) + 2u); i++)
 105:Generated_Source\PSoC4/CyFlash.c ****             {
 106:Generated_Source\PSoC4/CyFlash.c ****                 uint32 tmp = parameters[i];
 107:Generated_Source\PSoC4/CyFlash.c ****                 if (tmp != 0u)
 108:Generated_Source\PSoC4/CyFlash.c ****                 {
 109:Generated_Source\PSoC4/CyFlash.c ****                     checksum += tmp;
 110:Generated_Source\PSoC4/CyFlash.c ****                     bits |= tmp;
 111:Generated_Source\PSoC4/CyFlash.c ****                     savedIndex = i;
 112:Generated_Source\PSoC4/CyFlash.c ****                 }
 113:Generated_Source\PSoC4/CyFlash.c ****             }
 114:Generated_Source\PSoC4/CyFlash.c **** 
 115:Generated_Source\PSoC4/CyFlash.c ****             needChecksumWorkaround = ((checksum == 0u) && (bits != 0u)) ? 1u : 0u;
 116:Generated_Source\PSoC4/CyFlash.c ****             if (needChecksumWorkaround != 0u)
 117:Generated_Source\PSoC4/CyFlash.c ****             {
 118:Generated_Source\PSoC4/CyFlash.c ****                 savedValue = parameters[savedIndex];
 119:Generated_Source\PSoC4/CyFlash.c ****                 parameters[savedIndex] = 0u;
 120:Generated_Source\PSoC4/CyFlash.c ****             }
 121:Generated_Source\PSoC4/CyFlash.c ****         #endif  /* (CY_FLASH_CHECKSUM_WORKAROUND) */
 122:Generated_Source\PSoC4/CyFlash.c **** 
 123:Generated_Source\PSoC4/CyFlash.c ****         /* Load Flash Bytes */
 124:Generated_Source\PSoC4/CyFlash.c ****         parameters[0u] = (uint32) (CY_FLASH_GET_MACRO_FROM_ROW(rowNum)        << CY_FLASH_PARAM_MAC
 125:Generated_Source\PSoC4/CyFlash.c ****                          (uint32) (CY_FLASH_PAGE_LATCH_START_ADDR             << CY_FLASH_PARAM_ADD
 126:Generated_Source\PSoC4/CyFlash.c ****                          (uint32) (CY_FLASH_KEY_TWO(CY_FLASH_API_OPCODE_LOAD) << CY_FLASH_PARAM_KEY
 127:Generated_Source\PSoC4/CyFlash.c ****                          CY_FLASH_KEY_ONE;
 128:Generated_Source\PSoC4/CyFlash.c ****         parameters[1u] = CY_FLASH_SIZEOF_ROW - 1u;
 129:Generated_Source\PSoC4/CyFlash.c **** 
 130:Generated_Source\PSoC4/CyFlash.c ****         CY_FLASH_CPUSS_SYSARG_REG = (uint32) &parameters[0u];
 131:Generated_Source\PSoC4/CyFlash.c ****         CY_FLASH_CPUSS_SYSREQ_REG = CY_FLASH_CPUSS_REQ_START | CY_FLASH_API_OPCODE_LOAD;
 132:Generated_Source\PSoC4/CyFlash.c ****         CY_NOP;
 133:Generated_Source\PSoC4/CyFlash.c ****         retValue = CY_FLASH_API_RETURN;
 134:Generated_Source\PSoC4/CyFlash.c **** 
 135:Generated_Source\PSoC4/CyFlash.c ****         if(retValue == CY_SYS_FLASH_SUCCESS)
 136:Generated_Source\PSoC4/CyFlash.c ****         {
 137:Generated_Source\PSoC4/CyFlash.c ****             /***************************************************************
 138:Generated_Source\PSoC4/CyFlash.c ****             * Mask all the exceptions to guarantee that Flash write will
 139:Generated_Source\PSoC4/CyFlash.c ****             * occur in the atomic way. It will not affect system call
 140:Generated_Source\PSoC4/CyFlash.c ****             * execution (flash row write) since it is executed in the NMI
 141:Generated_Source\PSoC4/CyFlash.c ****             * context.
 142:Generated_Source\PSoC4/CyFlash.c ****             ***************************************************************/
 143:Generated_Source\PSoC4/CyFlash.c ****             interruptState = CyEnterCriticalSection();
 144:Generated_Source\PSoC4/CyFlash.c **** 
 145:Generated_Source\PSoC4/CyFlash.c ****             clkCnfRetValue = CySysFlashClockBackup();
ARM GAS  C:\Users\CHUNGN~1\AppData\Local\Temp\ccjIQNej.s 			page 4


 146:Generated_Source\PSoC4/CyFlash.c **** 
 147:Generated_Source\PSoC4/CyFlash.c ****         #if(CY_IP_SPCIF_SYNCHRONOUS)
 148:Generated_Source\PSoC4/CyFlash.c ****             if(clkCnfRetValue == CY_SYS_FLASH_SUCCESS)
 149:Generated_Source\PSoC4/CyFlash.c ****             {
 150:Generated_Source\PSoC4/CyFlash.c ****                 retValue = CySysFlashClockConfig();
 151:Generated_Source\PSoC4/CyFlash.c ****             }
 152:Generated_Source\PSoC4/CyFlash.c ****         #endif  /* (CY_IP_SPCIF_SYNCHRONOUS) */
 153:Generated_Source\PSoC4/CyFlash.c **** 
 154:Generated_Source\PSoC4/CyFlash.c ****             if(retValue == CY_SYS_FLASH_SUCCESS)
 155:Generated_Source\PSoC4/CyFlash.c ****             {
 156:Generated_Source\PSoC4/CyFlash.c ****                 /* Write Row */
 157:Generated_Source\PSoC4/CyFlash.c ****                 parameters[0u]  = (uint32) (((uint32) CY_FLASH_KEY_TWO(CY_FLASH_API_OPCODE_WRITE_RO
 158:Generated_Source\PSoC4/CyFlash.c ****                 parameters[0u] |= (uint32)(rowNum << 16u);
 159:Generated_Source\PSoC4/CyFlash.c **** 
 160:Generated_Source\PSoC4/CyFlash.c ****                 CY_FLASH_CPUSS_SYSARG_REG = (uint32) &parameters[0u];
 161:Generated_Source\PSoC4/CyFlash.c ****                 CY_FLASH_CPUSS_SYSREQ_REG = CY_FLASH_CPUSS_REQ_START | CY_FLASH_API_OPCODE_WRITE_RO
 162:Generated_Source\PSoC4/CyFlash.c ****                 CY_NOP;
 163:Generated_Source\PSoC4/CyFlash.c ****                 retValue = CY_FLASH_API_RETURN;
 164:Generated_Source\PSoC4/CyFlash.c ****             }
 165:Generated_Source\PSoC4/CyFlash.c **** 
 166:Generated_Source\PSoC4/CyFlash.c ****             #if (CY_FLASH_CHECKSUM_WORKAROUND)
 167:Generated_Source\PSoC4/CyFlash.c **** 
 168:Generated_Source\PSoC4/CyFlash.c ****                 if ((retValue == CYRET_SUCCESS) && (needChecksumWorkaround != 0u))
 169:Generated_Source\PSoC4/CyFlash.c ****                 {
 170:Generated_Source\PSoC4/CyFlash.c ****                     (void)memset((void *)&parameters[2u], 0, CY_FLASH_SIZEOF_ROW);
 171:Generated_Source\PSoC4/CyFlash.c ****                     parameters[savedIndex] = savedValue;
 172:Generated_Source\PSoC4/CyFlash.c **** 
 173:Generated_Source\PSoC4/CyFlash.c ****                     /* Load Flash Bytes */
 174:Generated_Source\PSoC4/CyFlash.c ****                     parameters[0u] = (uint32) (CY_FLASH_GET_MACRO_FROM_ROW(rowNum)        << CY_FLA
 175:Generated_Source\PSoC4/CyFlash.c ****                                      (uint32) (CY_FLASH_PAGE_LATCH_START_ADDR             << CY_FLA
 176:Generated_Source\PSoC4/CyFlash.c ****                                      (uint32) (CY_FLASH_KEY_TWO(CY_FLASH_API_OPCODE_LOAD) << CY_FLA
 177:Generated_Source\PSoC4/CyFlash.c ****                                      CY_FLASH_KEY_ONE;
 178:Generated_Source\PSoC4/CyFlash.c ****                     parameters[1u] = CY_FLASH_SIZEOF_ROW - 1u;
 179:Generated_Source\PSoC4/CyFlash.c **** 
 180:Generated_Source\PSoC4/CyFlash.c ****                     CY_FLASH_CPUSS_SYSARG_REG = (uint32) &parameters[0u];
 181:Generated_Source\PSoC4/CyFlash.c ****                     CY_FLASH_CPUSS_SYSREQ_REG = CY_FLASH_CPUSS_REQ_START | CY_FLASH_API_OPCODE_LOAD
 182:Generated_Source\PSoC4/CyFlash.c ****                     CY_NOP;
 183:Generated_Source\PSoC4/CyFlash.c ****                     retValue = CY_FLASH_API_RETURN;
 184:Generated_Source\PSoC4/CyFlash.c **** 
 185:Generated_Source\PSoC4/CyFlash.c **** 
 186:Generated_Source\PSoC4/CyFlash.c ****                     if(retValue == CY_SYS_FLASH_SUCCESS)
 187:Generated_Source\PSoC4/CyFlash.c ****                     {
 188:Generated_Source\PSoC4/CyFlash.c ****                         /* Program Row */
 189:Generated_Source\PSoC4/CyFlash.c ****                         parameters[0u]  =
 190:Generated_Source\PSoC4/CyFlash.c ****                             (uint32) (((uint32) CY_FLASH_KEY_TWO(CY_FLASH_API_OPCODE_PROGRAM_ROW) <
 191:Generated_Source\PSoC4/CyFlash.c ****                                                     CY_FLASH_PARAM_KEY_TWO_OFFSET) | CY_FLASH_KEY_O
 192:Generated_Source\PSoC4/CyFlash.c ****                         parameters[0u] |= (uint32)(rowNum << 16u);
 193:Generated_Source\PSoC4/CyFlash.c **** 
 194:Generated_Source\PSoC4/CyFlash.c ****                         CY_FLASH_CPUSS_SYSARG_REG = (uint32) &parameters[0u];
 195:Generated_Source\PSoC4/CyFlash.c ****                         CY_FLASH_CPUSS_SYSREQ_REG = CY_FLASH_CPUSS_REQ_START | CY_FLASH_API_OPCODE_
 196:Generated_Source\PSoC4/CyFlash.c ****                         CY_NOP;
 197:Generated_Source\PSoC4/CyFlash.c ****                         retValue = CY_FLASH_API_RETURN;
 198:Generated_Source\PSoC4/CyFlash.c ****                     }
 199:Generated_Source\PSoC4/CyFlash.c ****                 }
 200:Generated_Source\PSoC4/CyFlash.c ****             #endif  /* (CY_FLASH_CHECKSUM_WORKAROUND) */
 201:Generated_Source\PSoC4/CyFlash.c **** 
 202:Generated_Source\PSoC4/CyFlash.c ****             if(clkCnfRetValue == CY_SYS_FLASH_SUCCESS)
ARM GAS  C:\Users\CHUNGN~1\AppData\Local\Temp\ccjIQNej.s 			page 5


 203:Generated_Source\PSoC4/CyFlash.c ****             {
 204:Generated_Source\PSoC4/CyFlash.c ****                 clkCnfRetValue = CySysFlashClockRestore();
 205:Generated_Source\PSoC4/CyFlash.c **** 
 206:Generated_Source\PSoC4/CyFlash.c ****                 if(clkCnfRetValue != CY_SYS_FLASH_SUCCESS)
 207:Generated_Source\PSoC4/CyFlash.c ****                 {
 208:Generated_Source\PSoC4/CyFlash.c ****                     retValue = clkCnfRetValue;
 209:Generated_Source\PSoC4/CyFlash.c ****                 }
 210:Generated_Source\PSoC4/CyFlash.c ****             }
 211:Generated_Source\PSoC4/CyFlash.c **** 
 212:Generated_Source\PSoC4/CyFlash.c ****             CyExitCriticalSection(interruptState);
 213:Generated_Source\PSoC4/CyFlash.c ****         }
 214:Generated_Source\PSoC4/CyFlash.c ****     }
 215:Generated_Source\PSoC4/CyFlash.c ****     else
 216:Generated_Source\PSoC4/CyFlash.c ****     {
 217:Generated_Source\PSoC4/CyFlash.c ****         retValue = CY_SYS_FLASH_INVALID_ADDR;
 218:Generated_Source\PSoC4/CyFlash.c ****     }
 219:Generated_Source\PSoC4/CyFlash.c **** 
 220:Generated_Source\PSoC4/CyFlash.c ****     return (retValue);
 221:Generated_Source\PSoC4/CyFlash.c **** }
 222:Generated_Source\PSoC4/CyFlash.c **** 
 223:Generated_Source\PSoC4/CyFlash.c **** 
 224:Generated_Source\PSoC4/CyFlash.c **** 
 225:Generated_Source\PSoC4/CyFlash.c **** #if (CY_IP_FLASH_PARALLEL_PGM_EN && (CY_IP_FLASH_MACROS > 1u))
 226:Generated_Source\PSoC4/CyFlash.c **** /*******************************************************************************
 227:Generated_Source\PSoC4/CyFlash.c **** * Function Name: CySysFlashStartWriteRow
 228:Generated_Source\PSoC4/CyFlash.c **** ****************************************************************************//**
 229:Generated_Source\PSoC4/CyFlash.c **** *
 230:Generated_Source\PSoC4/CyFlash.c **** * Initiates a write to a row of Flash. A call to this API is non-blocking. 
 231:Generated_Source\PSoC4/CyFlash.c **** * Use CySysFlashResumeWriteRow() to resume flash writes and 
 232:Generated_Source\PSoC4/CyFlash.c **** * CySysFlashGetWriteRowStatus() to ascertain status of the write operation.
 233:Generated_Source\PSoC4/CyFlash.c **** *
 234:Generated_Source\PSoC4/CyFlash.c **** * The devices require HFCLK to be sourced by 48 MHz IMO during flash write.
 235:Generated_Source\PSoC4/CyFlash.c **** * This API will modify IMO configuration; it can be later restored to original
 236:Generated_Source\PSoC4/CyFlash.c **** * configuration by calling \ref CySysFlashGetWriteRowStatus().
 237:Generated_Source\PSoC4/CyFlash.c **** *
 238:Generated_Source\PSoC4/CyFlash.c **** * \note The non-blocking operation does not return success status 
 239:Generated_Source\PSoC4/CyFlash.c **** * CY_SYS_FLASH_SUCCESS until the last \ref CySysFlashResumeWriteRow API 
 240:Generated_Source\PSoC4/CyFlash.c **** * is complete. The CPUSS_SYSARG register will be reflecting the SRAM address 
 241:Generated_Source\PSoC4/CyFlash.c **** * during an ongoing non-blocking operation.
 242:Generated_Source\PSoC4/CyFlash.c **** *    
 243:Generated_Source\PSoC4/CyFlash.c **** * \param rowNum The flash row number. The number of the flash rows is defined by
 244:Generated_Source\PSoC4/CyFlash.c **** * the \ref CY_FLASH_NUMBER_ROWS macro for the selected device. Refer to the
 245:Generated_Source\PSoC4/CyFlash.c **** * device datasheet for the details.
 246:Generated_Source\PSoC4/CyFlash.c **** * \note The target flash array is calculated based on the specified flash row.
 247:Generated_Source\PSoC4/CyFlash.c **** *
 248:Generated_Source\PSoC4/CyFlash.c **** * \param rowData Array of bytes to write. The size of the array must be equal to
 249:Generated_Source\PSoC4/CyFlash.c **** * the flash row size. The flash row size for the selected device is defined by
 250:Generated_Source\PSoC4/CyFlash.c **** * the \ref CY_FLASH_SIZEOF_ROW macro. Refer to the device datasheet for the
 251:Generated_Source\PSoC4/CyFlash.c **** * details.
 252:Generated_Source\PSoC4/CyFlash.c **** *
 253:Generated_Source\PSoC4/CyFlash.c **** * \return \ref group_flash_status_codes
 254:Generated_Source\PSoC4/CyFlash.c **** *
 255:Generated_Source\PSoC4/CyFlash.c **** *******************************************************************************/
 256:Generated_Source\PSoC4/CyFlash.c **** uint32 CySysFlashStartWriteRow(uint32 rowNum, const uint8 rowData[])
 257:Generated_Source\PSoC4/CyFlash.c **** {
 258:Generated_Source\PSoC4/CyFlash.c ****     volatile uint32 retValue = CY_SYS_FLASH_SUCCESS;
 259:Generated_Source\PSoC4/CyFlash.c ****     volatile uint32 parameters[(CY_FLASH_SIZEOF_ROW + CY_FLASH_SRAM_ROM_DATA) / sizeof(uint32)];
ARM GAS  C:\Users\CHUNGN~1\AppData\Local\Temp\ccjIQNej.s 			page 6


 260:Generated_Source\PSoC4/CyFlash.c ****     uint8  interruptState;
 261:Generated_Source\PSoC4/CyFlash.c **** 
 262:Generated_Source\PSoC4/CyFlash.c **** #if(CY_IP_SPCIF_SYNCHRONOUS)
 263:Generated_Source\PSoC4/CyFlash.c ****     volatile uint32 clkCnfRetValue = CY_SYS_FLASH_SUCCESS;
 264:Generated_Source\PSoC4/CyFlash.c **** #endif  /* (CY_IP_SPCIF_SYNCHRONOUS) */    
 265:Generated_Source\PSoC4/CyFlash.c **** 
 266:Generated_Source\PSoC4/CyFlash.c ****     if ((rowNum < CY_FLASH_NUMBER_ROWS) && (rowData != 0u))
 267:Generated_Source\PSoC4/CyFlash.c ****     {
 268:Generated_Source\PSoC4/CyFlash.c ****         /* Copy data to be written into internal variable */
 269:Generated_Source\PSoC4/CyFlash.c ****         (void)memcpy((void *)&parameters[2u], rowData, CY_FLASH_SIZEOF_ROW);
 270:Generated_Source\PSoC4/CyFlash.c **** 
 271:Generated_Source\PSoC4/CyFlash.c ****         /* Load Flash Bytes */
 272:Generated_Source\PSoC4/CyFlash.c ****         parameters[0u] = (uint32) (CY_FLASH_GET_MACRO_FROM_ROW(rowNum)        << CY_FLASH_PARAM_MAC
 273:Generated_Source\PSoC4/CyFlash.c ****                          (uint32) (CY_FLASH_PAGE_LATCH_START_ADDR             << CY_FLASH_PARAM_ADD
 274:Generated_Source\PSoC4/CyFlash.c ****                          (uint32) (CY_FLASH_KEY_TWO(CY_FLASH_API_OPCODE_LOAD) << CY_FLASH_PARAM_KEY
 275:Generated_Source\PSoC4/CyFlash.c ****                          CY_FLASH_KEY_ONE;
 276:Generated_Source\PSoC4/CyFlash.c ****         parameters[1u] = CY_FLASH_SIZEOF_ROW - 1u;
 277:Generated_Source\PSoC4/CyFlash.c **** 
 278:Generated_Source\PSoC4/CyFlash.c ****         CY_FLASH_CPUSS_SYSARG_REG = (uint32) &parameters[0u];
 279:Generated_Source\PSoC4/CyFlash.c ****         CY_FLASH_CPUSS_SYSREQ_REG = CY_FLASH_CPUSS_REQ_START | CY_FLASH_API_OPCODE_LOAD;
 280:Generated_Source\PSoC4/CyFlash.c ****         CY_NOP;
 281:Generated_Source\PSoC4/CyFlash.c ****         retValue = CY_FLASH_API_RETURN;
 282:Generated_Source\PSoC4/CyFlash.c **** 
 283:Generated_Source\PSoC4/CyFlash.c ****         if(retValue == CY_SYS_FLASH_SUCCESS)
 284:Generated_Source\PSoC4/CyFlash.c ****         {
 285:Generated_Source\PSoC4/CyFlash.c ****             /***************************************************************
 286:Generated_Source\PSoC4/CyFlash.c ****             * Mask all the exceptions to guarantee that Flash write will
 287:Generated_Source\PSoC4/CyFlash.c ****             * occur in the atomic way. It will not affect system call
 288:Generated_Source\PSoC4/CyFlash.c ****             * execution (flash row write) since it is executed in the NMI
 289:Generated_Source\PSoC4/CyFlash.c ****             * context.
 290:Generated_Source\PSoC4/CyFlash.c ****             ***************************************************************/
 291:Generated_Source\PSoC4/CyFlash.c ****             interruptState = CyEnterCriticalSection();
 292:Generated_Source\PSoC4/CyFlash.c **** 
 293:Generated_Source\PSoC4/CyFlash.c ****         #if(CY_IP_SPCIF_SYNCHRONOUS)
 294:Generated_Source\PSoC4/CyFlash.c ****             clkCnfRetValue = CySysFlashClockBackup();
 295:Generated_Source\PSoC4/CyFlash.c ****             
 296:Generated_Source\PSoC4/CyFlash.c ****             if(clkCnfRetValue == CY_SYS_FLASH_SUCCESS)
 297:Generated_Source\PSoC4/CyFlash.c ****             {
 298:Generated_Source\PSoC4/CyFlash.c ****                 retValue = CySysFlashClockConfig();
 299:Generated_Source\PSoC4/CyFlash.c ****             }
 300:Generated_Source\PSoC4/CyFlash.c ****         #else
 301:Generated_Source\PSoC4/CyFlash.c ****             (void)CySysFlashClockBackup();
 302:Generated_Source\PSoC4/CyFlash.c ****         #endif  /* (CY_IP_SPCIF_SYNCHRONOUS) */
 303:Generated_Source\PSoC4/CyFlash.c **** 
 304:Generated_Source\PSoC4/CyFlash.c ****             if(retValue == CY_SYS_FLASH_SUCCESS)
 305:Generated_Source\PSoC4/CyFlash.c ****             {
 306:Generated_Source\PSoC4/CyFlash.c ****                 /* Non-blocking Write Row */
 307:Generated_Source\PSoC4/CyFlash.c ****                 parameters[0u]  = (uint32) (((uint32) CY_FLASH_KEY_TWO(CY_FLASH_API_OPCODE_NON_BLOC
 308:Generated_Source\PSoC4/CyFlash.c ****                                                         CY_FLASH_PARAM_KEY_TWO_OFFSET) | CY_FLASH_K
 309:Generated_Source\PSoC4/CyFlash.c ****                 parameters[0u] |= (uint32)(rowNum << 16u);
 310:Generated_Source\PSoC4/CyFlash.c **** 
 311:Generated_Source\PSoC4/CyFlash.c ****                 CY_FLASH_CPUSS_SYSARG_REG = (uint32) &parameters[0u];
 312:Generated_Source\PSoC4/CyFlash.c ****                 CY_FLASH_CPUSS_SYSREQ_REG = CY_FLASH_CPUSS_REQ_START | CY_FLASH_API_OPCODE_NON_BLOC
 313:Generated_Source\PSoC4/CyFlash.c ****                 CY_NOP;
 314:Generated_Source\PSoC4/CyFlash.c ****                 retValue = CY_FLASH_API_RETURN;
 315:Generated_Source\PSoC4/CyFlash.c ****             }
 316:Generated_Source\PSoC4/CyFlash.c **** 
ARM GAS  C:\Users\CHUNGN~1\AppData\Local\Temp\ccjIQNej.s 			page 7


 317:Generated_Source\PSoC4/CyFlash.c ****             CyExitCriticalSection(interruptState);
 318:Generated_Source\PSoC4/CyFlash.c ****         }
 319:Generated_Source\PSoC4/CyFlash.c ****     }
 320:Generated_Source\PSoC4/CyFlash.c ****     else
 321:Generated_Source\PSoC4/CyFlash.c ****     {
 322:Generated_Source\PSoC4/CyFlash.c ****         retValue = CY_SYS_FLASH_INVALID_ADDR;
 323:Generated_Source\PSoC4/CyFlash.c ****     }
 324:Generated_Source\PSoC4/CyFlash.c **** 
 325:Generated_Source\PSoC4/CyFlash.c ****     return (retValue);
 326:Generated_Source\PSoC4/CyFlash.c **** }
 327:Generated_Source\PSoC4/CyFlash.c **** 
 328:Generated_Source\PSoC4/CyFlash.c **** 
 329:Generated_Source\PSoC4/CyFlash.c **** /*******************************************************************************
 330:Generated_Source\PSoC4/CyFlash.c **** * Function Name: CySysFlashGetWriteRowStatus
 331:Generated_Source\PSoC4/CyFlash.c **** ****************************************************************************//**
 332:Generated_Source\PSoC4/CyFlash.c **** *
 333:Generated_Source\PSoC4/CyFlash.c **** * Returns the current status of the flash write operation.
 334:Generated_Source\PSoC4/CyFlash.c **** *
 335:Generated_Source\PSoC4/CyFlash.c **** ** \note The non-blocking operation does not return success status 
 336:Generated_Source\PSoC4/CyFlash.c **** * CY_SYS_FLASH_SUCCESS until the last \ref CySysFlashResumeWriteRow API 
 337:Generated_Source\PSoC4/CyFlash.c **** * is complete. The CPUSS_SYSARG register will be reflecting the SRAM address 
 338:Generated_Source\PSoC4/CyFlash.c **** * during an ongoing non-blocking operation.
 339:Generated_Source\PSoC4/CyFlash.c **** * Calling this API before starting a non-blocking write row operation 
 340:Generated_Source\PSoC4/CyFlash.c **** * using the \ref CySysFlashStartWriteRow() API will cause improper operation.
 341:Generated_Source\PSoC4/CyFlash.c **** *
 342:Generated_Source\PSoC4/CyFlash.c **** * \return \ref group_flash_status_codes
 343:Generated_Source\PSoC4/CyFlash.c **** *
 344:Generated_Source\PSoC4/CyFlash.c **** *******************************************************************************/
 345:Generated_Source\PSoC4/CyFlash.c **** uint32 CySysFlashGetWriteRowStatus(void)
 346:Generated_Source\PSoC4/CyFlash.c **** {
 347:Generated_Source\PSoC4/CyFlash.c ****     volatile uint32 retValue = CY_SYS_FLASH_SUCCESS;
 348:Generated_Source\PSoC4/CyFlash.c **** 
 349:Generated_Source\PSoC4/CyFlash.c ****     CY_NOP;
 350:Generated_Source\PSoC4/CyFlash.c ****     retValue = CY_FLASH_API_RETURN;
 351:Generated_Source\PSoC4/CyFlash.c **** 
 352:Generated_Source\PSoC4/CyFlash.c ****     (void) CySysFlashClockRestore();
 353:Generated_Source\PSoC4/CyFlash.c **** 
 354:Generated_Source\PSoC4/CyFlash.c ****     return (retValue);
 355:Generated_Source\PSoC4/CyFlash.c **** }
 356:Generated_Source\PSoC4/CyFlash.c **** 
 357:Generated_Source\PSoC4/CyFlash.c **** 
 358:Generated_Source\PSoC4/CyFlash.c **** /*******************************************************************************
 359:Generated_Source\PSoC4/CyFlash.c **** * Function Name: CySysFlashResumeWriteRow
 360:Generated_Source\PSoC4/CyFlash.c **** ****************************************************************************//**
 361:Generated_Source\PSoC4/CyFlash.c **** *
 362:Generated_Source\PSoC4/CyFlash.c **** * This API must be called, once the SPC interrupt is triggered to complete the
 363:Generated_Source\PSoC4/CyFlash.c **** * non-blocking operation. It is advised not to prolong calling this API for
 364:Generated_Source\PSoC4/CyFlash.c **** * more than 25 ms.
 365:Generated_Source\PSoC4/CyFlash.c **** *
 366:Generated_Source\PSoC4/CyFlash.c **** * The non-blocking write row API \ref CySysFlashStartWriteRow() requires that
 367:Generated_Source\PSoC4/CyFlash.c **** * this API be called 3 times to complete the write. This can be done by
 368:Generated_Source\PSoC4/CyFlash.c **** * configuring SPCIF interrupt and placing a call to this API.
 369:Generated_Source\PSoC4/CyFlash.c **** *
 370:Generated_Source\PSoC4/CyFlash.c **** * For CM0 based device, a non-blocking call to program a row of macro 0
 371:Generated_Source\PSoC4/CyFlash.c **** * requires the user to set the CPUSS_CONFIG.VECS_IN_RAM bit so that the
 372:Generated_Source\PSoC4/CyFlash.c **** * interrupt vector for the SPC is fetched from the SRAM rather than the FLASH.
 373:Generated_Source\PSoC4/CyFlash.c **** *
ARM GAS  C:\Users\CHUNGN~1\AppData\Local\Temp\ccjIQNej.s 			page 8


 374:Generated_Source\PSoC4/CyFlash.c **** * For CM0+ based device, if the user wants to keep the vector table in flash
 375:Generated_Source\PSoC4/CyFlash.c **** * when performing non-blocking flash write then they need to make sure the
 376:Generated_Source\PSoC4/CyFlash.c **** * vector table is placed in the flash macro which is not getting programmed by
 377:Generated_Source\PSoC4/CyFlash.c **** * configuring the VTOR register.
 378:Generated_Source\PSoC4/CyFlash.c **** *
 379:Generated_Source\PSoC4/CyFlash.c **** * \note The non-blocking operation does not return success status 
 380:Generated_Source\PSoC4/CyFlash.c **** * CY_SYS_FLASH_SUCCESS until the last Resume API is complete. 
 381:Generated_Source\PSoC4/CyFlash.c **** * The CPUSS_SYSARG register will be reflecting the SRAM address during an 
 382:Generated_Source\PSoC4/CyFlash.c **** * ongoing non-blocking operation.
 383:Generated_Source\PSoC4/CyFlash.c **** *
 384:Generated_Source\PSoC4/CyFlash.c **** * \return \ref group_flash_status_codes
 385:Generated_Source\PSoC4/CyFlash.c **** *
 386:Generated_Source\PSoC4/CyFlash.c **** *******************************************************************************/
 387:Generated_Source\PSoC4/CyFlash.c **** uint32 CySysFlashResumeWriteRow(void)
 388:Generated_Source\PSoC4/CyFlash.c **** {
 389:Generated_Source\PSoC4/CyFlash.c ****     volatile uint32 retValue = CY_SYS_FLASH_SUCCESS;
 390:Generated_Source\PSoC4/CyFlash.c ****     static volatile uint32 parameters[1u];
 391:Generated_Source\PSoC4/CyFlash.c **** 
 392:Generated_Source\PSoC4/CyFlash.c ****     /* Resume */
 393:Generated_Source\PSoC4/CyFlash.c ****     parameters[0u] = (uint32) (((uint32) CY_FLASH_KEY_TWO(CY_FLASH_API_OPCODE_RESUME_NON_BLOCKING) 
 394:Generated_Source\PSoC4/CyFlash.c ****                                          CY_FLASH_PARAM_KEY_TWO_OFFSET) | CY_FLASH_KEY_ONE);
 395:Generated_Source\PSoC4/CyFlash.c ****     CY_FLASH_CPUSS_SYSARG_REG = (uint32) &parameters[0u];
 396:Generated_Source\PSoC4/CyFlash.c ****     CY_FLASH_CPUSS_SYSREQ_REG = CY_FLASH_CPUSS_REQ_START | CY_FLASH_API_OPCODE_RESUME_NON_BLOCKING;
 397:Generated_Source\PSoC4/CyFlash.c ****     
 398:Generated_Source\PSoC4/CyFlash.c ****     CY_NOP;
 399:Generated_Source\PSoC4/CyFlash.c ****     retValue = CY_FLASH_API_RETURN;
 400:Generated_Source\PSoC4/CyFlash.c ****     
 401:Generated_Source\PSoC4/CyFlash.c ****     return (retValue);
 402:Generated_Source\PSoC4/CyFlash.c **** }
 403:Generated_Source\PSoC4/CyFlash.c **** 
 404:Generated_Source\PSoC4/CyFlash.c **** #endif /* (CY_IP_FLASH_PARALLEL_PGM_EN && (CY_IP_FLASH_MACROS > 1u)) */
 405:Generated_Source\PSoC4/CyFlash.c **** 
 406:Generated_Source\PSoC4/CyFlash.c **** 
 407:Generated_Source\PSoC4/CyFlash.c **** /*******************************************************************************
 408:Generated_Source\PSoC4/CyFlash.c **** * Function Name: CySysFlashSetWaitCycles
 409:Generated_Source\PSoC4/CyFlash.c **** ****************************************************************************//**
 410:Generated_Source\PSoC4/CyFlash.c **** *
 411:Generated_Source\PSoC4/CyFlash.c **** * Sets the number of clock cycles the cache will wait before it samples data
 412:Generated_Source\PSoC4/CyFlash.c **** * coming back from Flash. This function must be called before increasing the
 413:Generated_Source\PSoC4/CyFlash.c **** * SYSCLK clock frequency. It can optionally be called after lowering SYSCLK
 414:Generated_Source\PSoC4/CyFlash.c **** * clock frequency in order to improve the CPU performance.
 415:Generated_Source\PSoC4/CyFlash.c **** *
 416:Generated_Source\PSoC4/CyFlash.c **** * \param freq The System clock frequency in MHz.
 417:Generated_Source\PSoC4/CyFlash.c **** *
 418:Generated_Source\PSoC4/CyFlash.c **** * \note Invalid frequency will be ignored in Release mode and the CPU will be
 419:Generated_Source\PSoC4/CyFlash.c **** * halted if project is compiled in Debug mode.
 420:Generated_Source\PSoC4/CyFlash.c **** *
 421:Generated_Source\PSoC4/CyFlash.c **** *******************************************************************************/
 422:Generated_Source\PSoC4/CyFlash.c **** void CySysFlashSetWaitCycles(uint32 freq)
 423:Generated_Source\PSoC4/CyFlash.c **** {
 424:Generated_Source\PSoC4/CyFlash.c ****     uint8  interruptState;
 425:Generated_Source\PSoC4/CyFlash.c **** 
 426:Generated_Source\PSoC4/CyFlash.c ****     interruptState = CyEnterCriticalSection();
 427:Generated_Source\PSoC4/CyFlash.c **** 
 428:Generated_Source\PSoC4/CyFlash.c ****     #if (CY_IP_CPUSS)
 429:Generated_Source\PSoC4/CyFlash.c **** 
 430:Generated_Source\PSoC4/CyFlash.c ****         if ( freq <= CY_FLASH_SYSCLK_BOUNDARY_MHZ )
ARM GAS  C:\Users\CHUNGN~1\AppData\Local\Temp\ccjIQNej.s 			page 9


 431:Generated_Source\PSoC4/CyFlash.c ****         {
 432:Generated_Source\PSoC4/CyFlash.c ****             CY_SYS_CLK_SELECT_REG &= (uint32)(~CY_FLASH_WAIT_STATE_EN);
 433:Generated_Source\PSoC4/CyFlash.c ****         }
 434:Generated_Source\PSoC4/CyFlash.c ****         else
 435:Generated_Source\PSoC4/CyFlash.c ****         {
 436:Generated_Source\PSoC4/CyFlash.c ****             CY_SYS_CLK_SELECT_REG |= CY_FLASH_WAIT_STATE_EN;
 437:Generated_Source\PSoC4/CyFlash.c ****         }
 438:Generated_Source\PSoC4/CyFlash.c ****     #else
 439:Generated_Source\PSoC4/CyFlash.c ****         #if (CY_IP_CPUSS_FLASHC_PRESENT)
 440:Generated_Source\PSoC4/CyFlash.c ****             /* CY_IP_FM and CY_IP_FS */
 441:Generated_Source\PSoC4/CyFlash.c ****             if (freq <= CY_FLASH_CTL_WS_0_FREQ_MAX)
 442:Generated_Source\PSoC4/CyFlash.c ****             {
 443:Generated_Source\PSoC4/CyFlash.c ****                 CY_FLASH_CTL_REG = (CY_FLASH_CTL_REG & ~CY_FLASH_CTL_WS_MASK) | CY_FLASH_CTL_WS_0_V
 444:Generated_Source\PSoC4/CyFlash.c ****             } else
 445:Generated_Source\PSoC4/CyFlash.c ****             if (freq <= CY_FLASH_CTL_WS_1_FREQ_MAX)
 446:Generated_Source\PSoC4/CyFlash.c ****             {
 447:Generated_Source\PSoC4/CyFlash.c ****                 CY_FLASH_CTL_REG = (CY_FLASH_CTL_REG & ~CY_FLASH_CTL_WS_MASK) | CY_FLASH_CTL_WS_1_V
 448:Generated_Source\PSoC4/CyFlash.c ****             } else
 449:Generated_Source\PSoC4/CyFlash.c ****             #if (CY_IP_FMLT || CY_IP_FSLT)
 450:Generated_Source\PSoC4/CyFlash.c ****                 if (freq <= CY_FLASH_CTL_WS_2_FREQ_MAX)
 451:Generated_Source\PSoC4/CyFlash.c ****                 {
 452:Generated_Source\PSoC4/CyFlash.c ****                     CY_FLASH_CTL_REG = (CY_FLASH_CTL_REG & ~CY_FLASH_CTL_WS_MASK) | CY_FLASH_CTL_WS
 453:Generated_Source\PSoC4/CyFlash.c ****                 }
 454:Generated_Source\PSoC4/CyFlash.c ****                 else
 455:Generated_Source\PSoC4/CyFlash.c ****             #endif  /* (CY_IP_FMLT || CY_IP_FSLT) */
 456:Generated_Source\PSoC4/CyFlash.c ****         #endif /* (CY_IP_CPUSS_FLASHC_PRESENT) */
 457:Generated_Source\PSoC4/CyFlash.c ****         {
 458:Generated_Source\PSoC4/CyFlash.c ****             /* Halt CPU in debug mode if frequency is invalid */
 459:Generated_Source\PSoC4/CyFlash.c ****             CYASSERT(0u != 0u);
 460:Generated_Source\PSoC4/CyFlash.c ****         }
 461:Generated_Source\PSoC4/CyFlash.c **** 
 462:Generated_Source\PSoC4/CyFlash.c ****     #endif  /* (CY_IP_CPUSS) */
 463:Generated_Source\PSoC4/CyFlash.c **** 
 464:Generated_Source\PSoC4/CyFlash.c ****     CyExitCriticalSection(interruptState);
 465:Generated_Source\PSoC4/CyFlash.c **** }
 466:Generated_Source\PSoC4/CyFlash.c **** 
 467:Generated_Source\PSoC4/CyFlash.c **** 
 468:Generated_Source\PSoC4/CyFlash.c **** #if (CY_SFLASH_XTRA_ROWS)
 469:Generated_Source\PSoC4/CyFlash.c **** /*******************************************************************************
 470:Generated_Source\PSoC4/CyFlash.c **** * Function Name: CySysSFlashWriteUserRow
 471:Generated_Source\PSoC4/CyFlash.c **** ****************************************************************************//**
 472:Generated_Source\PSoC4/CyFlash.c **** *
 473:Generated_Source\PSoC4/CyFlash.c **** * Writes data to a row of SFlash user configurable area.
 474:Generated_Source\PSoC4/CyFlash.c **** *
 475:Generated_Source\PSoC4/CyFlash.c **** * This API is applicable for PSoC 4100 BLE, PSoC 4200 BLE, PSoC 4100M,
 476:Generated_Source\PSoC4/CyFlash.c **** * PSoC 4200M, and PSoC 4200L family of devices.
 477:Generated_Source\PSoC4/CyFlash.c **** *
 478:Generated_Source\PSoC4/CyFlash.c **** * \param rowNum The flash row number. The flash row number. The number of the
 479:Generated_Source\PSoC4/CyFlash.c **** * flash rows is defined by the CY_SFLASH_NUMBER_USERROWS macro for the selected
 480:Generated_Source\PSoC4/CyFlash.c **** * device. Valid range is 0-3. Refer to the device TRM for details.
 481:Generated_Source\PSoC4/CyFlash.c **** *
 482:Generated_Source\PSoC4/CyFlash.c **** * \param rowData Array of bytes to write. The size of the array must be equal to
 483:Generated_Source\PSoC4/CyFlash.c **** * the flash row size. The flash row size for the selected device is defined by
 484:Generated_Source\PSoC4/CyFlash.c **** * the \ref CY_SFLASH_SIZEOF_USERROW macro. Refer to the device TRM for the
 485:Generated_Source\PSoC4/CyFlash.c **** * details.
 486:Generated_Source\PSoC4/CyFlash.c **** *
 487:Generated_Source\PSoC4/CyFlash.c **** * \return \ref group_flash_status_codes
ARM GAS  C:\Users\CHUNGN~1\AppData\Local\Temp\ccjIQNej.s 			page 10


 488:Generated_Source\PSoC4/CyFlash.c **** *
 489:Generated_Source\PSoC4/CyFlash.c **** *******************************************************************************/
 490:Generated_Source\PSoC4/CyFlash.c **** uint32 CySysSFlashWriteUserRow(uint32 rowNum, const uint8 rowData[])
 491:Generated_Source\PSoC4/CyFlash.c **** {
 492:Generated_Source\PSoC4/CyFlash.c ****     volatile uint32 retValue = CY_SYS_FLASH_SUCCESS;
 493:Generated_Source\PSoC4/CyFlash.c ****     volatile uint32 clkCnfRetValue = CY_SYS_FLASH_SUCCESS;
 494:Generated_Source\PSoC4/CyFlash.c ****     volatile uint32 parameters[(CY_FLASH_SIZEOF_ROW + CY_FLASH_SRAM_ROM_DATA)/4u];
 495:Generated_Source\PSoC4/CyFlash.c ****     uint8  interruptState;
 496:Generated_Source\PSoC4/CyFlash.c **** 
 497:Generated_Source\PSoC4/CyFlash.c **** 
 498:Generated_Source\PSoC4/CyFlash.c ****     if ((rowNum < CY_SFLASH_NUMBER_USERROWS) && (rowData != 0u))
 499:Generated_Source\PSoC4/CyFlash.c ****     {
 500:Generated_Source\PSoC4/CyFlash.c ****         /* Load Flash Bytes */
 501:Generated_Source\PSoC4/CyFlash.c ****         parameters[0u] = (uint32) (CY_FLASH_GET_MACRO_FROM_ROW(rowNum)        << CY_FLASH_PARAM_MAC
 502:Generated_Source\PSoC4/CyFlash.c ****                          (uint32) (CY_FLASH_PAGE_LATCH_START_ADDR             << CY_FLASH_PARAM_ADD
 503:Generated_Source\PSoC4/CyFlash.c ****                          (uint32) (CY_FLASH_KEY_TWO(CY_FLASH_API_OPCODE_LOAD) << CY_FLASH_PARAM_KEY
 504:Generated_Source\PSoC4/CyFlash.c ****                          CY_FLASH_KEY_ONE;
 505:Generated_Source\PSoC4/CyFlash.c ****         parameters[1u] = CY_FLASH_SIZEOF_ROW - 1u;
 506:Generated_Source\PSoC4/CyFlash.c **** 
 507:Generated_Source\PSoC4/CyFlash.c ****         (void)memcpy((void *)&parameters[2u], rowData, CY_FLASH_SIZEOF_ROW);
 508:Generated_Source\PSoC4/CyFlash.c ****         CY_FLASH_CPUSS_SYSARG_REG = (uint32) &parameters[0u];
 509:Generated_Source\PSoC4/CyFlash.c ****         CY_FLASH_CPUSS_SYSREQ_REG = CY_FLASH_CPUSS_REQ_START | CY_FLASH_API_OPCODE_LOAD;
 510:Generated_Source\PSoC4/CyFlash.c ****         CY_NOP;
 511:Generated_Source\PSoC4/CyFlash.c ****         retValue = CY_FLASH_API_RETURN;
 512:Generated_Source\PSoC4/CyFlash.c **** 
 513:Generated_Source\PSoC4/CyFlash.c ****         if(retValue == CY_SYS_FLASH_SUCCESS)
 514:Generated_Source\PSoC4/CyFlash.c ****         {
 515:Generated_Source\PSoC4/CyFlash.c ****             /***************************************************************
 516:Generated_Source\PSoC4/CyFlash.c ****             * Mask all the exceptions to guarantee that Flash write will
 517:Generated_Source\PSoC4/CyFlash.c ****             * occur in the atomic way. It will not affect system call
 518:Generated_Source\PSoC4/CyFlash.c ****             * execution (flash row write) since it is executed in the NMI
 519:Generated_Source\PSoC4/CyFlash.c ****             * context.
 520:Generated_Source\PSoC4/CyFlash.c ****             ***************************************************************/
 521:Generated_Source\PSoC4/CyFlash.c ****             interruptState = CyEnterCriticalSection();
 522:Generated_Source\PSoC4/CyFlash.c **** 
 523:Generated_Source\PSoC4/CyFlash.c ****             clkCnfRetValue = CySysFlashClockBackup();
 524:Generated_Source\PSoC4/CyFlash.c **** 
 525:Generated_Source\PSoC4/CyFlash.c ****         #if(CY_IP_SPCIF_SYNCHRONOUS)
 526:Generated_Source\PSoC4/CyFlash.c ****             if(clkCnfRetValue == CY_SYS_FLASH_SUCCESS)
 527:Generated_Source\PSoC4/CyFlash.c ****             {
 528:Generated_Source\PSoC4/CyFlash.c ****                 retValue = CySysFlashClockConfig();
 529:Generated_Source\PSoC4/CyFlash.c ****             }
 530:Generated_Source\PSoC4/CyFlash.c ****         #endif  /* (CY_IP_SPCIF_SYNCHRONOUS) */
 531:Generated_Source\PSoC4/CyFlash.c **** 
 532:Generated_Source\PSoC4/CyFlash.c ****             if(retValue == CY_SYS_FLASH_SUCCESS)
 533:Generated_Source\PSoC4/CyFlash.c ****             {
 534:Generated_Source\PSoC4/CyFlash.c ****                 /* Write User Sflash Row */
 535:Generated_Source\PSoC4/CyFlash.c ****                 parameters[0u]  = (uint32) (((uint32) CY_FLASH_KEY_TWO(CY_FLASH_API_OPCODE_WRITE_SF
 536:Generated_Source\PSoC4/CyFlash.c ****                 parameters[1u] = (uint32) rowNum;
 537:Generated_Source\PSoC4/CyFlash.c **** 
 538:Generated_Source\PSoC4/CyFlash.c ****                 CY_FLASH_CPUSS_SYSARG_REG = (uint32) &parameters[0u];
 539:Generated_Source\PSoC4/CyFlash.c ****                 CY_FLASH_CPUSS_SYSREQ_REG = CY_FLASH_CPUSS_REQ_START | CY_FLASH_API_OPCODE_WRITE_SF
 540:Generated_Source\PSoC4/CyFlash.c ****                 CY_NOP;
 541:Generated_Source\PSoC4/CyFlash.c ****                 retValue = CY_FLASH_API_RETURN;
 542:Generated_Source\PSoC4/CyFlash.c ****             }
 543:Generated_Source\PSoC4/CyFlash.c **** 
 544:Generated_Source\PSoC4/CyFlash.c ****             if(clkCnfRetValue == CY_SYS_FLASH_SUCCESS)
ARM GAS  C:\Users\CHUNGN~1\AppData\Local\Temp\ccjIQNej.s 			page 11


 545:Generated_Source\PSoC4/CyFlash.c ****             {
 546:Generated_Source\PSoC4/CyFlash.c ****                 clkCnfRetValue = CySysFlashClockRestore();
 547:Generated_Source\PSoC4/CyFlash.c ****             }
 548:Generated_Source\PSoC4/CyFlash.c ****             CyExitCriticalSection(interruptState);
 549:Generated_Source\PSoC4/CyFlash.c ****         }
 550:Generated_Source\PSoC4/CyFlash.c ****     }
 551:Generated_Source\PSoC4/CyFlash.c ****     else
 552:Generated_Source\PSoC4/CyFlash.c ****     {
 553:Generated_Source\PSoC4/CyFlash.c ****         retValue = CY_SYS_FLASH_INVALID_ADDR;
 554:Generated_Source\PSoC4/CyFlash.c ****     }
 555:Generated_Source\PSoC4/CyFlash.c **** 
 556:Generated_Source\PSoC4/CyFlash.c ****     return (retValue);
 557:Generated_Source\PSoC4/CyFlash.c **** }
 558:Generated_Source\PSoC4/CyFlash.c **** #endif /* (CY_SFLASH_XTRA_ROWS) */
 559:Generated_Source\PSoC4/CyFlash.c **** 
 560:Generated_Source\PSoC4/CyFlash.c **** 
 561:Generated_Source\PSoC4/CyFlash.c **** /*******************************************************************************
 562:Generated_Source\PSoC4/CyFlash.c **** * Function Name: CySysFlashClockBackup
 563:Generated_Source\PSoC4/CyFlash.c **** ****************************************************************************//**
 564:Generated_Source\PSoC4/CyFlash.c **** *
 565:Generated_Source\PSoC4/CyFlash.c **** * Backups the device clock configuration.
 566:Generated_Source\PSoC4/CyFlash.c **** *
 567:Generated_Source\PSoC4/CyFlash.c **** * \return The same as \ref CySysFlashWriteRow().
 568:Generated_Source\PSoC4/CyFlash.c **** *
 569:Generated_Source\PSoC4/CyFlash.c **** *******************************************************************************/
 570:Generated_Source\PSoC4/CyFlash.c **** static cystatus CySysFlashClockBackup(void)
 571:Generated_Source\PSoC4/CyFlash.c **** {
  27              		.loc 1 571 0
  28              		.cfi_startproc
  29              		@ args = 0, pretend = 0, frame = 0
  30              		@ frame_needed = 0, uses_anonymous_args = 0
  31              		@ link register save eliminated.
  32              	.LVL0:
 572:Generated_Source\PSoC4/CyFlash.c ****     cystatus retValue = CY_SYS_FLASH_SUCCESS;
 573:Generated_Source\PSoC4/CyFlash.c **** #if(!CY_IP_FM)
 574:Generated_Source\PSoC4/CyFlash.c ****     #if !(CY_PSOC4_4000)
 575:Generated_Source\PSoC4/CyFlash.c ****         #if (CY_IP_SPCIF_SYNCHRONOUS)
 576:Generated_Source\PSoC4/CyFlash.c ****             volatile uint32   parameters[2u];
 577:Generated_Source\PSoC4/CyFlash.c ****         #endif /* (CY_IP_SPCIF_SYNCHRONOUS) */
 578:Generated_Source\PSoC4/CyFlash.c ****     #endif  /* !(CY_PSOC4_4000) */
 579:Generated_Source\PSoC4/CyFlash.c **** #endif  /* (!CY_IP_FM) */
 580:Generated_Source\PSoC4/CyFlash.c **** 
 581:Generated_Source\PSoC4/CyFlash.c **** #if(CY_IP_FM)
 582:Generated_Source\PSoC4/CyFlash.c **** 
 583:Generated_Source\PSoC4/CyFlash.c ****     /***************************************************************
 584:Generated_Source\PSoC4/CyFlash.c ****     * Preserve IMO configuration that could be changed during
 585:Generated_Source\PSoC4/CyFlash.c ****     * system call execution (Cypress ID #150448).
 586:Generated_Source\PSoC4/CyFlash.c ****     ***************************************************************/
 587:Generated_Source\PSoC4/CyFlash.c ****     cySysFlashBackup.imoConfigReg = CY_SYS_CLK_IMO_CONFIG_REG;
 588:Generated_Source\PSoC4/CyFlash.c **** 
 589:Generated_Source\PSoC4/CyFlash.c **** #else   /* (CY_IP_FMLT) */
 590:Generated_Source\PSoC4/CyFlash.c **** 
 591:Generated_Source\PSoC4/CyFlash.c ****     #if (CY_PSOC4_4000)
 592:Generated_Source\PSoC4/CyFlash.c **** 
 593:Generated_Source\PSoC4/CyFlash.c ****         /***************************************************************************
 594:Generated_Source\PSoC4/CyFlash.c ****         * Perform firmware clock settings backup for the PSOC4 4000 devices (the
 595:Generated_Source\PSoC4/CyFlash.c ****         * corresponding system call is not available).
ARM GAS  C:\Users\CHUNGN~1\AppData\Local\Temp\ccjIQNej.s 			page 12


 596:Generated_Source\PSoC4/CyFlash.c ****         ***************************************************************************/
 597:Generated_Source\PSoC4/CyFlash.c **** 
 598:Generated_Source\PSoC4/CyFlash.c ****         /***************************************************************************
 599:Generated_Source\PSoC4/CyFlash.c ****         * The registers listed below are modified by CySysFlashClockConfig().
 600:Generated_Source\PSoC4/CyFlash.c ****         *
 601:Generated_Source\PSoC4/CyFlash.c ****         * The registers to be saved:
 602:Generated_Source\PSoC4/CyFlash.c ****         * - CY_SYS_CLK_IMO_CONFIG_REG - IMO enable state.
 603:Generated_Source\PSoC4/CyFlash.c ****         * - CY_SYS_CLK_SELECT_REG     - HFCLK source, divider, pump source. Save
 604:Generated_Source\PSoC4/CyFlash.c ****         *                               entire register as it can be directly
 605:Generated_Source\PSoC4/CyFlash.c ****         *                               written on restore (no special
 606:Generated_Source\PSoC4/CyFlash.c ****         *                               requirements).
 607:Generated_Source\PSoC4/CyFlash.c ****         * - CY_SYS_CLK_IMO_SELECT_REG - Save IMO frequency.
 608:Generated_Source\PSoC4/CyFlash.c ****         *
 609:Generated_Source\PSoC4/CyFlash.c ****         * The registers not to be saved:
 610:Generated_Source\PSoC4/CyFlash.c ****         * - CY_SYS_CLK_IMO_TRIM1_REG  - No need to save. Function of frequency.
 611:Generated_Source\PSoC4/CyFlash.c ****         *                               Restored by CySysClkWriteImoFreq().
 612:Generated_Source\PSoC4/CyFlash.c ****         * - CY_SYS_CLK_IMO_TRIM3_REG  - No need to save. Function of frequency.
 613:Generated_Source\PSoC4/CyFlash.c ****         *                               Restored by CySysClkWriteImoFreq().
 614:Generated_Source\PSoC4/CyFlash.c ****         * - REG_CPUSS_FLASH_CTL       - Flash wait cycles. Unmodified due to system
 615:Generated_Source\PSoC4/CyFlash.c ****         *                               clock 16 MHz limit.
 616:Generated_Source\PSoC4/CyFlash.c ****         ***************************************************************************/
 617:Generated_Source\PSoC4/CyFlash.c **** 
 618:Generated_Source\PSoC4/CyFlash.c ****         cySysFlashBackup.clkSelectReg = CY_SYS_CLK_SELECT_REG;
  33              		.loc 1 618 0
  34 0000 074B     		ldr	r3, .L2
  35 0002 1B68     		ldr	r3, [r3]
  36 0004 074A     		ldr	r2, .L2+4
  37 0006 1360     		str	r3, [r2]
 619:Generated_Source\PSoC4/CyFlash.c ****         cySysFlashBackup.clkImoEna    = CY_SYS_CLK_IMO_CONFIG_REG & CY_SYS_CLK_IMO_CONFIG_ENABLE;
  38              		.loc 1 619 0
  39 0008 074B     		ldr	r3, .L2+8
  40 000a 1B68     		ldr	r3, [r3]
  41 000c DB0F     		lsrs	r3, r3, #31
  42 000e DB07     		lsls	r3, r3, #31
  43 0010 5360     		str	r3, [r2, #4]
 620:Generated_Source\PSoC4/CyFlash.c ****         cySysFlashBackup.clkImoFreq   = CY_SYS_CLK_IMO_MIN_FREQ_MHZ + (CY_SYS_CLK_IMO_SELECT_REG <<
  44              		.loc 1 620 0
  45 0012 064B     		ldr	r3, .L2+12
  46 0014 1B68     		ldr	r3, [r3]
  47 0016 9B00     		lsls	r3, r3, #2
  48 0018 1833     		adds	r3, r3, #24
  49 001a 9360     		str	r3, [r2, #8]
 621:Generated_Source\PSoC4/CyFlash.c **** 
 622:Generated_Source\PSoC4/CyFlash.c ****     #else
 623:Generated_Source\PSoC4/CyFlash.c **** 
 624:Generated_Source\PSoC4/CyFlash.c ****         #if (CY_IP_SPCIF_SYNCHRONOUS)
 625:Generated_Source\PSoC4/CyFlash.c ****             /* FM-Lite Clock Backup System Call */
 626:Generated_Source\PSoC4/CyFlash.c ****             parameters[0u] =
 627:Generated_Source\PSoC4/CyFlash.c ****                 (uint32) ((CY_FLASH_KEY_TWO(CY_FLASH_API_OPCODE_CLK_BACKUP) <<  CY_FLASH_PARAM_KEY_
 628:Generated_Source\PSoC4/CyFlash.c ****                             CY_FLASH_KEY_ONE);
 629:Generated_Source\PSoC4/CyFlash.c ****             parameters[1u] = (uint32) &cySysFlashBackup.clockSettings[0u];
 630:Generated_Source\PSoC4/CyFlash.c ****             CY_FLASH_CPUSS_SYSARG_REG = (uint32) &parameters[0u];
 631:Generated_Source\PSoC4/CyFlash.c ****             CY_FLASH_CPUSS_SYSREQ_REG = CY_FLASH_CPUSS_REQ_START | CY_FLASH_API_OPCODE_CLK_BACKUP;
 632:Generated_Source\PSoC4/CyFlash.c ****             CY_NOP;
 633:Generated_Source\PSoC4/CyFlash.c ****             retValue = CY_FLASH_API_RETURN;
 634:Generated_Source\PSoC4/CyFlash.c ****         #endif /* (CY_IP_SPCIF_SYNCHRONOUS) */
 635:Generated_Source\PSoC4/CyFlash.c **** 
ARM GAS  C:\Users\CHUNGN~1\AppData\Local\Temp\ccjIQNej.s 			page 13


 636:Generated_Source\PSoC4/CyFlash.c ****     #endif  /* (CY_PSOC4_4000) */
 637:Generated_Source\PSoC4/CyFlash.c **** 
 638:Generated_Source\PSoC4/CyFlash.c **** #endif  /* (CY_IP_FM) */
 639:Generated_Source\PSoC4/CyFlash.c **** 
 640:Generated_Source\PSoC4/CyFlash.c ****     return (retValue);
 641:Generated_Source\PSoC4/CyFlash.c **** }
  50              		.loc 1 641 0
  51 001c 0020     		movs	r0, #0
  52              		@ sp needed
  53 001e 7047     		bx	lr
  54              	.L3:
  55              		.align	2
  56              	.L2:
  57 0020 28000340 		.word	1073938472
  58 0024 00000000 		.word	.LANCHOR0
  59 0028 30000340 		.word	1073938480
  60 002c 080F0340 		.word	1073942280
  61              		.cfi_endproc
  62              	.LFE2:
  63              		.size	CySysFlashClockBackup, .-CySysFlashClockBackup
  64              		.section	.text.CySysFlashClockConfig,"ax",%progbits
  65              		.align	2
  66              		.code	16
  67              		.thumb_func
  68              		.type	CySysFlashClockConfig, %function
  69              	CySysFlashClockConfig:
  70              	.LFB3:
 642:Generated_Source\PSoC4/CyFlash.c **** 
 643:Generated_Source\PSoC4/CyFlash.c **** 
 644:Generated_Source\PSoC4/CyFlash.c **** #if(CY_IP_SPCIF_SYNCHRONOUS)
 645:Generated_Source\PSoC4/CyFlash.c **** /*******************************************************************************
 646:Generated_Source\PSoC4/CyFlash.c **** * Function Name: CySysFlashClockConfig
 647:Generated_Source\PSoC4/CyFlash.c **** ****************************************************************************//**
 648:Generated_Source\PSoC4/CyFlash.c **** *
 649:Generated_Source\PSoC4/CyFlash.c **** * Configures the device clocks for the flash writing.
 650:Generated_Source\PSoC4/CyFlash.c **** *
 651:Generated_Source\PSoC4/CyFlash.c **** * \return The same as \ref CySysFlashWriteRow().
 652:Generated_Source\PSoC4/CyFlash.c **** *
 653:Generated_Source\PSoC4/CyFlash.c **** *******************************************************************************/
 654:Generated_Source\PSoC4/CyFlash.c **** static cystatus CySysFlashClockConfig(void)
 655:Generated_Source\PSoC4/CyFlash.c **** {
  71              		.loc 1 655 0
  72              		.cfi_startproc
  73              		@ args = 0, pretend = 0, frame = 0
  74              		@ frame_needed = 0, uses_anonymous_args = 0
  75 0000 10B5     		push	{r4, lr}
  76              		.cfi_def_cfa_offset 8
  77              		.cfi_offset 4, -8
  78              		.cfi_offset 14, -4
  79              	.LVL1:
 656:Generated_Source\PSoC4/CyFlash.c ****     cystatus retValue = CY_SYS_FLASH_SUCCESS;
 657:Generated_Source\PSoC4/CyFlash.c **** 
 658:Generated_Source\PSoC4/CyFlash.c ****     /***************************************************************************
 659:Generated_Source\PSoC4/CyFlash.c ****     * The FM-Lite IP uses the IMO at 48MHz for the pump clock and SPC timer
 660:Generated_Source\PSoC4/CyFlash.c ****     * clock. The PUMP_SEL and HF clock must be set to IMO before calling Flash
 661:Generated_Source\PSoC4/CyFlash.c ****     * write or erase operation.
 662:Generated_Source\PSoC4/CyFlash.c ****     ***************************************************************************/
ARM GAS  C:\Users\CHUNGN~1\AppData\Local\Temp\ccjIQNej.s 			page 14


 663:Generated_Source\PSoC4/CyFlash.c **** #if (CY_PSOC4_4000)
 664:Generated_Source\PSoC4/CyFlash.c **** 
 665:Generated_Source\PSoC4/CyFlash.c ****     /***************************************************************************
 666:Generated_Source\PSoC4/CyFlash.c ****     * Perform firmware clock settings setup for the PSOC4 4000 devices (the
 667:Generated_Source\PSoC4/CyFlash.c ****     * corresponding system call is not reliable):
 668:Generated_Source\PSoC4/CyFlash.c ****     * - The IMO frequency should be 48 MHz
 669:Generated_Source\PSoC4/CyFlash.c ****     * - The IMO should be source for the HFCLK
 670:Generated_Source\PSoC4/CyFlash.c ****     * - The IMO should be the source for the charge pump clock
 671:Generated_Source\PSoC4/CyFlash.c ****     *
 672:Generated_Source\PSoC4/CyFlash.c ****     * Note The structure members used below are initialized by
 673:Generated_Source\PSoC4/CyFlash.c ****     * the CySysFlashClockBackup() function.
 674:Generated_Source\PSoC4/CyFlash.c ****     ***************************************************************************/
 675:Generated_Source\PSoC4/CyFlash.c ****     if ((cySysFlashBackup.clkImoFreq != 48u) ||
  80              		.loc 1 675 0
  81 0002 124B     		ldr	r3, .L8
  82 0004 9B68     		ldr	r3, [r3, #8]
  83 0006 302B     		cmp	r3, #48
  84 0008 08D1     		bne	.L5
 676:Generated_Source\PSoC4/CyFlash.c ****         ((cySysFlashBackup.clkSelectReg & CY_SYS_CLK_SELECT_DIRECT_SEL_MASK) != CY_SYS_CLK_HFCLK_IM
  85              		.loc 1 676 0 discriminator 1
  86 000a 104B     		ldr	r3, .L8
  87 000c 1B68     		ldr	r3, [r3]
 675:Generated_Source\PSoC4/CyFlash.c ****         ((cySysFlashBackup.clkSelectReg & CY_SYS_CLK_SELECT_DIRECT_SEL_MASK) != CY_SYS_CLK_HFCLK_IM
  88              		.loc 1 675 0 discriminator 1
  89 000e 9A07     		lsls	r2, r3, #30
  90 0010 04D1     		bne	.L5
 677:Generated_Source\PSoC4/CyFlash.c ****         (((cySysFlashBackup.clkSelectReg >> CY_SYS_CLK_SELECT_PUMP_SEL_SHIFT) & CY_SYS_CLK_SELECT_P
  91              		.loc 1 677 0
  92 0012 1B09     		lsrs	r3, r3, #4
  93 0014 0322     		movs	r2, #3
  94 0016 1340     		ands	r3, r2
 676:Generated_Source\PSoC4/CyFlash.c ****         ((cySysFlashBackup.clkSelectReg & CY_SYS_CLK_SELECT_DIRECT_SEL_MASK) != CY_SYS_CLK_HFCLK_IM
  95              		.loc 1 676 0
  96 0018 012B     		cmp	r3, #1
  97 001a 15D0     		beq	.L6
  98              	.L5:
 678:Generated_Source\PSoC4/CyFlash.c ****             CY_SYS_CLK_SELECT_PUMP_SEL_IMO))
 679:Generated_Source\PSoC4/CyFlash.c ****     {
 680:Generated_Source\PSoC4/CyFlash.c ****         /***********************************************************************
 681:Generated_Source\PSoC4/CyFlash.c ****          Set HFCLK divider to divide-by-4 to ensure that System clock frequency
 682:Generated_Source\PSoC4/CyFlash.c ****         * is within the valid limit (16 MHz for the PSoC4 4000).
 683:Generated_Source\PSoC4/CyFlash.c ****         ***********************************************************************/
 684:Generated_Source\PSoC4/CyFlash.c ****         CySysClkWriteHfclkDiv(CY_SYS_CLK_HFCLK_DIV_4);
  99              		.loc 1 684 0
 100 001c 0220     		movs	r0, #2
 101 001e FFF7FEFF 		bl	CySysClkWriteHfclkDiv
 102              	.LVL2:
 685:Generated_Source\PSoC4/CyFlash.c **** 
 686:Generated_Source\PSoC4/CyFlash.c ****         /* The IMO frequency should be 48 MHz */
 687:Generated_Source\PSoC4/CyFlash.c ****         if (cySysFlashBackup.clkImoFreq != 48u)
 103              		.loc 1 687 0
 104 0022 0A4B     		ldr	r3, .L8
 105 0024 9B68     		ldr	r3, [r3, #8]
 106 0026 302B     		cmp	r3, #48
 107 0028 02D0     		beq	.L7
 688:Generated_Source\PSoC4/CyFlash.c ****         {
 689:Generated_Source\PSoC4/CyFlash.c ****             CySysClkWriteImoFreq(48u);
ARM GAS  C:\Users\CHUNGN~1\AppData\Local\Temp\ccjIQNej.s 			page 15


 108              		.loc 1 689 0
 109 002a 3020     		movs	r0, #48
 110 002c FFF7FEFF 		bl	CySysClkWriteImoFreq
 111              	.LVL3:
 112              	.L7:
 690:Generated_Source\PSoC4/CyFlash.c ****         }
 691:Generated_Source\PSoC4/CyFlash.c ****         CySysClkImoStart();
 113              		.loc 1 691 0
 114 0030 FFF7FEFF 		bl	CySysClkImoStart
 115              	.LVL4:
 692:Generated_Source\PSoC4/CyFlash.c **** 
 693:Generated_Source\PSoC4/CyFlash.c ****         /* The IMO should be source for the HFCLK */
 694:Generated_Source\PSoC4/CyFlash.c ****         CySysClkWriteHfclkDirect(CY_SYS_CLK_HFCLK_IMO);
 116              		.loc 1 694 0
 117 0034 0020     		movs	r0, #0
 118 0036 FFF7FEFF 		bl	CySysClkWriteHfclkDirect
 119              	.LVL5:
 695:Generated_Source\PSoC4/CyFlash.c **** 
 696:Generated_Source\PSoC4/CyFlash.c ****         /* The IMO should be the source for the charge pump clock */
 697:Generated_Source\PSoC4/CyFlash.c ****         CY_SYS_CLK_SELECT_REG =  (CY_SYS_CLK_SELECT_REG &
 120              		.loc 1 697 0
 121 003a 0549     		ldr	r1, .L8+4
 122 003c 0B68     		ldr	r3, [r1]
 123 003e 3022     		movs	r2, #48
 124 0040 9343     		bics	r3, r2
 698:Generated_Source\PSoC4/CyFlash.c ****             ((uint32)~(uint32)(CY_SYS_CLK_SELECT_PUMP_SEL_MASK << CY_SYS_CLK_SELECT_PUMP_SEL_SHIFT)
 125              		.loc 1 698 0
 126 0042 203A     		subs	r2, r2, #32
 127 0044 1343     		orrs	r3, r2
 697:Generated_Source\PSoC4/CyFlash.c ****             ((uint32)~(uint32)(CY_SYS_CLK_SELECT_PUMP_SEL_MASK << CY_SYS_CLK_SELECT_PUMP_SEL_SHIFT)
 128              		.loc 1 697 0
 129 0046 0B60     		str	r3, [r1]
 130              	.L6:
 699:Generated_Source\PSoC4/CyFlash.c ****             ((uint32)((uint32)1u << CY_SYS_CLK_SELECT_PUMP_SEL_SHIFT));
 700:Generated_Source\PSoC4/CyFlash.c ****     }
 701:Generated_Source\PSoC4/CyFlash.c **** 
 702:Generated_Source\PSoC4/CyFlash.c **** #else
 703:Generated_Source\PSoC4/CyFlash.c **** 
 704:Generated_Source\PSoC4/CyFlash.c ****     /* FM-Lite Clock Configuration */
 705:Generated_Source\PSoC4/CyFlash.c ****     CY_FLASH_CPUSS_SYSARG_REG =
 706:Generated_Source\PSoC4/CyFlash.c ****         (uint32) ((CY_FLASH_KEY_TWO(CY_FLASH_API_OPCODE_CLK_CONFIG) <<  CY_FLASH_PARAM_KEY_TWO_OFFS
 707:Generated_Source\PSoC4/CyFlash.c ****                     CY_FLASH_KEY_ONE);
 708:Generated_Source\PSoC4/CyFlash.c ****     CY_FLASH_CPUSS_SYSREQ_REG = CY_FLASH_CPUSS_REQ_START | CY_FLASH_API_OPCODE_CLK_CONFIG;
 709:Generated_Source\PSoC4/CyFlash.c ****     CY_NOP;
 710:Generated_Source\PSoC4/CyFlash.c ****     retValue = CY_FLASH_API_RETURN;
 711:Generated_Source\PSoC4/CyFlash.c **** 
 712:Generated_Source\PSoC4/CyFlash.c **** #endif  /* (CY_PSOC4_4000) */
 713:Generated_Source\PSoC4/CyFlash.c **** 
 714:Generated_Source\PSoC4/CyFlash.c ****     return (retValue);
 715:Generated_Source\PSoC4/CyFlash.c **** }
 131              		.loc 1 715 0
 132 0048 0020     		movs	r0, #0
 133              		@ sp needed
 134 004a 10BD     		pop	{r4, pc}
 135              	.L9:
 136              		.align	2
 137              	.L8:
ARM GAS  C:\Users\CHUNGN~1\AppData\Local\Temp\ccjIQNej.s 			page 16


 138 004c 00000000 		.word	.LANCHOR0
 139 0050 28000340 		.word	1073938472
 140              		.cfi_endproc
 141              	.LFE3:
 142              		.size	CySysFlashClockConfig, .-CySysFlashClockConfig
 143              		.section	.text.CySysFlashClockRestore,"ax",%progbits
 144              		.align	2
 145              		.code	16
 146              		.thumb_func
 147              		.type	CySysFlashClockRestore, %function
 148              	CySysFlashClockRestore:
 149              	.LFB4:
 716:Generated_Source\PSoC4/CyFlash.c **** #endif  /* (CY_IP_SPCIF_SYNCHRONOUS) */
 717:Generated_Source\PSoC4/CyFlash.c **** 
 718:Generated_Source\PSoC4/CyFlash.c **** 
 719:Generated_Source\PSoC4/CyFlash.c **** /*******************************************************************************
 720:Generated_Source\PSoC4/CyFlash.c **** * Function Name: CySysFlashClockRestore
 721:Generated_Source\PSoC4/CyFlash.c **** ****************************************************************************//**
 722:Generated_Source\PSoC4/CyFlash.c **** *
 723:Generated_Source\PSoC4/CyFlash.c **** * Restores the device clock configuration.
 724:Generated_Source\PSoC4/CyFlash.c **** *
 725:Generated_Source\PSoC4/CyFlash.c **** * \return The same as \ref CySysFlashWriteRow().
 726:Generated_Source\PSoC4/CyFlash.c **** *
 727:Generated_Source\PSoC4/CyFlash.c **** *******************************************************************************/
 728:Generated_Source\PSoC4/CyFlash.c **** static cystatus CySysFlashClockRestore(void)
 729:Generated_Source\PSoC4/CyFlash.c **** {
 150              		.loc 1 729 0
 151              		.cfi_startproc
 152              		@ args = 0, pretend = 0, frame = 0
 153              		@ frame_needed = 0, uses_anonymous_args = 0
 154 0000 10B5     		push	{r4, lr}
 155              		.cfi_def_cfa_offset 8
 156              		.cfi_offset 4, -8
 157              		.cfi_offset 14, -4
 158              	.LVL6:
 730:Generated_Source\PSoC4/CyFlash.c ****     cystatus retValue = CY_SYS_FLASH_SUCCESS;
 731:Generated_Source\PSoC4/CyFlash.c **** #if(!CY_IP_FM)
 732:Generated_Source\PSoC4/CyFlash.c ****     #if !(CY_PSOC4_4000)
 733:Generated_Source\PSoC4/CyFlash.c ****         #if (CY_IP_SPCIF_SYNCHRONOUS)
 734:Generated_Source\PSoC4/CyFlash.c ****             volatile uint32   parameters[2u];
 735:Generated_Source\PSoC4/CyFlash.c ****         #endif /* (CY_IP_SPCIF_SYNCHRONOUS) */
 736:Generated_Source\PSoC4/CyFlash.c ****     #endif  /* !(CY_PSOC4_4000) */
 737:Generated_Source\PSoC4/CyFlash.c **** #endif  /* (!CY_IP_FM) */
 738:Generated_Source\PSoC4/CyFlash.c **** 
 739:Generated_Source\PSoC4/CyFlash.c **** #if(CY_IP_FM)
 740:Generated_Source\PSoC4/CyFlash.c **** 
 741:Generated_Source\PSoC4/CyFlash.c ****     /***************************************************************
 742:Generated_Source\PSoC4/CyFlash.c ****     * Restore IMO configuration that could be changed during
 743:Generated_Source\PSoC4/CyFlash.c ****     * system call execution (Cypress ID #150448).
 744:Generated_Source\PSoC4/CyFlash.c ****     ***************************************************************/
 745:Generated_Source\PSoC4/CyFlash.c ****     CY_SYS_CLK_IMO_CONFIG_REG = cySysFlashBackup.imoConfigReg;
 746:Generated_Source\PSoC4/CyFlash.c **** 
 747:Generated_Source\PSoC4/CyFlash.c **** #else
 748:Generated_Source\PSoC4/CyFlash.c **** 
 749:Generated_Source\PSoC4/CyFlash.c ****     #if (CY_PSOC4_4000)
 750:Generated_Source\PSoC4/CyFlash.c **** 
 751:Generated_Source\PSoC4/CyFlash.c ****         /***************************************************************************
ARM GAS  C:\Users\CHUNGN~1\AppData\Local\Temp\ccjIQNej.s 			page 17


 752:Generated_Source\PSoC4/CyFlash.c ****         * Perform firmware clock settings restore for the PSOC4 4000 devices (the
 753:Generated_Source\PSoC4/CyFlash.c ****         * corresponding system call is not available).
 754:Generated_Source\PSoC4/CyFlash.c ****         ***************************************************************************/
 755:Generated_Source\PSoC4/CyFlash.c **** 
 756:Generated_Source\PSoC4/CyFlash.c ****         /* Restore clock settings */
 757:Generated_Source\PSoC4/CyFlash.c ****         if ((cySysFlashBackup.clkImoFreq != 48u) ||
 159              		.loc 1 757 0
 160 0002 104B     		ldr	r3, .L14
 161 0004 9868     		ldr	r0, [r3, #8]
 162 0006 3028     		cmp	r0, #48
 163 0008 07D1     		bne	.L11
 758:Generated_Source\PSoC4/CyFlash.c ****             ((cySysFlashBackup.clkSelectReg & CY_SYS_CLK_SELECT_DIRECT_SEL_MASK) != CY_SYS_CLK_HFCL
 164              		.loc 1 758 0 discriminator 1
 165 000a 1B68     		ldr	r3, [r3]
 757:Generated_Source\PSoC4/CyFlash.c ****             ((cySysFlashBackup.clkSelectReg & CY_SYS_CLK_SELECT_DIRECT_SEL_MASK) != CY_SYS_CLK_HFCL
 166              		.loc 1 757 0 discriminator 1
 167 000c 9A07     		lsls	r2, r3, #30
 168 000e 04D1     		bne	.L11
 759:Generated_Source\PSoC4/CyFlash.c ****             (((cySysFlashBackup.clkSelectReg >> CY_SYS_CLK_SELECT_PUMP_SEL_SHIFT) & CY_SYS_CLK_SELE
 169              		.loc 1 759 0
 170 0010 1B09     		lsrs	r3, r3, #4
 171 0012 0322     		movs	r2, #3
 172 0014 1340     		ands	r3, r2
 758:Generated_Source\PSoC4/CyFlash.c ****             ((cySysFlashBackup.clkSelectReg & CY_SYS_CLK_SELECT_DIRECT_SEL_MASK) != CY_SYS_CLK_HFCL
 173              		.loc 1 758 0
 174 0016 012B     		cmp	r3, #1
 175 0018 11D0     		beq	.L12
 176              	.L11:
 760:Generated_Source\PSoC4/CyFlash.c ****                 CY_SYS_CLK_SELECT_PUMP_SEL_IMO))
 761:Generated_Source\PSoC4/CyFlash.c ****         {
 762:Generated_Source\PSoC4/CyFlash.c ****             /* Restore IMO frequency if needed */
 763:Generated_Source\PSoC4/CyFlash.c ****             if (cySysFlashBackup.clkImoFreq != 48u)
 177              		.loc 1 763 0
 178 001a 3028     		cmp	r0, #48
 179 001c 01D0     		beq	.L13
 764:Generated_Source\PSoC4/CyFlash.c ****             {
 765:Generated_Source\PSoC4/CyFlash.c ****                 CySysClkWriteImoFreq(cySysFlashBackup.clkImoFreq);
 180              		.loc 1 765 0
 181 001e FFF7FEFF 		bl	CySysClkWriteImoFreq
 182              	.LVL7:
 183              	.L13:
 766:Generated_Source\PSoC4/CyFlash.c ****             }
 767:Generated_Source\PSoC4/CyFlash.c **** 
 768:Generated_Source\PSoC4/CyFlash.c ****             /* Restore HFCLK clock source */
 769:Generated_Source\PSoC4/CyFlash.c ****             CySysClkWriteHfclkDirect(cySysFlashBackup.clkSelectReg & CY_SYS_CLK_SELECT_DIRECT_SEL_M
 184              		.loc 1 769 0
 185 0022 084C     		ldr	r4, .L14
 186 0024 0320     		movs	r0, #3
 187 0026 2368     		ldr	r3, [r4]
 188 0028 1840     		ands	r0, r3
 189 002a FFF7FEFF 		bl	CySysClkWriteHfclkDirect
 190              	.LVL8:
 770:Generated_Source\PSoC4/CyFlash.c **** 
 771:Generated_Source\PSoC4/CyFlash.c ****             /* Restore HFCLK divider and source for pump  */
 772:Generated_Source\PSoC4/CyFlash.c ****             CY_SYS_CLK_SELECT_REG = cySysFlashBackup.clkSelectReg;
 191              		.loc 1 772 0
 192 002e 064B     		ldr	r3, .L14+4
ARM GAS  C:\Users\CHUNGN~1\AppData\Local\Temp\ccjIQNej.s 			page 18


 193 0030 2268     		ldr	r2, [r4]
 194 0032 1A60     		str	r2, [r3]
 773:Generated_Source\PSoC4/CyFlash.c **** 
 774:Generated_Source\PSoC4/CyFlash.c ****             /* Stop IMO if needed */
 775:Generated_Source\PSoC4/CyFlash.c ****             if (0u == cySysFlashBackup.clkImoEna)
 195              		.loc 1 775 0
 196 0034 6368     		ldr	r3, [r4, #4]
 197 0036 002B     		cmp	r3, #0
 198 0038 01D1     		bne	.L12
 776:Generated_Source\PSoC4/CyFlash.c ****             {
 777:Generated_Source\PSoC4/CyFlash.c ****                 CySysClkImoStop();
 199              		.loc 1 777 0
 200 003a FFF7FEFF 		bl	CySysClkImoStop
 201              	.LVL9:
 202              	.L12:
 778:Generated_Source\PSoC4/CyFlash.c ****             }
 779:Generated_Source\PSoC4/CyFlash.c ****         }
 780:Generated_Source\PSoC4/CyFlash.c **** 
 781:Generated_Source\PSoC4/CyFlash.c ****     #else
 782:Generated_Source\PSoC4/CyFlash.c **** 
 783:Generated_Source\PSoC4/CyFlash.c ****         #if (CY_IP_SPCIF_SYNCHRONOUS)
 784:Generated_Source\PSoC4/CyFlash.c ****             /* FM-Lite Clock Restore */
 785:Generated_Source\PSoC4/CyFlash.c ****             parameters[0u] =
 786:Generated_Source\PSoC4/CyFlash.c ****                 (uint32) ((CY_FLASH_KEY_TWO(CY_FLASH_API_OPCODE_CLK_RESTORE) <<  CY_FLASH_PARAM_KEY
 787:Generated_Source\PSoC4/CyFlash.c ****                             CY_FLASH_KEY_ONE);
 788:Generated_Source\PSoC4/CyFlash.c ****             parameters[1u] = (uint32) &cySysFlashBackup.clockSettings[0u];
 789:Generated_Source\PSoC4/CyFlash.c ****             CY_FLASH_CPUSS_SYSARG_REG = (uint32) &parameters[0u];
 790:Generated_Source\PSoC4/CyFlash.c ****             CY_FLASH_CPUSS_SYSREQ_REG = CY_FLASH_CPUSS_REQ_START | CY_FLASH_API_OPCODE_CLK_RESTORE;
 791:Generated_Source\PSoC4/CyFlash.c ****             CY_NOP;
 792:Generated_Source\PSoC4/CyFlash.c ****             retValue = CY_FLASH_API_RETURN;
 793:Generated_Source\PSoC4/CyFlash.c ****         #endif /* (CY_IP_SPCIF_SYNCHRONOUS) */
 794:Generated_Source\PSoC4/CyFlash.c **** 
 795:Generated_Source\PSoC4/CyFlash.c ****     #endif  /* (CY_PSOC4_4000) */
 796:Generated_Source\PSoC4/CyFlash.c **** 
 797:Generated_Source\PSoC4/CyFlash.c **** #endif  /* (CY_IP_FM) */
 798:Generated_Source\PSoC4/CyFlash.c **** 
 799:Generated_Source\PSoC4/CyFlash.c ****     return (retValue);
 800:Generated_Source\PSoC4/CyFlash.c **** }
 203              		.loc 1 800 0
 204 003e 0020     		movs	r0, #0
 205              		@ sp needed
 206 0040 10BD     		pop	{r4, pc}
 207              	.L15:
 208 0042 C046     		.align	2
 209              	.L14:
 210 0044 00000000 		.word	.LANCHOR0
 211 0048 28000340 		.word	1073938472
 212              		.cfi_endproc
 213              	.LFE4:
 214              		.size	CySysFlashClockRestore, .-CySysFlashClockRestore
 215              		.section	.text.CySysFlashWriteRow,"ax",%progbits
 216              		.align	2
 217              		.global	CySysFlashWriteRow
 218              		.code	16
 219              		.thumb_func
 220              		.type	CySysFlashWriteRow, %function
 221              	CySysFlashWriteRow:
ARM GAS  C:\Users\CHUNGN~1\AppData\Local\Temp\ccjIQNej.s 			page 19


 222              	.LFB0:
  82:Generated_Source\PSoC4/CyFlash.c ****     volatile uint32 retValue = CY_SYS_FLASH_SUCCESS;
 223              		.loc 1 82 0
 224              		.cfi_startproc
 225              		@ args = 0, pretend = 0, frame = 88
 226              		@ frame_needed = 0, uses_anonymous_args = 0
 227              	.LVL10:
 228 0000 F0B5     		push	{r4, r5, r6, r7, lr}
 229              		.cfi_def_cfa_offset 20
 230              		.cfi_offset 4, -20
 231              		.cfi_offset 5, -16
 232              		.cfi_offset 6, -12
 233              		.cfi_offset 7, -8
 234              		.cfi_offset 14, -4
 235 0002 4746     		mov	r7, r8
 236 0004 80B4     		push	{r7}
 237              		.cfi_def_cfa_offset 24
 238              		.cfi_offset 8, -24
 239 0006 96B0     		sub	sp, sp, #88
 240              		.cfi_def_cfa_offset 112
 241 0008 0500     		movs	r5, r0
  83:Generated_Source\PSoC4/CyFlash.c ****     volatile uint32 clkCnfRetValue = CY_SYS_FLASH_SUCCESS;
 242              		.loc 1 83 0
 243 000a 0023     		movs	r3, #0
 244 000c 1593     		str	r3, [sp, #84]
  84:Generated_Source\PSoC4/CyFlash.c ****     volatile uint32 parameters[(CY_FLASH_SIZEOF_ROW + CY_FLASH_SRAM_ROM_DATA) / sizeof(uint32)];
 245              		.loc 1 84 0
 246 000e 1493     		str	r3, [sp, #80]
 247              	.LVL11:
  97:Generated_Source\PSoC4/CyFlash.c ****     {
 248              		.loc 1 97 0
 249 0010 FF28     		cmp	r0, #255
 250 0012 00D9     		bls	.LCB193
 251 0014 F5E0     		b	.L17	@long jump
 252              	.LCB193:
  97:Generated_Source\PSoC4/CyFlash.c ****     {
 253              		.loc 1 97 0 is_stmt 0 discriminator 1
 254 0016 0029     		cmp	r1, #0
 255 0018 00D1     		bne	.LCB195
 256 001a F2E0     		b	.L17	@long jump
 257              	.LCB195:
 100:Generated_Source\PSoC4/CyFlash.c **** 
 258              		.loc 1 100 0 is_stmt 1
 259 001c 4022     		movs	r2, #64
 260 001e 04A8     		add	r0, sp, #16
 261              	.LVL12:
 262 0020 FFF7FEFF 		bl	memcpy
 263              	.LVL13:
 104:Generated_Source\PSoC4/CyFlash.c ****             {
 264              		.loc 1 104 0
 265 0024 0223     		movs	r3, #2
  93:Generated_Source\PSoC4/CyFlash.c ****         uint32 i;
 266              		.loc 1 93 0
 267 0026 0020     		movs	r0, #0
  92:Generated_Source\PSoC4/CyFlash.c ****         uint32 bits = 0u;
 268              		.loc 1 92 0
 269 0028 0021     		movs	r1, #0
ARM GAS  C:\Users\CHUNGN~1\AppData\Local\Temp\ccjIQNej.s 			page 20


  90:Generated_Source\PSoC4/CyFlash.c ****         uint32 savedValue = 0u;
 270              		.loc 1 90 0
 271 002a 0024     		movs	r4, #0
 104:Generated_Source\PSoC4/CyFlash.c ****             {
 272              		.loc 1 104 0
 273 002c 08E0     		b	.L18
 274              	.LVL14:
 275              	.L20:
 276              	.LBB2:
 106:Generated_Source\PSoC4/CyFlash.c ****                 if (tmp != 0u)
 277              		.loc 1 106 0
 278 002e 9A00     		lsls	r2, r3, #2
 279 0030 02AE     		add	r6, sp, #8
 280 0032 9259     		ldr	r2, [r2, r6]
 281              	.LVL15:
 107:Generated_Source\PSoC4/CyFlash.c ****                 {
 282              		.loc 1 107 0
 283 0034 002A     		cmp	r2, #0
 284 0036 02D0     		beq	.L19
 109:Generated_Source\PSoC4/CyFlash.c ****                     bits |= tmp;
 285              		.loc 1 109 0
 286 0038 8918     		adds	r1, r1, r2
 287              	.LVL16:
 110:Generated_Source\PSoC4/CyFlash.c ****                     savedIndex = i;
 288              		.loc 1 110 0
 289 003a 1043     		orrs	r0, r2
 290              	.LVL17:
 111:Generated_Source\PSoC4/CyFlash.c ****                 }
 291              		.loc 1 111 0
 292 003c 1C00     		movs	r4, r3
 293              	.LVL18:
 294              	.L19:
 295              	.LBE2:
 104:Generated_Source\PSoC4/CyFlash.c ****             {
 296              		.loc 1 104 0 discriminator 2
 297 003e 0133     		adds	r3, r3, #1
 298              	.LVL19:
 299              	.L18:
 104:Generated_Source\PSoC4/CyFlash.c ****             {
 300              		.loc 1 104 0 is_stmt 0 discriminator 1
 301 0040 112B     		cmp	r3, #17
 302 0042 F4D9     		bls	.L20
 115:Generated_Source\PSoC4/CyFlash.c ****             if (needChecksumWorkaround != 0u)
 303              		.loc 1 115 0 is_stmt 1
 304 0044 0029     		cmp	r1, #0
 305 0046 03D1     		bne	.L36
 115:Generated_Source\PSoC4/CyFlash.c ****             if (needChecksumWorkaround != 0u)
 306              		.loc 1 115 0 is_stmt 0 discriminator 1
 307 0048 0028     		cmp	r0, #0
 308 004a 03D1     		bne	.L37
 115:Generated_Source\PSoC4/CyFlash.c ****             if (needChecksumWorkaround != 0u)
 309              		.loc 1 115 0
 310 004c 0026     		movs	r6, #0
 311 004e 02E0     		b	.L21
 312              	.L36:
 313 0050 0026     		movs	r6, #0
 314 0052 00E0     		b	.L21
ARM GAS  C:\Users\CHUNGN~1\AppData\Local\Temp\ccjIQNej.s 			page 21


 315              	.L37:
 316 0054 0126     		movs	r6, #1
 317              	.L21:
 318              	.LVL20:
 116:Generated_Source\PSoC4/CyFlash.c ****             {
 319              		.loc 1 116 0 is_stmt 1 discriminator 6
 320 0056 002E     		cmp	r6, #0
 321 0058 06D0     		beq	.L38
 118:Generated_Source\PSoC4/CyFlash.c ****                 parameters[savedIndex] = 0u;
 322              		.loc 1 118 0
 323 005a A300     		lsls	r3, r4, #2
 324              	.LVL21:
 325 005c 02AA     		add	r2, sp, #8
 326 005e 9F58     		ldr	r7, [r3, r2]
 327              	.LVL22:
 119:Generated_Source\PSoC4/CyFlash.c ****             }
 328              		.loc 1 119 0
 329 0060 0022     		movs	r2, #0
 330 0062 02A9     		add	r1, sp, #8
 331              	.LVL23:
 332 0064 5A50     		str	r2, [r3, r1]
 333 0066 00E0     		b	.L22
 334              	.LVL24:
 335              	.L38:
  91:Generated_Source\PSoC4/CyFlash.c ****         uint32 checksum = 0u;
 336              		.loc 1 91 0
 337 0068 0027     		movs	r7, #0
 338              	.LVL25:
 339              	.L22:
 124:Generated_Source\PSoC4/CyFlash.c ****                          (uint32) (CY_FLASH_PAGE_LATCH_START_ADDR             << CY_FLASH_PARAM_ADD
 340              		.loc 1 124 0
 341 006a 694B     		ldr	r3, .L40
 342 006c 0293     		str	r3, [sp, #8]
 128:Generated_Source\PSoC4/CyFlash.c **** 
 343              		.loc 1 128 0
 344 006e 3F23     		movs	r3, #63
 345 0070 0393     		str	r3, [sp, #12]
 130:Generated_Source\PSoC4/CyFlash.c ****         CY_FLASH_CPUSS_SYSREQ_REG = CY_FLASH_CPUSS_REQ_START | CY_FLASH_API_OPCODE_LOAD;
 346              		.loc 1 130 0
 347 0072 684B     		ldr	r3, .L40+4
 348 0074 02AA     		add	r2, sp, #8
 349 0076 1A60     		str	r2, [r3]
 131:Generated_Source\PSoC4/CyFlash.c ****         CY_NOP;
 350              		.loc 1 131 0
 351 0078 6749     		ldr	r1, .L40+8
 352 007a 684A     		ldr	r2, .L40+12
 353 007c 1160     		str	r1, [r2]
 132:Generated_Source\PSoC4/CyFlash.c ****         retValue = CY_FLASH_API_RETURN;
 354              		.loc 1 132 0
 355              		.syntax divided
 356              	@ 132 "Generated_Source\PSoC4\CyFlash.c" 1
 357 007e C046     		NOP
 358              	
 359              	@ 0 "" 2
 133:Generated_Source\PSoC4/CyFlash.c **** 
 360              		.loc 1 133 0
 361              		.thumb
ARM GAS  C:\Users\CHUNGN~1\AppData\Local\Temp\ccjIQNej.s 			page 22


 362              		.syntax unified
 363 0080 1B68     		ldr	r3, [r3]
 364 0082 1B0F     		lsrs	r3, r3, #28
 365 0084 1B07     		lsls	r3, r3, #28
 366 0086 F022     		movs	r2, #240
 367 0088 1206     		lsls	r2, r2, #24
 368 008a 9342     		cmp	r3, r2
 369 008c 04D1     		bne	.L23
 133:Generated_Source\PSoC4/CyFlash.c **** 
 370              		.loc 1 133 0 is_stmt 0 discriminator 1
 371 008e 614B     		ldr	r3, .L40+4
 372 0090 1B68     		ldr	r3, [r3]
 373 0092 FF22     		movs	r2, #255
 374 0094 1340     		ands	r3, r2
 375 0096 0DE0     		b	.L24
 376              	.L23:
 133:Generated_Source\PSoC4/CyFlash.c **** 
 377              		.loc 1 133 0 discriminator 2
 378 0098 5E4B     		ldr	r3, .L40+4
 379 009a 1B68     		ldr	r3, [r3]
 380 009c 1B0F     		lsrs	r3, r3, #28
 381 009e 1B07     		lsls	r3, r3, #28
 382 00a0 A022     		movs	r2, #160
 383 00a2 1206     		lsls	r2, r2, #24
 384 00a4 9342     		cmp	r3, r2
 385 00a6 04D0     		beq	.L39
 133:Generated_Source\PSoC4/CyFlash.c **** 
 386              		.loc 1 133 0 discriminator 4
 387 00a8 5A4B     		ldr	r3, .L40+4
 388 00aa 1B68     		ldr	r3, [r3]
 389 00ac FF22     		movs	r2, #255
 390 00ae 1340     		ands	r3, r2
 391 00b0 00E0     		b	.L24
 392              	.L39:
 133:Generated_Source\PSoC4/CyFlash.c **** 
 393              		.loc 1 133 0
 394 00b2 0023     		movs	r3, #0
 395              	.L24:
 133:Generated_Source\PSoC4/CyFlash.c **** 
 396              		.loc 1 133 0 discriminator 8
 397 00b4 1593     		str	r3, [sp, #84]
 135:Generated_Source\PSoC4/CyFlash.c ****         {
 398              		.loc 1 135 0 is_stmt 1 discriminator 8
 399 00b6 159B     		ldr	r3, [sp, #84]
 400 00b8 002B     		cmp	r3, #0
 401 00ba 00D0     		beq	.LCB353
 402 00bc A3E0     		b	.L25	@long jump
 403              	.LCB353:
 143:Generated_Source\PSoC4/CyFlash.c **** 
 404              		.loc 1 143 0
 405 00be FFF7FEFF 		bl	CyEnterCriticalSection
 406              	.LVL26:
 407 00c2 0190     		str	r0, [sp, #4]
 408              	.LVL27:
 145:Generated_Source\PSoC4/CyFlash.c **** 
 409              		.loc 1 145 0
 410 00c4 FFF7FEFF 		bl	CySysFlashClockBackup
ARM GAS  C:\Users\CHUNGN~1\AppData\Local\Temp\ccjIQNej.s 			page 23


 411              	.LVL28:
 412 00c8 1490     		str	r0, [sp, #80]
 148:Generated_Source\PSoC4/CyFlash.c ****             {
 413              		.loc 1 148 0
 414 00ca 149B     		ldr	r3, [sp, #80]
 415 00cc 002B     		cmp	r3, #0
 416 00ce 02D1     		bne	.L26
 150:Generated_Source\PSoC4/CyFlash.c ****             }
 417              		.loc 1 150 0
 418 00d0 FFF7FEFF 		bl	CySysFlashClockConfig
 419              	.LVL29:
 420 00d4 1590     		str	r0, [sp, #84]
 421              	.L26:
 154:Generated_Source\PSoC4/CyFlash.c ****             {
 422              		.loc 1 154 0
 423 00d6 159B     		ldr	r3, [sp, #84]
 424 00d8 002B     		cmp	r3, #0
 425 00da 25D1     		bne	.L27
 157:Generated_Source\PSoC4/CyFlash.c ****                 parameters[0u] |= (uint32)(rowNum << 16u);
 426              		.loc 1 157 0
 427 00dc 504A     		ldr	r2, .L40+16
 428 00de 0292     		str	r2, [sp, #8]
 158:Generated_Source\PSoC4/CyFlash.c **** 
 429              		.loc 1 158 0
 430 00e0 0299     		ldr	r1, [sp, #8]
 431 00e2 2A04     		lsls	r2, r5, #16
 432 00e4 0A43     		orrs	r2, r1
 433 00e6 0292     		str	r2, [sp, #8]
 160:Generated_Source\PSoC4/CyFlash.c ****                 CY_FLASH_CPUSS_SYSREQ_REG = CY_FLASH_CPUSS_REQ_START | CY_FLASH_API_OPCODE_WRITE_RO
 434              		.loc 1 160 0
 435 00e8 4A4A     		ldr	r2, .L40+4
 436 00ea 02A9     		add	r1, sp, #8
 437 00ec 1160     		str	r1, [r2]
 438              	.LVL30:
 161:Generated_Source\PSoC4/CyFlash.c ****                 CY_NOP;
 439              		.loc 1 161 0
 440 00ee 4D48     		ldr	r0, .L40+20
 441 00f0 4A49     		ldr	r1, .L40+12
 442 00f2 0860     		str	r0, [r1]
 162:Generated_Source\PSoC4/CyFlash.c ****                 retValue = CY_FLASH_API_RETURN;
 443              		.loc 1 162 0
 444              		.syntax divided
 445              	@ 162 "Generated_Source\PSoC4\CyFlash.c" 1
 446 00f4 C046     		NOP
 447              	
 448              	@ 0 "" 2
 163:Generated_Source\PSoC4/CyFlash.c ****             }
 449              		.loc 1 163 0
 450              		.thumb
 451              		.syntax unified
 452 00f6 1268     		ldr	r2, [r2]
 453 00f8 120F     		lsrs	r2, r2, #28
 454 00fa 1207     		lsls	r2, r2, #28
 455 00fc F021     		movs	r1, #240
 456 00fe 0906     		lsls	r1, r1, #24
 457 0100 8A42     		cmp	r2, r1
 458 0102 04D1     		bne	.L28
ARM GAS  C:\Users\CHUNGN~1\AppData\Local\Temp\ccjIQNej.s 			page 24


 163:Generated_Source\PSoC4/CyFlash.c ****             }
 459              		.loc 1 163 0 is_stmt 0 discriminator 1
 460 0104 434B     		ldr	r3, .L40+4
 461 0106 1B68     		ldr	r3, [r3]
 462 0108 FF22     		movs	r2, #255
 463 010a 1340     		ands	r3, r2
 464 010c 0BE0     		b	.L29
 465              	.L28:
 163:Generated_Source\PSoC4/CyFlash.c ****             }
 466              		.loc 1 163 0 discriminator 2
 467 010e 414A     		ldr	r2, .L40+4
 468 0110 1268     		ldr	r2, [r2]
 469 0112 120F     		lsrs	r2, r2, #28
 470 0114 1207     		lsls	r2, r2, #28
 471 0116 A021     		movs	r1, #160
 472 0118 0906     		lsls	r1, r1, #24
 473 011a 8A42     		cmp	r2, r1
 474 011c 03D0     		beq	.L29
 163:Generated_Source\PSoC4/CyFlash.c ****             }
 475              		.loc 1 163 0 discriminator 4
 476 011e 3D4B     		ldr	r3, .L40+4
 477 0120 1B68     		ldr	r3, [r3]
 478 0122 FF22     		movs	r2, #255
 479 0124 1340     		ands	r3, r2
 480              	.L29:
 163:Generated_Source\PSoC4/CyFlash.c ****             }
 481              		.loc 1 163 0 discriminator 8
 482 0126 1593     		str	r3, [sp, #84]
 483              	.L27:
 168:Generated_Source\PSoC4/CyFlash.c ****                 {
 484              		.loc 1 168 0 is_stmt 1
 485 0128 159B     		ldr	r3, [sp, #84]
 486 012a 9846     		mov	r8, r3
 487 012c 002B     		cmp	r3, #0
 488 012e 59D1     		bne	.L30
 168:Generated_Source\PSoC4/CyFlash.c ****                 {
 489              		.loc 1 168 0 is_stmt 0 discriminator 1
 490 0130 002E     		cmp	r6, #0
 491 0132 57D0     		beq	.L30
 170:Generated_Source\PSoC4/CyFlash.c ****                     parameters[savedIndex] = savedValue;
 492              		.loc 1 170 0 is_stmt 1
 493 0134 4022     		movs	r2, #64
 494 0136 0021     		movs	r1, #0
 495 0138 04A8     		add	r0, sp, #16
 496 013a FFF7FEFF 		bl	memset
 497              	.LVL31:
 171:Generated_Source\PSoC4/CyFlash.c **** 
 498              		.loc 1 171 0
 499 013e A400     		lsls	r4, r4, #2
 500              	.LVL32:
 501 0140 02AB     		add	r3, sp, #8
 502 0142 E750     		str	r7, [r4, r3]
 174:Generated_Source\PSoC4/CyFlash.c ****                                      (uint32) (CY_FLASH_PAGE_LATCH_START_ADDR             << CY_FLA
 503              		.loc 1 174 0
 504 0144 324B     		ldr	r3, .L40
 505 0146 0293     		str	r3, [sp, #8]
 178:Generated_Source\PSoC4/CyFlash.c **** 
ARM GAS  C:\Users\CHUNGN~1\AppData\Local\Temp\ccjIQNej.s 			page 25


 506              		.loc 1 178 0
 507 0148 3F23     		movs	r3, #63
 508 014a 0393     		str	r3, [sp, #12]
 180:Generated_Source\PSoC4/CyFlash.c ****                     CY_FLASH_CPUSS_SYSREQ_REG = CY_FLASH_CPUSS_REQ_START | CY_FLASH_API_OPCODE_LOAD
 509              		.loc 1 180 0
 510 014c 314B     		ldr	r3, .L40+4
 511 014e 02AA     		add	r2, sp, #8
 512 0150 1A60     		str	r2, [r3]
 181:Generated_Source\PSoC4/CyFlash.c ****                     CY_NOP;
 513              		.loc 1 181 0
 514 0152 3149     		ldr	r1, .L40+8
 515 0154 314A     		ldr	r2, .L40+12
 516 0156 1160     		str	r1, [r2]
 182:Generated_Source\PSoC4/CyFlash.c ****                     retValue = CY_FLASH_API_RETURN;
 517              		.loc 1 182 0
 518              		.syntax divided
 519              	@ 182 "Generated_Source\PSoC4\CyFlash.c" 1
 520 0158 C046     		NOP
 521              	
 522              	@ 0 "" 2
 183:Generated_Source\PSoC4/CyFlash.c **** 
 523              		.loc 1 183 0
 524              		.thumb
 525              		.syntax unified
 526 015a 1B68     		ldr	r3, [r3]
 527 015c 1B0F     		lsrs	r3, r3, #28
 528 015e 1B07     		lsls	r3, r3, #28
 529 0160 F022     		movs	r2, #240
 530 0162 1206     		lsls	r2, r2, #24
 531 0164 9342     		cmp	r3, r2
 532 0166 05D1     		bne	.L31
 183:Generated_Source\PSoC4/CyFlash.c **** 
 533              		.loc 1 183 0 is_stmt 0 discriminator 1
 534 0168 2A4B     		ldr	r3, .L40+4
 535 016a 1B68     		ldr	r3, [r3]
 536 016c FF22     		movs	r2, #255
 537 016e 1A40     		ands	r2, r3
 538 0170 9046     		mov	r8, r2
 539 0172 0CE0     		b	.L32
 540              	.L31:
 183:Generated_Source\PSoC4/CyFlash.c **** 
 541              		.loc 1 183 0 discriminator 2
 542 0174 274B     		ldr	r3, .L40+4
 543 0176 1B68     		ldr	r3, [r3]
 544 0178 1B0F     		lsrs	r3, r3, #28
 545 017a 1B07     		lsls	r3, r3, #28
 546 017c A022     		movs	r2, #160
 547 017e 1206     		lsls	r2, r2, #24
 548 0180 9342     		cmp	r3, r2
 549 0182 04D0     		beq	.L32
 183:Generated_Source\PSoC4/CyFlash.c **** 
 550              		.loc 1 183 0 discriminator 4
 551 0184 234B     		ldr	r3, .L40+4
 552 0186 1B68     		ldr	r3, [r3]
 553 0188 FF22     		movs	r2, #255
 554 018a 1A40     		ands	r2, r3
 555 018c 9046     		mov	r8, r2
ARM GAS  C:\Users\CHUNGN~1\AppData\Local\Temp\ccjIQNej.s 			page 26


 556              	.L32:
 183:Generated_Source\PSoC4/CyFlash.c **** 
 557              		.loc 1 183 0 discriminator 8
 558 018e 4346     		mov	r3, r8
 559 0190 1593     		str	r3, [sp, #84]
 186:Generated_Source\PSoC4/CyFlash.c ****                     {
 560              		.loc 1 186 0 is_stmt 1 discriminator 8
 561 0192 159B     		ldr	r3, [sp, #84]
 562 0194 002B     		cmp	r3, #0
 563 0196 25D1     		bne	.L30
 189:Generated_Source\PSoC4/CyFlash.c ****                             (uint32) (((uint32) CY_FLASH_KEY_TWO(CY_FLASH_API_OPCODE_PROGRAM_ROW) <
 564              		.loc 1 189 0
 565 0198 234A     		ldr	r2, .L40+24
 566 019a 0292     		str	r2, [sp, #8]
 192:Generated_Source\PSoC4/CyFlash.c **** 
 567              		.loc 1 192 0
 568 019c 029A     		ldr	r2, [sp, #8]
 569 019e 2D04     		lsls	r5, r5, #16
 570              	.LVL33:
 571 01a0 1543     		orrs	r5, r2
 572 01a2 0295     		str	r5, [sp, #8]
 194:Generated_Source\PSoC4/CyFlash.c ****                         CY_FLASH_CPUSS_SYSREQ_REG = CY_FLASH_CPUSS_REQ_START | CY_FLASH_API_OPCODE_
 573              		.loc 1 194 0
 574 01a4 1B4A     		ldr	r2, .L40+4
 575 01a6 02A9     		add	r1, sp, #8
 576 01a8 1160     		str	r1, [r2]
 195:Generated_Source\PSoC4/CyFlash.c ****                         CY_NOP;
 577              		.loc 1 195 0
 578 01aa 2048     		ldr	r0, .L40+28
 579 01ac 1B49     		ldr	r1, .L40+12
 580 01ae 0860     		str	r0, [r1]
 196:Generated_Source\PSoC4/CyFlash.c ****                         retValue = CY_FLASH_API_RETURN;
 581              		.loc 1 196 0
 582              		.syntax divided
 583              	@ 196 "Generated_Source\PSoC4\CyFlash.c" 1
 584 01b0 C046     		NOP
 585              	
 586              	@ 0 "" 2
 197:Generated_Source\PSoC4/CyFlash.c ****                     }
 587              		.loc 1 197 0
 588              		.thumb
 589              		.syntax unified
 590 01b2 1268     		ldr	r2, [r2]
 591 01b4 120F     		lsrs	r2, r2, #28
 592 01b6 1207     		lsls	r2, r2, #28
 593 01b8 F021     		movs	r1, #240
 594 01ba 0906     		lsls	r1, r1, #24
 595 01bc 8A42     		cmp	r2, r1
 596 01be 04D1     		bne	.L33
 197:Generated_Source\PSoC4/CyFlash.c ****                     }
 597              		.loc 1 197 0 is_stmt 0 discriminator 1
 598 01c0 144B     		ldr	r3, .L40+4
 599 01c2 1B68     		ldr	r3, [r3]
 600 01c4 FF22     		movs	r2, #255
 601 01c6 1340     		ands	r3, r2
 602 01c8 0BE0     		b	.L34
 603              	.L33:
ARM GAS  C:\Users\CHUNGN~1\AppData\Local\Temp\ccjIQNej.s 			page 27


 197:Generated_Source\PSoC4/CyFlash.c ****                     }
 604              		.loc 1 197 0 discriminator 2
 605 01ca 124A     		ldr	r2, .L40+4
 606 01cc 1268     		ldr	r2, [r2]
 607 01ce 120F     		lsrs	r2, r2, #28
 608 01d0 1207     		lsls	r2, r2, #28
 609 01d2 A021     		movs	r1, #160
 610 01d4 0906     		lsls	r1, r1, #24
 611 01d6 8A42     		cmp	r2, r1
 612 01d8 03D0     		beq	.L34
 197:Generated_Source\PSoC4/CyFlash.c ****                     }
 613              		.loc 1 197 0 discriminator 4
 614 01da 0E4B     		ldr	r3, .L40+4
 615 01dc 1B68     		ldr	r3, [r3]
 616 01de FF22     		movs	r2, #255
 617 01e0 1340     		ands	r3, r2
 618              	.L34:
 197:Generated_Source\PSoC4/CyFlash.c ****                     }
 619              		.loc 1 197 0 discriminator 8
 620 01e2 1593     		str	r3, [sp, #84]
 621              	.L30:
 202:Generated_Source\PSoC4/CyFlash.c ****             {
 622              		.loc 1 202 0 is_stmt 1
 623 01e4 149B     		ldr	r3, [sp, #80]
 624 01e6 002B     		cmp	r3, #0
 625 01e8 07D1     		bne	.L35
 204:Generated_Source\PSoC4/CyFlash.c **** 
 626              		.loc 1 204 0
 627 01ea FFF7FEFF 		bl	CySysFlashClockRestore
 628              	.LVL34:
 629 01ee 1490     		str	r0, [sp, #80]
 206:Generated_Source\PSoC4/CyFlash.c ****                 {
 630              		.loc 1 206 0
 631 01f0 149B     		ldr	r3, [sp, #80]
 632 01f2 002B     		cmp	r3, #0
 633 01f4 01D0     		beq	.L35
 208:Generated_Source\PSoC4/CyFlash.c ****                 }
 634              		.loc 1 208 0
 635 01f6 149B     		ldr	r3, [sp, #80]
 636 01f8 1593     		str	r3, [sp, #84]
 637              	.L35:
 212:Generated_Source\PSoC4/CyFlash.c ****         }
 638              		.loc 1 212 0
 639 01fa 0198     		ldr	r0, [sp, #4]
 640 01fc FFF7FEFF 		bl	CyExitCriticalSection
 641              	.LVL35:
 642 0200 01E0     		b	.L25
 643              	.LVL36:
 644              	.L17:
 217:Generated_Source\PSoC4/CyFlash.c ****     }
 645              		.loc 1 217 0
 646 0202 0423     		movs	r3, #4
 647 0204 1593     		str	r3, [sp, #84]
 648              	.LVL37:
 649              	.L25:
 220:Generated_Source\PSoC4/CyFlash.c **** }
 650              		.loc 1 220 0
ARM GAS  C:\Users\CHUNGN~1\AppData\Local\Temp\ccjIQNej.s 			page 28


 651 0206 1598     		ldr	r0, [sp, #84]
 221:Generated_Source\PSoC4/CyFlash.c **** 
 652              		.loc 1 221 0
 653 0208 16B0     		add	sp, sp, #88
 654              		@ sp needed
 655 020a 04BC     		pop	{r2}
 656 020c 9046     		mov	r8, r2
 657 020e F0BD     		pop	{r4, r5, r6, r7, pc}
 658              	.L41:
 659              		.align	2
 660              	.L40:
 661 0210 B6D70000 		.word	55222
 662 0214 08001040 		.word	1074790408
 663 0218 04000080 		.word	-2147483644
 664 021c 04001040 		.word	1074790404
 665 0220 B6D80000 		.word	55478
 666 0224 05000080 		.word	-2147483643
 667 0228 B6D90000 		.word	55734
 668 022c 06000080 		.word	-2147483642
 669              		.cfi_endproc
 670              	.LFE0:
 671              		.size	CySysFlashWriteRow, .-CySysFlashWriteRow
 672              		.section	.text.CySysFlashSetWaitCycles,"ax",%progbits
 673              		.align	2
 674              		.global	CySysFlashSetWaitCycles
 675              		.code	16
 676              		.thumb_func
 677              		.type	CySysFlashSetWaitCycles, %function
 678              	CySysFlashSetWaitCycles:
 679              	.LFB1:
 423:Generated_Source\PSoC4/CyFlash.c ****     uint8  interruptState;
 680              		.loc 1 423 0
 681              		.cfi_startproc
 682              		@ args = 0, pretend = 0, frame = 0
 683              		@ frame_needed = 0, uses_anonymous_args = 0
 684              	.LVL38:
 685 0000 70B5     		push	{r4, r5, r6, lr}
 686              		.cfi_def_cfa_offset 16
 687              		.cfi_offset 4, -16
 688              		.cfi_offset 5, -12
 689              		.cfi_offset 6, -8
 690              		.cfi_offset 14, -4
 691 0002 0400     		movs	r4, r0
 426:Generated_Source\PSoC4/CyFlash.c **** 
 692              		.loc 1 426 0
 693 0004 FFF7FEFF 		bl	CyEnterCriticalSection
 694              	.LVL39:
 695 0008 0500     		movs	r5, r0
 696              	.LVL40:
 441:Generated_Source\PSoC4/CyFlash.c ****             {
 697              		.loc 1 441 0
 698 000a 102C     		cmp	r4, #16
 699 000c 05D8     		bhi	.L43
 443:Generated_Source\PSoC4/CyFlash.c ****             } else
 700              		.loc 1 443 0
 701 000e 104A     		ldr	r2, .L47
 702 0010 1368     		ldr	r3, [r2]
ARM GAS  C:\Users\CHUNGN~1\AppData\Local\Temp\ccjIQNej.s 			page 29


 703 0012 0321     		movs	r1, #3
 704 0014 8B43     		bics	r3, r1
 705 0016 1360     		str	r3, [r2]
 706 0018 16E0     		b	.L44
 707              	.L43:
 445:Generated_Source\PSoC4/CyFlash.c ****             {
 708              		.loc 1 445 0
 709 001a 202C     		cmp	r4, #32
 710 001c 07D8     		bhi	.L45
 447:Generated_Source\PSoC4/CyFlash.c ****             } else
 711              		.loc 1 447 0
 712 001e 0C49     		ldr	r1, .L47
 713 0020 0B68     		ldr	r3, [r1]
 714 0022 0322     		movs	r2, #3
 715 0024 9343     		bics	r3, r2
 716 0026 023A     		subs	r2, r2, #2
 717 0028 1343     		orrs	r3, r2
 718 002a 0B60     		str	r3, [r1]
 719 002c 0CE0     		b	.L44
 720              	.L45:
 450:Generated_Source\PSoC4/CyFlash.c ****                 {
 721              		.loc 1 450 0
 722 002e 302C     		cmp	r4, #48
 723 0030 07D8     		bhi	.L46
 452:Generated_Source\PSoC4/CyFlash.c ****                 }
 724              		.loc 1 452 0
 725 0032 0749     		ldr	r1, .L47
 726 0034 0B68     		ldr	r3, [r1]
 727 0036 0322     		movs	r2, #3
 728 0038 9343     		bics	r3, r2
 729 003a 013A     		subs	r2, r2, #1
 730 003c 1343     		orrs	r3, r2
 731 003e 0B60     		str	r3, [r1]
 732 0040 02E0     		b	.L44
 733              	.L46:
 459:Generated_Source\PSoC4/CyFlash.c ****         }
 734              		.loc 1 459 0 discriminator 1
 735 0042 0020     		movs	r0, #0
 736 0044 FFF7FEFF 		bl	CyHalt
 737              	.LVL41:
 738              	.L44:
 464:Generated_Source\PSoC4/CyFlash.c **** }
 739              		.loc 1 464 0
 740 0048 2800     		movs	r0, r5
 741 004a FFF7FEFF 		bl	CyExitCriticalSection
 742              	.LVL42:
 465:Generated_Source\PSoC4/CyFlash.c **** 
 743              		.loc 1 465 0
 744              		@ sp needed
 745              	.LVL43:
 746              	.LVL44:
 747 004e 70BD     		pop	{r4, r5, r6, pc}
 748              	.L48:
 749              		.align	2
 750              	.L47:
 751 0050 30001040 		.word	1074790448
 752              		.cfi_endproc
ARM GAS  C:\Users\CHUNGN~1\AppData\Local\Temp\ccjIQNej.s 			page 30


 753              	.LFE1:
 754              		.size	CySysFlashSetWaitCycles, .-CySysFlashSetWaitCycles
 755              		.bss
 756              		.align	2
 757              		.set	.LANCHOR0,. + 0
 758              		.type	cySysFlashBackup, %object
 759              		.size	cySysFlashBackup, 12
 760              	cySysFlashBackup:
 761 0000 00000000 		.space	12
 761      00000000 
 761      00000000 
 762              		.text
 763              	.Letext0:
 764              		.file 2 "Generated_Source\\PSoC4\\cytypes.h"
 765              		.file 3 "Generated_Source\\PSoC4\\CyFlash.h"
 766              		.file 4 "Generated_Source\\PSoC4\\CyLib.h"
