ARM GAS  C:\Users\CHUNGN~1\AppData\Local\Temp\ccAUT1Sz.s 			page 1


   1              		.syntax unified
   2              		.cpu cortex-m0
   3              		.fpu softvfp
   4              		.eabi_attribute 20, 1
   5              		.eabi_attribute 21, 1
   6              		.eabi_attribute 23, 3
   7              		.eabi_attribute 24, 1
   8              		.eabi_attribute 25, 1
   9              		.eabi_attribute 26, 1
  10              		.eabi_attribute 30, 1
  11              		.eabi_attribute 34, 0
  12              		.eabi_attribute 18, 4
  13              		.thumb
  14              		.syntax unified
  15              		.file	"i2c_user.c"
  16              		.text
  17              	.Ltext0:
  18              		.cfi_sections	.debug_frame
  19              		.section	.text.i2c_user_master_init,"ax",%progbits
  20              		.align	2
  21              		.global	i2c_user_master_init
  22              		.code	16
  23              		.thumb_func
  24              		.type	i2c_user_master_init, %function
  25              	i2c_user_master_init:
  26              	.LFB0:
  27              		.file 1 "myLib\\i2c_user\\i2c_user.c"
   1:myLib\i2c_user/i2c_user.c **** /* ========================================
   2:myLib\i2c_user/i2c_user.c ****  *
   3:myLib\i2c_user/i2c_user.c ****  * Copyright YOUR COMPANY, THE YEAR
   4:myLib\i2c_user/i2c_user.c ****  * All Rights Reserved
   5:myLib\i2c_user/i2c_user.c ****  * UNPUBLISHED, LICENSED SOFTWARE.
   6:myLib\i2c_user/i2c_user.c ****  *
   7:myLib\i2c_user/i2c_user.c ****  * CONFIDENTIAL AND PROPRIETARY INFORMATION
   8:myLib\i2c_user/i2c_user.c ****  * WHICH IS THE PROPERTY OF your company.
   9:myLib\i2c_user/i2c_user.c ****  *
  10:myLib\i2c_user/i2c_user.c ****  * ========================================
  11:myLib\i2c_user/i2c_user.c **** */
  12:myLib\i2c_user/i2c_user.c **** #include "i2c_user.h"
  13:myLib\i2c_user/i2c_user.c **** /*----------------------------------------*/
  14:myLib\i2c_user/i2c_user.c ****             /* MASTER MODE */
  15:myLib\i2c_user/i2c_user.c ****         /* Module name: I2CM */
  16:myLib\i2c_user/i2c_user.c **** /*----------------------------------------*/
  17:myLib\i2c_user/i2c_user.c **** static uint8_t i2c_slaveAdd;
  18:myLib\i2c_user/i2c_user.c **** 
  19:myLib\i2c_user/i2c_user.c **** /******************************************
  20:myLib\i2c_user/i2c_user.c **** * init slave address in master mode
  21:myLib\i2c_user/i2c_user.c **** ******************************************/
  22:myLib\i2c_user/i2c_user.c **** void i2c_user_master_init(uint8_t slaveAdd)
  23:myLib\i2c_user/i2c_user.c **** {
  28              		.loc 1 23 0
  29              		.cfi_startproc
  30              		@ args = 0, pretend = 0, frame = 0
  31              		@ frame_needed = 0, uses_anonymous_args = 0
  32              	.LVL0:
  33 0000 10B5     		push	{r4, lr}
  34              		.cfi_def_cfa_offset 8
ARM GAS  C:\Users\CHUNGN~1\AppData\Local\Temp\ccAUT1Sz.s 			page 2


  35              		.cfi_offset 4, -8
  36              		.cfi_offset 14, -4
  24:myLib\i2c_user/i2c_user.c ****     i2c_slaveAdd = slaveAdd;
  37              		.loc 1 24 0
  38 0002 024B     		ldr	r3, .L2
  39 0004 1870     		strb	r0, [r3]
  25:myLib\i2c_user/i2c_user.c ****     I2CM_Start();
  40              		.loc 1 25 0
  41 0006 FFF7FEFF 		bl	I2CM_Start
  42              	.LVL1:
  26:myLib\i2c_user/i2c_user.c **** }
  43              		.loc 1 26 0
  44              		@ sp needed
  45 000a 10BD     		pop	{r4, pc}
  46              	.L3:
  47              		.align	2
  48              	.L2:
  49 000c 00000000 		.word	.LANCHOR0
  50              		.cfi_endproc
  51              	.LFE0:
  52              		.size	i2c_user_master_init, .-i2c_user_master_init
  53              		.section	.text.i2c_user_master_writeByte,"ax",%progbits
  54              		.align	2
  55              		.global	i2c_user_master_writeByte
  56              		.code	16
  57              		.thumb_func
  58              		.type	i2c_user_master_writeByte, %function
  59              	i2c_user_master_writeByte:
  60              	.LFB1:
  27:myLib\i2c_user/i2c_user.c **** 
  28:myLib\i2c_user/i2c_user.c **** /******************************************
  29:myLib\i2c_user/i2c_user.c **** * master write 1 byte to slaver at address
  30:myLib\i2c_user/i2c_user.c **** * return error type
  31:myLib\i2c_user/i2c_user.c **** * example: i2c_user_master_writeByte(0x00, dataIn);
  32:myLib\i2c_user/i2c_user.c **** ******************************************/
  33:myLib\i2c_user/i2c_user.c **** I2CM_ErrorTypedef_t i2c_user_master_writeByte(uint8_t add, uint8_t byte)
  34:myLib\i2c_user/i2c_user.c **** {
  61              		.loc 1 34 0
  62              		.cfi_startproc
  63              		@ args = 0, pretend = 0, frame = 0
  64              		@ frame_needed = 0, uses_anonymous_args = 0
  65              	.LVL2:
  66 0000 70B5     		push	{r4, r5, r6, lr}
  67              		.cfi_def_cfa_offset 16
  68              		.cfi_offset 4, -16
  69              		.cfi_offset 5, -12
  70              		.cfi_offset 6, -8
  71              		.cfi_offset 14, -4
  72 0002 0500     		movs	r5, r0
  73 0004 0C00     		movs	r4, r1
  74              	.LVL3:
  35:myLib\i2c_user/i2c_user.c ****     I2CM_ErrorTypedef_t status = I2CM_I2C_MSTR_NO_ERROR;
  36:myLib\i2c_user/i2c_user.c ****     status = I2CM_I2CMasterSendStart(i2c_slaveAdd, I2CM_I2C_WRITE_XFER_MODE, 100);
  75              		.loc 1 36 0
  76 0006 094B     		ldr	r3, .L5
  77 0008 1878     		ldrb	r0, [r3]
  78              	.LVL4:
ARM GAS  C:\Users\CHUNGN~1\AppData\Local\Temp\ccAUT1Sz.s 			page 3


  79 000a 6422     		movs	r2, #100
  80 000c 0021     		movs	r1, #0
  81              	.LVL5:
  82 000e FFF7FEFF 		bl	I2CM_I2CMasterSendStart
  83              	.LVL6:
  37:myLib\i2c_user/i2c_user.c ****     status = I2CM_I2CMasterWriteByte(add, 100);
  84              		.loc 1 37 0
  85 0012 6421     		movs	r1, #100
  86 0014 2800     		movs	r0, r5
  87 0016 FFF7FEFF 		bl	I2CM_I2CMasterWriteByte
  88              	.LVL7:
  38:myLib\i2c_user/i2c_user.c ****     status = I2CM_I2CMasterWriteByte(byte, 100);
  89              		.loc 1 38 0
  90 001a 6421     		movs	r1, #100
  91 001c 2000     		movs	r0, r4
  92 001e FFF7FEFF 		bl	I2CM_I2CMasterWriteByte
  93              	.LVL8:
  39:myLib\i2c_user/i2c_user.c ****     status = I2CM_I2CMasterSendStop(100);
  94              		.loc 1 39 0
  95 0022 6420     		movs	r0, #100
  96 0024 FFF7FEFF 		bl	I2CM_I2CMasterSendStop
  97              	.LVL9:
  40:myLib\i2c_user/i2c_user.c ****     return status;
  41:myLib\i2c_user/i2c_user.c **** }
  98              		.loc 1 41 0
  99              		@ sp needed
 100 0028 70BD     		pop	{r4, r5, r6, pc}
 101              	.L6:
 102 002a C046     		.align	2
 103              	.L5:
 104 002c 00000000 		.word	.LANCHOR0
 105              		.cfi_endproc
 106              	.LFE1:
 107              		.size	i2c_user_master_writeByte, .-i2c_user_master_writeByte
 108              		.section	.text.i2c_user_master_readByte,"ax",%progbits
 109              		.align	2
 110              		.global	i2c_user_master_readByte
 111              		.code	16
 112              		.thumb_func
 113              		.type	i2c_user_master_readByte, %function
 114              	i2c_user_master_readByte:
 115              	.LFB2:
  42:myLib\i2c_user/i2c_user.c **** 
  43:myLib\i2c_user/i2c_user.c **** /******************************************
  44:myLib\i2c_user/i2c_user.c **** * master read 1 byte from slaver at address
  45:myLib\i2c_user/i2c_user.c **** * return error type
  46:myLib\i2c_user/i2c_user.c **** * example: i2c_user_master_readByte(0x00, &dataOut);
  47:myLib\i2c_user/i2c_user.c **** ******************************************/
  48:myLib\i2c_user/i2c_user.c **** I2CM_ErrorTypedef_t i2c_user_master_readByte(uint8_t add, uint8_t *byte)
  49:myLib\i2c_user/i2c_user.c **** {
 116              		.loc 1 49 0
 117              		.cfi_startproc
 118              		@ args = 0, pretend = 0, frame = 0
 119              		@ frame_needed = 0, uses_anonymous_args = 0
 120              	.LVL10:
 121 0000 70B5     		push	{r4, r5, r6, lr}
 122              		.cfi_def_cfa_offset 16
ARM GAS  C:\Users\CHUNGN~1\AppData\Local\Temp\ccAUT1Sz.s 			page 4


 123              		.cfi_offset 4, -16
 124              		.cfi_offset 5, -12
 125              		.cfi_offset 6, -8
 126              		.cfi_offset 14, -4
 127 0002 0600     		movs	r6, r0
 128 0004 0D00     		movs	r5, r1
 129              	.LVL11:
  50:myLib\i2c_user/i2c_user.c ****     I2CM_ErrorTypedef_t status = I2CM_I2C_MSTR_NO_ERROR;
  51:myLib\i2c_user/i2c_user.c ****     status = I2CM_I2CMasterSendStart(i2c_slaveAdd, I2CM_I2C_WRITE_XFER_MODE, 100);
 130              		.loc 1 51 0
 131 0006 0C4C     		ldr	r4, .L8
 132 0008 2078     		ldrb	r0, [r4]
 133              	.LVL12:
 134 000a 6422     		movs	r2, #100
 135 000c 0021     		movs	r1, #0
 136              	.LVL13:
 137 000e FFF7FEFF 		bl	I2CM_I2CMasterSendStart
 138              	.LVL14:
  52:myLib\i2c_user/i2c_user.c ****     status = I2CM_I2CMasterWriteByte(add, 100);
 139              		.loc 1 52 0
 140 0012 6421     		movs	r1, #100
 141 0014 3000     		movs	r0, r6
 142 0016 FFF7FEFF 		bl	I2CM_I2CMasterWriteByte
 143              	.LVL15:
  53:myLib\i2c_user/i2c_user.c ****     status = I2CM_I2CMasterSendRestart(i2c_slaveAdd, I2CM_I2C_READ_XFER_MODE, 100);
 144              		.loc 1 53 0
 145 001a 2078     		ldrb	r0, [r4]
 146 001c 6422     		movs	r2, #100
 147 001e 0121     		movs	r1, #1
 148 0020 FFF7FEFF 		bl	I2CM_I2CMasterSendRestart
 149              	.LVL16:
  54:myLib\i2c_user/i2c_user.c ****     status = I2CM_I2CMasterReadByte(I2CM_I2C_NAK_DATA, byte, 100);
 150              		.loc 1 54 0
 151 0024 6422     		movs	r2, #100
 152 0026 2900     		movs	r1, r5
 153 0028 0120     		movs	r0, #1
 154 002a FFF7FEFF 		bl	I2CM_I2CMasterReadByte
 155              	.LVL17:
  55:myLib\i2c_user/i2c_user.c ****     status = I2CM_I2CMasterSendStop(100);
 156              		.loc 1 55 0
 157 002e 6420     		movs	r0, #100
 158 0030 FFF7FEFF 		bl	I2CM_I2CMasterSendStop
 159              	.LVL18:
  56:myLib\i2c_user/i2c_user.c ****     return status;
  57:myLib\i2c_user/i2c_user.c **** }
 160              		.loc 1 57 0
 161              		@ sp needed
 162              	.LVL19:
 163 0034 70BD     		pop	{r4, r5, r6, pc}
 164              	.L9:
 165 0036 C046     		.align	2
 166              	.L8:
 167 0038 00000000 		.word	.LANCHOR0
 168              		.cfi_endproc
 169              	.LFE2:
 170              		.size	i2c_user_master_readByte, .-i2c_user_master_readByte
 171              		.section	.text.i2c_user_master_writeData,"ax",%progbits
ARM GAS  C:\Users\CHUNGN~1\AppData\Local\Temp\ccAUT1Sz.s 			page 5


 172              		.align	2
 173              		.global	i2c_user_master_writeData
 174              		.code	16
 175              		.thumb_func
 176              		.type	i2c_user_master_writeData, %function
 177              	i2c_user_master_writeData:
 178              	.LFB3:
  58:myLib\i2c_user/i2c_user.c **** 
  59:myLib\i2c_user/i2c_user.c **** /******************************************
  60:myLib\i2c_user/i2c_user.c **** * master write data typedef to slaver at address
  61:myLib\i2c_user/i2c_user.c **** * return error type
  62:myLib\i2c_user/i2c_user.c **** * example: 
  63:myLib\i2c_user/i2c_user.c **** *         - dataTypedef_t dataIn;
  64:myLib\i2c_user/i2c_user.c **** *         - i2c_user_master_writeData(0x00, (dataTypedef_t)&dataIn, sizeof(dataIn));
  65:myLib\i2c_user/i2c_user.c **** ******************************************/
  66:myLib\i2c_user/i2c_user.c **** I2CM_ErrorTypedef_t i2c_user_master_writeData(uint8_t add, void *dataTx, uint32_t sizeData)
  67:myLib\i2c_user/i2c_user.c **** {
 179              		.loc 1 67 0
 180              		.cfi_startproc
 181              		@ args = 0, pretend = 0, frame = 0
 182              		@ frame_needed = 0, uses_anonymous_args = 0
 183              	.LVL20:
 184 0000 70B5     		push	{r4, r5, r6, lr}
 185              		.cfi_def_cfa_offset 16
 186              		.cfi_offset 4, -16
 187              		.cfi_offset 5, -12
 188              		.cfi_offset 6, -8
 189              		.cfi_offset 14, -4
 190 0002 0400     		movs	r4, r0
 191 0004 0E00     		movs	r6, r1
 192 0006 1500     		movs	r5, r2
 193              	.LVL21:
  68:myLib\i2c_user/i2c_user.c ****     I2CM_ErrorTypedef_t status = I2CM_I2C_MSTR_NO_ERROR;
  69:myLib\i2c_user/i2c_user.c ****     uint32_t len;
  70:myLib\i2c_user/i2c_user.c ****     uint8_t *p;
  71:myLib\i2c_user/i2c_user.c ****     p = (uint8_t*)dataTx;
  72:myLib\i2c_user/i2c_user.c ****     status = I2CM_I2CMasterSendStart(i2c_slaveAdd, I2CM_I2C_WRITE_XFER_MODE, 100);
 194              		.loc 1 72 0
 195 0008 0B4B     		ldr	r3, .L13
 196 000a 1878     		ldrb	r0, [r3]
 197              	.LVL22:
 198 000c 6422     		movs	r2, #100
 199              	.LVL23:
 200 000e 0021     		movs	r1, #0
 201              	.LVL24:
 202 0010 FFF7FEFF 		bl	I2CM_I2CMasterSendStart
 203              	.LVL25:
  73:myLib\i2c_user/i2c_user.c ****     status = I2CM_I2CMasterWriteByte(add, 100);
 204              		.loc 1 73 0
 205 0014 6421     		movs	r1, #100
 206 0016 2000     		movs	r0, r4
 207 0018 FFF7FEFF 		bl	I2CM_I2CMasterWriteByte
 208              	.LVL26:
  74:myLib\i2c_user/i2c_user.c ****     for(len = 0; len < sizeData; len++)
 209              		.loc 1 74 0
 210 001c 0024     		movs	r4, #0
 211 001e 04E0     		b	.L11
ARM GAS  C:\Users\CHUNGN~1\AppData\Local\Temp\ccAUT1Sz.s 			page 6


 212              	.LVL27:
 213              	.L12:
  75:myLib\i2c_user/i2c_user.c ****     {
  76:myLib\i2c_user/i2c_user.c ****         status = I2CM_I2CMasterWriteByte(p[len], 100);
 214              		.loc 1 76 0 discriminator 3
 215 0020 305D     		ldrb	r0, [r6, r4]
 216 0022 6421     		movs	r1, #100
 217 0024 FFF7FEFF 		bl	I2CM_I2CMasterWriteByte
 218              	.LVL28:
  74:myLib\i2c_user/i2c_user.c ****     for(len = 0; len < sizeData; len++)
 219              		.loc 1 74 0 discriminator 3
 220 0028 0134     		adds	r4, r4, #1
 221              	.LVL29:
 222              	.L11:
  74:myLib\i2c_user/i2c_user.c ****     for(len = 0; len < sizeData; len++)
 223              		.loc 1 74 0 is_stmt 0 discriminator 1
 224 002a AC42     		cmp	r4, r5
 225 002c F8D3     		bcc	.L12
  77:myLib\i2c_user/i2c_user.c ****     }
  78:myLib\i2c_user/i2c_user.c ****     status = I2CM_I2CMasterSendStop(100);
 226              		.loc 1 78 0 is_stmt 1
 227 002e 6420     		movs	r0, #100
 228 0030 FFF7FEFF 		bl	I2CM_I2CMasterSendStop
 229              	.LVL30:
  79:myLib\i2c_user/i2c_user.c ****     return status;
  80:myLib\i2c_user/i2c_user.c **** }
 230              		.loc 1 80 0
 231              		@ sp needed
 232              	.LVL31:
 233              	.LVL32:
 234              	.LVL33:
 235 0034 70BD     		pop	{r4, r5, r6, pc}
 236              	.L14:
 237 0036 C046     		.align	2
 238              	.L13:
 239 0038 00000000 		.word	.LANCHOR0
 240              		.cfi_endproc
 241              	.LFE3:
 242              		.size	i2c_user_master_writeData, .-i2c_user_master_writeData
 243              		.section	.text.i2c_user_master_readData,"ax",%progbits
 244              		.align	2
 245              		.global	i2c_user_master_readData
 246              		.code	16
 247              		.thumb_func
 248              		.type	i2c_user_master_readData, %function
 249              	i2c_user_master_readData:
 250              	.LFB4:
  81:myLib\i2c_user/i2c_user.c **** 
  82:myLib\i2c_user/i2c_user.c **** /******************************************
  83:myLib\i2c_user/i2c_user.c **** * master read data typedef from slaver at address
  84:myLib\i2c_user/i2c_user.c **** * return error type
  85:myLib\i2c_user/i2c_user.c **** * example: 
  86:myLib\i2c_user/i2c_user.c **** *         - dataTypedef_t dataOut;
  87:myLib\i2c_user/i2c_user.c **** *         - i2c_user_master_readData(0x00, (dataTypedef_t)&dataOut, sizeof(dataOut));
  88:myLib\i2c_user/i2c_user.c **** ******************************************/
  89:myLib\i2c_user/i2c_user.c **** I2CM_ErrorTypedef_t i2c_user_master_readData(uint8_t add, void *dataRx, uint32_t sizeData)
  90:myLib\i2c_user/i2c_user.c **** {
ARM GAS  C:\Users\CHUNGN~1\AppData\Local\Temp\ccAUT1Sz.s 			page 7


 251              		.loc 1 90 0
 252              		.cfi_startproc
 253              		@ args = 0, pretend = 0, frame = 0
 254              		@ frame_needed = 0, uses_anonymous_args = 0
 255              	.LVL34:
 256 0000 F8B5     		push	{r3, r4, r5, r6, r7, lr}
 257              		.cfi_def_cfa_offset 24
 258              		.cfi_offset 3, -24
 259              		.cfi_offset 4, -20
 260              		.cfi_offset 5, -16
 261              		.cfi_offset 6, -12
 262              		.cfi_offset 7, -8
 263              		.cfi_offset 14, -4
 264 0002 0700     		movs	r7, r0
 265 0004 0D00     		movs	r5, r1
 266 0006 1600     		movs	r6, r2
 267              	.LVL35:
  91:myLib\i2c_user/i2c_user.c ****     I2CM_ErrorTypedef_t status = I2CM_I2C_MSTR_NO_ERROR;
  92:myLib\i2c_user/i2c_user.c ****     uint32_t len;
  93:myLib\i2c_user/i2c_user.c ****     uint8_t *p;
  94:myLib\i2c_user/i2c_user.c ****     p = (uint8_t*)dataRx;
  95:myLib\i2c_user/i2c_user.c ****     status = I2CM_I2CMasterSendStart(i2c_slaveAdd, I2CM_I2C_WRITE_XFER_MODE, 100);
 268              		.loc 1 95 0
 269 0008 114C     		ldr	r4, .L18
 270 000a 2078     		ldrb	r0, [r4]
 271              	.LVL36:
 272 000c 6422     		movs	r2, #100
 273              	.LVL37:
 274 000e 0021     		movs	r1, #0
 275              	.LVL38:
 276 0010 FFF7FEFF 		bl	I2CM_I2CMasterSendStart
 277              	.LVL39:
  96:myLib\i2c_user/i2c_user.c ****     status = I2CM_I2CMasterWriteByte(add, 100);
 278              		.loc 1 96 0
 279 0014 6421     		movs	r1, #100
 280 0016 3800     		movs	r0, r7
 281 0018 FFF7FEFF 		bl	I2CM_I2CMasterWriteByte
 282              	.LVL40:
  97:myLib\i2c_user/i2c_user.c ****     status = I2CM_I2CMasterSendRestart(i2c_slaveAdd, I2CM_I2C_READ_XFER_MODE, 100);
 283              		.loc 1 97 0
 284 001c 2078     		ldrb	r0, [r4]
 285 001e 6422     		movs	r2, #100
 286 0020 0121     		movs	r1, #1
 287 0022 FFF7FEFF 		bl	I2CM_I2CMasterSendRestart
 288              	.LVL41:
  98:myLib\i2c_user/i2c_user.c ****     for(len = 0; len < sizeData-1; len++)
 289              		.loc 1 98 0
 290 0026 0024     		movs	r4, #0
 291 0028 05E0     		b	.L16
 292              	.LVL42:
 293              	.L17:
  99:myLib\i2c_user/i2c_user.c ****     {
 100:myLib\i2c_user/i2c_user.c ****         status = I2CM_I2CMasterReadByte(I2CM_I2C_ACK_DATA, &p[len], 100);
 294              		.loc 1 100 0 discriminator 3
 295 002a 2919     		adds	r1, r5, r4
 296 002c 6422     		movs	r2, #100
 297 002e 0020     		movs	r0, #0
ARM GAS  C:\Users\CHUNGN~1\AppData\Local\Temp\ccAUT1Sz.s 			page 8


 298 0030 FFF7FEFF 		bl	I2CM_I2CMasterReadByte
 299              	.LVL43:
  98:myLib\i2c_user/i2c_user.c ****     for(len = 0; len < sizeData-1; len++)
 300              		.loc 1 98 0 discriminator 3
 301 0034 0134     		adds	r4, r4, #1
 302              	.LVL44:
 303              	.L16:
  98:myLib\i2c_user/i2c_user.c ****     for(len = 0; len < sizeData-1; len++)
 304              		.loc 1 98 0 is_stmt 0 discriminator 1
 305 0036 731E     		subs	r3, r6, #1
 306 0038 9C42     		cmp	r4, r3
 307 003a F6D3     		bcc	.L17
 101:myLib\i2c_user/i2c_user.c ****     }
 102:myLib\i2c_user/i2c_user.c ****     status = I2CM_I2CMasterReadByte(I2CM_I2C_NAK_DATA, &p[len], 100);
 308              		.loc 1 102 0 is_stmt 1
 309 003c 2919     		adds	r1, r5, r4
 310 003e 6422     		movs	r2, #100
 311 0040 0120     		movs	r0, #1
 312 0042 FFF7FEFF 		bl	I2CM_I2CMasterReadByte
 313              	.LVL45:
 103:myLib\i2c_user/i2c_user.c ****     status = I2CM_I2CMasterSendStop(100);
 314              		.loc 1 103 0
 315 0046 6420     		movs	r0, #100
 316 0048 FFF7FEFF 		bl	I2CM_I2CMasterSendStop
 317              	.LVL46:
 104:myLib\i2c_user/i2c_user.c ****     return status;
 105:myLib\i2c_user/i2c_user.c **** }
 318              		.loc 1 105 0
 319              		@ sp needed
 320              	.LVL47:
 321              	.LVL48:
 322              	.LVL49:
 323 004c F8BD     		pop	{r3, r4, r5, r6, r7, pc}
 324              	.L19:
 325 004e C046     		.align	2
 326              	.L18:
 327 0050 00000000 		.word	.LANCHOR0
 328              		.cfi_endproc
 329              	.LFE4:
 330              		.size	i2c_user_master_readData, .-i2c_user_master_readData
 331              		.bss
 332              		.set	.LANCHOR0,. + 0
 333              		.type	i2c_slaveAdd, %object
 334              		.size	i2c_slaveAdd, 1
 335              	i2c_slaveAdd:
 336 0000 00       		.space	1
 337              		.text
 338              	.Letext0:
 339              		.file 2 "c:\\program files (x86)\\cypress\\psoc creator\\4.2\\psoc creator\\import\\gnu\\arm\\5.4.
 340              		.file 3 "c:\\program files (x86)\\cypress\\psoc creator\\4.2\\psoc creator\\import\\gnu\\arm\\5.4.
 341              		.file 4 "myLib\\i2c_user\\i2c_user.h"
 342              		.file 5 "Generated_Source\\PSoC4/I2CM.h"
 343              		.file 6 "Generated_Source\\PSoC4/I2CM_I2C.h"
