ARM GAS  C:\Users\CHUNGN~1\AppData\Local\Temp\cc0nENEe.s 			page 1


   1              		.syntax unified
   2              		.cpu cortex-m0
   3              		.fpu softvfp
   4              		.eabi_attribute 20, 1
   5              		.eabi_attribute 21, 1
   6              		.eabi_attribute 23, 3
   7              		.eabi_attribute 24, 1
   8              		.eabi_attribute 25, 1
   9              		.eabi_attribute 26, 1
  10              		.eabi_attribute 30, 1
  11              		.eabi_attribute 34, 0
  12              		.eabi_attribute 18, 4
  13              		.thumb
  14              		.syntax unified
  15              		.file	"I2CM_I2C.c"
  16              		.text
  17              	.Ltext0:
  18              		.cfi_sections	.debug_frame
  19              		.section	.text.I2CM_I2CInit,"ax",%progbits
  20              		.align	2
  21              		.global	I2CM_I2CInit
  22              		.code	16
  23              		.thumb_func
  24              		.type	I2CM_I2CInit, %function
  25              	I2CM_I2CInit:
  26              	.LFB0:
  27              		.file 1 "Generated_Source\\PSoC4\\I2CM_I2C.c"
   1:Generated_Source\PSoC4/I2CM_I2C.c **** /***************************************************************************//**
   2:Generated_Source\PSoC4/I2CM_I2C.c **** * \file I2CM_I2C.c
   3:Generated_Source\PSoC4/I2CM_I2C.c **** * \version 4.0
   4:Generated_Source\PSoC4/I2CM_I2C.c **** *
   5:Generated_Source\PSoC4/I2CM_I2C.c **** * \brief
   6:Generated_Source\PSoC4/I2CM_I2C.c **** *  This file provides the source code to the API for the SCB Component in
   7:Generated_Source\PSoC4/I2CM_I2C.c **** *  I2C mode.
   8:Generated_Source\PSoC4/I2CM_I2C.c **** *
   9:Generated_Source\PSoC4/I2CM_I2C.c **** * Note:
  10:Generated_Source\PSoC4/I2CM_I2C.c **** *
  11:Generated_Source\PSoC4/I2CM_I2C.c **** *******************************************************************************
  12:Generated_Source\PSoC4/I2CM_I2C.c **** * \copyright
  13:Generated_Source\PSoC4/I2CM_I2C.c **** * Copyright 2013-2017, Cypress Semiconductor Corporation.  All rights reserved.
  14:Generated_Source\PSoC4/I2CM_I2C.c **** * You may use this file only in accordance with the license, terms, conditions,
  15:Generated_Source\PSoC4/I2CM_I2C.c **** * disclaimers, and limitations in the end user license agreement accompanying
  16:Generated_Source\PSoC4/I2CM_I2C.c **** * the software package with which this file was provided.
  17:Generated_Source\PSoC4/I2CM_I2C.c **** *******************************************************************************/
  18:Generated_Source\PSoC4/I2CM_I2C.c **** 
  19:Generated_Source\PSoC4/I2CM_I2C.c **** #include "I2CM_PVT.h"
  20:Generated_Source\PSoC4/I2CM_I2C.c **** #include "I2CM_I2C_PVT.h"
  21:Generated_Source\PSoC4/I2CM_I2C.c **** 
  22:Generated_Source\PSoC4/I2CM_I2C.c **** 
  23:Generated_Source\PSoC4/I2CM_I2C.c **** /***************************************
  24:Generated_Source\PSoC4/I2CM_I2C.c **** *      I2C Private Vars
  25:Generated_Source\PSoC4/I2CM_I2C.c **** ***************************************/
  26:Generated_Source\PSoC4/I2CM_I2C.c **** 
  27:Generated_Source\PSoC4/I2CM_I2C.c **** volatile uint8 I2CM_state;  /* Current state of I2C FSM */
  28:Generated_Source\PSoC4/I2CM_I2C.c **** 
  29:Generated_Source\PSoC4/I2CM_I2C.c **** #if(I2CM_SCB_MODE_UNCONFIG_CONST_CFG)
  30:Generated_Source\PSoC4/I2CM_I2C.c **** 
ARM GAS  C:\Users\CHUNGN~1\AppData\Local\Temp\cc0nENEe.s 			page 2


  31:Generated_Source\PSoC4/I2CM_I2C.c ****     /***************************************
  32:Generated_Source\PSoC4/I2CM_I2C.c ****     *  Configuration Structure Initialization
  33:Generated_Source\PSoC4/I2CM_I2C.c ****     ***************************************/
  34:Generated_Source\PSoC4/I2CM_I2C.c **** 
  35:Generated_Source\PSoC4/I2CM_I2C.c ****     /* Constant configuration of I2C */
  36:Generated_Source\PSoC4/I2CM_I2C.c ****     const I2CM_I2C_INIT_STRUCT I2CM_configI2C =
  37:Generated_Source\PSoC4/I2CM_I2C.c ****     {
  38:Generated_Source\PSoC4/I2CM_I2C.c ****         I2CM_I2C_MODE,
  39:Generated_Source\PSoC4/I2CM_I2C.c ****         I2CM_I2C_OVS_FACTOR_LOW,
  40:Generated_Source\PSoC4/I2CM_I2C.c ****         I2CM_I2C_OVS_FACTOR_HIGH,
  41:Generated_Source\PSoC4/I2CM_I2C.c ****         I2CM_I2C_MEDIAN_FILTER_ENABLE,
  42:Generated_Source\PSoC4/I2CM_I2C.c ****         I2CM_I2C_SLAVE_ADDRESS,
  43:Generated_Source\PSoC4/I2CM_I2C.c ****         I2CM_I2C_SLAVE_ADDRESS_MASK,
  44:Generated_Source\PSoC4/I2CM_I2C.c ****         I2CM_I2C_ACCEPT_ADDRESS,
  45:Generated_Source\PSoC4/I2CM_I2C.c ****         I2CM_I2C_WAKE_ENABLE,
  46:Generated_Source\PSoC4/I2CM_I2C.c ****         I2CM_I2C_BYTE_MODE_ENABLE,
  47:Generated_Source\PSoC4/I2CM_I2C.c ****         I2CM_I2C_DATA_RATE,
  48:Generated_Source\PSoC4/I2CM_I2C.c ****         I2CM_I2C_ACCEPT_GENERAL_CALL,
  49:Generated_Source\PSoC4/I2CM_I2C.c ****     };
  50:Generated_Source\PSoC4/I2CM_I2C.c **** 
  51:Generated_Source\PSoC4/I2CM_I2C.c ****     /*******************************************************************************
  52:Generated_Source\PSoC4/I2CM_I2C.c ****     * Function Name: I2CM_I2CInit
  53:Generated_Source\PSoC4/I2CM_I2C.c ****     ****************************************************************************//**
  54:Generated_Source\PSoC4/I2CM_I2C.c ****     *
  55:Generated_Source\PSoC4/I2CM_I2C.c ****     *
  56:Generated_Source\PSoC4/I2CM_I2C.c ****     *  Configures the I2CM for I2C operation.
  57:Generated_Source\PSoC4/I2CM_I2C.c ****     *
  58:Generated_Source\PSoC4/I2CM_I2C.c ****     *  This function is intended specifically to be used when the I2CM 
  59:Generated_Source\PSoC4/I2CM_I2C.c ****     *  configuration is set to “Unconfigured I2CM” in the customizer. 
  60:Generated_Source\PSoC4/I2CM_I2C.c ****     *  After initializing the I2CM in I2C mode using this function, 
  61:Generated_Source\PSoC4/I2CM_I2C.c ****     *  the component can be enabled using the I2CM_Start() or 
  62:Generated_Source\PSoC4/I2CM_I2C.c ****     * I2CM_Enable() function.
  63:Generated_Source\PSoC4/I2CM_I2C.c ****     *  This function uses a pointer to a structure that provides the configuration 
  64:Generated_Source\PSoC4/I2CM_I2C.c ****     *  settings. This structure contains the same information that would otherwise 
  65:Generated_Source\PSoC4/I2CM_I2C.c ****     *  be provided by the customizer settings.
  66:Generated_Source\PSoC4/I2CM_I2C.c ****     *
  67:Generated_Source\PSoC4/I2CM_I2C.c ****     *  \param config: pointer to a structure that contains the following list of 
  68:Generated_Source\PSoC4/I2CM_I2C.c ****     *   fields. These fields match the selections available in the customizer. 
  69:Generated_Source\PSoC4/I2CM_I2C.c ****     *   Refer to the customizer for further description of the settings.
  70:Generated_Source\PSoC4/I2CM_I2C.c ****     *
  71:Generated_Source\PSoC4/I2CM_I2C.c ****     *******************************************************************************/
  72:Generated_Source\PSoC4/I2CM_I2C.c ****     void I2CM_I2CInit(const I2CM_I2C_INIT_STRUCT *config)
  73:Generated_Source\PSoC4/I2CM_I2C.c ****     {
  74:Generated_Source\PSoC4/I2CM_I2C.c ****         uint32 medianFilter;
  75:Generated_Source\PSoC4/I2CM_I2C.c ****         uint32 locEnableWake;
  76:Generated_Source\PSoC4/I2CM_I2C.c **** 
  77:Generated_Source\PSoC4/I2CM_I2C.c ****         if(NULL == config)
  78:Generated_Source\PSoC4/I2CM_I2C.c ****         {
  79:Generated_Source\PSoC4/I2CM_I2C.c ****             CYASSERT(0u != 0u); /* Halt execution due to bad function parameter */
  80:Generated_Source\PSoC4/I2CM_I2C.c ****         }
  81:Generated_Source\PSoC4/I2CM_I2C.c ****         else
  82:Generated_Source\PSoC4/I2CM_I2C.c ****         {
  83:Generated_Source\PSoC4/I2CM_I2C.c ****             /* Configure pins */
  84:Generated_Source\PSoC4/I2CM_I2C.c ****             I2CM_SetPins(I2CM_SCB_MODE_I2C, I2CM_DUMMY_PARAM,
  85:Generated_Source\PSoC4/I2CM_I2C.c ****                                      I2CM_DUMMY_PARAM);
  86:Generated_Source\PSoC4/I2CM_I2C.c **** 
  87:Generated_Source\PSoC4/I2CM_I2C.c ****             /* Store internal configuration */
ARM GAS  C:\Users\CHUNGN~1\AppData\Local\Temp\cc0nENEe.s 			page 3


  88:Generated_Source\PSoC4/I2CM_I2C.c ****             I2CM_scbMode       = (uint8) I2CM_SCB_MODE_I2C;
  89:Generated_Source\PSoC4/I2CM_I2C.c ****             I2CM_scbEnableWake = (uint8) config->enableWake;
  90:Generated_Source\PSoC4/I2CM_I2C.c ****             I2CM_scbEnableIntr = (uint8) I2CM_SCB_IRQ_INTERNAL;
  91:Generated_Source\PSoC4/I2CM_I2C.c **** 
  92:Generated_Source\PSoC4/I2CM_I2C.c ****             I2CM_mode          = (uint8) config->mode;
  93:Generated_Source\PSoC4/I2CM_I2C.c ****             I2CM_acceptAddr    = (uint8) config->acceptAddr;
  94:Generated_Source\PSoC4/I2CM_I2C.c **** 
  95:Generated_Source\PSoC4/I2CM_I2C.c ****         #if (I2CM_CY_SCBIP_V0)
  96:Generated_Source\PSoC4/I2CM_I2C.c ****             /* Adjust SDA filter settings. Ticket ID#150521 */
  97:Generated_Source\PSoC4/I2CM_I2C.c ****             I2CM_SET_I2C_CFG_SDA_FILT_TRIM(I2CM_EC_AM_I2C_CFG_SDA_FILT_TRIM);
  98:Generated_Source\PSoC4/I2CM_I2C.c ****         #endif /* (I2CM_CY_SCBIP_V0) */
  99:Generated_Source\PSoC4/I2CM_I2C.c **** 
 100:Generated_Source\PSoC4/I2CM_I2C.c ****             /* Adjust AF and DF filter settings. Ticket ID#176179 */
 101:Generated_Source\PSoC4/I2CM_I2C.c ****             if (((I2CM_I2C_MODE_SLAVE != config->mode) &&
 102:Generated_Source\PSoC4/I2CM_I2C.c ****                  (config->dataRate <= I2CM_I2C_DATA_RATE_FS_MODE_MAX)) ||
 103:Generated_Source\PSoC4/I2CM_I2C.c ****                  (I2CM_I2C_MODE_SLAVE == config->mode))
 104:Generated_Source\PSoC4/I2CM_I2C.c ****             {
 105:Generated_Source\PSoC4/I2CM_I2C.c ****                 /* AF = 1, DF = 0 */
 106:Generated_Source\PSoC4/I2CM_I2C.c ****                 I2CM_I2C_CFG_ANALOG_FITER_ENABLE;
 107:Generated_Source\PSoC4/I2CM_I2C.c ****                 medianFilter = I2CM_DIGITAL_FILTER_DISABLE;
 108:Generated_Source\PSoC4/I2CM_I2C.c ****             }
 109:Generated_Source\PSoC4/I2CM_I2C.c ****             else
 110:Generated_Source\PSoC4/I2CM_I2C.c ****             {
 111:Generated_Source\PSoC4/I2CM_I2C.c ****                 /* AF = 0, DF = 1 */
 112:Generated_Source\PSoC4/I2CM_I2C.c ****                 I2CM_I2C_CFG_ANALOG_FITER_DISABLE;
 113:Generated_Source\PSoC4/I2CM_I2C.c ****                 medianFilter = I2CM_DIGITAL_FILTER_ENABLE;
 114:Generated_Source\PSoC4/I2CM_I2C.c ****             }
 115:Generated_Source\PSoC4/I2CM_I2C.c **** 
 116:Generated_Source\PSoC4/I2CM_I2C.c ****         #if (!I2CM_CY_SCBIP_V0)
 117:Generated_Source\PSoC4/I2CM_I2C.c ****             locEnableWake = (I2CM_I2C_MULTI_MASTER_SLAVE) ? (0u) : (config->enableWake);
 118:Generated_Source\PSoC4/I2CM_I2C.c ****         #else
 119:Generated_Source\PSoC4/I2CM_I2C.c ****             locEnableWake = config->enableWake;
 120:Generated_Source\PSoC4/I2CM_I2C.c ****         #endif /* (!I2CM_CY_SCBIP_V0) */
 121:Generated_Source\PSoC4/I2CM_I2C.c **** 
 122:Generated_Source\PSoC4/I2CM_I2C.c ****             /* Configure I2C interface */
 123:Generated_Source\PSoC4/I2CM_I2C.c ****             I2CM_CTRL_REG     = I2CM_GET_CTRL_BYTE_MODE  (config->enableByteMode) |
 124:Generated_Source\PSoC4/I2CM_I2C.c ****                                             I2CM_GET_CTRL_ADDR_ACCEPT(config->acceptAddr)     |
 125:Generated_Source\PSoC4/I2CM_I2C.c ****                                             I2CM_GET_CTRL_EC_AM_MODE (locEnableWake);
 126:Generated_Source\PSoC4/I2CM_I2C.c **** 
 127:Generated_Source\PSoC4/I2CM_I2C.c ****             I2CM_I2C_CTRL_REG = I2CM_GET_I2C_CTRL_HIGH_PHASE_OVS(config->oversampleHigh) |
 128:Generated_Source\PSoC4/I2CM_I2C.c ****                     I2CM_GET_I2C_CTRL_LOW_PHASE_OVS (config->oversampleLow)                        
 129:Generated_Source\PSoC4/I2CM_I2C.c ****                     I2CM_GET_I2C_CTRL_S_GENERAL_IGNORE((uint32)(0u == config->acceptGeneralAddr))  
 130:Generated_Source\PSoC4/I2CM_I2C.c ****                     I2CM_GET_I2C_CTRL_SL_MSTR_MODE  (config->mode);
 131:Generated_Source\PSoC4/I2CM_I2C.c **** 
 132:Generated_Source\PSoC4/I2CM_I2C.c ****             /* Configure RX direction */
 133:Generated_Source\PSoC4/I2CM_I2C.c ****             I2CM_RX_CTRL_REG      = I2CM_GET_RX_CTRL_MEDIAN(medianFilter) |
 134:Generated_Source\PSoC4/I2CM_I2C.c ****                                                 I2CM_I2C_RX_CTRL;
 135:Generated_Source\PSoC4/I2CM_I2C.c ****             I2CM_RX_FIFO_CTRL_REG = I2CM_CLEAR_REG;
 136:Generated_Source\PSoC4/I2CM_I2C.c **** 
 137:Generated_Source\PSoC4/I2CM_I2C.c ****             /* Set default address and mask */
 138:Generated_Source\PSoC4/I2CM_I2C.c ****             I2CM_RX_MATCH_REG    = ((I2CM_I2C_SLAVE) ?
 139:Generated_Source\PSoC4/I2CM_I2C.c ****                                                 (I2CM_GET_I2C_8BIT_ADDRESS(config->slaveAddr) |
 140:Generated_Source\PSoC4/I2CM_I2C.c ****                                                  I2CM_GET_RX_MATCH_MASK(config->slaveAddrMask)) :
 141:Generated_Source\PSoC4/I2CM_I2C.c ****                                                 (I2CM_CLEAR_REG));
 142:Generated_Source\PSoC4/I2CM_I2C.c **** 
 143:Generated_Source\PSoC4/I2CM_I2C.c **** 
 144:Generated_Source\PSoC4/I2CM_I2C.c ****             /* Configure TX direction */
ARM GAS  C:\Users\CHUNGN~1\AppData\Local\Temp\cc0nENEe.s 			page 4


 145:Generated_Source\PSoC4/I2CM_I2C.c ****             I2CM_TX_CTRL_REG      = I2CM_I2C_TX_CTRL;
 146:Generated_Source\PSoC4/I2CM_I2C.c ****             I2CM_TX_FIFO_CTRL_REG = I2CM_CLEAR_REG;
 147:Generated_Source\PSoC4/I2CM_I2C.c **** 
 148:Generated_Source\PSoC4/I2CM_I2C.c ****             /* Configure interrupt with I2C handler but do not enable it */
 149:Generated_Source\PSoC4/I2CM_I2C.c ****             CyIntDisable    (I2CM_ISR_NUMBER);
 150:Generated_Source\PSoC4/I2CM_I2C.c ****             CyIntSetPriority(I2CM_ISR_NUMBER, I2CM_ISR_PRIORITY);
 151:Generated_Source\PSoC4/I2CM_I2C.c ****             (void) CyIntSetVector(I2CM_ISR_NUMBER, &I2CM_I2C_ISR);
 152:Generated_Source\PSoC4/I2CM_I2C.c **** 
 153:Generated_Source\PSoC4/I2CM_I2C.c ****             /* Configure interrupt sources */
 154:Generated_Source\PSoC4/I2CM_I2C.c ****         #if(!I2CM_CY_SCBIP_V1)
 155:Generated_Source\PSoC4/I2CM_I2C.c ****             I2CM_INTR_SPI_EC_MASK_REG = I2CM_NO_INTR_SOURCES;
 156:Generated_Source\PSoC4/I2CM_I2C.c ****         #endif /* (!I2CM_CY_SCBIP_V1) */
 157:Generated_Source\PSoC4/I2CM_I2C.c **** 
 158:Generated_Source\PSoC4/I2CM_I2C.c ****             I2CM_INTR_I2C_EC_MASK_REG = I2CM_NO_INTR_SOURCES;
 159:Generated_Source\PSoC4/I2CM_I2C.c ****             I2CM_INTR_RX_MASK_REG     = I2CM_NO_INTR_SOURCES;
 160:Generated_Source\PSoC4/I2CM_I2C.c ****             I2CM_INTR_TX_MASK_REG     = I2CM_NO_INTR_SOURCES;
 161:Generated_Source\PSoC4/I2CM_I2C.c **** 
 162:Generated_Source\PSoC4/I2CM_I2C.c ****             I2CM_INTR_SLAVE_MASK_REG  = ((I2CM_I2C_SLAVE) ?
 163:Generated_Source\PSoC4/I2CM_I2C.c ****                             (I2CM_GET_INTR_SLAVE_I2C_GENERAL(config->acceptGeneralAddr) |
 164:Generated_Source\PSoC4/I2CM_I2C.c ****                              I2CM_I2C_INTR_SLAVE_MASK) : (I2CM_CLEAR_REG));
 165:Generated_Source\PSoC4/I2CM_I2C.c **** 
 166:Generated_Source\PSoC4/I2CM_I2C.c ****             I2CM_INTR_MASTER_MASK_REG = I2CM_NO_INTR_SOURCES;
 167:Generated_Source\PSoC4/I2CM_I2C.c **** 
 168:Generated_Source\PSoC4/I2CM_I2C.c ****             /* Configure global variables */
 169:Generated_Source\PSoC4/I2CM_I2C.c ****             I2CM_state = I2CM_I2C_FSM_IDLE;
 170:Generated_Source\PSoC4/I2CM_I2C.c **** 
 171:Generated_Source\PSoC4/I2CM_I2C.c ****             /* Internal slave variables */
 172:Generated_Source\PSoC4/I2CM_I2C.c ****             I2CM_slStatus        = 0u;
 173:Generated_Source\PSoC4/I2CM_I2C.c ****             I2CM_slRdBufIndex    = 0u;
 174:Generated_Source\PSoC4/I2CM_I2C.c ****             I2CM_slWrBufIndex    = 0u;
 175:Generated_Source\PSoC4/I2CM_I2C.c ****             I2CM_slOverFlowCount = 0u;
 176:Generated_Source\PSoC4/I2CM_I2C.c **** 
 177:Generated_Source\PSoC4/I2CM_I2C.c ****             /* Internal master variables */
 178:Generated_Source\PSoC4/I2CM_I2C.c ****             I2CM_mstrStatus     = 0u;
 179:Generated_Source\PSoC4/I2CM_I2C.c ****             I2CM_mstrRdBufIndex = 0u;
 180:Generated_Source\PSoC4/I2CM_I2C.c ****             I2CM_mstrWrBufIndex = 0u;
 181:Generated_Source\PSoC4/I2CM_I2C.c ****         }
 182:Generated_Source\PSoC4/I2CM_I2C.c ****     }
 183:Generated_Source\PSoC4/I2CM_I2C.c **** 
 184:Generated_Source\PSoC4/I2CM_I2C.c **** #else
 185:Generated_Source\PSoC4/I2CM_I2C.c **** 
 186:Generated_Source\PSoC4/I2CM_I2C.c ****     /*******************************************************************************
 187:Generated_Source\PSoC4/I2CM_I2C.c ****     * Function Name: I2CM_I2CInit
 188:Generated_Source\PSoC4/I2CM_I2C.c ****     ****************************************************************************//**
 189:Generated_Source\PSoC4/I2CM_I2C.c ****     *
 190:Generated_Source\PSoC4/I2CM_I2C.c ****     *  Configures the SCB for the I2C operation.
 191:Generated_Source\PSoC4/I2CM_I2C.c ****     *
 192:Generated_Source\PSoC4/I2CM_I2C.c ****     *******************************************************************************/
 193:Generated_Source\PSoC4/I2CM_I2C.c ****     void I2CM_I2CInit(void)
 194:Generated_Source\PSoC4/I2CM_I2C.c ****     {
  28              		.loc 1 194 0
  29              		.cfi_startproc
  30              		@ args = 0, pretend = 0, frame = 0
  31              		@ frame_needed = 0, uses_anonymous_args = 0
  32 0000 10B5     		push	{r4, lr}
  33              		.cfi_def_cfa_offset 8
  34              		.cfi_offset 4, -8
ARM GAS  C:\Users\CHUNGN~1\AppData\Local\Temp\cc0nENEe.s 			page 5


  35              		.cfi_offset 14, -4
 195:Generated_Source\PSoC4/I2CM_I2C.c ****     #if(I2CM_CY_SCBIP_V0)
 196:Generated_Source\PSoC4/I2CM_I2C.c ****         /* Adjust SDA filter settings. Ticket ID#150521 */
 197:Generated_Source\PSoC4/I2CM_I2C.c ****         I2CM_SET_I2C_CFG_SDA_FILT_TRIM(I2CM_EC_AM_I2C_CFG_SDA_FILT_TRIM);
 198:Generated_Source\PSoC4/I2CM_I2C.c ****     #endif /* (I2CM_CY_SCBIP_V0) */
 199:Generated_Source\PSoC4/I2CM_I2C.c **** 
 200:Generated_Source\PSoC4/I2CM_I2C.c ****         /* Adjust AF and DF filter settings. Ticket ID#176179 */
 201:Generated_Source\PSoC4/I2CM_I2C.c ****         I2CM_I2C_CFG_ANALOG_FITER_ENABLE_ADJ;
 202:Generated_Source\PSoC4/I2CM_I2C.c **** 
 203:Generated_Source\PSoC4/I2CM_I2C.c ****         /* Configure I2C interface */
 204:Generated_Source\PSoC4/I2CM_I2C.c ****         I2CM_CTRL_REG     = I2CM_I2C_DEFAULT_CTRL;
  36              		.loc 1 204 0
  37 0002 0024     		movs	r4, #0
  38 0004 174B     		ldr	r3, .L2
  39 0006 1C60     		str	r4, [r3]
 205:Generated_Source\PSoC4/I2CM_I2C.c ****         I2CM_I2C_CTRL_REG = I2CM_I2C_DEFAULT_I2C_CTRL;
  40              		.loc 1 205 0
  41 0008 174A     		ldr	r2, .L2+4
  42 000a 184B     		ldr	r3, .L2+8
  43 000c 1A60     		str	r2, [r3]
 206:Generated_Source\PSoC4/I2CM_I2C.c **** 
 207:Generated_Source\PSoC4/I2CM_I2C.c ****         /* Configure RX direction */
 208:Generated_Source\PSoC4/I2CM_I2C.c ****         I2CM_RX_CTRL_REG      = I2CM_I2C_DEFAULT_RX_CTRL;
  44              		.loc 1 208 0
  45 000e 184B     		ldr	r3, .L2+12
  46 0010 184A     		ldr	r2, .L2+16
  47 0012 1360     		str	r3, [r2]
 209:Generated_Source\PSoC4/I2CM_I2C.c ****         I2CM_RX_FIFO_CTRL_REG = I2CM_I2C_DEFAULT_RX_FIFO_CTRL;
  48              		.loc 1 209 0
  49 0014 184A     		ldr	r2, .L2+20
  50 0016 1460     		str	r4, [r2]
 210:Generated_Source\PSoC4/I2CM_I2C.c **** 
 211:Generated_Source\PSoC4/I2CM_I2C.c ****         /* Set default address and mask */
 212:Generated_Source\PSoC4/I2CM_I2C.c ****         I2CM_RX_MATCH_REG     = I2CM_I2C_DEFAULT_RX_MATCH;
  51              		.loc 1 212 0
  52 0018 184A     		ldr	r2, .L2+24
  53 001a 1460     		str	r4, [r2]
 213:Generated_Source\PSoC4/I2CM_I2C.c **** 
 214:Generated_Source\PSoC4/I2CM_I2C.c ****         /* Configure TX direction */
 215:Generated_Source\PSoC4/I2CM_I2C.c ****         I2CM_TX_CTRL_REG      = I2CM_I2C_DEFAULT_TX_CTRL;
  54              		.loc 1 215 0
  55 001c 184A     		ldr	r2, .L2+28
  56 001e 1360     		str	r3, [r2]
 216:Generated_Source\PSoC4/I2CM_I2C.c ****         I2CM_TX_FIFO_CTRL_REG = I2CM_I2C_DEFAULT_TX_FIFO_CTRL;
  57              		.loc 1 216 0
  58 0020 184B     		ldr	r3, .L2+32
  59 0022 1C60     		str	r4, [r3]
 217:Generated_Source\PSoC4/I2CM_I2C.c **** 
 218:Generated_Source\PSoC4/I2CM_I2C.c ****         /* Configure interrupt with I2C handler but do not enable it */
 219:Generated_Source\PSoC4/I2CM_I2C.c ****         CyIntDisable    (I2CM_ISR_NUMBER);
  60              		.loc 1 219 0
  61 0024 0520     		movs	r0, #5
  62 0026 FFF7FEFF 		bl	CyIntDisable
  63              	.LVL0:
 220:Generated_Source\PSoC4/I2CM_I2C.c ****         CyIntSetPriority(I2CM_ISR_NUMBER, I2CM_ISR_PRIORITY);
  64              		.loc 1 220 0
  65 002a 0321     		movs	r1, #3
ARM GAS  C:\Users\CHUNGN~1\AppData\Local\Temp\cc0nENEe.s 			page 6


  66 002c 0520     		movs	r0, #5
  67 002e FFF7FEFF 		bl	CyIntSetPriority
  68              	.LVL1:
 221:Generated_Source\PSoC4/I2CM_I2C.c ****     #if(!I2CM_I2C_EXTERN_INTR_HANDLER)
 222:Generated_Source\PSoC4/I2CM_I2C.c ****         (void) CyIntSetVector(I2CM_ISR_NUMBER, &I2CM_I2C_ISR);
  69              		.loc 1 222 0
  70 0032 1549     		ldr	r1, .L2+36
  71 0034 0520     		movs	r0, #5
  72 0036 FFF7FEFF 		bl	CyIntSetVector
  73              	.LVL2:
 223:Generated_Source\PSoC4/I2CM_I2C.c ****     #endif /* (I2CM_I2C_EXTERN_INTR_HANDLER) */
 224:Generated_Source\PSoC4/I2CM_I2C.c **** 
 225:Generated_Source\PSoC4/I2CM_I2C.c ****         /* Configure interrupt sources */
 226:Generated_Source\PSoC4/I2CM_I2C.c ****     #if(!I2CM_CY_SCBIP_V1)
 227:Generated_Source\PSoC4/I2CM_I2C.c ****         I2CM_INTR_SPI_EC_MASK_REG = I2CM_I2C_DEFAULT_INTR_SPI_EC_MASK;
 228:Generated_Source\PSoC4/I2CM_I2C.c ****     #endif /* (!I2CM_CY_SCBIP_V1) */
 229:Generated_Source\PSoC4/I2CM_I2C.c **** 
 230:Generated_Source\PSoC4/I2CM_I2C.c ****         I2CM_INTR_I2C_EC_MASK_REG = I2CM_I2C_DEFAULT_INTR_I2C_EC_MASK;
  74              		.loc 1 230 0
  75 003a 144B     		ldr	r3, .L2+40
  76 003c 1C60     		str	r4, [r3]
 231:Generated_Source\PSoC4/I2CM_I2C.c ****         I2CM_INTR_SLAVE_MASK_REG  = I2CM_I2C_DEFAULT_INTR_SLAVE_MASK;
  77              		.loc 1 231 0
  78 003e 144B     		ldr	r3, .L2+44
  79 0040 1C60     		str	r4, [r3]
 232:Generated_Source\PSoC4/I2CM_I2C.c ****         I2CM_INTR_MASTER_MASK_REG = I2CM_I2C_DEFAULT_INTR_MASTER_MASK;
  80              		.loc 1 232 0
  81 0042 144B     		ldr	r3, .L2+48
  82 0044 1C60     		str	r4, [r3]
 233:Generated_Source\PSoC4/I2CM_I2C.c ****         I2CM_INTR_RX_MASK_REG     = I2CM_I2C_DEFAULT_INTR_RX_MASK;
  83              		.loc 1 233 0
  84 0046 144B     		ldr	r3, .L2+52
  85 0048 1C60     		str	r4, [r3]
 234:Generated_Source\PSoC4/I2CM_I2C.c ****         I2CM_INTR_TX_MASK_REG     = I2CM_I2C_DEFAULT_INTR_TX_MASK;
  86              		.loc 1 234 0
  87 004a 144B     		ldr	r3, .L2+56
  88 004c 1C60     		str	r4, [r3]
 235:Generated_Source\PSoC4/I2CM_I2C.c **** 
 236:Generated_Source\PSoC4/I2CM_I2C.c ****         /* Configure global variables */
 237:Generated_Source\PSoC4/I2CM_I2C.c ****         I2CM_state = I2CM_I2C_FSM_IDLE;
  89              		.loc 1 237 0
  90 004e 1022     		movs	r2, #16
  91 0050 134B     		ldr	r3, .L2+60
  92 0052 1A70     		strb	r2, [r3]
 238:Generated_Source\PSoC4/I2CM_I2C.c **** 
 239:Generated_Source\PSoC4/I2CM_I2C.c ****     #if(I2CM_I2C_SLAVE)
 240:Generated_Source\PSoC4/I2CM_I2C.c ****         /* Internal slave variable */
 241:Generated_Source\PSoC4/I2CM_I2C.c ****         I2CM_slStatus        = 0u;
 242:Generated_Source\PSoC4/I2CM_I2C.c ****         I2CM_slRdBufIndex    = 0u;
 243:Generated_Source\PSoC4/I2CM_I2C.c ****         I2CM_slWrBufIndex    = 0u;
 244:Generated_Source\PSoC4/I2CM_I2C.c ****         I2CM_slOverFlowCount = 0u;
 245:Generated_Source\PSoC4/I2CM_I2C.c ****     #endif /* (I2CM_I2C_SLAVE) */
 246:Generated_Source\PSoC4/I2CM_I2C.c **** 
 247:Generated_Source\PSoC4/I2CM_I2C.c ****     #if(I2CM_I2C_MASTER)
 248:Generated_Source\PSoC4/I2CM_I2C.c ****     /* Internal master variable */
 249:Generated_Source\PSoC4/I2CM_I2C.c ****         I2CM_mstrStatus     = 0u;
  93              		.loc 1 249 0
ARM GAS  C:\Users\CHUNGN~1\AppData\Local\Temp\cc0nENEe.s 			page 7


  94 0054 134B     		ldr	r3, .L2+64
  95 0056 1C80     		strh	r4, [r3]
 250:Generated_Source\PSoC4/I2CM_I2C.c ****         I2CM_mstrRdBufIndex = 0u;
  96              		.loc 1 250 0
  97 0058 134B     		ldr	r3, .L2+68
  98 005a 1C60     		str	r4, [r3]
 251:Generated_Source\PSoC4/I2CM_I2C.c ****         I2CM_mstrWrBufIndex = 0u;
  99              		.loc 1 251 0
 100 005c 134B     		ldr	r3, .L2+72
 101 005e 1C60     		str	r4, [r3]
 252:Generated_Source\PSoC4/I2CM_I2C.c ****     #endif /* (I2CM_I2C_MASTER) */
 253:Generated_Source\PSoC4/I2CM_I2C.c ****     }
 102              		.loc 1 253 0
 103              		@ sp needed
 104 0060 10BD     		pop	{r4, pc}
 105              	.L3:
 106 0062 C046     		.align	2
 107              	.L2:
 108 0064 00000640 		.word	1074135040
 109 0068 88080080 		.word	-2147481464
 110 006c 60000640 		.word	1074135136
 111 0070 07010080 		.word	-2147483385
 112 0074 00030640 		.word	1074135808
 113 0078 04030640 		.word	1074135812
 114 007c 10030640 		.word	1074135824
 115 0080 00020640 		.word	1074135552
 116 0084 04020640 		.word	1074135556
 117 0088 00000000 		.word	I2CM_I2C_ISR
 118 008c 880E0640 		.word	1074138760
 119 0090 480F0640 		.word	1074138952
 120 0094 080F0640 		.word	1074138888
 121 0098 C80F0640 		.word	1074139080
 122 009c 880F0640 		.word	1074139016
 123 00a0 00000000 		.word	I2CM_state
 124 00a4 00000000 		.word	I2CM_mstrStatus
 125 00a8 00000000 		.word	I2CM_mstrRdBufIndex
 126 00ac 00000000 		.word	I2CM_mstrWrBufIndex
 127              		.cfi_endproc
 128              	.LFE0:
 129              		.size	I2CM_I2CInit, .-I2CM_I2CInit
 130              		.section	.text.I2CM_I2CStop,"ax",%progbits
 131              		.align	2
 132              		.global	I2CM_I2CStop
 133              		.code	16
 134              		.thumb_func
 135              		.type	I2CM_I2CStop, %function
 136              	I2CM_I2CStop:
 137              	.LFB1:
 254:Generated_Source\PSoC4/I2CM_I2C.c **** #endif /* (I2CM_SCB_MODE_UNCONFIG_CONST_CFG) */
 255:Generated_Source\PSoC4/I2CM_I2C.c **** 
 256:Generated_Source\PSoC4/I2CM_I2C.c **** 
 257:Generated_Source\PSoC4/I2CM_I2C.c **** /*******************************************************************************
 258:Generated_Source\PSoC4/I2CM_I2C.c **** * Function Name: I2CM_I2CStop
 259:Generated_Source\PSoC4/I2CM_I2C.c **** ****************************************************************************//**
 260:Generated_Source\PSoC4/I2CM_I2C.c **** *
 261:Generated_Source\PSoC4/I2CM_I2C.c **** *  Resets the I2C FSM into the default state.
 262:Generated_Source\PSoC4/I2CM_I2C.c **** *
ARM GAS  C:\Users\CHUNGN~1\AppData\Local\Temp\cc0nENEe.s 			page 8


 263:Generated_Source\PSoC4/I2CM_I2C.c **** *******************************************************************************/
 264:Generated_Source\PSoC4/I2CM_I2C.c **** void I2CM_I2CStop(void)
 265:Generated_Source\PSoC4/I2CM_I2C.c **** {
 138              		.loc 1 265 0
 139              		.cfi_startproc
 140              		@ args = 0, pretend = 0, frame = 0
 141              		@ frame_needed = 0, uses_anonymous_args = 0
 142              		@ link register save eliminated.
 266:Generated_Source\PSoC4/I2CM_I2C.c ****     /* Clear command registers because they keep assigned value after IP block was disabled */
 267:Generated_Source\PSoC4/I2CM_I2C.c ****     I2CM_I2C_MASTER_CMD_REG = 0u;
 143              		.loc 1 267 0
 144 0000 0023     		movs	r3, #0
 145 0002 044A     		ldr	r2, .L5
 146 0004 1360     		str	r3, [r2]
 268:Generated_Source\PSoC4/I2CM_I2C.c ****     I2CM_I2C_SLAVE_CMD_REG  = 0u;
 147              		.loc 1 268 0
 148 0006 044A     		ldr	r2, .L5+4
 149 0008 1360     		str	r3, [r2]
 269:Generated_Source\PSoC4/I2CM_I2C.c ****     
 270:Generated_Source\PSoC4/I2CM_I2C.c ****     I2CM_state = I2CM_I2C_FSM_IDLE;
 150              		.loc 1 270 0
 151 000a 1022     		movs	r2, #16
 152 000c 034B     		ldr	r3, .L5+8
 153 000e 1A70     		strb	r2, [r3]
 271:Generated_Source\PSoC4/I2CM_I2C.c **** }
 154              		.loc 1 271 0
 155              		@ sp needed
 156 0010 7047     		bx	lr
 157              	.L6:
 158 0012 C046     		.align	2
 159              	.L5:
 160 0014 68000640 		.word	1074135144
 161 0018 6C000640 		.word	1074135148
 162 001c 00000000 		.word	I2CM_state
 163              		.cfi_endproc
 164              	.LFE1:
 165              		.size	I2CM_I2CStop, .-I2CM_I2CStop
 166              		.section	.text.I2CM_I2CFwBlockReset,"ax",%progbits
 167              		.align	2
 168              		.global	I2CM_I2CFwBlockReset
 169              		.code	16
 170              		.thumb_func
 171              		.type	I2CM_I2CFwBlockReset, %function
 172              	I2CM_I2CFwBlockReset:
 173              	.LFB2:
 272:Generated_Source\PSoC4/I2CM_I2C.c **** 
 273:Generated_Source\PSoC4/I2CM_I2C.c **** 
 274:Generated_Source\PSoC4/I2CM_I2C.c **** /*******************************************************************************
 275:Generated_Source\PSoC4/I2CM_I2C.c **** * Function Name: I2CM_I2CFwBlockReset
 276:Generated_Source\PSoC4/I2CM_I2C.c **** ****************************************************************************//**
 277:Generated_Source\PSoC4/I2CM_I2C.c **** *
 278:Generated_Source\PSoC4/I2CM_I2C.c **** * Resets the scb IP block and I2C into the known state.
 279:Generated_Source\PSoC4/I2CM_I2C.c **** *
 280:Generated_Source\PSoC4/I2CM_I2C.c **** *******************************************************************************/
 281:Generated_Source\PSoC4/I2CM_I2C.c **** void I2CM_I2CFwBlockReset(void)
 282:Generated_Source\PSoC4/I2CM_I2C.c **** {
 174              		.loc 1 282 0
ARM GAS  C:\Users\CHUNGN~1\AppData\Local\Temp\cc0nENEe.s 			page 9


 175              		.cfi_startproc
 176              		@ args = 0, pretend = 0, frame = 0
 177              		@ frame_needed = 0, uses_anonymous_args = 0
 178 0000 10B5     		push	{r4, lr}
 179              		.cfi_def_cfa_offset 8
 180              		.cfi_offset 4, -8
 181              		.cfi_offset 14, -4
 283:Generated_Source\PSoC4/I2CM_I2C.c ****     /* Disable scb IP: stop respond to I2C traffic */
 284:Generated_Source\PSoC4/I2CM_I2C.c ****     I2CM_CTRL_REG &= (uint32) ~I2CM_CTRL_ENABLED;
 182              		.loc 1 284 0
 183 0002 0E4A     		ldr	r2, .L8
 184 0004 1368     		ldr	r3, [r2]
 185 0006 5B00     		lsls	r3, r3, #1
 186 0008 5B08     		lsrs	r3, r3, #1
 187 000a 1360     		str	r3, [r2]
 285:Generated_Source\PSoC4/I2CM_I2C.c **** 
 286:Generated_Source\PSoC4/I2CM_I2C.c ****     /* Clear command registers they are not cleared after scb IP is disabled */
 287:Generated_Source\PSoC4/I2CM_I2C.c ****     I2CM_I2C_MASTER_CMD_REG = 0u;
 188              		.loc 1 287 0
 189 000c 0023     		movs	r3, #0
 190 000e 0C49     		ldr	r1, .L8+4
 191 0010 0B60     		str	r3, [r1]
 288:Generated_Source\PSoC4/I2CM_I2C.c ****     I2CM_I2C_SLAVE_CMD_REG  = 0u;
 192              		.loc 1 288 0
 193 0012 0C49     		ldr	r1, .L8+8
 194 0014 0B60     		str	r3, [r1]
 289:Generated_Source\PSoC4/I2CM_I2C.c **** 
 290:Generated_Source\PSoC4/I2CM_I2C.c ****     I2CM_DISABLE_AUTO_DATA;
 195              		.loc 1 290 0
 196 0016 0C48     		ldr	r0, .L8+12
 197 0018 0468     		ldr	r4, [r0]
 198 001a 0C49     		ldr	r1, .L8+16
 199 001c 2140     		ands	r1, r4
 200 001e 0160     		str	r1, [r0]
 291:Generated_Source\PSoC4/I2CM_I2C.c **** 
 292:Generated_Source\PSoC4/I2CM_I2C.c ****     I2CM_SetTxInterruptMode(I2CM_NO_INTR_SOURCES);
 201              		.loc 1 292 0
 202 0020 0B49     		ldr	r1, .L8+20
 203 0022 0B60     		str	r3, [r1]
 293:Generated_Source\PSoC4/I2CM_I2C.c ****     I2CM_SetRxInterruptMode(I2CM_NO_INTR_SOURCES);
 204              		.loc 1 293 0
 205 0024 0B49     		ldr	r1, .L8+24
 206 0026 0B60     		str	r3, [r1]
 294:Generated_Source\PSoC4/I2CM_I2C.c ****     
 295:Generated_Source\PSoC4/I2CM_I2C.c **** #if(I2CM_CY_SCBIP_V0)
 296:Generated_Source\PSoC4/I2CM_I2C.c ****     /* Clear interrupt sources as they are not cleared after scb IP is disabled */
 297:Generated_Source\PSoC4/I2CM_I2C.c ****     I2CM_ClearTxInterruptSource    (I2CM_INTR_TX_ALL);
 298:Generated_Source\PSoC4/I2CM_I2C.c ****     I2CM_ClearRxInterruptSource    (I2CM_INTR_RX_ALL);
 299:Generated_Source\PSoC4/I2CM_I2C.c ****     I2CM_ClearSlaveInterruptSource (I2CM_INTR_SLAVE_ALL);
 300:Generated_Source\PSoC4/I2CM_I2C.c ****     I2CM_ClearMasterInterruptSource(I2CM_INTR_MASTER_ALL);
 301:Generated_Source\PSoC4/I2CM_I2C.c **** #endif /* (I2CM_CY_SCBIP_V0) */
 302:Generated_Source\PSoC4/I2CM_I2C.c **** 
 303:Generated_Source\PSoC4/I2CM_I2C.c ****     I2CM_state = I2CM_I2C_FSM_IDLE;
 207              		.loc 1 303 0
 208 0028 1021     		movs	r1, #16
 209 002a 0B4B     		ldr	r3, .L8+28
 210 002c 1970     		strb	r1, [r3]
ARM GAS  C:\Users\CHUNGN~1\AppData\Local\Temp\cc0nENEe.s 			page 10


 304:Generated_Source\PSoC4/I2CM_I2C.c **** 
 305:Generated_Source\PSoC4/I2CM_I2C.c ****     /* Enable scb IP: start respond to I2C traffic */
 306:Generated_Source\PSoC4/I2CM_I2C.c ****     I2CM_CTRL_REG |= (uint32) I2CM_CTRL_ENABLED;
 211              		.loc 1 306 0
 212 002e 1368     		ldr	r3, [r2]
 213 0030 8021     		movs	r1, #128
 214 0032 0906     		lsls	r1, r1, #24
 215 0034 0B43     		orrs	r3, r1
 216 0036 1360     		str	r3, [r2]
 307:Generated_Source\PSoC4/I2CM_I2C.c **** }
 217              		.loc 1 307 0
 218              		@ sp needed
 219 0038 10BD     		pop	{r4, pc}
 220              	.L9:
 221 003a C046     		.align	2
 222              	.L8:
 223 003c 00000640 		.word	1074135040
 224 0040 68000640 		.word	1074135144
 225 0044 6C000640 		.word	1074135148
 226 0048 60000640 		.word	1074135136
 227 004c FF5CFFFF 		.word	-41729
 228 0050 880F0640 		.word	1074139016
 229 0054 C80F0640 		.word	1074139080
 230 0058 00000000 		.word	I2CM_state
 231              		.cfi_endproc
 232              	.LFE2:
 233              		.size	I2CM_I2CFwBlockReset, .-I2CM_I2CFwBlockReset
 234              		.comm	I2CM_state,1,1
 235              		.text
 236              	.Letext0:
 237              		.file 2 "Generated_Source\\PSoC4/cytypes.h"
 238              		.file 3 "Generated_Source\\PSoC4\\I2CM_I2C_PVT.h"
 239              		.file 4 "Generated_Source\\PSoC4/CyLib.h"
