ARM GAS  C:\Users\CHUNGN~1\AppData\Local\Temp\ccSpspjB.s 			page 1


   1              		.syntax unified
   2              		.cpu cortex-m0
   3              		.fpu softvfp
   4              		.eabi_attribute 20, 1
   5              		.eabi_attribute 21, 1
   6              		.eabi_attribute 23, 3
   7              		.eabi_attribute 24, 1
   8              		.eabi_attribute 25, 1
   9              		.eabi_attribute 26, 1
  10              		.eabi_attribute 30, 1
  11              		.eabi_attribute 34, 0
  12              		.eabi_attribute 18, 4
  13              		.thumb
  14              		.syntax unified
  15              		.file	"I2CM_I2C_MASTER.c"
  16              		.text
  17              	.Ltext0:
  18              		.cfi_sections	.debug_frame
  19              		.section	.text.I2CM_I2CMasterWaitOneUnit,"ax",%progbits
  20              		.align	2
  21              		.code	16
  22              		.thumb_func
  23              		.type	I2CM_I2CMasterWaitOneUnit, %function
  24              	I2CM_I2CMasterWaitOneUnit:
  25              	.LFB15:
  26              		.file 1 "Generated_Source\\PSoC4\\I2CM_I2C_MASTER.c"
   1:Generated_Source\PSoC4/I2CM_I2C_MASTER.c **** /***************************************************************************//**
   2:Generated_Source\PSoC4/I2CM_I2C_MASTER.c **** * \file I2CM_I2C_MASTER.c
   3:Generated_Source\PSoC4/I2CM_I2C_MASTER.c **** * \version 4.0
   4:Generated_Source\PSoC4/I2CM_I2C_MASTER.c **** *
   5:Generated_Source\PSoC4/I2CM_I2C_MASTER.c **** * \brief
   6:Generated_Source\PSoC4/I2CM_I2C_MASTER.c **** *  This file provides the source code to the API for the SCB Component in
   7:Generated_Source\PSoC4/I2CM_I2C_MASTER.c **** *  I2C Master mode.
   8:Generated_Source\PSoC4/I2CM_I2C_MASTER.c **** *
   9:Generated_Source\PSoC4/I2CM_I2C_MASTER.c **** * Note:
  10:Generated_Source\PSoC4/I2CM_I2C_MASTER.c **** *
  11:Generated_Source\PSoC4/I2CM_I2C_MASTER.c **** *******************************************************************************
  12:Generated_Source\PSoC4/I2CM_I2C_MASTER.c **** * \copyright
  13:Generated_Source\PSoC4/I2CM_I2C_MASTER.c **** * Copyright 2013-2017, Cypress Semiconductor Corporation.  All rights reserved.
  14:Generated_Source\PSoC4/I2CM_I2C_MASTER.c **** * You may use this file only in accordance with the license, terms, conditions,
  15:Generated_Source\PSoC4/I2CM_I2C_MASTER.c **** * disclaimers, and limitations in the end user license agreement accompanying
  16:Generated_Source\PSoC4/I2CM_I2C_MASTER.c **** * the software package with which this file was provided.
  17:Generated_Source\PSoC4/I2CM_I2C_MASTER.c **** *******************************************************************************/
  18:Generated_Source\PSoC4/I2CM_I2C_MASTER.c **** 
  19:Generated_Source\PSoC4/I2CM_I2C_MASTER.c **** #include "I2CM_PVT.h"
  20:Generated_Source\PSoC4/I2CM_I2C_MASTER.c **** #include "I2CM_I2C_PVT.h"
  21:Generated_Source\PSoC4/I2CM_I2C_MASTER.c **** 
  22:Generated_Source\PSoC4/I2CM_I2C_MASTER.c **** #if(I2CM_I2C_MASTER_CONST)
  23:Generated_Source\PSoC4/I2CM_I2C_MASTER.c **** 
  24:Generated_Source\PSoC4/I2CM_I2C_MASTER.c **** /***************************************
  25:Generated_Source\PSoC4/I2CM_I2C_MASTER.c **** *      I2C Master Private Vars
  26:Generated_Source\PSoC4/I2CM_I2C_MASTER.c **** ***************************************/
  27:Generated_Source\PSoC4/I2CM_I2C_MASTER.c **** 
  28:Generated_Source\PSoC4/I2CM_I2C_MASTER.c **** /* Master variables */
  29:Generated_Source\PSoC4/I2CM_I2C_MASTER.c **** volatile uint16 I2CM_mstrStatus;      /* Master Status byte  */
  30:Generated_Source\PSoC4/I2CM_I2C_MASTER.c **** volatile uint8  I2CM_mstrControl;     /* Master Control byte */
  31:Generated_Source\PSoC4/I2CM_I2C_MASTER.c **** 
ARM GAS  C:\Users\CHUNGN~1\AppData\Local\Temp\ccSpspjB.s 			page 2


  32:Generated_Source\PSoC4/I2CM_I2C_MASTER.c **** /* Receive buffer variables */
  33:Generated_Source\PSoC4/I2CM_I2C_MASTER.c **** volatile uint8 * I2CM_mstrRdBufPtr;   /* Pointer to Master Read buffer */
  34:Generated_Source\PSoC4/I2CM_I2C_MASTER.c **** volatile uint32  I2CM_mstrRdBufSize;  /* Master Read buffer size       */
  35:Generated_Source\PSoC4/I2CM_I2C_MASTER.c **** volatile uint32  I2CM_mstrRdBufIndex; /* Master Read buffer Index      */
  36:Generated_Source\PSoC4/I2CM_I2C_MASTER.c **** 
  37:Generated_Source\PSoC4/I2CM_I2C_MASTER.c **** /* Transmit buffer variables */
  38:Generated_Source\PSoC4/I2CM_I2C_MASTER.c **** volatile uint8 * I2CM_mstrWrBufPtr;   /* Pointer to Master Write buffer */
  39:Generated_Source\PSoC4/I2CM_I2C_MASTER.c **** volatile uint32  I2CM_mstrWrBufSize;  /* Master Write buffer size       */
  40:Generated_Source\PSoC4/I2CM_I2C_MASTER.c **** volatile uint32  I2CM_mstrWrBufIndex; /* Master Write buffer Index      */
  41:Generated_Source\PSoC4/I2CM_I2C_MASTER.c **** volatile uint32  I2CM_mstrWrBufIndexTmp; /* Master Write buffer Index Tmp */
  42:Generated_Source\PSoC4/I2CM_I2C_MASTER.c **** 
  43:Generated_Source\PSoC4/I2CM_I2C_MASTER.c **** #if (!I2CM_CY_SCBIP_V0 && \
  44:Generated_Source\PSoC4/I2CM_I2C_MASTER.c ****     I2CM_I2C_MULTI_MASTER_SLAVE_CONST && I2CM_I2C_WAKE_ENABLE_CONST)
  45:Generated_Source\PSoC4/I2CM_I2C_MASTER.c ****     static void I2CM_I2CMasterDisableEcAm(void);
  46:Generated_Source\PSoC4/I2CM_I2C_MASTER.c **** #else
  47:Generated_Source\PSoC4/I2CM_I2C_MASTER.c ****     #define I2CM_I2CMasterDisableEcAm()     do{ /* Empty */ }while(0)
  48:Generated_Source\PSoC4/I2CM_I2C_MASTER.c **** #endif /* (!I2CM_CY_SCBIP_V0) */
  49:Generated_Source\PSoC4/I2CM_I2C_MASTER.c **** 
  50:Generated_Source\PSoC4/I2CM_I2C_MASTER.c **** static uint32 I2CM_I2CMasterHandleStatus(uint32 status);
  51:Generated_Source\PSoC4/I2CM_I2C_MASTER.c **** static uint32 I2CM_I2CMasterWaitOneUnit(uint32 *timeout);
  52:Generated_Source\PSoC4/I2CM_I2C_MASTER.c **** 
  53:Generated_Source\PSoC4/I2CM_I2C_MASTER.c **** 
  54:Generated_Source\PSoC4/I2CM_I2C_MASTER.c **** /*******************************************************************************
  55:Generated_Source\PSoC4/I2CM_I2C_MASTER.c **** * Function Name: I2CM_I2CMasterWriteBuf
  56:Generated_Source\PSoC4/I2CM_I2C_MASTER.c **** ****************************************************************************//**
  57:Generated_Source\PSoC4/I2CM_I2C_MASTER.c **** *
  58:Generated_Source\PSoC4/I2CM_I2C_MASTER.c **** *  Automatically writes an entire buffer of data to a slave device.
  59:Generated_Source\PSoC4/I2CM_I2C_MASTER.c **** *  Once the data transfer is initiated by this function, further data transfer
  60:Generated_Source\PSoC4/I2CM_I2C_MASTER.c **** *  is handled by the included ISR.
  61:Generated_Source\PSoC4/I2CM_I2C_MASTER.c **** *  Enables the I2C interrupt and clears I2CM_I2C_MSTAT_WR_CMPLT
  62:Generated_Source\PSoC4/I2CM_I2C_MASTER.c **** *  status.
  63:Generated_Source\PSoC4/I2CM_I2C_MASTER.c **** *
  64:Generated_Source\PSoC4/I2CM_I2C_MASTER.c **** *  \param slaveAddr: 7-bit slave address.
  65:Generated_Source\PSoC4/I2CM_I2C_MASTER.c **** *  \param xferData: Pointer to buffer of data to be sent.
  66:Generated_Source\PSoC4/I2CM_I2C_MASTER.c **** *  \param cnt: Size of buffer to send.
  67:Generated_Source\PSoC4/I2CM_I2C_MASTER.c **** *  \param mode: Transfer mode defines:
  68:Generated_Source\PSoC4/I2CM_I2C_MASTER.c **** *  (1) Whether a start or restart condition is generated at the beginning
  69:Generated_Source\PSoC4/I2CM_I2C_MASTER.c **** *  of the transfer, and
  70:Generated_Source\PSoC4/I2CM_I2C_MASTER.c **** *  (2) Whether the transfer is completed or halted before the stop
  71:Generated_Source\PSoC4/I2CM_I2C_MASTER.c **** *  condition is generated on the bus.Transfer mode, mode constants
  72:Generated_Source\PSoC4/I2CM_I2C_MASTER.c **** *  may be ORed together.
  73:Generated_Source\PSoC4/I2CM_I2C_MASTER.c **** *  - I2CM_I2C_MODE_COMPLETE_XFER - Perform complete transfer
  74:Generated_Source\PSoC4/I2CM_I2C_MASTER.c **** *    from Start to Stop.
  75:Generated_Source\PSoC4/I2CM_I2C_MASTER.c **** *  - I2CM_I2C_MODE_REPEAT_START - Send Repeat Start instead
  76:Generated_Source\PSoC4/I2CM_I2C_MASTER.c **** *    of Start. A Stop is generated after transfer is completed unless
  77:Generated_Source\PSoC4/I2CM_I2C_MASTER.c **** *    NO_STOP is specified.
  78:Generated_Source\PSoC4/I2CM_I2C_MASTER.c **** *  - I2CM_I2C_MODE_NO_STOP Execute transfer without a Stop.
  79:Generated_Source\PSoC4/I2CM_I2C_MASTER.c **** *    The following transfer expected to perform ReStart.
  80:Generated_Source\PSoC4/I2CM_I2C_MASTER.c **** *
  81:Generated_Source\PSoC4/I2CM_I2C_MASTER.c **** * \return
  82:Generated_Source\PSoC4/I2CM_I2C_MASTER.c **** *  Error status.
  83:Generated_Source\PSoC4/I2CM_I2C_MASTER.c **** *  - I2CM_I2C_MSTR_NO_ERROR - Function complete without error.
  84:Generated_Source\PSoC4/I2CM_I2C_MASTER.c **** *    The master started the transfer.
  85:Generated_Source\PSoC4/I2CM_I2C_MASTER.c **** *  - I2CM_I2C_MSTR_BUS_BUSY - Bus is busy. Nothing was sent on
  86:Generated_Source\PSoC4/I2CM_I2C_MASTER.c **** *    the bus. The attempt has to be retried.
  87:Generated_Source\PSoC4/I2CM_I2C_MASTER.c **** *  - I2CM_I2C_MSTR_NOT_READY - Master is not ready for to start
  88:Generated_Source\PSoC4/I2CM_I2C_MASTER.c **** *    transfer. A master still has not completed previous transaction or a
ARM GAS  C:\Users\CHUNGN~1\AppData\Local\Temp\ccSpspjB.s 			page 3


  89:Generated_Source\PSoC4/I2CM_I2C_MASTER.c **** *    slave operation is in progress (in multi-master-slave configuration).
  90:Generated_Source\PSoC4/I2CM_I2C_MASTER.c **** *    Nothing was sent on the bus. The attempt has to be retried.
  91:Generated_Source\PSoC4/I2CM_I2C_MASTER.c **** *
  92:Generated_Source\PSoC4/I2CM_I2C_MASTER.c **** * \globalvars
  93:Generated_Source\PSoC4/I2CM_I2C_MASTER.c **** *  I2CM_mstrStatus  - used to store current status of I2C Master.
  94:Generated_Source\PSoC4/I2CM_I2C_MASTER.c **** *  I2CM_state       - used to store current state of software FSM.
  95:Generated_Source\PSoC4/I2CM_I2C_MASTER.c **** *  I2CM_mstrControl - used to control master end of transaction with
  96:Generated_Source\PSoC4/I2CM_I2C_MASTER.c **** *  or without the Stop generation.
  97:Generated_Source\PSoC4/I2CM_I2C_MASTER.c **** *  I2CM_mstrWrBufPtr - used to store pointer to master write buffer.
  98:Generated_Source\PSoC4/I2CM_I2C_MASTER.c **** *  I2CM_mstrWrBufIndex - used to current index within master write
  99:Generated_Source\PSoC4/I2CM_I2C_MASTER.c **** *  buffer.
 100:Generated_Source\PSoC4/I2CM_I2C_MASTER.c **** *  I2CM_mstrWrBufSize - used to store master write buffer size.
 101:Generated_Source\PSoC4/I2CM_I2C_MASTER.c **** *
 102:Generated_Source\PSoC4/I2CM_I2C_MASTER.c **** *******************************************************************************/
 103:Generated_Source\PSoC4/I2CM_I2C_MASTER.c **** uint32 I2CM_I2CMasterWriteBuf(uint32 slaveAddress, uint8 * wrData, uint32 cnt, uint32 mode)
 104:Generated_Source\PSoC4/I2CM_I2C_MASTER.c **** {
 105:Generated_Source\PSoC4/I2CM_I2C_MASTER.c ****     uint32 errStatus;
 106:Generated_Source\PSoC4/I2CM_I2C_MASTER.c **** 
 107:Generated_Source\PSoC4/I2CM_I2C_MASTER.c ****     errStatus = I2CM_I2C_MSTR_NOT_READY;
 108:Generated_Source\PSoC4/I2CM_I2C_MASTER.c **** 
 109:Generated_Source\PSoC4/I2CM_I2C_MASTER.c ****     if(NULL != wrData)  /* Check buffer pointer */
 110:Generated_Source\PSoC4/I2CM_I2C_MASTER.c ****     {
 111:Generated_Source\PSoC4/I2CM_I2C_MASTER.c ****         /* Check FSM state and bus before generating Start/ReStart condition */
 112:Generated_Source\PSoC4/I2CM_I2C_MASTER.c ****         if(I2CM_CHECK_I2C_FSM_IDLE)
 113:Generated_Source\PSoC4/I2CM_I2C_MASTER.c ****         {
 114:Generated_Source\PSoC4/I2CM_I2C_MASTER.c ****             I2CM_DisableInt();  /* Lock from interruption */
 115:Generated_Source\PSoC4/I2CM_I2C_MASTER.c **** 
 116:Generated_Source\PSoC4/I2CM_I2C_MASTER.c ****             /* Check bus state */
 117:Generated_Source\PSoC4/I2CM_I2C_MASTER.c ****             errStatus = I2CM_CHECK_I2C_STATUS(I2CM_I2C_STATUS_BUS_BUSY) ?
 118:Generated_Source\PSoC4/I2CM_I2C_MASTER.c ****                             I2CM_I2C_MSTR_BUS_BUSY : I2CM_I2C_MSTR_NO_ERROR;
 119:Generated_Source\PSoC4/I2CM_I2C_MASTER.c ****         }
 120:Generated_Source\PSoC4/I2CM_I2C_MASTER.c ****         else if(I2CM_CHECK_I2C_FSM_HALT)
 121:Generated_Source\PSoC4/I2CM_I2C_MASTER.c ****         {
 122:Generated_Source\PSoC4/I2CM_I2C_MASTER.c ****             I2CM_mstrStatus &= (uint16) ~I2CM_I2C_MSTAT_XFER_HALT;
 123:Generated_Source\PSoC4/I2CM_I2C_MASTER.c ****                               errStatus  = I2CM_I2C_MSTR_NO_ERROR;
 124:Generated_Source\PSoC4/I2CM_I2C_MASTER.c ****         }
 125:Generated_Source\PSoC4/I2CM_I2C_MASTER.c ****         else
 126:Generated_Source\PSoC4/I2CM_I2C_MASTER.c ****         {
 127:Generated_Source\PSoC4/I2CM_I2C_MASTER.c ****             /* Unexpected FSM state: exit */
 128:Generated_Source\PSoC4/I2CM_I2C_MASTER.c ****         }
 129:Generated_Source\PSoC4/I2CM_I2C_MASTER.c ****     }
 130:Generated_Source\PSoC4/I2CM_I2C_MASTER.c **** 
 131:Generated_Source\PSoC4/I2CM_I2C_MASTER.c ****     /* Check if master is ready to start  */
 132:Generated_Source\PSoC4/I2CM_I2C_MASTER.c ****     if(I2CM_I2C_MSTR_NO_ERROR == errStatus) /* No error proceed */
 133:Generated_Source\PSoC4/I2CM_I2C_MASTER.c ****     {
 134:Generated_Source\PSoC4/I2CM_I2C_MASTER.c ****         /* Non-empty for master-slave mode when wakeup enabled */
 135:Generated_Source\PSoC4/I2CM_I2C_MASTER.c ****         I2CM_I2CMasterDisableEcAm();
 136:Generated_Source\PSoC4/I2CM_I2C_MASTER.c **** 
 137:Generated_Source\PSoC4/I2CM_I2C_MASTER.c ****         /* Set up write transaction */
 138:Generated_Source\PSoC4/I2CM_I2C_MASTER.c ****         I2CM_state = I2CM_I2C_FSM_MSTR_WR_ADDR;
 139:Generated_Source\PSoC4/I2CM_I2C_MASTER.c ****         I2CM_mstrWrBufIndexTmp = 0u;
 140:Generated_Source\PSoC4/I2CM_I2C_MASTER.c ****         I2CM_mstrWrBufIndex    = 0u;
 141:Generated_Source\PSoC4/I2CM_I2C_MASTER.c ****         I2CM_mstrWrBufSize     = cnt;
 142:Generated_Source\PSoC4/I2CM_I2C_MASTER.c ****         I2CM_mstrWrBufPtr      = (volatile uint8 *) wrData;
 143:Generated_Source\PSoC4/I2CM_I2C_MASTER.c ****         I2CM_mstrControl       = (uint8) mode;
 144:Generated_Source\PSoC4/I2CM_I2C_MASTER.c **** 
 145:Generated_Source\PSoC4/I2CM_I2C_MASTER.c ****         slaveAddress = I2CM_GET_I2C_8BIT_ADDRESS(slaveAddress);
ARM GAS  C:\Users\CHUNGN~1\AppData\Local\Temp\ccSpspjB.s 			page 4


 146:Generated_Source\PSoC4/I2CM_I2C_MASTER.c **** 
 147:Generated_Source\PSoC4/I2CM_I2C_MASTER.c ****         I2CM_mstrStatus &= (uint16) ~I2CM_I2C_MSTAT_WR_CMPLT;
 148:Generated_Source\PSoC4/I2CM_I2C_MASTER.c **** 
 149:Generated_Source\PSoC4/I2CM_I2C_MASTER.c ****         I2CM_ClearTxInterruptSource    (I2CM_INTR_TX_UNDERFLOW);
 150:Generated_Source\PSoC4/I2CM_I2C_MASTER.c ****         I2CM_ClearMasterInterruptSource(I2CM_INTR_MASTER_ALL);
 151:Generated_Source\PSoC4/I2CM_I2C_MASTER.c ****         I2CM_SetMasterInterruptMode    (I2CM_I2C_INTR_MASTER_MASK);
 152:Generated_Source\PSoC4/I2CM_I2C_MASTER.c **** 
 153:Generated_Source\PSoC4/I2CM_I2C_MASTER.c ****         /* The TX and RX FIFO have to be EMPTY */
 154:Generated_Source\PSoC4/I2CM_I2C_MASTER.c **** 
 155:Generated_Source\PSoC4/I2CM_I2C_MASTER.c ****         /* Enable interrupt source to catch when address is sent */
 156:Generated_Source\PSoC4/I2CM_I2C_MASTER.c ****         I2CM_SetTxInterruptMode(I2CM_INTR_TX_UNDERFLOW);
 157:Generated_Source\PSoC4/I2CM_I2C_MASTER.c **** 
 158:Generated_Source\PSoC4/I2CM_I2C_MASTER.c ****         /* Generate Start or ReStart */
 159:Generated_Source\PSoC4/I2CM_I2C_MASTER.c ****         if(I2CM_CHECK_I2C_MODE_RESTART(mode))
 160:Generated_Source\PSoC4/I2CM_I2C_MASTER.c ****         {
 161:Generated_Source\PSoC4/I2CM_I2C_MASTER.c ****             I2CM_I2C_MASTER_GENERATE_RESTART;
 162:Generated_Source\PSoC4/I2CM_I2C_MASTER.c ****             I2CM_TX_FIFO_WR_REG = slaveAddress;
 163:Generated_Source\PSoC4/I2CM_I2C_MASTER.c ****         }
 164:Generated_Source\PSoC4/I2CM_I2C_MASTER.c ****         else
 165:Generated_Source\PSoC4/I2CM_I2C_MASTER.c ****         {
 166:Generated_Source\PSoC4/I2CM_I2C_MASTER.c ****             I2CM_TX_FIFO_WR_REG = slaveAddress;
 167:Generated_Source\PSoC4/I2CM_I2C_MASTER.c ****             I2CM_I2C_MASTER_GENERATE_START;
 168:Generated_Source\PSoC4/I2CM_I2C_MASTER.c ****         }
 169:Generated_Source\PSoC4/I2CM_I2C_MASTER.c ****     }
 170:Generated_Source\PSoC4/I2CM_I2C_MASTER.c **** 
 171:Generated_Source\PSoC4/I2CM_I2C_MASTER.c ****     I2CM_EnableInt();   /* Release lock */
 172:Generated_Source\PSoC4/I2CM_I2C_MASTER.c **** 
 173:Generated_Source\PSoC4/I2CM_I2C_MASTER.c ****     return(errStatus);
 174:Generated_Source\PSoC4/I2CM_I2C_MASTER.c **** }
 175:Generated_Source\PSoC4/I2CM_I2C_MASTER.c **** 
 176:Generated_Source\PSoC4/I2CM_I2C_MASTER.c **** 
 177:Generated_Source\PSoC4/I2CM_I2C_MASTER.c **** /*******************************************************************************
 178:Generated_Source\PSoC4/I2CM_I2C_MASTER.c **** * Function Name: I2CM_I2CMasterReadBuf
 179:Generated_Source\PSoC4/I2CM_I2C_MASTER.c **** ****************************************************************************//**
 180:Generated_Source\PSoC4/I2CM_I2C_MASTER.c **** *
 181:Generated_Source\PSoC4/I2CM_I2C_MASTER.c **** *  Automatically reads an entire buffer of data from a slave device.
 182:Generated_Source\PSoC4/I2CM_I2C_MASTER.c **** *  Once the data transfer is initiated by this function, further data transfer
 183:Generated_Source\PSoC4/I2CM_I2C_MASTER.c **** *  is handled by the included ISR.
 184:Generated_Source\PSoC4/I2CM_I2C_MASTER.c **** *  Enables the I2C interrupt and clears I2CM_I2C_MSTAT_RD_CMPLT
 185:Generated_Source\PSoC4/I2CM_I2C_MASTER.c **** *  status.
 186:Generated_Source\PSoC4/I2CM_I2C_MASTER.c **** *
 187:Generated_Source\PSoC4/I2CM_I2C_MASTER.c **** *  \param slaveAddr: 7-bit slave address.
 188:Generated_Source\PSoC4/I2CM_I2C_MASTER.c **** *  \param xferData: Pointer to buffer of data to be sent.
 189:Generated_Source\PSoC4/I2CM_I2C_MASTER.c **** *  \param cnt: Size of buffer to send.
 190:Generated_Source\PSoC4/I2CM_I2C_MASTER.c **** *  \param mode: Transfer mode defines:
 191:Generated_Source\PSoC4/I2CM_I2C_MASTER.c **** *  (1) Whether a start or restart condition is generated at the beginning
 192:Generated_Source\PSoC4/I2CM_I2C_MASTER.c **** *  of the transfer, and
 193:Generated_Source\PSoC4/I2CM_I2C_MASTER.c **** *  (2) Whether the transfer is completed or halted before the stop
 194:Generated_Source\PSoC4/I2CM_I2C_MASTER.c **** *  condition is generated on the bus.Transfer mode, mode constants may
 195:Generated_Source\PSoC4/I2CM_I2C_MASTER.c **** *  be ORed together. See I2CM_I2CMasterWriteBuf()
 196:Generated_Source\PSoC4/I2CM_I2C_MASTER.c **** *  function for constants.
 197:Generated_Source\PSoC4/I2CM_I2C_MASTER.c **** *
 198:Generated_Source\PSoC4/I2CM_I2C_MASTER.c **** * \return
 199:Generated_Source\PSoC4/I2CM_I2C_MASTER.c **** *  Error status.See I2CM_I2CMasterWriteBuf()
 200:Generated_Source\PSoC4/I2CM_I2C_MASTER.c **** *  function for constants.
 201:Generated_Source\PSoC4/I2CM_I2C_MASTER.c **** *
 202:Generated_Source\PSoC4/I2CM_I2C_MASTER.c **** * \globalvars
ARM GAS  C:\Users\CHUNGN~1\AppData\Local\Temp\ccSpspjB.s 			page 5


 203:Generated_Source\PSoC4/I2CM_I2C_MASTER.c **** *  I2CM_mstrStatus  - used to store current status of I2C Master.
 204:Generated_Source\PSoC4/I2CM_I2C_MASTER.c **** *  I2CM_state       - used to store current state of software FSM.
 205:Generated_Source\PSoC4/I2CM_I2C_MASTER.c **** *  I2CM_mstrControl - used to control master end of transaction with
 206:Generated_Source\PSoC4/I2CM_I2C_MASTER.c **** *  or without the Stop generation.
 207:Generated_Source\PSoC4/I2CM_I2C_MASTER.c **** *  I2CM_mstrRdBufPtr - used to store pointer to master read buffer.
 208:Generated_Source\PSoC4/I2CM_I2C_MASTER.c **** *  I2CM_mstrRdBufIndex - used to current index within master read
 209:Generated_Source\PSoC4/I2CM_I2C_MASTER.c **** *  buffer.
 210:Generated_Source\PSoC4/I2CM_I2C_MASTER.c **** *  I2CM_mstrRdBufSize - used to store master read buffer size.
 211:Generated_Source\PSoC4/I2CM_I2C_MASTER.c **** *
 212:Generated_Source\PSoC4/I2CM_I2C_MASTER.c **** *******************************************************************************/
 213:Generated_Source\PSoC4/I2CM_I2C_MASTER.c **** uint32 I2CM_I2CMasterReadBuf(uint32 slaveAddress, uint8 * rdData, uint32 cnt, uint32 mode)
 214:Generated_Source\PSoC4/I2CM_I2C_MASTER.c **** {
 215:Generated_Source\PSoC4/I2CM_I2C_MASTER.c ****     uint32 errStatus;
 216:Generated_Source\PSoC4/I2CM_I2C_MASTER.c **** 
 217:Generated_Source\PSoC4/I2CM_I2C_MASTER.c ****     errStatus = I2CM_I2C_MSTR_NOT_READY;
 218:Generated_Source\PSoC4/I2CM_I2C_MASTER.c **** 
 219:Generated_Source\PSoC4/I2CM_I2C_MASTER.c ****     if(NULL != rdData)
 220:Generated_Source\PSoC4/I2CM_I2C_MASTER.c ****     {
 221:Generated_Source\PSoC4/I2CM_I2C_MASTER.c ****         /* Check FSM state and bus before generating Start/ReStart condition */
 222:Generated_Source\PSoC4/I2CM_I2C_MASTER.c ****         if(I2CM_CHECK_I2C_FSM_IDLE)
 223:Generated_Source\PSoC4/I2CM_I2C_MASTER.c ****         {
 224:Generated_Source\PSoC4/I2CM_I2C_MASTER.c ****             I2CM_DisableInt();  /* Lock from interruption */
 225:Generated_Source\PSoC4/I2CM_I2C_MASTER.c **** 
 226:Generated_Source\PSoC4/I2CM_I2C_MASTER.c ****             /* Check bus state */
 227:Generated_Source\PSoC4/I2CM_I2C_MASTER.c ****             errStatus = I2CM_CHECK_I2C_STATUS(I2CM_I2C_STATUS_BUS_BUSY) ?
 228:Generated_Source\PSoC4/I2CM_I2C_MASTER.c ****                             I2CM_I2C_MSTR_BUS_BUSY : I2CM_I2C_MSTR_NO_ERROR;
 229:Generated_Source\PSoC4/I2CM_I2C_MASTER.c ****         }
 230:Generated_Source\PSoC4/I2CM_I2C_MASTER.c ****         else if(I2CM_CHECK_I2C_FSM_HALT)
 231:Generated_Source\PSoC4/I2CM_I2C_MASTER.c ****         {
 232:Generated_Source\PSoC4/I2CM_I2C_MASTER.c ****             I2CM_mstrStatus &= (uint16) ~I2CM_I2C_MSTAT_XFER_HALT;
 233:Generated_Source\PSoC4/I2CM_I2C_MASTER.c ****                               errStatus  =  I2CM_I2C_MSTR_NO_ERROR;
 234:Generated_Source\PSoC4/I2CM_I2C_MASTER.c ****         }
 235:Generated_Source\PSoC4/I2CM_I2C_MASTER.c ****         else
 236:Generated_Source\PSoC4/I2CM_I2C_MASTER.c ****         {
 237:Generated_Source\PSoC4/I2CM_I2C_MASTER.c ****             /* Unexpected FSM state: exit */
 238:Generated_Source\PSoC4/I2CM_I2C_MASTER.c ****         }
 239:Generated_Source\PSoC4/I2CM_I2C_MASTER.c ****     }
 240:Generated_Source\PSoC4/I2CM_I2C_MASTER.c **** 
 241:Generated_Source\PSoC4/I2CM_I2C_MASTER.c ****     /* Check master ready to proceed */
 242:Generated_Source\PSoC4/I2CM_I2C_MASTER.c ****     if(I2CM_I2C_MSTR_NO_ERROR == errStatus) /* No error proceed */
 243:Generated_Source\PSoC4/I2CM_I2C_MASTER.c ****     {
 244:Generated_Source\PSoC4/I2CM_I2C_MASTER.c ****         /* Non-empty for master-slave mode when wakeup enabled */
 245:Generated_Source\PSoC4/I2CM_I2C_MASTER.c ****         I2CM_I2CMasterDisableEcAm();
 246:Generated_Source\PSoC4/I2CM_I2C_MASTER.c **** 
 247:Generated_Source\PSoC4/I2CM_I2C_MASTER.c ****         /* Set up read transaction */
 248:Generated_Source\PSoC4/I2CM_I2C_MASTER.c ****         I2CM_state = I2CM_I2C_FSM_MSTR_RD_ADDR;
 249:Generated_Source\PSoC4/I2CM_I2C_MASTER.c ****         I2CM_mstrRdBufIndex = 0u;
 250:Generated_Source\PSoC4/I2CM_I2C_MASTER.c ****         I2CM_mstrRdBufSize  = cnt;
 251:Generated_Source\PSoC4/I2CM_I2C_MASTER.c ****         I2CM_mstrRdBufPtr   = (volatile uint8 *) rdData;
 252:Generated_Source\PSoC4/I2CM_I2C_MASTER.c ****         I2CM_mstrControl    = (uint8) mode;
 253:Generated_Source\PSoC4/I2CM_I2C_MASTER.c **** 
 254:Generated_Source\PSoC4/I2CM_I2C_MASTER.c ****         slaveAddress = (I2CM_GET_I2C_8BIT_ADDRESS(slaveAddress) | I2CM_I2C_READ_FLAG);
 255:Generated_Source\PSoC4/I2CM_I2C_MASTER.c **** 
 256:Generated_Source\PSoC4/I2CM_I2C_MASTER.c ****         I2CM_mstrStatus &= (uint16) ~I2CM_I2C_MSTAT_RD_CMPLT;
 257:Generated_Source\PSoC4/I2CM_I2C_MASTER.c **** 
 258:Generated_Source\PSoC4/I2CM_I2C_MASTER.c ****         I2CM_ClearMasterInterruptSource(I2CM_INTR_MASTER_ALL);
 259:Generated_Source\PSoC4/I2CM_I2C_MASTER.c ****         I2CM_SetMasterInterruptMode    (I2CM_I2C_INTR_MASTER_MASK);
ARM GAS  C:\Users\CHUNGN~1\AppData\Local\Temp\ccSpspjB.s 			page 6


 260:Generated_Source\PSoC4/I2CM_I2C_MASTER.c **** 
 261:Generated_Source\PSoC4/I2CM_I2C_MASTER.c ****         /* TX and RX FIFO have to be EMPTY */
 262:Generated_Source\PSoC4/I2CM_I2C_MASTER.c **** 
 263:Generated_Source\PSoC4/I2CM_I2C_MASTER.c ****         /* Prepare reading */
 264:Generated_Source\PSoC4/I2CM_I2C_MASTER.c ****         if(I2CM_mstrRdBufSize < I2CM_I2C_FIFO_SIZE)
 265:Generated_Source\PSoC4/I2CM_I2C_MASTER.c ****         {
 266:Generated_Source\PSoC4/I2CM_I2C_MASTER.c ****             /* Reading byte-by-byte */
 267:Generated_Source\PSoC4/I2CM_I2C_MASTER.c ****             I2CM_SetRxInterruptMode(I2CM_INTR_RX_NOT_EMPTY);
 268:Generated_Source\PSoC4/I2CM_I2C_MASTER.c ****         }
 269:Generated_Source\PSoC4/I2CM_I2C_MASTER.c ****         else
 270:Generated_Source\PSoC4/I2CM_I2C_MASTER.c ****         {
 271:Generated_Source\PSoC4/I2CM_I2C_MASTER.c ****             /* Receive RX FIFO chunks */
 272:Generated_Source\PSoC4/I2CM_I2C_MASTER.c ****             I2CM_ENABLE_MASTER_AUTO_DATA_ACK;
 273:Generated_Source\PSoC4/I2CM_I2C_MASTER.c ****             I2CM_SetRxInterruptMode(I2CM_INTR_RX_FULL);
 274:Generated_Source\PSoC4/I2CM_I2C_MASTER.c ****         }
 275:Generated_Source\PSoC4/I2CM_I2C_MASTER.c **** 
 276:Generated_Source\PSoC4/I2CM_I2C_MASTER.c ****         /* Generate Start or ReStart */
 277:Generated_Source\PSoC4/I2CM_I2C_MASTER.c ****         if(I2CM_CHECK_I2C_MODE_RESTART(mode))
 278:Generated_Source\PSoC4/I2CM_I2C_MASTER.c ****         {
 279:Generated_Source\PSoC4/I2CM_I2C_MASTER.c ****             I2CM_I2C_MASTER_GENERATE_RESTART;
 280:Generated_Source\PSoC4/I2CM_I2C_MASTER.c ****             I2CM_TX_FIFO_WR_REG = slaveAddress;
 281:Generated_Source\PSoC4/I2CM_I2C_MASTER.c ****         }
 282:Generated_Source\PSoC4/I2CM_I2C_MASTER.c ****         else
 283:Generated_Source\PSoC4/I2CM_I2C_MASTER.c ****         {
 284:Generated_Source\PSoC4/I2CM_I2C_MASTER.c ****             I2CM_TX_FIFO_WR_REG = slaveAddress;
 285:Generated_Source\PSoC4/I2CM_I2C_MASTER.c ****             I2CM_I2C_MASTER_GENERATE_START;
 286:Generated_Source\PSoC4/I2CM_I2C_MASTER.c ****         }
 287:Generated_Source\PSoC4/I2CM_I2C_MASTER.c ****     }
 288:Generated_Source\PSoC4/I2CM_I2C_MASTER.c **** 
 289:Generated_Source\PSoC4/I2CM_I2C_MASTER.c ****     I2CM_EnableInt();   /* Release lock */
 290:Generated_Source\PSoC4/I2CM_I2C_MASTER.c **** 
 291:Generated_Source\PSoC4/I2CM_I2C_MASTER.c ****     return(errStatus);
 292:Generated_Source\PSoC4/I2CM_I2C_MASTER.c **** }
 293:Generated_Source\PSoC4/I2CM_I2C_MASTER.c **** 
 294:Generated_Source\PSoC4/I2CM_I2C_MASTER.c **** 
 295:Generated_Source\PSoC4/I2CM_I2C_MASTER.c **** /*******************************************************************************
 296:Generated_Source\PSoC4/I2CM_I2C_MASTER.c **** * Function Name: I2CM_I2CMasterSendStart
 297:Generated_Source\PSoC4/I2CM_I2C_MASTER.c **** ****************************************************************************//**
 298:Generated_Source\PSoC4/I2CM_I2C_MASTER.c **** *
 299:Generated_Source\PSoC4/I2CM_I2C_MASTER.c **** * Generates Start condition and sends slave address with read/write bit.
 300:Generated_Source\PSoC4/I2CM_I2C_MASTER.c **** * Disables the I2C interrupt.
 301:Generated_Source\PSoC4/I2CM_I2C_MASTER.c **** * This function is blocking and does not return until start condition and
 302:Generated_Source\PSoC4/I2CM_I2C_MASTER.c **** * address byte are sent and ACK/NACK response is received or errors occurred.
 303:Generated_Source\PSoC4/I2CM_I2C_MASTER.c **** *
 304:Generated_Source\PSoC4/I2CM_I2C_MASTER.c **** * \param slaveAddress
 305:Generated_Source\PSoC4/I2CM_I2C_MASTER.c **** * Right justified 7-bit Slave address (valid range 8 to 120).
 306:Generated_Source\PSoC4/I2CM_I2C_MASTER.c **** *
 307:Generated_Source\PSoC4/I2CM_I2C_MASTER.c **** * \param bitRnW
 308:Generated_Source\PSoC4/I2CM_I2C_MASTER.c **** * Direction of the following transfer. It is defined by read/write bit within
 309:Generated_Source\PSoC4/I2CM_I2C_MASTER.c **** * address byte.
 310:Generated_Source\PSoC4/I2CM_I2C_MASTER.c **** *  - I2CM_I2C_WRITE_XFER_MODE - Set write direction for the
 311:Generated_Source\PSoC4/I2CM_I2C_MASTER.c **** *    following transfer.
 312:Generated_Source\PSoC4/I2CM_I2C_MASTER.c **** *  - I2CM_I2C_READ_XFER_MODE - Set read direction for the
 313:Generated_Source\PSoC4/I2CM_I2C_MASTER.c **** *    following transfer.
 314:Generated_Source\PSoC4/I2CM_I2C_MASTER.c **** *
 315:Generated_Source\PSoC4/I2CM_I2C_MASTER.c **** * \param timeoutMs
 316:Generated_Source\PSoC4/I2CM_I2C_MASTER.c **** * Defines in milliseconds the time that this function can block for.
ARM GAS  C:\Users\CHUNGN~1\AppData\Local\Temp\ccSpspjB.s 			page 7


 317:Generated_Source\PSoC4/I2CM_I2C_MASTER.c **** * If that time expires, the function returns. If a zero is passed,
 318:Generated_Source\PSoC4/I2CM_I2C_MASTER.c **** * the function waits forever for the action to complete. If a timeout occurs,
 319:Generated_Source\PSoC4/I2CM_I2C_MASTER.c **** * the SCB block is reset. Note The maximum value is (maximum uint32)/1000.
 320:Generated_Source\PSoC4/I2CM_I2C_MASTER.c **** *
 321:Generated_Source\PSoC4/I2CM_I2C_MASTER.c **** * \return
 322:Generated_Source\PSoC4/I2CM_I2C_MASTER.c **** * Error status.
 323:Generated_Source\PSoC4/I2CM_I2C_MASTER.c **** *  - I2CM_I2C_MSTR_NO_ERROR - Function complete without error.
 324:Generated_Source\PSoC4/I2CM_I2C_MASTER.c **** *  - I2CM_I2C_MSTR_BUS_BUSY - Bus is busy.
 325:Generated_Source\PSoC4/I2CM_I2C_MASTER.c **** *    Nothing was sent on the bus. The attempt has to be retried.
 326:Generated_Source\PSoC4/I2CM_I2C_MASTER.c **** *  - I2CM_I2C_MSTR_NOT_READY - Master is not ready for to
 327:Generated_Source\PSoC4/I2CM_I2C_MASTER.c **** *    start transfer.
 328:Generated_Source\PSoC4/I2CM_I2C_MASTER.c **** *    A master still has not completed previous transaction or a slave
 329:Generated_Source\PSoC4/I2CM_I2C_MASTER.c **** *    operation is in progress (in multi-master-slave configuration).
 330:Generated_Source\PSoC4/I2CM_I2C_MASTER.c **** *    Nothing was sent on the bus. The attempt has to be retried.
 331:Generated_Source\PSoC4/I2CM_I2C_MASTER.c **** *  - I2CM_I2C_MSTR_ERR_LB_NAK - Error condition: Last byte was
 332:Generated_Source\PSoC4/I2CM_I2C_MASTER.c **** *    NAKed.
 333:Generated_Source\PSoC4/I2CM_I2C_MASTER.c **** *  - I2CM_I2C_MSTR_ERR_ARB_LOST - Error condition: Master lost
 334:Generated_Source\PSoC4/I2CM_I2C_MASTER.c **** *    arbitration.
 335:Generated_Source\PSoC4/I2CM_I2C_MASTER.c **** *  - I2CM_I2C_MSTR_ERR_BUS_ERR - Error condition: Master
 336:Generated_Source\PSoC4/I2CM_I2C_MASTER.c **** *    encountered a bus error. Bus error is misplaced start or stop detection.
 337:Generated_Source\PSoC4/I2CM_I2C_MASTER.c **** *  - I2CM_I2C_MSTR_ERR_ABORT_START - Error condition: The start
 338:Generated_Source\PSoC4/I2CM_I2C_MASTER.c **** *    condition generation was aborted due to beginning of Slave operation.
 339:Generated_Source\PSoC4/I2CM_I2C_MASTER.c **** *    This error condition is only applicable for Multi-Master-Slave mode.
 340:Generated_Source\PSoC4/I2CM_I2C_MASTER.c **** *
 341:Generated_Source\PSoC4/I2CM_I2C_MASTER.c **** * \globalvars
 342:Generated_Source\PSoC4/I2CM_I2C_MASTER.c **** * I2CM_state - used to store current state of software FSM.
 343:Generated_Source\PSoC4/I2CM_I2C_MASTER.c **** *
 344:Generated_Source\PSoC4/I2CM_I2C_MASTER.c **** *******************************************************************************/
 345:Generated_Source\PSoC4/I2CM_I2C_MASTER.c **** uint32 I2CM_I2CMasterSendStart(uint32 slaveAddress, uint32 bitRnW, uint32 timeoutMs)
 346:Generated_Source\PSoC4/I2CM_I2C_MASTER.c **** {
 347:Generated_Source\PSoC4/I2CM_I2C_MASTER.c ****     uint32 errStatus = I2CM_I2C_MSTR_NOT_READY;
 348:Generated_Source\PSoC4/I2CM_I2C_MASTER.c **** 
 349:Generated_Source\PSoC4/I2CM_I2C_MASTER.c ****     if(I2CM_CHECK_I2C_FSM_IDLE)
 350:Generated_Source\PSoC4/I2CM_I2C_MASTER.c ****     {
 351:Generated_Source\PSoC4/I2CM_I2C_MASTER.c ****         I2CM_DisableInt();  /* Lock from interruption */
 352:Generated_Source\PSoC4/I2CM_I2C_MASTER.c **** 
 353:Generated_Source\PSoC4/I2CM_I2C_MASTER.c ****         if(I2CM_CHECK_I2C_STATUS(I2CM_I2C_STATUS_BUS_BUSY))
 354:Generated_Source\PSoC4/I2CM_I2C_MASTER.c ****         {
 355:Generated_Source\PSoC4/I2CM_I2C_MASTER.c ****             errStatus = I2CM_I2C_MSTR_BUS_BUSY;
 356:Generated_Source\PSoC4/I2CM_I2C_MASTER.c ****         }
 357:Generated_Source\PSoC4/I2CM_I2C_MASTER.c ****         else
 358:Generated_Source\PSoC4/I2CM_I2C_MASTER.c ****         {
 359:Generated_Source\PSoC4/I2CM_I2C_MASTER.c ****             uint32 locStatus;
 360:Generated_Source\PSoC4/I2CM_I2C_MASTER.c ****             uint32 timeout = I2CM_I2C_CONVERT_TIMEOUT_TO_US(timeoutMs);
 361:Generated_Source\PSoC4/I2CM_I2C_MASTER.c **** 
 362:Generated_Source\PSoC4/I2CM_I2C_MASTER.c ****             /* Non-empty for master-slave mode when wakeup enabled */
 363:Generated_Source\PSoC4/I2CM_I2C_MASTER.c ****             I2CM_I2CMasterDisableEcAm();
 364:Generated_Source\PSoC4/I2CM_I2C_MASTER.c **** 
 365:Generated_Source\PSoC4/I2CM_I2C_MASTER.c ****             /* Clean up the hardware before a transaction. */
 366:Generated_Source\PSoC4/I2CM_I2C_MASTER.c ****             I2CM_SetMasterInterruptMode    (I2CM_NO_INTR_SOURCES);
 367:Generated_Source\PSoC4/I2CM_I2C_MASTER.c ****             I2CM_ClearMasterInterruptSource(I2CM_INTR_MASTER_ALL);
 368:Generated_Source\PSoC4/I2CM_I2C_MASTER.c ****             I2CM_ClearRxInterruptSource    (I2CM_INTR_RX_ALL);
 369:Generated_Source\PSoC4/I2CM_I2C_MASTER.c **** 
 370:Generated_Source\PSoC4/I2CM_I2C_MASTER.c ****             slaveAddress = I2CM_GET_I2C_8BIT_ADDRESS(slaveAddress);
 371:Generated_Source\PSoC4/I2CM_I2C_MASTER.c **** 
 372:Generated_Source\PSoC4/I2CM_I2C_MASTER.c ****             if(0u == bitRnW) /* Write direction */
 373:Generated_Source\PSoC4/I2CM_I2C_MASTER.c ****             {
ARM GAS  C:\Users\CHUNGN~1\AppData\Local\Temp\ccSpspjB.s 			page 8


 374:Generated_Source\PSoC4/I2CM_I2C_MASTER.c ****                 I2CM_state = I2CM_I2C_FSM_MSTR_WR_DATA;
 375:Generated_Source\PSoC4/I2CM_I2C_MASTER.c ****             }
 376:Generated_Source\PSoC4/I2CM_I2C_MASTER.c ****             else             /* Read direction */
 377:Generated_Source\PSoC4/I2CM_I2C_MASTER.c ****             {
 378:Generated_Source\PSoC4/I2CM_I2C_MASTER.c ****                 I2CM_state = I2CM_I2C_FSM_MSTR_RD_DATA;
 379:Generated_Source\PSoC4/I2CM_I2C_MASTER.c ****                          slaveAddress |= I2CM_I2C_READ_FLAG;
 380:Generated_Source\PSoC4/I2CM_I2C_MASTER.c ****             }
 381:Generated_Source\PSoC4/I2CM_I2C_MASTER.c **** 
 382:Generated_Source\PSoC4/I2CM_I2C_MASTER.c ****             /* TX and RX FIFO have to be empty at here */
 383:Generated_Source\PSoC4/I2CM_I2C_MASTER.c **** 
 384:Generated_Source\PSoC4/I2CM_I2C_MASTER.c ****              /* Generate Start and send address */
 385:Generated_Source\PSoC4/I2CM_I2C_MASTER.c ****             I2CM_TX_FIFO_WR_REG = slaveAddress;
 386:Generated_Source\PSoC4/I2CM_I2C_MASTER.c ****             I2CM_I2C_MASTER_GENERATE_START;
 387:Generated_Source\PSoC4/I2CM_I2C_MASTER.c **** 
 388:Generated_Source\PSoC4/I2CM_I2C_MASTER.c ****             /* Wait until address has been transferred. Note that for master reads at least one byt
 389:Generated_Source\PSoC4/I2CM_I2C_MASTER.c ****             do
 390:Generated_Source\PSoC4/I2CM_I2C_MASTER.c ****             {
 391:Generated_Source\PSoC4/I2CM_I2C_MASTER.c ****                 locStatus  = I2CM_GetMasterInterruptSource() & I2CM_INTR_MASTER_SEND_BYTE;
 392:Generated_Source\PSoC4/I2CM_I2C_MASTER.c ****                 locStatus |= I2CM_GetSlaveInterruptSource() & I2CM_SLAVE_INTR_I2C_ADDR;
 393:Generated_Source\PSoC4/I2CM_I2C_MASTER.c ****                 locStatus |= I2CM_I2CMasterWaitOneUnit(&timeout);
 394:Generated_Source\PSoC4/I2CM_I2C_MASTER.c ****             }
 395:Generated_Source\PSoC4/I2CM_I2C_MASTER.c ****             while (0u == locStatus);
 396:Generated_Source\PSoC4/I2CM_I2C_MASTER.c **** 
 397:Generated_Source\PSoC4/I2CM_I2C_MASTER.c ****             /* Handle completion event and convert to status */
 398:Generated_Source\PSoC4/I2CM_I2C_MASTER.c ****             errStatus = I2CM_I2CMasterHandleStatus(locStatus);
 399:Generated_Source\PSoC4/I2CM_I2C_MASTER.c ****         }
 400:Generated_Source\PSoC4/I2CM_I2C_MASTER.c **** 
 401:Generated_Source\PSoC4/I2CM_I2C_MASTER.c ****         I2CM_EnableInt();  /* Release lock */
 402:Generated_Source\PSoC4/I2CM_I2C_MASTER.c ****     }
 403:Generated_Source\PSoC4/I2CM_I2C_MASTER.c **** 
 404:Generated_Source\PSoC4/I2CM_I2C_MASTER.c ****     return(errStatus);
 405:Generated_Source\PSoC4/I2CM_I2C_MASTER.c **** }
 406:Generated_Source\PSoC4/I2CM_I2C_MASTER.c **** 
 407:Generated_Source\PSoC4/I2CM_I2C_MASTER.c **** 
 408:Generated_Source\PSoC4/I2CM_I2C_MASTER.c **** /*******************************************************************************
 409:Generated_Source\PSoC4/I2CM_I2C_MASTER.c **** * Function Name: I2CM_I2CMasterSendRestart
 410:Generated_Source\PSoC4/I2CM_I2C_MASTER.c **** ****************************************************************************//**
 411:Generated_Source\PSoC4/I2CM_I2C_MASTER.c **** *
 412:Generated_Source\PSoC4/I2CM_I2C_MASTER.c **** * Generates Restart condition and sends slave address with read/write bit.
 413:Generated_Source\PSoC4/I2CM_I2C_MASTER.c **** * This function is blocking and does not return until start condition and
 414:Generated_Source\PSoC4/I2CM_I2C_MASTER.c **** * address are sent and ACK/NACK response is received or errors occurred.
 415:Generated_Source\PSoC4/I2CM_I2C_MASTER.c **** *
 416:Generated_Source\PSoC4/I2CM_I2C_MASTER.c **** * \param slaveAddress
 417:Generated_Source\PSoC4/I2CM_I2C_MASTER.c **** * Right justified 7-bit Slave address (valid range 8 to 120).
 418:Generated_Source\PSoC4/I2CM_I2C_MASTER.c **** *
 419:Generated_Source\PSoC4/I2CM_I2C_MASTER.c **** * \param bitRnW
 420:Generated_Source\PSoC4/I2CM_I2C_MASTER.c **** * Direction of the following transfer. It is defined by read/write bit within
 421:Generated_Source\PSoC4/I2CM_I2C_MASTER.c **** * address byte.See I2CM_I2CMasterSendStart() function for constants.
 422:Generated_Source\PSoC4/I2CM_I2C_MASTER.c **** *
 423:Generated_Source\PSoC4/I2CM_I2C_MASTER.c **** * \param timeoutMs
 424:Generated_Source\PSoC4/I2CM_I2C_MASTER.c **** * Defines in milliseconds the time that this function can block for.
 425:Generated_Source\PSoC4/I2CM_I2C_MASTER.c **** * If that time expires, the function returns. If a zero is passed,
 426:Generated_Source\PSoC4/I2CM_I2C_MASTER.c **** * the function waits forever for the action to complete. If a timeout occurs,
 427:Generated_Source\PSoC4/I2CM_I2C_MASTER.c **** * the SCB block is reset. Note The maximum value is (maximum uint32)/1000.
 428:Generated_Source\PSoC4/I2CM_I2C_MASTER.c **** *
 429:Generated_Source\PSoC4/I2CM_I2C_MASTER.c **** * \return
 430:Generated_Source\PSoC4/I2CM_I2C_MASTER.c **** * Error status.
ARM GAS  C:\Users\CHUNGN~1\AppData\Local\Temp\ccSpspjB.s 			page 9


 431:Generated_Source\PSoC4/I2CM_I2C_MASTER.c **** * See I2CM_I2CMasterSendStart() function for constants.
 432:Generated_Source\PSoC4/I2CM_I2C_MASTER.c **** *
 433:Generated_Source\PSoC4/I2CM_I2C_MASTER.c **** * \sideeffect
 434:Generated_Source\PSoC4/I2CM_I2C_MASTER.c **** * A valid Start or ReStart condition must be generated before calling
 435:Generated_Source\PSoC4/I2CM_I2C_MASTER.c **** * this function. This function does nothing if Start or ReStart conditions
 436:Generated_Source\PSoC4/I2CM_I2C_MASTER.c **** * failed before this function was called.
 437:Generated_Source\PSoC4/I2CM_I2C_MASTER.c **** * For read transaction, at least one byte has to be read before ReStart
 438:Generated_Source\PSoC4/I2CM_I2C_MASTER.c **** * generation.
 439:Generated_Source\PSoC4/I2CM_I2C_MASTER.c **** *
 440:Generated_Source\PSoC4/I2CM_I2C_MASTER.c **** * \globalvars
 441:Generated_Source\PSoC4/I2CM_I2C_MASTER.c **** * I2CM_state - used to store current state of software FSM.
 442:Generated_Source\PSoC4/I2CM_I2C_MASTER.c **** *
 443:Generated_Source\PSoC4/I2CM_I2C_MASTER.c **** *******************************************************************************/
 444:Generated_Source\PSoC4/I2CM_I2C_MASTER.c **** uint32 I2CM_I2CMasterSendRestart(uint32 slaveAddress, uint32 bitRnW, uint32 timeoutMs)
 445:Generated_Source\PSoC4/I2CM_I2C_MASTER.c **** {
 446:Generated_Source\PSoC4/I2CM_I2C_MASTER.c ****     uint32 errStatus = I2CM_I2C_MSTR_NOT_READY;
 447:Generated_Source\PSoC4/I2CM_I2C_MASTER.c **** 
 448:Generated_Source\PSoC4/I2CM_I2C_MASTER.c ****     /* Check FSM state before generating ReStart condition */
 449:Generated_Source\PSoC4/I2CM_I2C_MASTER.c ****     if(I2CM_CHECK_I2C_MASTER_ACTIVE)
 450:Generated_Source\PSoC4/I2CM_I2C_MASTER.c ****     {
 451:Generated_Source\PSoC4/I2CM_I2C_MASTER.c ****         uint32 locStatus;
 452:Generated_Source\PSoC4/I2CM_I2C_MASTER.c ****         uint32 timeout = I2CM_I2C_CONVERT_TIMEOUT_TO_US(timeoutMs);
 453:Generated_Source\PSoC4/I2CM_I2C_MASTER.c **** 
 454:Generated_Source\PSoC4/I2CM_I2C_MASTER.c ****         slaveAddress = I2CM_GET_I2C_8BIT_ADDRESS(slaveAddress);
 455:Generated_Source\PSoC4/I2CM_I2C_MASTER.c **** 
 456:Generated_Source\PSoC4/I2CM_I2C_MASTER.c ****         if(0u == bitRnW) /* Write direction */
 457:Generated_Source\PSoC4/I2CM_I2C_MASTER.c ****         {
 458:Generated_Source\PSoC4/I2CM_I2C_MASTER.c ****             I2CM_state = I2CM_I2C_FSM_MSTR_WR_DATA;
 459:Generated_Source\PSoC4/I2CM_I2C_MASTER.c ****         }
 460:Generated_Source\PSoC4/I2CM_I2C_MASTER.c ****         else             /* Read direction */
 461:Generated_Source\PSoC4/I2CM_I2C_MASTER.c ****         {
 462:Generated_Source\PSoC4/I2CM_I2C_MASTER.c ****             I2CM_state  = I2CM_I2C_FSM_MSTR_RD_DATA;
 463:Generated_Source\PSoC4/I2CM_I2C_MASTER.c ****                       slaveAddress |= I2CM_I2C_READ_FLAG;
 464:Generated_Source\PSoC4/I2CM_I2C_MASTER.c ****         }
 465:Generated_Source\PSoC4/I2CM_I2C_MASTER.c **** 
 466:Generated_Source\PSoC4/I2CM_I2C_MASTER.c ****         /* TX and RX FIFO have to be empty at here */
 467:Generated_Source\PSoC4/I2CM_I2C_MASTER.c **** 
 468:Generated_Source\PSoC4/I2CM_I2C_MASTER.c ****         /* A proper ReStart sequence is: set command to generate ReStart, then put an address byte 
 469:Generated_Source\PSoC4/I2CM_I2C_MASTER.c ****         * Put address into the TX FIFO the 1st makes scb IP think that this data byte for current w
 470:Generated_Source\PSoC4/I2CM_I2C_MASTER.c ****         */
 471:Generated_Source\PSoC4/I2CM_I2C_MASTER.c ****         I2CM_I2C_MASTER_GENERATE_RESTART;
 472:Generated_Source\PSoC4/I2CM_I2C_MASTER.c ****         I2CM_TX_FIFO_WR_REG = slaveAddress;
 473:Generated_Source\PSoC4/I2CM_I2C_MASTER.c **** 
 474:Generated_Source\PSoC4/I2CM_I2C_MASTER.c ****         /* Wait until address has been transferred. Note that for master reads at least one byte. *
 475:Generated_Source\PSoC4/I2CM_I2C_MASTER.c ****         do
 476:Generated_Source\PSoC4/I2CM_I2C_MASTER.c ****         {
 477:Generated_Source\PSoC4/I2CM_I2C_MASTER.c ****             locStatus  = I2CM_GetMasterInterruptSource() & I2CM_INTR_MASTER_SEND_BYTE;
 478:Generated_Source\PSoC4/I2CM_I2C_MASTER.c ****             locStatus |= I2CM_I2CMasterWaitOneUnit(&timeout);
 479:Generated_Source\PSoC4/I2CM_I2C_MASTER.c ****         }
 480:Generated_Source\PSoC4/I2CM_I2C_MASTER.c ****         while (0u == locStatus);
 481:Generated_Source\PSoC4/I2CM_I2C_MASTER.c **** 
 482:Generated_Source\PSoC4/I2CM_I2C_MASTER.c **** 
 483:Generated_Source\PSoC4/I2CM_I2C_MASTER.c ****         /* Handle completion event and convert to status */
 484:Generated_Source\PSoC4/I2CM_I2C_MASTER.c ****         errStatus = I2CM_I2CMasterHandleStatus(locStatus);
 485:Generated_Source\PSoC4/I2CM_I2C_MASTER.c ****     }
 486:Generated_Source\PSoC4/I2CM_I2C_MASTER.c **** 
 487:Generated_Source\PSoC4/I2CM_I2C_MASTER.c ****     return(errStatus);
ARM GAS  C:\Users\CHUNGN~1\AppData\Local\Temp\ccSpspjB.s 			page 10


 488:Generated_Source\PSoC4/I2CM_I2C_MASTER.c **** }
 489:Generated_Source\PSoC4/I2CM_I2C_MASTER.c **** 
 490:Generated_Source\PSoC4/I2CM_I2C_MASTER.c **** 
 491:Generated_Source\PSoC4/I2CM_I2C_MASTER.c **** /*******************************************************************************
 492:Generated_Source\PSoC4/I2CM_I2C_MASTER.c **** * Function Name: I2CM_I2CMasterSendStop
 493:Generated_Source\PSoC4/I2CM_I2C_MASTER.c **** ****************************************************************************//**
 494:Generated_Source\PSoC4/I2CM_I2C_MASTER.c **** *
 495:Generated_Source\PSoC4/I2CM_I2C_MASTER.c **** * Generates Stop condition on the bus.
 496:Generated_Source\PSoC4/I2CM_I2C_MASTER.c **** * The NAK is generated before Stop in case of a read transaction.
 497:Generated_Source\PSoC4/I2CM_I2C_MASTER.c **** * At least one byte has to be read if a Start or ReStart condition with read
 498:Generated_Source\PSoC4/I2CM_I2C_MASTER.c **** * direction was generated before.
 499:Generated_Source\PSoC4/I2CM_I2C_MASTER.c **** * This function is blocking and does not return until a Stop condition is
 500:Generated_Source\PSoC4/I2CM_I2C_MASTER.c **** * generated or error occurred.
 501:Generated_Source\PSoC4/I2CM_I2C_MASTER.c **** *
 502:Generated_Source\PSoC4/I2CM_I2C_MASTER.c **** * \param timeoutMs
 503:Generated_Source\PSoC4/I2CM_I2C_MASTER.c **** * Defines in milliseconds the time that this function can block for.
 504:Generated_Source\PSoC4/I2CM_I2C_MASTER.c **** * If that time expires, the function returns. If a zero is passed,
 505:Generated_Source\PSoC4/I2CM_I2C_MASTER.c **** * the function waits forever for the action to complete. If a timeout occurs,
 506:Generated_Source\PSoC4/I2CM_I2C_MASTER.c **** * the SCB block is reset. Note The maximum value is (maximum uint32)/1000.
 507:Generated_Source\PSoC4/I2CM_I2C_MASTER.c **** *
 508:Generated_Source\PSoC4/I2CM_I2C_MASTER.c **** * \return
 509:Generated_Source\PSoC4/I2CM_I2C_MASTER.c **** * Error status.
 510:Generated_Source\PSoC4/I2CM_I2C_MASTER.c **** * See I2CM_I2CMasterSendStart() function for constants.
 511:Generated_Source\PSoC4/I2CM_I2C_MASTER.c **** *
 512:Generated_Source\PSoC4/I2CM_I2C_MASTER.c **** * \sideeffect
 513:Generated_Source\PSoC4/I2CM_I2C_MASTER.c **** * A valid Start or ReStart condition must be generated before calling
 514:Generated_Source\PSoC4/I2CM_I2C_MASTER.c **** * this function. This function does nothing if Start or ReStart conditions
 515:Generated_Source\PSoC4/I2CM_I2C_MASTER.c **** * failed before this function was called.
 516:Generated_Source\PSoC4/I2CM_I2C_MASTER.c **** * For read transaction, at least one byte has to be read before ReStart
 517:Generated_Source\PSoC4/I2CM_I2C_MASTER.c **** * generation.
 518:Generated_Source\PSoC4/I2CM_I2C_MASTER.c **** *
 519:Generated_Source\PSoC4/I2CM_I2C_MASTER.c **** * \globalvars
 520:Generated_Source\PSoC4/I2CM_I2C_MASTER.c **** * I2CM_state - used to store current state of software FSM.
 521:Generated_Source\PSoC4/I2CM_I2C_MASTER.c **** *
 522:Generated_Source\PSoC4/I2CM_I2C_MASTER.c **** *******************************************************************************/
 523:Generated_Source\PSoC4/I2CM_I2C_MASTER.c **** uint32 I2CM_I2CMasterSendStop(uint32 timeoutMs)
 524:Generated_Source\PSoC4/I2CM_I2C_MASTER.c **** {
 525:Generated_Source\PSoC4/I2CM_I2C_MASTER.c ****     uint32 errStatus = I2CM_I2C_MSTR_NOT_READY;
 526:Generated_Source\PSoC4/I2CM_I2C_MASTER.c **** 
 527:Generated_Source\PSoC4/I2CM_I2C_MASTER.c ****     /* Check FSM state before generating Stop condition */
 528:Generated_Source\PSoC4/I2CM_I2C_MASTER.c ****     if(I2CM_CHECK_I2C_MASTER_ACTIVE)
 529:Generated_Source\PSoC4/I2CM_I2C_MASTER.c ****     {
 530:Generated_Source\PSoC4/I2CM_I2C_MASTER.c ****         uint32 locStatus;
 531:Generated_Source\PSoC4/I2CM_I2C_MASTER.c ****         uint32 timeout = I2CM_I2C_CONVERT_TIMEOUT_TO_US(timeoutMs);
 532:Generated_Source\PSoC4/I2CM_I2C_MASTER.c **** 
 533:Generated_Source\PSoC4/I2CM_I2C_MASTER.c ****         /* Write direction: generates Stop; Read  direction: generates NACK and Stop; */
 534:Generated_Source\PSoC4/I2CM_I2C_MASTER.c ****         I2CM_I2C_MASTER_GENERATE_STOP;
 535:Generated_Source\PSoC4/I2CM_I2C_MASTER.c **** 
 536:Generated_Source\PSoC4/I2CM_I2C_MASTER.c ****         /* Wait for a completion event from the master */
 537:Generated_Source\PSoC4/I2CM_I2C_MASTER.c ****         do
 538:Generated_Source\PSoC4/I2CM_I2C_MASTER.c ****         {
 539:Generated_Source\PSoC4/I2CM_I2C_MASTER.c ****             locStatus  = I2CM_GetMasterInterruptSource() & I2CM_INTR_MASTER_SEND_STOP;
 540:Generated_Source\PSoC4/I2CM_I2C_MASTER.c ****             locStatus |= I2CM_I2CMasterWaitOneUnit(&timeout);
 541:Generated_Source\PSoC4/I2CM_I2C_MASTER.c ****         }
 542:Generated_Source\PSoC4/I2CM_I2C_MASTER.c ****         while (0u == locStatus);
 543:Generated_Source\PSoC4/I2CM_I2C_MASTER.c **** 
 544:Generated_Source\PSoC4/I2CM_I2C_MASTER.c ****         /* Handle completion event and convert to status */
ARM GAS  C:\Users\CHUNGN~1\AppData\Local\Temp\ccSpspjB.s 			page 11


 545:Generated_Source\PSoC4/I2CM_I2C_MASTER.c ****         errStatus = I2CM_I2CMasterHandleStatus(locStatus);
 546:Generated_Source\PSoC4/I2CM_I2C_MASTER.c ****     }
 547:Generated_Source\PSoC4/I2CM_I2C_MASTER.c **** 
 548:Generated_Source\PSoC4/I2CM_I2C_MASTER.c ****     return(errStatus);
 549:Generated_Source\PSoC4/I2CM_I2C_MASTER.c **** }
 550:Generated_Source\PSoC4/I2CM_I2C_MASTER.c **** 
 551:Generated_Source\PSoC4/I2CM_I2C_MASTER.c **** 
 552:Generated_Source\PSoC4/I2CM_I2C_MASTER.c **** /*******************************************************************************
 553:Generated_Source\PSoC4/I2CM_I2C_MASTER.c **** * Function Name: I2CM_I2CMasterWriteByte
 554:Generated_Source\PSoC4/I2CM_I2C_MASTER.c **** ****************************************************************************//**
 555:Generated_Source\PSoC4/I2CM_I2C_MASTER.c **** *
 556:Generated_Source\PSoC4/I2CM_I2C_MASTER.c **** * Sends one byte to a slave.
 557:Generated_Source\PSoC4/I2CM_I2C_MASTER.c **** * This function is blocking and does not return until byte is transmitted
 558:Generated_Source\PSoC4/I2CM_I2C_MASTER.c **** * or error occurred.
 559:Generated_Source\PSoC4/I2CM_I2C_MASTER.c **** *
 560:Generated_Source\PSoC4/I2CM_I2C_MASTER.c **** * \param wrByte
 561:Generated_Source\PSoC4/I2CM_I2C_MASTER.c **** * The data byte to send to the slave.
 562:Generated_Source\PSoC4/I2CM_I2C_MASTER.c **** *
 563:Generated_Source\PSoC4/I2CM_I2C_MASTER.c **** * \param timeoutMs
 564:Generated_Source\PSoC4/I2CM_I2C_MASTER.c **** * Defines in milliseconds the time that this function can block for.
 565:Generated_Source\PSoC4/I2CM_I2C_MASTER.c **** * If that time expires, the function returns. If a zero is passed,
 566:Generated_Source\PSoC4/I2CM_I2C_MASTER.c **** * the function waits forever for the action to complete. If a timeout occurs,
 567:Generated_Source\PSoC4/I2CM_I2C_MASTER.c **** * the SCB block is reset. Note The maximum value is (maximum uint32)/1000.
 568:Generated_Source\PSoC4/I2CM_I2C_MASTER.c **** *
 569:Generated_Source\PSoC4/I2CM_I2C_MASTER.c **** * \return
 570:Generated_Source\PSoC4/I2CM_I2C_MASTER.c **** * Error status.
 571:Generated_Source\PSoC4/I2CM_I2C_MASTER.c **** * See I2CM_I2CMasterSendStart() function for constants.
 572:Generated_Source\PSoC4/I2CM_I2C_MASTER.c **** *
 573:Generated_Source\PSoC4/I2CM_I2C_MASTER.c **** * \sideeffect
 574:Generated_Source\PSoC4/I2CM_I2C_MASTER.c **** * A valid Start or ReStart condition must be generated before calling
 575:Generated_Source\PSoC4/I2CM_I2C_MASTER.c **** * this function. This function does nothing if Start or ReStart condition
 576:Generated_Source\PSoC4/I2CM_I2C_MASTER.c **** * failed before this function was called.
 577:Generated_Source\PSoC4/I2CM_I2C_MASTER.c **** *
 578:Generated_Source\PSoC4/I2CM_I2C_MASTER.c **** * \globalvars
 579:Generated_Source\PSoC4/I2CM_I2C_MASTER.c **** * I2CM_state - used to store current state of software FSM.
 580:Generated_Source\PSoC4/I2CM_I2C_MASTER.c **** *
 581:Generated_Source\PSoC4/I2CM_I2C_MASTER.c **** *******************************************************************************/
 582:Generated_Source\PSoC4/I2CM_I2C_MASTER.c **** uint32 I2CM_I2CMasterWriteByte(uint32 wrByte, uint32 timeoutMs)
 583:Generated_Source\PSoC4/I2CM_I2C_MASTER.c **** {
 584:Generated_Source\PSoC4/I2CM_I2C_MASTER.c ****     uint32 errStatus = I2CM_I2C_MSTR_NOT_READY;
 585:Generated_Source\PSoC4/I2CM_I2C_MASTER.c **** 
 586:Generated_Source\PSoC4/I2CM_I2C_MASTER.c ****     /* Check FSM state before write byte */
 587:Generated_Source\PSoC4/I2CM_I2C_MASTER.c ****     if(I2CM_CHECK_I2C_MASTER_ACTIVE)
 588:Generated_Source\PSoC4/I2CM_I2C_MASTER.c ****     {
 589:Generated_Source\PSoC4/I2CM_I2C_MASTER.c ****         uint32 locStatus;
 590:Generated_Source\PSoC4/I2CM_I2C_MASTER.c ****         uint32 timeout = I2CM_I2C_CONVERT_TIMEOUT_TO_US(timeoutMs);
 591:Generated_Source\PSoC4/I2CM_I2C_MASTER.c **** 
 592:Generated_Source\PSoC4/I2CM_I2C_MASTER.c ****         I2CM_TX_FIFO_WR_REG = wrByte;
 593:Generated_Source\PSoC4/I2CM_I2C_MASTER.c **** 
 594:Generated_Source\PSoC4/I2CM_I2C_MASTER.c ****         /* Wait for a completion event from the master */
 595:Generated_Source\PSoC4/I2CM_I2C_MASTER.c ****         do
 596:Generated_Source\PSoC4/I2CM_I2C_MASTER.c ****         {
 597:Generated_Source\PSoC4/I2CM_I2C_MASTER.c ****             locStatus  = I2CM_GetMasterInterruptSource() & I2CM_INTR_MASTER_SEND_BYTE;
 598:Generated_Source\PSoC4/I2CM_I2C_MASTER.c ****             locStatus |= I2CM_I2CMasterWaitOneUnit(&timeout);
 599:Generated_Source\PSoC4/I2CM_I2C_MASTER.c ****         }
 600:Generated_Source\PSoC4/I2CM_I2C_MASTER.c ****         while (0u == locStatus);
 601:Generated_Source\PSoC4/I2CM_I2C_MASTER.c **** 
ARM GAS  C:\Users\CHUNGN~1\AppData\Local\Temp\ccSpspjB.s 			page 12


 602:Generated_Source\PSoC4/I2CM_I2C_MASTER.c ****         /* Handle completion event and convert to status */
 603:Generated_Source\PSoC4/I2CM_I2C_MASTER.c ****         errStatus = I2CM_I2CMasterHandleStatus(locStatus);
 604:Generated_Source\PSoC4/I2CM_I2C_MASTER.c ****     }
 605:Generated_Source\PSoC4/I2CM_I2C_MASTER.c **** 
 606:Generated_Source\PSoC4/I2CM_I2C_MASTER.c ****     return(errStatus);
 607:Generated_Source\PSoC4/I2CM_I2C_MASTER.c **** }
 608:Generated_Source\PSoC4/I2CM_I2C_MASTER.c **** 
 609:Generated_Source\PSoC4/I2CM_I2C_MASTER.c **** 
 610:Generated_Source\PSoC4/I2CM_I2C_MASTER.c **** 
 611:Generated_Source\PSoC4/I2CM_I2C_MASTER.c **** /*******************************************************************************
 612:Generated_Source\PSoC4/I2CM_I2C_MASTER.c **** * Function Name: I2CM_I2CMasterReadByte
 613:Generated_Source\PSoC4/I2CM_I2C_MASTER.c **** ****************************************************************************//**
 614:Generated_Source\PSoC4/I2CM_I2C_MASTER.c **** *
 615:Generated_Source\PSoC4/I2CM_I2C_MASTER.c **** * Reads one byte from a slave and generates ACK or prepares to generate NAK.
 616:Generated_Source\PSoC4/I2CM_I2C_MASTER.c **** * The NAK will be generated before Stop or ReStart condition by
 617:Generated_Source\PSoC4/I2CM_I2C_MASTER.c **** * I2CM_I2CMasterSendStop() or
 618:Generated_Source\PSoC4/I2CM_I2C_MASTER.c **** * I2CM_I2CMasterSendRestart() function appropriately.
 619:Generated_Source\PSoC4/I2CM_I2C_MASTER.c **** * This function is blocking. It does not return until a byte is received or
 620:Generated_Source\PSoC4/I2CM_I2C_MASTER.c **** * an error occurs.
 621:Generated_Source\PSoC4/I2CM_I2C_MASTER.c **** *
 622:Generated_Source\PSoC4/I2CM_I2C_MASTER.c **** * \param ackNack
 623:Generated_Source\PSoC4/I2CM_I2C_MASTER.c **** * Response to received byte.
 624:Generated_Source\PSoC4/I2CM_I2C_MASTER.c **** *  - I2CM_I2C_ACK_DATA - Generates ACK.
 625:Generated_Source\PSoC4/I2CM_I2C_MASTER.c **** *     The master notifies slave that transfer continues.
 626:Generated_Source\PSoC4/I2CM_I2C_MASTER.c **** *  - I2CM_I2C_NAK_DATA - Prepares to generate NAK.
 627:Generated_Source\PSoC4/I2CM_I2C_MASTER.c **** *     The master will notify slave that transfer is completed.
 628:Generated_Source\PSoC4/I2CM_I2C_MASTER.c **** *
 629:Generated_Source\PSoC4/I2CM_I2C_MASTER.c **** * \param rdByte
 630:Generated_Source\PSoC4/I2CM_I2C_MASTER.c **** * The pointer to the location to store the data byte that was read from
 631:Generated_Source\PSoC4/I2CM_I2C_MASTER.c **** * the slave.
 632:Generated_Source\PSoC4/I2CM_I2C_MASTER.c **** * Note that the byte should be ignored if error status is returned.
 633:Generated_Source\PSoC4/I2CM_I2C_MASTER.c **** *
 634:Generated_Source\PSoC4/I2CM_I2C_MASTER.c **** * \param timeoutMs
 635:Generated_Source\PSoC4/I2CM_I2C_MASTER.c **** * Defines in milliseconds the time that this function can block for.
 636:Generated_Source\PSoC4/I2CM_I2C_MASTER.c **** * If that time expires, the function returns. If a zero is passed,
 637:Generated_Source\PSoC4/I2CM_I2C_MASTER.c **** * the function waits forever for the action to complete. If a timeout occurs,
 638:Generated_Source\PSoC4/I2CM_I2C_MASTER.c **** * the SCB block is reset. Note The maximum value is (maximum uint32)/1000.
 639:Generated_Source\PSoC4/I2CM_I2C_MASTER.c **** *
 640:Generated_Source\PSoC4/I2CM_I2C_MASTER.c **** * \return
 641:Generated_Source\PSoC4/I2CM_I2C_MASTER.c **** * Error status.
 642:Generated_Source\PSoC4/I2CM_I2C_MASTER.c **** * See I2CM_I2CMasterSendStart() function for constants.
 643:Generated_Source\PSoC4/I2CM_I2C_MASTER.c **** *
 644:Generated_Source\PSoC4/I2CM_I2C_MASTER.c **** * \sideeffect
 645:Generated_Source\PSoC4/I2CM_I2C_MASTER.c **** * A valid Start or ReStart condition must be generated before calling
 646:Generated_Source\PSoC4/I2CM_I2C_MASTER.c **** * this function. This function does nothing if Start or ReStart condition
 647:Generated_Source\PSoC4/I2CM_I2C_MASTER.c **** * failed before this function was called.
 648:Generated_Source\PSoC4/I2CM_I2C_MASTER.c **** *
 649:Generated_Source\PSoC4/I2CM_I2C_MASTER.c **** * \globalvars
 650:Generated_Source\PSoC4/I2CM_I2C_MASTER.c **** * I2CM_state - used to store current state of software FSM.
 651:Generated_Source\PSoC4/I2CM_I2C_MASTER.c **** *
 652:Generated_Source\PSoC4/I2CM_I2C_MASTER.c **** *******************************************************************************/
 653:Generated_Source\PSoC4/I2CM_I2C_MASTER.c **** uint32 I2CM_I2CMasterReadByte(uint32 ackNack, uint8 *rdByte, uint32 timeoutMs)
 654:Generated_Source\PSoC4/I2CM_I2C_MASTER.c **** {
 655:Generated_Source\PSoC4/I2CM_I2C_MASTER.c ****     uint32 errStatus = I2CM_I2C_MSTR_NOT_READY;
 656:Generated_Source\PSoC4/I2CM_I2C_MASTER.c **** 
 657:Generated_Source\PSoC4/I2CM_I2C_MASTER.c ****     /* Check FSM state before read byte */
 658:Generated_Source\PSoC4/I2CM_I2C_MASTER.c ****     if(I2CM_CHECK_I2C_MASTER_ACTIVE)
ARM GAS  C:\Users\CHUNGN~1\AppData\Local\Temp\ccSpspjB.s 			page 13


 659:Generated_Source\PSoC4/I2CM_I2C_MASTER.c ****     {
 660:Generated_Source\PSoC4/I2CM_I2C_MASTER.c ****         uint32 locStatus;
 661:Generated_Source\PSoC4/I2CM_I2C_MASTER.c ****         uint32 rxNotEmpty;
 662:Generated_Source\PSoC4/I2CM_I2C_MASTER.c ****         uint32 timeout = I2CM_I2C_CONVERT_TIMEOUT_TO_US(timeoutMs);
 663:Generated_Source\PSoC4/I2CM_I2C_MASTER.c **** 
 664:Generated_Source\PSoC4/I2CM_I2C_MASTER.c ****         /* Wait for a completion event from the master */
 665:Generated_Source\PSoC4/I2CM_I2C_MASTER.c ****         do
 666:Generated_Source\PSoC4/I2CM_I2C_MASTER.c ****         {
 667:Generated_Source\PSoC4/I2CM_I2C_MASTER.c ****             locStatus  = I2CM_GetMasterInterruptSource() & I2CM_INTR_MASTER_RECEIVE_BYTE;
 668:Generated_Source\PSoC4/I2CM_I2C_MASTER.c ****             rxNotEmpty = I2CM_GetRxInterruptSource() & I2CM_INTR_RX_NOT_EMPTY;
 669:Generated_Source\PSoC4/I2CM_I2C_MASTER.c ****             locStatus |= I2CM_I2CMasterWaitOneUnit(&timeout);
 670:Generated_Source\PSoC4/I2CM_I2C_MASTER.c ****         }
 671:Generated_Source\PSoC4/I2CM_I2C_MASTER.c ****         while ((0u == locStatus) && (0u == rxNotEmpty));
 672:Generated_Source\PSoC4/I2CM_I2C_MASTER.c **** 
 673:Generated_Source\PSoC4/I2CM_I2C_MASTER.c ****         /* Get byte from RX FIFO */
 674:Generated_Source\PSoC4/I2CM_I2C_MASTER.c ****         if (0u != rxNotEmpty)
 675:Generated_Source\PSoC4/I2CM_I2C_MASTER.c ****         {
 676:Generated_Source\PSoC4/I2CM_I2C_MASTER.c ****             *rdByte = (uint8)I2CM_RX_FIFO_RD_REG;
 677:Generated_Source\PSoC4/I2CM_I2C_MASTER.c ****             I2CM_ClearRxInterruptSource(I2CM_INTR_RX_ALL);
 678:Generated_Source\PSoC4/I2CM_I2C_MASTER.c ****         }
 679:Generated_Source\PSoC4/I2CM_I2C_MASTER.c **** 
 680:Generated_Source\PSoC4/I2CM_I2C_MASTER.c ****         /* Handle completion event and convert to status */
 681:Generated_Source\PSoC4/I2CM_I2C_MASTER.c ****         errStatus = I2CM_I2CMasterHandleStatus(locStatus);
 682:Generated_Source\PSoC4/I2CM_I2C_MASTER.c **** 
 683:Generated_Source\PSoC4/I2CM_I2C_MASTER.c ****         if (I2CM_I2C_MSTR_NO_ERROR == errStatus)
 684:Generated_Source\PSoC4/I2CM_I2C_MASTER.c ****         {
 685:Generated_Source\PSoC4/I2CM_I2C_MASTER.c ****             if(I2CM_I2C_ACK_DATA == ackNack)
 686:Generated_Source\PSoC4/I2CM_I2C_MASTER.c ****             {
 687:Generated_Source\PSoC4/I2CM_I2C_MASTER.c ****                 I2CM_I2C_MASTER_GENERATE_ACK;
 688:Generated_Source\PSoC4/I2CM_I2C_MASTER.c ****             }
 689:Generated_Source\PSoC4/I2CM_I2C_MASTER.c ****             else
 690:Generated_Source\PSoC4/I2CM_I2C_MASTER.c ****             {
 691:Generated_Source\PSoC4/I2CM_I2C_MASTER.c ****                 /* NACK is generated by Stop or ReStart command */
 692:Generated_Source\PSoC4/I2CM_I2C_MASTER.c ****             }
 693:Generated_Source\PSoC4/I2CM_I2C_MASTER.c ****         }
 694:Generated_Source\PSoC4/I2CM_I2C_MASTER.c ****     }
 695:Generated_Source\PSoC4/I2CM_I2C_MASTER.c **** 
 696:Generated_Source\PSoC4/I2CM_I2C_MASTER.c ****     return(errStatus);
 697:Generated_Source\PSoC4/I2CM_I2C_MASTER.c **** }
 698:Generated_Source\PSoC4/I2CM_I2C_MASTER.c **** 
 699:Generated_Source\PSoC4/I2CM_I2C_MASTER.c **** 
 700:Generated_Source\PSoC4/I2CM_I2C_MASTER.c **** /*******************************************************************************
 701:Generated_Source\PSoC4/I2CM_I2C_MASTER.c **** * Function Name: I2CM_I2CMasterGetReadBufSize
 702:Generated_Source\PSoC4/I2CM_I2C_MASTER.c **** ****************************************************************************//**
 703:Generated_Source\PSoC4/I2CM_I2C_MASTER.c **** *
 704:Generated_Source\PSoC4/I2CM_I2C_MASTER.c **** *  Returns the number of bytes that has been transferred with an
 705:Generated_Source\PSoC4/I2CM_I2C_MASTER.c **** *  I2CM_I2CMasterReadBuf() function.
 706:Generated_Source\PSoC4/I2CM_I2C_MASTER.c **** *
 707:Generated_Source\PSoC4/I2CM_I2C_MASTER.c **** * \return
 708:Generated_Source\PSoC4/I2CM_I2C_MASTER.c **** *  Byte count of transfer. If the transfer is not yet complete, it returns
 709:Generated_Source\PSoC4/I2CM_I2C_MASTER.c **** *  the byte count transferred so far.
 710:Generated_Source\PSoC4/I2CM_I2C_MASTER.c **** *
 711:Generated_Source\PSoC4/I2CM_I2C_MASTER.c **** * \sideeffect
 712:Generated_Source\PSoC4/I2CM_I2C_MASTER.c **** *  This function returns not valid value if
 713:Generated_Source\PSoC4/I2CM_I2C_MASTER.c **** *  I2CM_I2C_MSTAT_ERR_ARB_LOST or
 714:Generated_Source\PSoC4/I2CM_I2C_MASTER.c **** *  I2CM_I2C_MSTAT_ERR_BUS_ERROR occurred while read transfer.
 715:Generated_Source\PSoC4/I2CM_I2C_MASTER.c **** *
ARM GAS  C:\Users\CHUNGN~1\AppData\Local\Temp\ccSpspjB.s 			page 14


 716:Generated_Source\PSoC4/I2CM_I2C_MASTER.c **** * \globalvars
 717:Generated_Source\PSoC4/I2CM_I2C_MASTER.c **** *  I2CM_mstrRdBufIndex - used to current index within master read
 718:Generated_Source\PSoC4/I2CM_I2C_MASTER.c **** *  buffer.
 719:Generated_Source\PSoC4/I2CM_I2C_MASTER.c **** *
 720:Generated_Source\PSoC4/I2CM_I2C_MASTER.c **** *******************************************************************************/
 721:Generated_Source\PSoC4/I2CM_I2C_MASTER.c **** uint32 I2CM_I2CMasterGetReadBufSize(void)
 722:Generated_Source\PSoC4/I2CM_I2C_MASTER.c **** {
 723:Generated_Source\PSoC4/I2CM_I2C_MASTER.c ****     return(I2CM_mstrRdBufIndex);
 724:Generated_Source\PSoC4/I2CM_I2C_MASTER.c **** }
 725:Generated_Source\PSoC4/I2CM_I2C_MASTER.c **** 
 726:Generated_Source\PSoC4/I2CM_I2C_MASTER.c **** 
 727:Generated_Source\PSoC4/I2CM_I2C_MASTER.c **** /*******************************************************************************
 728:Generated_Source\PSoC4/I2CM_I2C_MASTER.c **** * Function Name: I2CM_I2CMasterGetWriteBufSize
 729:Generated_Source\PSoC4/I2CM_I2C_MASTER.c **** ****************************************************************************//**
 730:Generated_Source\PSoC4/I2CM_I2C_MASTER.c **** *
 731:Generated_Source\PSoC4/I2CM_I2C_MASTER.c **** *  Returns the number of bytes that have been transferred with an
 732:Generated_Source\PSoC4/I2CM_I2C_MASTER.c **** *  SCB_I2CMasterWriteBuf() function.
 733:Generated_Source\PSoC4/I2CM_I2C_MASTER.c **** *
 734:Generated_Source\PSoC4/I2CM_I2C_MASTER.c **** * \return
 735:Generated_Source\PSoC4/I2CM_I2C_MASTER.c **** *   Byte count of transfer. If the transfer is not yet complete, it returns
 736:Generated_Source\PSoC4/I2CM_I2C_MASTER.c **** *   zero unit transfer completion.
 737:Generated_Source\PSoC4/I2CM_I2C_MASTER.c **** *
 738:Generated_Source\PSoC4/I2CM_I2C_MASTER.c **** * \sideeffect
 739:Generated_Source\PSoC4/I2CM_I2C_MASTER.c **** *   This function returns not valid value if
 740:Generated_Source\PSoC4/I2CM_I2C_MASTER.c **** *   I2CM_I2C_MSTAT_ERR_ARB_LOST or
 741:Generated_Source\PSoC4/I2CM_I2C_MASTER.c **** *   I2CM_I2C_MSTAT_ERR_BUS_ERROR occurred while read transfer.
 742:Generated_Source\PSoC4/I2CM_I2C_MASTER.c **** *
 743:Generated_Source\PSoC4/I2CM_I2C_MASTER.c **** * \globalvars
 744:Generated_Source\PSoC4/I2CM_I2C_MASTER.c **** *  I2CM_mstrWrBufIndex - used to current index within master write
 745:Generated_Source\PSoC4/I2CM_I2C_MASTER.c **** *  buffer.
 746:Generated_Source\PSoC4/I2CM_I2C_MASTER.c **** *
 747:Generated_Source\PSoC4/I2CM_I2C_MASTER.c **** *******************************************************************************/
 748:Generated_Source\PSoC4/I2CM_I2C_MASTER.c **** uint32 I2CM_I2CMasterGetWriteBufSize(void)
 749:Generated_Source\PSoC4/I2CM_I2C_MASTER.c **** {
 750:Generated_Source\PSoC4/I2CM_I2C_MASTER.c ****     return(I2CM_mstrWrBufIndex);
 751:Generated_Source\PSoC4/I2CM_I2C_MASTER.c **** }
 752:Generated_Source\PSoC4/I2CM_I2C_MASTER.c **** 
 753:Generated_Source\PSoC4/I2CM_I2C_MASTER.c **** 
 754:Generated_Source\PSoC4/I2CM_I2C_MASTER.c **** /*******************************************************************************
 755:Generated_Source\PSoC4/I2CM_I2C_MASTER.c **** * Function Name: I2CM_I2CMasterClearReadBuf
 756:Generated_Source\PSoC4/I2CM_I2C_MASTER.c **** ****************************************************************************//**
 757:Generated_Source\PSoC4/I2CM_I2C_MASTER.c **** *
 758:Generated_Source\PSoC4/I2CM_I2C_MASTER.c **** *  Resets the read buffer pointer back to the first byte in the buffer.
 759:Generated_Source\PSoC4/I2CM_I2C_MASTER.c **** *
 760:Generated_Source\PSoC4/I2CM_I2C_MASTER.c **** * \globalvars
 761:Generated_Source\PSoC4/I2CM_I2C_MASTER.c **** *  I2CM_mstrRdBufIndex - used to current index within master read
 762:Generated_Source\PSoC4/I2CM_I2C_MASTER.c **** *   buffer.
 763:Generated_Source\PSoC4/I2CM_I2C_MASTER.c **** *  I2CM_mstrStatus - used to store current status of I2C Master.
 764:Generated_Source\PSoC4/I2CM_I2C_MASTER.c **** *
 765:Generated_Source\PSoC4/I2CM_I2C_MASTER.c **** *******************************************************************************/
 766:Generated_Source\PSoC4/I2CM_I2C_MASTER.c **** void I2CM_I2CMasterClearReadBuf(void)
 767:Generated_Source\PSoC4/I2CM_I2C_MASTER.c **** {
 768:Generated_Source\PSoC4/I2CM_I2C_MASTER.c ****     I2CM_DisableInt();  /* Lock from interruption */
 769:Generated_Source\PSoC4/I2CM_I2C_MASTER.c **** 
 770:Generated_Source\PSoC4/I2CM_I2C_MASTER.c ****     I2CM_mstrRdBufIndex = 0u;
 771:Generated_Source\PSoC4/I2CM_I2C_MASTER.c ****     I2CM_mstrStatus    &= (uint16) ~I2CM_I2C_MSTAT_RD_CMPLT;
 772:Generated_Source\PSoC4/I2CM_I2C_MASTER.c **** 
ARM GAS  C:\Users\CHUNGN~1\AppData\Local\Temp\ccSpspjB.s 			page 15


 773:Generated_Source\PSoC4/I2CM_I2C_MASTER.c ****     I2CM_EnableInt();   /* Release lock */
 774:Generated_Source\PSoC4/I2CM_I2C_MASTER.c **** }
 775:Generated_Source\PSoC4/I2CM_I2C_MASTER.c **** 
 776:Generated_Source\PSoC4/I2CM_I2C_MASTER.c **** 
 777:Generated_Source\PSoC4/I2CM_I2C_MASTER.c **** /*******************************************************************************
 778:Generated_Source\PSoC4/I2CM_I2C_MASTER.c **** * Function Name: I2CM_I2CMasterClearWriteBuf
 779:Generated_Source\PSoC4/I2CM_I2C_MASTER.c **** ****************************************************************************//**
 780:Generated_Source\PSoC4/I2CM_I2C_MASTER.c **** *
 781:Generated_Source\PSoC4/I2CM_I2C_MASTER.c **** *  Resets the write buffer pointer back to the first byte in the buffer.
 782:Generated_Source\PSoC4/I2CM_I2C_MASTER.c **** *
 783:Generated_Source\PSoC4/I2CM_I2C_MASTER.c **** * \globalvars
 784:Generated_Source\PSoC4/I2CM_I2C_MASTER.c **** *  I2CM_mstrRdBufIndex - used to current index within master read
 785:Generated_Source\PSoC4/I2CM_I2C_MASTER.c **** *   buffer.
 786:Generated_Source\PSoC4/I2CM_I2C_MASTER.c **** *  I2CM_mstrStatus - used to store current status of I2C Master.
 787:Generated_Source\PSoC4/I2CM_I2C_MASTER.c **** *
 788:Generated_Source\PSoC4/I2CM_I2C_MASTER.c **** *******************************************************************************/
 789:Generated_Source\PSoC4/I2CM_I2C_MASTER.c **** void I2CM_I2CMasterClearWriteBuf(void)
 790:Generated_Source\PSoC4/I2CM_I2C_MASTER.c **** {
 791:Generated_Source\PSoC4/I2CM_I2C_MASTER.c ****     I2CM_DisableInt();  /* Lock from interruption */
 792:Generated_Source\PSoC4/I2CM_I2C_MASTER.c **** 
 793:Generated_Source\PSoC4/I2CM_I2C_MASTER.c ****     I2CM_mstrWrBufIndex = 0u;
 794:Generated_Source\PSoC4/I2CM_I2C_MASTER.c ****     I2CM_mstrStatus    &= (uint16) ~I2CM_I2C_MSTAT_WR_CMPLT;
 795:Generated_Source\PSoC4/I2CM_I2C_MASTER.c **** 
 796:Generated_Source\PSoC4/I2CM_I2C_MASTER.c ****     I2CM_EnableInt();   /* Release lock */
 797:Generated_Source\PSoC4/I2CM_I2C_MASTER.c **** }
 798:Generated_Source\PSoC4/I2CM_I2C_MASTER.c **** 
 799:Generated_Source\PSoC4/I2CM_I2C_MASTER.c **** 
 800:Generated_Source\PSoC4/I2CM_I2C_MASTER.c **** /*******************************************************************************
 801:Generated_Source\PSoC4/I2CM_I2C_MASTER.c **** * Function Name: I2CM_I2CMasterStatus
 802:Generated_Source\PSoC4/I2CM_I2C_MASTER.c **** ****************************************************************************//**
 803:Generated_Source\PSoC4/I2CM_I2C_MASTER.c **** *
 804:Generated_Source\PSoC4/I2CM_I2C_MASTER.c **** *  Returns the master's communication status.
 805:Generated_Source\PSoC4/I2CM_I2C_MASTER.c **** *
 806:Generated_Source\PSoC4/I2CM_I2C_MASTER.c **** * \return
 807:Generated_Source\PSoC4/I2CM_I2C_MASTER.c **** *  Current status of I2C master. This status incorporates status constants.
 808:Generated_Source\PSoC4/I2CM_I2C_MASTER.c **** *  Each constant is a bit field value. The value returned may have multiple
 809:Generated_Source\PSoC4/I2CM_I2C_MASTER.c **** *  bits set to indicate the status of the read or write transfer.
 810:Generated_Source\PSoC4/I2CM_I2C_MASTER.c **** *  - I2CM_I2C_MSTAT_RD_CMPLT - Read transfer complete.
 811:Generated_Source\PSoC4/I2CM_I2C_MASTER.c **** *    The error condition status bits must be checked to ensure that
 812:Generated_Source\PSoC4/I2CM_I2C_MASTER.c **** *    read transfer was completed successfully.
 813:Generated_Source\PSoC4/I2CM_I2C_MASTER.c **** *  - I2CM_I2C_MSTAT_WR_CMPLT - Write transfer complete.
 814:Generated_Source\PSoC4/I2CM_I2C_MASTER.c **** *    The error condition status bits must be checked to ensure that write
 815:Generated_Source\PSoC4/I2CM_I2C_MASTER.c **** *    transfer was completed successfully.
 816:Generated_Source\PSoC4/I2CM_I2C_MASTER.c **** *  - I2CM_I2C_MSTAT_XFER_INP - Transfer in progress.
 817:Generated_Source\PSoC4/I2CM_I2C_MASTER.c **** *  - I2CM_I2C_MSTAT_XFER_HALT - Transfer has been halted.
 818:Generated_Source\PSoC4/I2CM_I2C_MASTER.c **** *    The I2C bus is waiting for ReStart or Stop condition generation.
 819:Generated_Source\PSoC4/I2CM_I2C_MASTER.c **** *  - I2CM_I2C_MSTAT_ERR_SHORT_XFER - Error condition: Write
 820:Generated_Source\PSoC4/I2CM_I2C_MASTER.c **** *    transfer completed before all bytes were transferred. The slave NAKed
 821:Generated_Source\PSoC4/I2CM_I2C_MASTER.c **** *    the byte which was expected to be ACKed.
 822:Generated_Source\PSoC4/I2CM_I2C_MASTER.c **** *  - I2CM_I2C_MSTAT_ERR_ADDR_NAK - Error condition: Slave did
 823:Generated_Source\PSoC4/I2CM_I2C_MASTER.c **** *    not acknowledge address.
 824:Generated_Source\PSoC4/I2CM_I2C_MASTER.c **** *  - I2CM_I2C_MSTAT_ERR_ARB_LOST - Error condition: Master lost
 825:Generated_Source\PSoC4/I2CM_I2C_MASTER.c **** *    arbitration during communications with slave.
 826:Generated_Source\PSoC4/I2CM_I2C_MASTER.c **** *  - I2CM_I2C_MSTAT_ERR_BUS_ERROR - Error condition: bus error
 827:Generated_Source\PSoC4/I2CM_I2C_MASTER.c **** *    occurred during master transfer due to misplaced Start or Stop
 828:Generated_Source\PSoC4/I2CM_I2C_MASTER.c **** *    condition on the bus.
 829:Generated_Source\PSoC4/I2CM_I2C_MASTER.c **** *  - I2CM_I2C_MSTAT_ERR_ABORT_XFER - Error condition: Slave was
ARM GAS  C:\Users\CHUNGN~1\AppData\Local\Temp\ccSpspjB.s 			page 16


 830:Generated_Source\PSoC4/I2CM_I2C_MASTER.c **** *    addressed by another master while master performed the start condition
 831:Generated_Source\PSoC4/I2CM_I2C_MASTER.c **** *    generation. As a result, master has automatically switched to slave
 832:Generated_Source\PSoC4/I2CM_I2C_MASTER.c **** *    mode and is responding. The master transaction has not taken place
 833:Generated_Source\PSoC4/I2CM_I2C_MASTER.c **** *    This error condition only applicable for Multi-Master-Slave mode.
 834:Generated_Source\PSoC4/I2CM_I2C_MASTER.c **** *  - I2CM_I2C_MSTAT_ERR_XFER - Error condition: This is the
 835:Generated_Source\PSoC4/I2CM_I2C_MASTER.c **** *    ORed value of all error conditions provided above.
 836:Generated_Source\PSoC4/I2CM_I2C_MASTER.c **** *
 837:Generated_Source\PSoC4/I2CM_I2C_MASTER.c **** * \globalvars
 838:Generated_Source\PSoC4/I2CM_I2C_MASTER.c **** *  I2CM_mstrStatus - used to store current status of I2C Master.
 839:Generated_Source\PSoC4/I2CM_I2C_MASTER.c **** *
 840:Generated_Source\PSoC4/I2CM_I2C_MASTER.c **** *******************************************************************************/
 841:Generated_Source\PSoC4/I2CM_I2C_MASTER.c **** uint32 I2CM_I2CMasterStatus(void)
 842:Generated_Source\PSoC4/I2CM_I2C_MASTER.c **** {
 843:Generated_Source\PSoC4/I2CM_I2C_MASTER.c ****     uint32 status;
 844:Generated_Source\PSoC4/I2CM_I2C_MASTER.c **** 
 845:Generated_Source\PSoC4/I2CM_I2C_MASTER.c ****     I2CM_DisableInt();  /* Lock from interruption */
 846:Generated_Source\PSoC4/I2CM_I2C_MASTER.c **** 
 847:Generated_Source\PSoC4/I2CM_I2C_MASTER.c ****     status = (uint32) I2CM_mstrStatus;
 848:Generated_Source\PSoC4/I2CM_I2C_MASTER.c **** 
 849:Generated_Source\PSoC4/I2CM_I2C_MASTER.c ****     if (I2CM_CHECK_I2C_MASTER_ACTIVE)
 850:Generated_Source\PSoC4/I2CM_I2C_MASTER.c ****     {
 851:Generated_Source\PSoC4/I2CM_I2C_MASTER.c ****         /* Add status of master pending transaction: MSTAT_XFER_INP */
 852:Generated_Source\PSoC4/I2CM_I2C_MASTER.c ****         status |= (uint32) I2CM_I2C_MSTAT_XFER_INP;
 853:Generated_Source\PSoC4/I2CM_I2C_MASTER.c ****     }
 854:Generated_Source\PSoC4/I2CM_I2C_MASTER.c **** 
 855:Generated_Source\PSoC4/I2CM_I2C_MASTER.c ****     I2CM_EnableInt();   /* Release lock */
 856:Generated_Source\PSoC4/I2CM_I2C_MASTER.c **** 
 857:Generated_Source\PSoC4/I2CM_I2C_MASTER.c ****     return(status);
 858:Generated_Source\PSoC4/I2CM_I2C_MASTER.c **** }
 859:Generated_Source\PSoC4/I2CM_I2C_MASTER.c **** 
 860:Generated_Source\PSoC4/I2CM_I2C_MASTER.c **** 
 861:Generated_Source\PSoC4/I2CM_I2C_MASTER.c **** /*******************************************************************************
 862:Generated_Source\PSoC4/I2CM_I2C_MASTER.c **** * Function Name: I2CM_I2CMasterClearStatus
 863:Generated_Source\PSoC4/I2CM_I2C_MASTER.c **** ****************************************************************************//**
 864:Generated_Source\PSoC4/I2CM_I2C_MASTER.c **** *
 865:Generated_Source\PSoC4/I2CM_I2C_MASTER.c **** *  Clears all status flags and returns the master status.
 866:Generated_Source\PSoC4/I2CM_I2C_MASTER.c **** *
 867:Generated_Source\PSoC4/I2CM_I2C_MASTER.c **** * \return
 868:Generated_Source\PSoC4/I2CM_I2C_MASTER.c **** *  Current status of master. See the I2CM_I2CMasterStatus()
 869:Generated_Source\PSoC4/I2CM_I2C_MASTER.c **** *  function for constants.
 870:Generated_Source\PSoC4/I2CM_I2C_MASTER.c **** *
 871:Generated_Source\PSoC4/I2CM_I2C_MASTER.c **** * \globalvars
 872:Generated_Source\PSoC4/I2CM_I2C_MASTER.c **** *  I2CM_mstrStatus - used to store current status of I2C Master.
 873:Generated_Source\PSoC4/I2CM_I2C_MASTER.c **** *
 874:Generated_Source\PSoC4/I2CM_I2C_MASTER.c **** *******************************************************************************/
 875:Generated_Source\PSoC4/I2CM_I2C_MASTER.c **** uint32 I2CM_I2CMasterClearStatus(void)
 876:Generated_Source\PSoC4/I2CM_I2C_MASTER.c **** {
 877:Generated_Source\PSoC4/I2CM_I2C_MASTER.c ****     uint32 status;
 878:Generated_Source\PSoC4/I2CM_I2C_MASTER.c **** 
 879:Generated_Source\PSoC4/I2CM_I2C_MASTER.c ****     I2CM_DisableInt();  /* Lock from interruption */
 880:Generated_Source\PSoC4/I2CM_I2C_MASTER.c **** 
 881:Generated_Source\PSoC4/I2CM_I2C_MASTER.c ****     /* Read and clear master status */
 882:Generated_Source\PSoC4/I2CM_I2C_MASTER.c ****     status = (uint32) I2CM_mstrStatus;
 883:Generated_Source\PSoC4/I2CM_I2C_MASTER.c ****     I2CM_mstrStatus = I2CM_I2C_MSTAT_CLEAR;
 884:Generated_Source\PSoC4/I2CM_I2C_MASTER.c **** 
 885:Generated_Source\PSoC4/I2CM_I2C_MASTER.c ****     I2CM_EnableInt();   /* Release lock */
 886:Generated_Source\PSoC4/I2CM_I2C_MASTER.c **** 
ARM GAS  C:\Users\CHUNGN~1\AppData\Local\Temp\ccSpspjB.s 			page 17


 887:Generated_Source\PSoC4/I2CM_I2C_MASTER.c ****     return(status);
 888:Generated_Source\PSoC4/I2CM_I2C_MASTER.c **** }
 889:Generated_Source\PSoC4/I2CM_I2C_MASTER.c **** 
 890:Generated_Source\PSoC4/I2CM_I2C_MASTER.c **** 
 891:Generated_Source\PSoC4/I2CM_I2C_MASTER.c **** /*******************************************************************************
 892:Generated_Source\PSoC4/I2CM_I2C_MASTER.c **** * Function Name: I2CM_I2CReStartGeneration
 893:Generated_Source\PSoC4/I2CM_I2C_MASTER.c **** ****************************************************************************//**
 894:Generated_Source\PSoC4/I2CM_I2C_MASTER.c **** *
 895:Generated_Source\PSoC4/I2CM_I2C_MASTER.c **** *  Generates a ReStart condition:
 896:Generated_Source\PSoC4/I2CM_I2C_MASTER.c **** *  - SCB IP V1 and later: Generates ReStart using the scb IP functionality
 897:Generated_Source\PSoC4/I2CM_I2C_MASTER.c **** *    Sets the I2C_MASTER_CMD_M_START and I2C_MASTER_CMD_M_NACK (if the previous
 898:Generated_Source\PSoC4/I2CM_I2C_MASTER.c **** *    transaction was read) bits in the SCB.I2C_MASTER_CMD register.
 899:Generated_Source\PSoC4/I2CM_I2C_MASTER.c **** *    This combination forces the master to generate ReStart.
 900:Generated_Source\PSoC4/I2CM_I2C_MASTER.c **** *
 901:Generated_Source\PSoC4/I2CM_I2C_MASTER.c **** *  - SCB IP V0: Generates Restart using the GPIO and scb IP functionality.
 902:Generated_Source\PSoC4/I2CM_I2C_MASTER.c **** *    After the master completes write or read, the SCL is stretched.
 903:Generated_Source\PSoC4/I2CM_I2C_MASTER.c **** *    The master waits until SDA line is released by the slave. Then the GPIO
 904:Generated_Source\PSoC4/I2CM_I2C_MASTER.c **** *    function is enabled and the scb IP disabled as it already does not drive
 905:Generated_Source\PSoC4/I2CM_I2C_MASTER.c **** *    the bus. In case of the previous transfer was read, the NACK is generated
 906:Generated_Source\PSoC4/I2CM_I2C_MASTER.c **** *    by the GPIO. The delay of tLOW is added to manage the hold time.
 907:Generated_Source\PSoC4/I2CM_I2C_MASTER.c **** *    Set I2C_M_CMD.START and enable the scb IP. The ReStart generation
 908:Generated_Source\PSoC4/I2CM_I2C_MASTER.c **** *    is started after the I2C function is enabled for the SCL.
 909:Generated_Source\PSoC4/I2CM_I2C_MASTER.c **** *    Note1: the scb IP due re-enable generates Start but on the I2C bus it
 910:Generated_Source\PSoC4/I2CM_I2C_MASTER.c **** *           appears as ReStart.
 911:Generated_Source\PSoC4/I2CM_I2C_MASTER.c **** *    Note2: the I2C_M_CMD.START is queued if scb IP is disabled.
 912:Generated_Source\PSoC4/I2CM_I2C_MASTER.c **** *    Note3: the I2C_STATUS_M_READ is cleared is address was NACKed before.
 913:Generated_Source\PSoC4/I2CM_I2C_MASTER.c **** *
 914:Generated_Source\PSoC4/I2CM_I2C_MASTER.c **** * \sideeffect
 915:Generated_Source\PSoC4/I2CM_I2C_MASTER.c **** *  SCB IP V0: The NACK generation by the GPIO may cause a greater SCL period
 916:Generated_Source\PSoC4/I2CM_I2C_MASTER.c **** *             than expected for the selected master data rate.
 917:Generated_Source\PSoC4/I2CM_I2C_MASTER.c **** *
 918:Generated_Source\PSoC4/I2CM_I2C_MASTER.c **** *******************************************************************************/
 919:Generated_Source\PSoC4/I2CM_I2C_MASTER.c **** void I2CM_I2CReStartGeneration(void)
 920:Generated_Source\PSoC4/I2CM_I2C_MASTER.c **** {
 921:Generated_Source\PSoC4/I2CM_I2C_MASTER.c **** #if(I2CM_CY_SCBIP_V0)
 922:Generated_Source\PSoC4/I2CM_I2C_MASTER.c ****     /* Generates Restart use GPIO and scb IP functionality. Ticket ID#143715,
 923:Generated_Source\PSoC4/I2CM_I2C_MASTER.c ****     * ID#145238 and ID#173656.
 924:Generated_Source\PSoC4/I2CM_I2C_MASTER.c ****     * In case of timeout the I2CM_I2CMasterSendRestart handles this
 925:Generated_Source\PSoC4/I2CM_I2C_MASTER.c ****     * case using own timeout and execute appropriate recovery.
 926:Generated_Source\PSoC4/I2CM_I2C_MASTER.c ****     */
 927:Generated_Source\PSoC4/I2CM_I2C_MASTER.c **** 
 928:Generated_Source\PSoC4/I2CM_I2C_MASTER.c ****     const uint16 oneUnit = 1u;
 929:Generated_Source\PSoC4/I2CM_I2C_MASTER.c ****     uint32 timeout = I2CM_I2C_PHASE_GEN_TIMEOUT;
 930:Generated_Source\PSoC4/I2CM_I2C_MASTER.c **** 
 931:Generated_Source\PSoC4/I2CM_I2C_MASTER.c ****     /* Store direction of transfer */
 932:Generated_Source\PSoC4/I2CM_I2C_MASTER.c ****     uint32 readDirection = I2CM_I2C_STATUS_REG & I2CM_I2C_STATUS_M_READ;
 933:Generated_Source\PSoC4/I2CM_I2C_MASTER.c **** 
 934:Generated_Source\PSoC4/I2CM_I2C_MASTER.c ****     /* Wait until slave releases SDA line: SCL tHIGH is complete */
 935:Generated_Source\PSoC4/I2CM_I2C_MASTER.c ****     while ((I2CM_WAIT_SDA_SET_HIGH) && (timeout > 0u))
 936:Generated_Source\PSoC4/I2CM_I2C_MASTER.c ****     {
 937:Generated_Source\PSoC4/I2CM_I2C_MASTER.c ****         CyDelayUs(oneUnit);
 938:Generated_Source\PSoC4/I2CM_I2C_MASTER.c ****         --timeout;
 939:Generated_Source\PSoC4/I2CM_I2C_MASTER.c ****     }
 940:Generated_Source\PSoC4/I2CM_I2C_MASTER.c **** 
 941:Generated_Source\PSoC4/I2CM_I2C_MASTER.c ****     if (timeout > 0u)
 942:Generated_Source\PSoC4/I2CM_I2C_MASTER.c ****     {
 943:Generated_Source\PSoC4/I2CM_I2C_MASTER.c ****         /* Refill timeout */
ARM GAS  C:\Users\CHUNGN~1\AppData\Local\Temp\ccSpspjB.s 			page 18


 944:Generated_Source\PSoC4/I2CM_I2C_MASTER.c ****         timeout = I2CM_I2C_PHASE_GEN_TIMEOUT;
 945:Generated_Source\PSoC4/I2CM_I2C_MASTER.c **** 
 946:Generated_Source\PSoC4/I2CM_I2C_MASTER.c ****         /* Drive SCL line use GPIO */
 947:Generated_Source\PSoC4/I2CM_I2C_MASTER.c ****         I2CM_SET_I2C_SCL_DR       (I2CM_I2C_SCL_LOW);
 948:Generated_Source\PSoC4/I2CM_I2C_MASTER.c ****         I2CM_SET_I2C_SCL_HSIOM_SEL(I2CM_HSIOM_GPIO_SEL);
 949:Generated_Source\PSoC4/I2CM_I2C_MASTER.c **** 
 950:Generated_Source\PSoC4/I2CM_I2C_MASTER.c ****         /* Disable SCB block */
 951:Generated_Source\PSoC4/I2CM_I2C_MASTER.c ****         I2CM_CTRL_REG &= (uint32) ~I2CM_CTRL_ENABLED;
 952:Generated_Source\PSoC4/I2CM_I2C_MASTER.c **** 
 953:Generated_Source\PSoC4/I2CM_I2C_MASTER.c ****         if (0u != readDirection)
 954:Generated_Source\PSoC4/I2CM_I2C_MASTER.c ****         {
 955:Generated_Source\PSoC4/I2CM_I2C_MASTER.c ****             /* Generate NACK for read transactions use GPIO functionality */
 956:Generated_Source\PSoC4/I2CM_I2C_MASTER.c **** 
 957:Generated_Source\PSoC4/I2CM_I2C_MASTER.c ****             /* Drive tLOW: SCL low phase */
 958:Generated_Source\PSoC4/I2CM_I2C_MASTER.c ****             I2CM_SET_I2C_SCL_DR(I2CM_I2C_SCL_LOW);
 959:Generated_Source\PSoC4/I2CM_I2C_MASTER.c ****             CyDelayUs(I2CM_I2C_TLOW_TIME);
 960:Generated_Source\PSoC4/I2CM_I2C_MASTER.c **** 
 961:Generated_Source\PSoC4/I2CM_I2C_MASTER.c ****             /* Drive tHIGH: SCL high phase */
 962:Generated_Source\PSoC4/I2CM_I2C_MASTER.c ****             I2CM_SET_I2C_SCL_DR(I2CM_I2C_SCL_HIGH);
 963:Generated_Source\PSoC4/I2CM_I2C_MASTER.c ****             CyDelayUs(I2CM_I2C_THIGH_TIME);
 964:Generated_Source\PSoC4/I2CM_I2C_MASTER.c **** 
 965:Generated_Source\PSoC4/I2CM_I2C_MASTER.c ****             /* Wait until slave releases SDA line: SCL tHIGH is complete */
 966:Generated_Source\PSoC4/I2CM_I2C_MASTER.c ****             while ((I2CM_WAIT_SCL_SET_HIGH) && (timeout > 0u))
 967:Generated_Source\PSoC4/I2CM_I2C_MASTER.c ****             {
 968:Generated_Source\PSoC4/I2CM_I2C_MASTER.c ****                 CyDelayUs(oneUnit);
 969:Generated_Source\PSoC4/I2CM_I2C_MASTER.c ****                 --timeout;
 970:Generated_Source\PSoC4/I2CM_I2C_MASTER.c ****             }
 971:Generated_Source\PSoC4/I2CM_I2C_MASTER.c ****         }
 972:Generated_Source\PSoC4/I2CM_I2C_MASTER.c **** 
 973:Generated_Source\PSoC4/I2CM_I2C_MASTER.c ****         if (timeout > 0u)
 974:Generated_Source\PSoC4/I2CM_I2C_MASTER.c ****         {
 975:Generated_Source\PSoC4/I2CM_I2C_MASTER.c ****             /* Drive tLOW: hold time for write and read */
 976:Generated_Source\PSoC4/I2CM_I2C_MASTER.c ****             I2CM_SET_I2C_SCL_DR(I2CM_I2C_SCL_LOW);
 977:Generated_Source\PSoC4/I2CM_I2C_MASTER.c ****             CyDelayUs(I2CM_I2C_TLOW_TIME);
 978:Generated_Source\PSoC4/I2CM_I2C_MASTER.c **** 
 979:Generated_Source\PSoC4/I2CM_I2C_MASTER.c ****             /* Set Start command, it will appear as ReStart on the bus */
 980:Generated_Source\PSoC4/I2CM_I2C_MASTER.c ****             I2CM_I2C_MASTER_CMD_REG  = I2CM_I2C_MASTER_CMD_M_START;
 981:Generated_Source\PSoC4/I2CM_I2C_MASTER.c ****         }
 982:Generated_Source\PSoC4/I2CM_I2C_MASTER.c **** 
 983:Generated_Source\PSoC4/I2CM_I2C_MASTER.c ****         /* Enable SCB block: ReStart will appear on the bus as soon as SCL
 984:Generated_Source\PSoC4/I2CM_I2C_MASTER.c ****         * configuration is restored and bus busy cleared.
 985:Generated_Source\PSoC4/I2CM_I2C_MASTER.c ****         */
 986:Generated_Source\PSoC4/I2CM_I2C_MASTER.c ****         I2CM_CTRL_REG |= I2CM_CTRL_ENABLED;
 987:Generated_Source\PSoC4/I2CM_I2C_MASTER.c **** 
 988:Generated_Source\PSoC4/I2CM_I2C_MASTER.c ****         /* Restore SCL configuration */
 989:Generated_Source\PSoC4/I2CM_I2C_MASTER.c ****         I2CM_SET_I2C_SCL_HSIOM_SEL(I2CM_HSIOM_I2C_SEL);
 990:Generated_Source\PSoC4/I2CM_I2C_MASTER.c ****         I2CM_SET_I2C_SCL_DR       (I2CM_I2C_SCL_HIGH);
 991:Generated_Source\PSoC4/I2CM_I2C_MASTER.c ****     }
 992:Generated_Source\PSoC4/I2CM_I2C_MASTER.c **** #else
 993:Generated_Source\PSoC4/I2CM_I2C_MASTER.c ****     uint32 cmd;
 994:Generated_Source\PSoC4/I2CM_I2C_MASTER.c **** 
 995:Generated_Source\PSoC4/I2CM_I2C_MASTER.c ****     /* Generates ReStart use scb IP functionality */
 996:Generated_Source\PSoC4/I2CM_I2C_MASTER.c ****     cmd  = I2CM_I2C_MASTER_CMD_M_START;
 997:Generated_Source\PSoC4/I2CM_I2C_MASTER.c ****     cmd |= I2CM_CHECK_I2C_STATUS(I2CM_I2C_STATUS_M_READ) ?
 998:Generated_Source\PSoC4/I2CM_I2C_MASTER.c ****                 (I2CM_I2C_MASTER_CMD_M_NACK) : (0u);
 999:Generated_Source\PSoC4/I2CM_I2C_MASTER.c **** 
1000:Generated_Source\PSoC4/I2CM_I2C_MASTER.c ****     I2CM_I2C_MASTER_CMD_REG = cmd;
ARM GAS  C:\Users\CHUNGN~1\AppData\Local\Temp\ccSpspjB.s 			page 19


1001:Generated_Source\PSoC4/I2CM_I2C_MASTER.c **** #endif /* (I2CM_CY_SCBIP_V1) */
1002:Generated_Source\PSoC4/I2CM_I2C_MASTER.c **** }
1003:Generated_Source\PSoC4/I2CM_I2C_MASTER.c **** 
1004:Generated_Source\PSoC4/I2CM_I2C_MASTER.c **** #endif /* (I2CM_I2C_MASTER_CONST) */
1005:Generated_Source\PSoC4/I2CM_I2C_MASTER.c **** 
1006:Generated_Source\PSoC4/I2CM_I2C_MASTER.c **** 
1007:Generated_Source\PSoC4/I2CM_I2C_MASTER.c **** #if (!I2CM_CY_SCBIP_V0 && \
1008:Generated_Source\PSoC4/I2CM_I2C_MASTER.c ****     I2CM_I2C_MULTI_MASTER_SLAVE_CONST && I2CM_I2C_WAKE_ENABLE_CONST)
1009:Generated_Source\PSoC4/I2CM_I2C_MASTER.c ****     /*******************************************************************************
1010:Generated_Source\PSoC4/I2CM_I2C_MASTER.c ****     * Function Name: I2CM_I2CMasterDisableEcAm
1011:Generated_Source\PSoC4/I2CM_I2C_MASTER.c ****     ****************************************************************************//**
1012:Generated_Source\PSoC4/I2CM_I2C_MASTER.c ****     *
1013:Generated_Source\PSoC4/I2CM_I2C_MASTER.c ****     *  Disables externally clocked address match logic to enable master operation
1014:Generated_Source\PSoC4/I2CM_I2C_MASTER.c ****     *  in active mode.
1015:Generated_Source\PSoC4/I2CM_I2C_MASTER.c ****     *
1016:Generated_Source\PSoC4/I2CM_I2C_MASTER.c ****     *******************************************************************************/
1017:Generated_Source\PSoC4/I2CM_I2C_MASTER.c ****     static void I2CM_I2CMasterDisableEcAm(void)
1018:Generated_Source\PSoC4/I2CM_I2C_MASTER.c ****     {
1019:Generated_Source\PSoC4/I2CM_I2C_MASTER.c ****         /* Disables externally clocked address match logic to enable master operation
1020:Generated_Source\PSoC4/I2CM_I2C_MASTER.c ****         * in active mode. This applicable only for Multi-Master-Slave when wakeup is
1021:Generated_Source\PSoC4/I2CM_I2C_MASTER.c ****         * enabled. Ticket ID#192742.
1022:Generated_Source\PSoC4/I2CM_I2C_MASTER.c ****         */
1023:Generated_Source\PSoC4/I2CM_I2C_MASTER.c ****         if (0u != (I2CM_CTRL_REG & I2CM_CTRL_EC_AM_MODE))
1024:Generated_Source\PSoC4/I2CM_I2C_MASTER.c ****         {
1025:Generated_Source\PSoC4/I2CM_I2C_MASTER.c ****             /* Enable external address match logic */
1026:Generated_Source\PSoC4/I2CM_I2C_MASTER.c ****             I2CM_Stop();
1027:Generated_Source\PSoC4/I2CM_I2C_MASTER.c ****             I2CM_CTRL_REG &= (uint32) ~I2CM_CTRL_EC_AM_MODE;
1028:Generated_Source\PSoC4/I2CM_I2C_MASTER.c ****             I2CM_Enable();
1029:Generated_Source\PSoC4/I2CM_I2C_MASTER.c ****         }
1030:Generated_Source\PSoC4/I2CM_I2C_MASTER.c ****     }
1031:Generated_Source\PSoC4/I2CM_I2C_MASTER.c **** #endif /* (!I2CM_CY_SCBIP_V0) */
1032:Generated_Source\PSoC4/I2CM_I2C_MASTER.c **** 
1033:Generated_Source\PSoC4/I2CM_I2C_MASTER.c **** 
1034:Generated_Source\PSoC4/I2CM_I2C_MASTER.c **** /*******************************************************************************
1035:Generated_Source\PSoC4/I2CM_I2C_MASTER.c **** * Function Name: I2CM_I2CMasterHandleStatus
1036:Generated_Source\PSoC4/I2CM_I2C_MASTER.c **** ****************************************************************************//**
1037:Generated_Source\PSoC4/I2CM_I2C_MASTER.c **** *
1038:Generated_Source\PSoC4/I2CM_I2C_MASTER.c **** * Converts hardware status to firmware status and executes required processing.
1039:Generated_Source\PSoC4/I2CM_I2C_MASTER.c **** *
1040:Generated_Source\PSoC4/I2CM_I2C_MASTER.c **** * \param status
1041:Generated_Source\PSoC4/I2CM_I2C_MASTER.c **** * Hardware I2C master status to handle. It also includes
1042:Generated_Source\PSoC4/I2CM_I2C_MASTER.c **** * I2CM_I2C_MASTER_TIMEOUT and I2CM_SLAVE_INTR_I2C_ADDR.
1043:Generated_Source\PSoC4/I2CM_I2C_MASTER.c **** *
1044:Generated_Source\PSoC4/I2CM_I2C_MASTER.c **** * \return
1045:Generated_Source\PSoC4/I2CM_I2C_MASTER.c **** * Error status.
1046:Generated_Source\PSoC4/I2CM_I2C_MASTER.c **** * See I2CM_I2CMasterSendStart() function for constants.
1047:Generated_Source\PSoC4/I2CM_I2C_MASTER.c **** *
1048:Generated_Source\PSoC4/I2CM_I2C_MASTER.c **** *******************************************************************************/
1049:Generated_Source\PSoC4/I2CM_I2C_MASTER.c **** static uint32 I2CM_I2CMasterHandleStatus(uint32 status)
1050:Generated_Source\PSoC4/I2CM_I2C_MASTER.c **** {
1051:Generated_Source\PSoC4/I2CM_I2C_MASTER.c ****     uint32 retStatus;
1052:Generated_Source\PSoC4/I2CM_I2C_MASTER.c ****     uint32 resetBlock = 0u;
1053:Generated_Source\PSoC4/I2CM_I2C_MASTER.c **** 
1054:Generated_Source\PSoC4/I2CM_I2C_MASTER.c ****     if (0u != (status & I2CM_I2C_MASTER_TIMEOUT))
1055:Generated_Source\PSoC4/I2CM_I2C_MASTER.c ****     {
1056:Generated_Source\PSoC4/I2CM_I2C_MASTER.c ****         retStatus  = I2CM_I2C_MASTER_TIMEOUT;
1057:Generated_Source\PSoC4/I2CM_I2C_MASTER.c ****         resetBlock = I2CM_I2C_RESET_ERROR;
ARM GAS  C:\Users\CHUNGN~1\AppData\Local\Temp\ccSpspjB.s 			page 20


1058:Generated_Source\PSoC4/I2CM_I2C_MASTER.c ****     }
1059:Generated_Source\PSoC4/I2CM_I2C_MASTER.c ****     else if (0u != (I2CM_SLAVE_INTR_I2C_ADDR & status))
1060:Generated_Source\PSoC4/I2CM_I2C_MASTER.c ****     {
1061:Generated_Source\PSoC4/I2CM_I2C_MASTER.c ****         /* Abort the master operation, the slave was addressed first */
1062:Generated_Source\PSoC4/I2CM_I2C_MASTER.c ****         retStatus = I2CM_I2C_MSTR_ERR_ABORT_START;
1063:Generated_Source\PSoC4/I2CM_I2C_MASTER.c **** 
1064:Generated_Source\PSoC4/I2CM_I2C_MASTER.c ****         I2CM_I2C_MASTER_CMD_REG = 0u;
1065:Generated_Source\PSoC4/I2CM_I2C_MASTER.c **** 
1066:Generated_Source\PSoC4/I2CM_I2C_MASTER.c ****         I2CM_state = I2CM_I2C_FSM_IDLE;
1067:Generated_Source\PSoC4/I2CM_I2C_MASTER.c ****     }
1068:Generated_Source\PSoC4/I2CM_I2C_MASTER.c ****     else if (0u != (status & I2CM_INTR_MASTER_I2C_ARB_LOST))
1069:Generated_Source\PSoC4/I2CM_I2C_MASTER.c ****     {
1070:Generated_Source\PSoC4/I2CM_I2C_MASTER.c ****         retStatus  = I2CM_I2C_MSTR_ERR_ARB_LOST;
1071:Generated_Source\PSoC4/I2CM_I2C_MASTER.c **** 
1072:Generated_Source\PSoC4/I2CM_I2C_MASTER.c ****         if (I2CM_CHECK_I2C_FSM_ADDR)
1073:Generated_Source\PSoC4/I2CM_I2C_MASTER.c ****         {
1074:Generated_Source\PSoC4/I2CM_I2C_MASTER.c ****             /* If slave is not enabled reset IP, otherwise give it a chance to match address */
1075:Generated_Source\PSoC4/I2CM_I2C_MASTER.c ****             if (0u == (I2CM_I2C_CTRL_REG & I2CM_I2C_CTRL_SLAVE_MODE))
1076:Generated_Source\PSoC4/I2CM_I2C_MASTER.c ****             {
1077:Generated_Source\PSoC4/I2CM_I2C_MASTER.c ****                 resetBlock = I2CM_I2C_RESET_ERROR;
1078:Generated_Source\PSoC4/I2CM_I2C_MASTER.c ****             }
1079:Generated_Source\PSoC4/I2CM_I2C_MASTER.c **** 
1080:Generated_Source\PSoC4/I2CM_I2C_MASTER.c ****             I2CM_state = I2CM_I2C_FSM_IDLE;
1081:Generated_Source\PSoC4/I2CM_I2C_MASTER.c ****         }
1082:Generated_Source\PSoC4/I2CM_I2C_MASTER.c ****         else
1083:Generated_Source\PSoC4/I2CM_I2C_MASTER.c ****         {
1084:Generated_Source\PSoC4/I2CM_I2C_MASTER.c ****             /* Reset IP block when on address stage */
1085:Generated_Source\PSoC4/I2CM_I2C_MASTER.c ****             resetBlock = I2CM_I2C_RESET_ERROR;
1086:Generated_Source\PSoC4/I2CM_I2C_MASTER.c ****         }
1087:Generated_Source\PSoC4/I2CM_I2C_MASTER.c ****     }
1088:Generated_Source\PSoC4/I2CM_I2C_MASTER.c ****     else if (0u != (status & I2CM_INTR_MASTER_I2C_BUS_ERROR))
1089:Generated_Source\PSoC4/I2CM_I2C_MASTER.c ****     {
1090:Generated_Source\PSoC4/I2CM_I2C_MASTER.c ****         retStatus  = I2CM_I2C_MSTR_ERR_BUS_ERR;
1091:Generated_Source\PSoC4/I2CM_I2C_MASTER.c ****         resetBlock = I2CM_I2C_RESET_ERROR;
1092:Generated_Source\PSoC4/I2CM_I2C_MASTER.c ****     }
1093:Generated_Source\PSoC4/I2CM_I2C_MASTER.c ****     else if (0u != (status & I2CM_INTR_MASTER_I2C_NACK))
1094:Generated_Source\PSoC4/I2CM_I2C_MASTER.c ****     {
1095:Generated_Source\PSoC4/I2CM_I2C_MASTER.c ****         retStatus = I2CM_I2C_MSTR_ERR_LB_NAK;
1096:Generated_Source\PSoC4/I2CM_I2C_MASTER.c ****     }
1097:Generated_Source\PSoC4/I2CM_I2C_MASTER.c ****     else /* Includes: INTR_MASTER_I2C_STOP and INTR_MASTER_I2C_ACK */
1098:Generated_Source\PSoC4/I2CM_I2C_MASTER.c ****     {
1099:Generated_Source\PSoC4/I2CM_I2C_MASTER.c ****         retStatus = I2CM_I2C_MSTR_NO_ERROR;
1100:Generated_Source\PSoC4/I2CM_I2C_MASTER.c **** 
1101:Generated_Source\PSoC4/I2CM_I2C_MASTER.c ****         if (0u != (status & I2CM_INTR_MASTER_I2C_STOP))
1102:Generated_Source\PSoC4/I2CM_I2C_MASTER.c ****         {
1103:Generated_Source\PSoC4/I2CM_I2C_MASTER.c ****             /* Stop: end of transaction, go to idle state */
1104:Generated_Source\PSoC4/I2CM_I2C_MASTER.c ****             I2CM_state = I2CM_I2C_FSM_IDLE;
1105:Generated_Source\PSoC4/I2CM_I2C_MASTER.c ****         }
1106:Generated_Source\PSoC4/I2CM_I2C_MASTER.c ****         else
1107:Generated_Source\PSoC4/I2CM_I2C_MASTER.c ****         {
1108:Generated_Source\PSoC4/I2CM_I2C_MASTER.c ****             /* ACK: continue transaction */
1109:Generated_Source\PSoC4/I2CM_I2C_MASTER.c ****             if (I2CM_CHECK_I2C_FSM_ADDR)
1110:Generated_Source\PSoC4/I2CM_I2C_MASTER.c ****             {
1111:Generated_Source\PSoC4/I2CM_I2C_MASTER.c ****                 /* Move from address state to data */
1112:Generated_Source\PSoC4/I2CM_I2C_MASTER.c ****                 I2CM_state = (I2CM_CHECK_I2C_FSM_RD) ?
1113:Generated_Source\PSoC4/I2CM_I2C_MASTER.c ****                                           I2CM_I2C_FSM_MSTR_RD_DATA : I2CM_I2C_FSM_MSTR_WR_DATA;
1114:Generated_Source\PSoC4/I2CM_I2C_MASTER.c ****             }
ARM GAS  C:\Users\CHUNGN~1\AppData\Local\Temp\ccSpspjB.s 			page 21


1115:Generated_Source\PSoC4/I2CM_I2C_MASTER.c ****         }
1116:Generated_Source\PSoC4/I2CM_I2C_MASTER.c ****     }
1117:Generated_Source\PSoC4/I2CM_I2C_MASTER.c **** 
1118:Generated_Source\PSoC4/I2CM_I2C_MASTER.c ****     if (I2CM_I2C_RESET_ERROR == resetBlock)
1119:Generated_Source\PSoC4/I2CM_I2C_MASTER.c ****     {
1120:Generated_Source\PSoC4/I2CM_I2C_MASTER.c ****         I2CM_I2CFwBlockReset();
1121:Generated_Source\PSoC4/I2CM_I2C_MASTER.c ****     }
1122:Generated_Source\PSoC4/I2CM_I2C_MASTER.c ****     else
1123:Generated_Source\PSoC4/I2CM_I2C_MASTER.c ****     {
1124:Generated_Source\PSoC4/I2CM_I2C_MASTER.c ****         I2CM_ClearMasterInterruptSource(I2CM_INTR_MASTER_ALL);
1125:Generated_Source\PSoC4/I2CM_I2C_MASTER.c ****     }
1126:Generated_Source\PSoC4/I2CM_I2C_MASTER.c **** 
1127:Generated_Source\PSoC4/I2CM_I2C_MASTER.c ****     return (retStatus);
1128:Generated_Source\PSoC4/I2CM_I2C_MASTER.c **** }
1129:Generated_Source\PSoC4/I2CM_I2C_MASTER.c **** 
1130:Generated_Source\PSoC4/I2CM_I2C_MASTER.c **** 
1131:Generated_Source\PSoC4/I2CM_I2C_MASTER.c **** /******************************************************************************
1132:Generated_Source\PSoC4/I2CM_I2C_MASTER.c **** * Function Name: I2CMasterWaitOneUnit
1133:Generated_Source\PSoC4/I2CM_I2C_MASTER.c **** ****************************************************************************//**
1134:Generated_Source\PSoC4/I2CM_I2C_MASTER.c **** *
1135:Generated_Source\PSoC4/I2CM_I2C_MASTER.c **** * Waits for one unit before unblock code execution.
1136:Generated_Source\PSoC4/I2CM_I2C_MASTER.c **** * Note If a timeout value is 0, this function does nothing and returns 0.
1137:Generated_Source\PSoC4/I2CM_I2C_MASTER.c **** *
1138:Generated_Source\PSoC4/I2CM_I2C_MASTER.c **** * \param timeout
1139:Generated_Source\PSoC4/I2CM_I2C_MASTER.c **** * The pointer to a timeout value.
1140:Generated_Source\PSoC4/I2CM_I2C_MASTER.c **** *
1141:Generated_Source\PSoC4/I2CM_I2C_MASTER.c **** * \return
1142:Generated_Source\PSoC4/I2CM_I2C_MASTER.c **** * Returns 0 if a timeout does not expire or the timeout mask.
1143:Generated_Source\PSoC4/I2CM_I2C_MASTER.c **** *
1144:Generated_Source\PSoC4/I2CM_I2C_MASTER.c **** *******************************************************************************/
1145:Generated_Source\PSoC4/I2CM_I2C_MASTER.c **** static uint32 I2CM_I2CMasterWaitOneUnit(uint32 *timeout)
1146:Generated_Source\PSoC4/I2CM_I2C_MASTER.c **** {
  27              		.loc 1 1146 0
  28              		.cfi_startproc
  29              		@ args = 0, pretend = 0, frame = 0
  30              		@ frame_needed = 0, uses_anonymous_args = 0
  31              	.LVL0:
  32 0000 10B5     		push	{r4, lr}
  33              		.cfi_def_cfa_offset 8
  34              		.cfi_offset 4, -8
  35              		.cfi_offset 14, -4
  36 0002 0400     		movs	r4, r0
  37              	.LVL1:
1147:Generated_Source\PSoC4/I2CM_I2C_MASTER.c ****     const uint16 oneUnit = 1u;
1148:Generated_Source\PSoC4/I2CM_I2C_MASTER.c ****     uint32 status = 0u;
1149:Generated_Source\PSoC4/I2CM_I2C_MASTER.c **** 
1150:Generated_Source\PSoC4/I2CM_I2C_MASTER.c ****     /* If the timeout equal to 0. Ignore the timeout */
1151:Generated_Source\PSoC4/I2CM_I2C_MASTER.c ****     if (*timeout > 0u)
  38              		.loc 1 1151 0
  39 0004 0368     		ldr	r3, [r0]
  40 0006 002B     		cmp	r3, #0
  41 0008 09D0     		beq	.L3
1152:Generated_Source\PSoC4/I2CM_I2C_MASTER.c ****     {
1153:Generated_Source\PSoC4/I2CM_I2C_MASTER.c ****         CyDelayUs(oneUnit);
  42              		.loc 1 1153 0
  43 000a 0120     		movs	r0, #1
  44              	.LVL2:
ARM GAS  C:\Users\CHUNGN~1\AppData\Local\Temp\ccSpspjB.s 			page 22


  45 000c FFF7FEFF 		bl	CyDelayUs
  46              	.LVL3:
1154:Generated_Source\PSoC4/I2CM_I2C_MASTER.c ****         --(*timeout);
  47              		.loc 1 1154 0
  48 0010 2368     		ldr	r3, [r4]
  49 0012 013B     		subs	r3, r3, #1
  50 0014 2360     		str	r3, [r4]
1155:Generated_Source\PSoC4/I2CM_I2C_MASTER.c **** 
1156:Generated_Source\PSoC4/I2CM_I2C_MASTER.c ****         if (0u == *timeout)
  51              		.loc 1 1156 0
  52 0016 002B     		cmp	r3, #0
  53 0018 03D0     		beq	.L4
1148:Generated_Source\PSoC4/I2CM_I2C_MASTER.c **** 
  54              		.loc 1 1148 0
  55 001a 0020     		movs	r0, #0
  56 001c 03E0     		b	.L2
  57              	.LVL4:
  58              	.L3:
  59 001e 0020     		movs	r0, #0
  60              	.LVL5:
  61 0020 01E0     		b	.L2
  62              	.L4:
1157:Generated_Source\PSoC4/I2CM_I2C_MASTER.c ****         {
1158:Generated_Source\PSoC4/I2CM_I2C_MASTER.c ****             status = I2CM_I2C_MASTER_TIMEOUT;
  63              		.loc 1 1158 0
  64 0022 8020     		movs	r0, #128
  65 0024 0006     		lsls	r0, r0, #24
  66              	.L2:
  67              	.LVL6:
1159:Generated_Source\PSoC4/I2CM_I2C_MASTER.c ****         }
1160:Generated_Source\PSoC4/I2CM_I2C_MASTER.c ****     }
1161:Generated_Source\PSoC4/I2CM_I2C_MASTER.c **** 
1162:Generated_Source\PSoC4/I2CM_I2C_MASTER.c ****     return (status);
1163:Generated_Source\PSoC4/I2CM_I2C_MASTER.c **** }
  68              		.loc 1 1163 0
  69              		@ sp needed
  70              	.LVL7:
  71 0026 10BD     		pop	{r4, pc}
  72              		.cfi_endproc
  73              	.LFE15:
  74              		.size	I2CM_I2CMasterWaitOneUnit, .-I2CM_I2CMasterWaitOneUnit
  75              		.section	.text.I2CM_I2CMasterHandleStatus,"ax",%progbits
  76              		.align	2
  77              		.code	16
  78              		.thumb_func
  79              		.type	I2CM_I2CMasterHandleStatus, %function
  80              	I2CM_I2CMasterHandleStatus:
  81              	.LFB14:
1050:Generated_Source\PSoC4/I2CM_I2C_MASTER.c ****     uint32 retStatus;
  82              		.loc 1 1050 0
  83              		.cfi_startproc
  84              		@ args = 0, pretend = 0, frame = 0
  85              		@ frame_needed = 0, uses_anonymous_args = 0
  86              	.LVL8:
  87 0000 10B5     		push	{r4, lr}
  88              		.cfi_def_cfa_offset 8
  89              		.cfi_offset 4, -8
ARM GAS  C:\Users\CHUNGN~1\AppData\Local\Temp\ccSpspjB.s 			page 23


  90              		.cfi_offset 14, -4
  91              	.LVL9:
1054:Generated_Source\PSoC4/I2CM_I2C_MASTER.c ****     {
  92              		.loc 1 1054 0
  93 0002 0028     		cmp	r0, #0
  94 0004 39DB     		blt	.L14
1059:Generated_Source\PSoC4/I2CM_I2C_MASTER.c ****     {
  95              		.loc 1 1059 0
  96 0006 C023     		movs	r3, #192
  97 0008 0342     		tst	r3, r0
  98 000a 08D0     		beq	.L7
  99              	.LVL10:
1064:Generated_Source\PSoC4/I2CM_I2C_MASTER.c **** 
 100              		.loc 1 1064 0
 101 000c 0022     		movs	r2, #0
 102 000e 284B     		ldr	r3, .L21
 103 0010 1A60     		str	r2, [r3]
1066:Generated_Source\PSoC4/I2CM_I2C_MASTER.c ****     }
 104              		.loc 1 1066 0
 105 0012 1032     		adds	r2, r2, #16
 106 0014 274B     		ldr	r3, .L21+4
 107 0016 1A70     		strb	r2, [r3]
1052:Generated_Source\PSoC4/I2CM_I2C_MASTER.c **** 
 108              		.loc 1 1052 0
 109 0018 0023     		movs	r3, #0
1062:Generated_Source\PSoC4/I2CM_I2C_MASTER.c **** 
 110              		.loc 1 1062 0
 111 001a 1024     		movs	r4, #16
 112 001c 3DE0     		b	.L6
 113              	.LVL11:
 114              	.L7:
1068:Generated_Source\PSoC4/I2CM_I2C_MASTER.c ****     {
 115              		.loc 1 1068 0
 116 001e C307     		lsls	r3, r0, #31
 117 0020 0FD5     		bpl	.L8
 118              	.LVL12:
1072:Generated_Source\PSoC4/I2CM_I2C_MASTER.c ****         {
 119              		.loc 1 1072 0
 120 0022 244B     		ldr	r3, .L21+4
 121 0024 1B78     		ldrb	r3, [r3]
 122 0026 1B07     		lsls	r3, r3, #28
 123 0028 2BD5     		bpl	.L15
1075:Generated_Source\PSoC4/I2CM_I2C_MASTER.c ****             {
 124              		.loc 1 1075 0
 125 002a 234B     		ldr	r3, .L21+8
 126 002c 1B68     		ldr	r3, [r3]
 127 002e 5B00     		lsls	r3, r3, #1
 128 0030 01D5     		bpl	.L16
1052:Generated_Source\PSoC4/I2CM_I2C_MASTER.c **** 
 129              		.loc 1 1052 0
 130 0032 0023     		movs	r3, #0
 131 0034 00E0     		b	.L9
 132              	.L16:
1077:Generated_Source\PSoC4/I2CM_I2C_MASTER.c ****             }
 133              		.loc 1 1077 0
 134 0036 0123     		movs	r3, #1
 135              	.L9:
ARM GAS  C:\Users\CHUNGN~1\AppData\Local\Temp\ccSpspjB.s 			page 24


 136              	.LVL13:
1080:Generated_Source\PSoC4/I2CM_I2C_MASTER.c ****         }
 137              		.loc 1 1080 0
 138 0038 1021     		movs	r1, #16
 139 003a 1E4A     		ldr	r2, .L21+4
 140 003c 1170     		strb	r1, [r2]
1070:Generated_Source\PSoC4/I2CM_I2C_MASTER.c **** 
 141              		.loc 1 1070 0
 142 003e 0124     		movs	r4, #1
 143 0040 2BE0     		b	.L6
 144              	.LVL14:
 145              	.L8:
1088:Generated_Source\PSoC4/I2CM_I2C_MASTER.c ****     {
 146              		.loc 1 1088 0
 147 0042 C305     		lsls	r3, r0, #23
 148 0044 20D4     		bmi	.L17
1093:Generated_Source\PSoC4/I2CM_I2C_MASTER.c ****     {
 149              		.loc 1 1093 0
 150 0046 8307     		lsls	r3, r0, #30
 151 0048 22D4     		bmi	.L18
 152              	.LVL15:
1101:Generated_Source\PSoC4/I2CM_I2C_MASTER.c ****         {
 153              		.loc 1 1101 0
 154 004a C306     		lsls	r3, r0, #27
 155 004c 05D5     		bpl	.L10
1104:Generated_Source\PSoC4/I2CM_I2C_MASTER.c ****         }
 156              		.loc 1 1104 0
 157 004e 1022     		movs	r2, #16
 158 0050 184B     		ldr	r3, .L21+4
 159 0052 1A70     		strb	r2, [r3]
1052:Generated_Source\PSoC4/I2CM_I2C_MASTER.c **** 
 160              		.loc 1 1052 0
 161 0054 0023     		movs	r3, #0
1099:Generated_Source\PSoC4/I2CM_I2C_MASTER.c **** 
 162              		.loc 1 1099 0
 163 0056 0024     		movs	r4, #0
 164 0058 1FE0     		b	.L6
 165              	.L10:
1109:Generated_Source\PSoC4/I2CM_I2C_MASTER.c ****             {
 166              		.loc 1 1109 0
 167 005a 164B     		ldr	r3, .L21+4
 168 005c 1B78     		ldrb	r3, [r3]
 169 005e 1B07     		lsls	r3, r3, #28
 170 0060 19D5     		bpl	.L19
1112:Generated_Source\PSoC4/I2CM_I2C_MASTER.c ****                                           I2CM_I2C_FSM_MSTR_RD_DATA : I2CM_I2C_FSM_MSTR_WR_DATA;
 171              		.loc 1 1112 0
 172 0062 144B     		ldr	r3, .L21+4
 173 0064 1B78     		ldrb	r3, [r3]
 174 0066 DB07     		lsls	r3, r3, #31
 175 0068 01D5     		bpl	.L20
 176 006a 2522     		movs	r2, #37
 177 006c 00E0     		b	.L11
 178              	.L20:
 179 006e 2422     		movs	r2, #36
 180              	.L11:
1112:Generated_Source\PSoC4/I2CM_I2C_MASTER.c ****                                           I2CM_I2C_FSM_MSTR_RD_DATA : I2CM_I2C_FSM_MSTR_WR_DATA;
 181              		.loc 1 1112 0 is_stmt 0 discriminator 4
ARM GAS  C:\Users\CHUNGN~1\AppData\Local\Temp\ccSpspjB.s 			page 25


 182 0070 104B     		ldr	r3, .L21+4
 183 0072 1A70     		strb	r2, [r3]
1052:Generated_Source\PSoC4/I2CM_I2C_MASTER.c **** 
 184              		.loc 1 1052 0 is_stmt 1 discriminator 4
 185 0074 0023     		movs	r3, #0
1099:Generated_Source\PSoC4/I2CM_I2C_MASTER.c **** 
 186              		.loc 1 1099 0 discriminator 4
 187 0076 0024     		movs	r4, #0
 188 0078 0FE0     		b	.L6
 189              	.LVL16:
 190              	.L14:
1057:Generated_Source\PSoC4/I2CM_I2C_MASTER.c ****     }
 191              		.loc 1 1057 0
 192 007a 0123     		movs	r3, #1
1056:Generated_Source\PSoC4/I2CM_I2C_MASTER.c ****         resetBlock = I2CM_I2C_RESET_ERROR;
 193              		.loc 1 1056 0
 194 007c 8024     		movs	r4, #128
 195 007e 2406     		lsls	r4, r4, #24
 196 0080 0BE0     		b	.L6
 197              	.LVL17:
 198              	.L15:
1085:Generated_Source\PSoC4/I2CM_I2C_MASTER.c ****         }
 199              		.loc 1 1085 0
 200 0082 0123     		movs	r3, #1
1070:Generated_Source\PSoC4/I2CM_I2C_MASTER.c **** 
 201              		.loc 1 1070 0
 202 0084 0124     		movs	r4, #1
 203 0086 08E0     		b	.L6
 204              	.LVL18:
 205              	.L17:
1091:Generated_Source\PSoC4/I2CM_I2C_MASTER.c ****     }
 206              		.loc 1 1091 0
 207 0088 0123     		movs	r3, #1
1090:Generated_Source\PSoC4/I2CM_I2C_MASTER.c ****         resetBlock = I2CM_I2C_RESET_ERROR;
 208              		.loc 1 1090 0
 209 008a 8024     		movs	r4, #128
 210 008c 6400     		lsls	r4, r4, #1
 211 008e 04E0     		b	.L6
 212              	.L18:
1052:Generated_Source\PSoC4/I2CM_I2C_MASTER.c **** 
 213              		.loc 1 1052 0
 214 0090 0023     		movs	r3, #0
1095:Generated_Source\PSoC4/I2CM_I2C_MASTER.c ****     }
 215              		.loc 1 1095 0
 216 0092 0224     		movs	r4, #2
 217 0094 01E0     		b	.L6
 218              	.LVL19:
 219              	.L19:
1052:Generated_Source\PSoC4/I2CM_I2C_MASTER.c **** 
 220              		.loc 1 1052 0
 221 0096 0023     		movs	r3, #0
1099:Generated_Source\PSoC4/I2CM_I2C_MASTER.c **** 
 222              		.loc 1 1099 0
 223 0098 0024     		movs	r4, #0
 224              	.LVL20:
 225              	.L6:
1118:Generated_Source\PSoC4/I2CM_I2C_MASTER.c ****     {
ARM GAS  C:\Users\CHUNGN~1\AppData\Local\Temp\ccSpspjB.s 			page 26


 226              		.loc 1 1118 0
 227 009a 012B     		cmp	r3, #1
 228 009c 02D1     		bne	.L12
1120:Generated_Source\PSoC4/I2CM_I2C_MASTER.c ****     }
 229              		.loc 1 1120 0
 230 009e FFF7FEFF 		bl	I2CM_I2CFwBlockReset
 231              	.LVL21:
 232 00a2 02E0     		b	.L13
 233              	.LVL22:
 234              	.L12:
1124:Generated_Source\PSoC4/I2CM_I2C_MASTER.c ****     }
 235              		.loc 1 1124 0
 236 00a4 054A     		ldr	r2, .L21+12
 237 00a6 064B     		ldr	r3, .L21+16
 238              	.LVL23:
 239 00a8 1A60     		str	r2, [r3]
 240              	.LVL24:
 241              	.L13:
1128:Generated_Source\PSoC4/I2CM_I2C_MASTER.c **** 
 242              		.loc 1 1128 0
 243 00aa 2000     		movs	r0, r4
 244              		@ sp needed
 245              	.LVL25:
 246 00ac 10BD     		pop	{r4, pc}
 247              	.L22:
 248 00ae C046     		.align	2
 249              	.L21:
 250 00b0 68000640 		.word	1074135144
 251 00b4 00000000 		.word	I2CM_state
 252 00b8 60000640 		.word	1074135136
 253 00bc 17030000 		.word	791
 254 00c0 000F0640 		.word	1074138880
 255              		.cfi_endproc
 256              	.LFE14:
 257              		.size	I2CM_I2CMasterHandleStatus, .-I2CM_I2CMasterHandleStatus
 258              		.section	.text.I2CM_I2CMasterSendStart,"ax",%progbits
 259              		.align	2
 260              		.global	I2CM_I2CMasterSendStart
 261              		.code	16
 262              		.thumb_func
 263              		.type	I2CM_I2CMasterSendStart, %function
 264              	I2CM_I2CMasterSendStart:
 265              	.LFB2:
 346:Generated_Source\PSoC4/I2CM_I2C_MASTER.c ****     uint32 errStatus = I2CM_I2C_MSTR_NOT_READY;
 266              		.loc 1 346 0
 267              		.cfi_startproc
 268              		@ args = 0, pretend = 0, frame = 8
 269              		@ frame_needed = 0, uses_anonymous_args = 0
 270              	.LVL26:
 271 0000 70B5     		push	{r4, r5, r6, lr}
 272              		.cfi_def_cfa_offset 16
 273              		.cfi_offset 4, -16
 274              		.cfi_offset 5, -12
 275              		.cfi_offset 6, -8
 276              		.cfi_offset 14, -4
 277 0002 82B0     		sub	sp, sp, #8
 278              		.cfi_def_cfa_offset 24
ARM GAS  C:\Users\CHUNGN~1\AppData\Local\Temp\ccSpspjB.s 			page 27


 279 0004 0400     		movs	r4, r0
 280 0006 0D00     		movs	r5, r1
 281 0008 1600     		movs	r6, r2
 282              	.LVL27:
 349:Generated_Source\PSoC4/I2CM_I2C_MASTER.c ****     {
 283              		.loc 1 349 0
 284 000a 244B     		ldr	r3, .L31
 285 000c 1B78     		ldrb	r3, [r3]
 286 000e 102B     		cmp	r3, #16
 287 0010 40D1     		bne	.L29
 351:Generated_Source\PSoC4/I2CM_I2C_MASTER.c **** 
 288              		.loc 1 351 0
 289 0012 0520     		movs	r0, #5
 290              	.LVL28:
 291 0014 FFF7FEFF 		bl	CyIntDisable
 292              	.LVL29:
 353:Generated_Source\PSoC4/I2CM_I2C_MASTER.c ****         {
 293              		.loc 1 353 0
 294 0018 214B     		ldr	r3, .L31+4
 295 001a 1B68     		ldr	r3, [r3]
 296 001c DB07     		lsls	r3, r3, #31
 297 001e 34D4     		bmi	.L30
 298              	.LBB2:
 360:Generated_Source\PSoC4/I2CM_I2C_MASTER.c **** 
 299              		.loc 1 360 0
 300 0020 FA23     		movs	r3, #250
 301 0022 9B00     		lsls	r3, r3, #2
 302 0024 5E43     		muls	r6, r3
 303              	.LVL30:
 304 0026 0196     		str	r6, [sp, #4]
 366:Generated_Source\PSoC4/I2CM_I2C_MASTER.c ****             I2CM_ClearMasterInterruptSource(I2CM_INTR_MASTER_ALL);
 305              		.loc 1 366 0
 306 0028 0022     		movs	r2, #0
 307 002a 1E4B     		ldr	r3, .L31+8
 308 002c 1A60     		str	r2, [r3]
 367:Generated_Source\PSoC4/I2CM_I2C_MASTER.c ****             I2CM_ClearRxInterruptSource    (I2CM_INTR_RX_ALL);
 309              		.loc 1 367 0
 310 002e 1E4A     		ldr	r2, .L31+12
 311 0030 1E4B     		ldr	r3, .L31+16
 312 0032 1A60     		str	r2, [r3]
 368:Generated_Source\PSoC4/I2CM_I2C_MASTER.c **** 
 313              		.loc 1 368 0
 314 0034 1E4A     		ldr	r2, .L31+20
 315 0036 1F4B     		ldr	r3, .L31+24
 316 0038 1A60     		str	r2, [r3]
 370:Generated_Source\PSoC4/I2CM_I2C_MASTER.c **** 
 317              		.loc 1 370 0
 318 003a 6400     		lsls	r4, r4, #1
 319              	.LVL31:
 320 003c FF23     		movs	r3, #255
 321 003e 1C40     		ands	r4, r3
 322              	.LVL32:
 372:Generated_Source\PSoC4/I2CM_I2C_MASTER.c ****             {
 323              		.loc 1 372 0
 324 0040 002D     		cmp	r5, #0
 325 0042 03D1     		bne	.L26
 374:Generated_Source\PSoC4/I2CM_I2C_MASTER.c ****             }
ARM GAS  C:\Users\CHUNGN~1\AppData\Local\Temp\ccSpspjB.s 			page 28


 326              		.loc 1 374 0
 327 0044 2422     		movs	r2, #36
 328 0046 154B     		ldr	r3, .L31
 329 0048 1A70     		strb	r2, [r3]
 330 004a 04E0     		b	.L27
 331              	.L26:
 378:Generated_Source\PSoC4/I2CM_I2C_MASTER.c ****                          slaveAddress |= I2CM_I2C_READ_FLAG;
 332              		.loc 1 378 0
 333 004c 2522     		movs	r2, #37
 334 004e 134B     		ldr	r3, .L31
 335 0050 1A70     		strb	r2, [r3]
 379:Generated_Source\PSoC4/I2CM_I2C_MASTER.c ****             }
 336              		.loc 1 379 0
 337 0052 0123     		movs	r3, #1
 338 0054 1C43     		orrs	r4, r3
 339              	.LVL33:
 340              	.L27:
 385:Generated_Source\PSoC4/I2CM_I2C_MASTER.c ****             I2CM_I2C_MASTER_GENERATE_START;
 341              		.loc 1 385 0
 342 0056 184B     		ldr	r3, .L31+28
 343 0058 1C60     		str	r4, [r3]
 386:Generated_Source\PSoC4/I2CM_I2C_MASTER.c **** 
 344              		.loc 1 386 0
 345 005a 0222     		movs	r2, #2
 346 005c 174B     		ldr	r3, .L31+32
 347 005e 1A60     		str	r2, [r3]
 348              	.LVL34:
 349              	.L28:
 391:Generated_Source\PSoC4/I2CM_I2C_MASTER.c ****                 locStatus |= I2CM_GetSlaveInterruptSource() & I2CM_SLAVE_INTR_I2C_ADDR;
 350              		.loc 1 391 0 discriminator 1
 351 0060 124B     		ldr	r3, .L31+16
 352 0062 1C68     		ldr	r4, [r3]
 353 0064 0823     		movs	r3, #8
 354 0066 FF33     		adds	r3, r3, #255
 355 0068 2000     		movs	r0, r4
 356 006a 1840     		ands	r0, r3
 357              	.LVL35:
 392:Generated_Source\PSoC4/I2CM_I2C_MASTER.c ****                 locStatus |= I2CM_I2CMasterWaitOneUnit(&timeout);
 358              		.loc 1 392 0 discriminator 1
 359 006c 144B     		ldr	r3, .L31+36
 360 006e 1B68     		ldr	r3, [r3]
 361 0070 C024     		movs	r4, #192
 362 0072 2340     		ands	r3, r4
 363 0074 1843     		orrs	r0, r3
 364              	.LVL36:
 365 0076 0400     		movs	r4, r0
 366              	.LVL37:
 393:Generated_Source\PSoC4/I2CM_I2C_MASTER.c ****             }
 367              		.loc 1 393 0 discriminator 1
 368 0078 01A8     		add	r0, sp, #4
 369              	.LVL38:
 370 007a FFF7FEFF 		bl	I2CM_I2CMasterWaitOneUnit
 371              	.LVL39:
 372 007e 2043     		orrs	r0, r4
 373              	.LVL40:
 395:Generated_Source\PSoC4/I2CM_I2C_MASTER.c **** 
 374              		.loc 1 395 0 discriminator 1
ARM GAS  C:\Users\CHUNGN~1\AppData\Local\Temp\ccSpspjB.s 			page 29


 375 0080 EED0     		beq	.L28
 398:Generated_Source\PSoC4/I2CM_I2C_MASTER.c ****         }
 376              		.loc 1 398 0
 377 0082 FFF7FEFF 		bl	I2CM_I2CMasterHandleStatus
 378              	.LVL41:
 379 0086 0400     		movs	r4, r0
 380              	.LVL42:
 381 0088 00E0     		b	.L25
 382              	.LVL43:
 383              	.L30:
 384              	.LBE2:
 355:Generated_Source\PSoC4/I2CM_I2C_MASTER.c ****         }
 385              		.loc 1 355 0
 386 008a 0824     		movs	r4, #8
 387              	.LVL44:
 388              	.L25:
 401:Generated_Source\PSoC4/I2CM_I2C_MASTER.c ****     }
 389              		.loc 1 401 0
 390 008c 0520     		movs	r0, #5
 391 008e FFF7FEFF 		bl	CyIntEnable
 392              	.LVL45:
 393 0092 00E0     		b	.L24
 394              	.LVL46:
 395              	.L29:
 347:Generated_Source\PSoC4/I2CM_I2C_MASTER.c **** 
 396              		.loc 1 347 0
 397 0094 0424     		movs	r4, #4
 398              	.LVL47:
 399              	.L24:
 405:Generated_Source\PSoC4/I2CM_I2C_MASTER.c **** 
 400              		.loc 1 405 0
 401 0096 2000     		movs	r0, r4
 402 0098 02B0     		add	sp, sp, #8
 403              		@ sp needed
 404              	.LVL48:
 405              	.LVL49:
 406 009a 70BD     		pop	{r4, r5, r6, pc}
 407              	.L32:
 408              		.align	2
 409              	.L31:
 410 009c 00000000 		.word	I2CM_state
 411 00a0 64000640 		.word	1074135140
 412 00a4 080F0640 		.word	1074138888
 413 00a8 17030000 		.word	791
 414 00ac 000F0640 		.word	1074138880
 415 00b0 ED0F0000 		.word	4077
 416 00b4 C00F0640 		.word	1074139072
 417 00b8 40020640 		.word	1074135616
 418 00bc 68000640 		.word	1074135144
 419 00c0 400F0640 		.word	1074138944
 420              		.cfi_endproc
 421              	.LFE2:
 422              		.size	I2CM_I2CMasterSendStart, .-I2CM_I2CMasterSendStart
 423              		.section	.text.I2CM_I2CMasterSendStop,"ax",%progbits
 424              		.align	2
 425              		.global	I2CM_I2CMasterSendStop
 426              		.code	16
ARM GAS  C:\Users\CHUNGN~1\AppData\Local\Temp\ccSpspjB.s 			page 30


 427              		.thumb_func
 428              		.type	I2CM_I2CMasterSendStop, %function
 429              	I2CM_I2CMasterSendStop:
 430              	.LFB4:
 524:Generated_Source\PSoC4/I2CM_I2C_MASTER.c ****     uint32 errStatus = I2CM_I2C_MSTR_NOT_READY;
 431              		.loc 1 524 0
 432              		.cfi_startproc
 433              		@ args = 0, pretend = 0, frame = 8
 434              		@ frame_needed = 0, uses_anonymous_args = 0
 435              	.LVL50:
 436 0000 10B5     		push	{r4, lr}
 437              		.cfi_def_cfa_offset 8
 438              		.cfi_offset 4, -8
 439              		.cfi_offset 14, -4
 440 0002 82B0     		sub	sp, sp, #8
 441              		.cfi_def_cfa_offset 16
 442              	.LVL51:
 528:Generated_Source\PSoC4/I2CM_I2C_MASTER.c ****     {
 443              		.loc 1 528 0
 444 0004 104B     		ldr	r3, .L39
 445 0006 1B78     		ldrb	r3, [r3]
 446 0008 9B06     		lsls	r3, r3, #26
 447 000a 1AD5     		bpl	.L37
 448              	.LBB3:
 531:Generated_Source\PSoC4/I2CM_I2C_MASTER.c **** 
 449              		.loc 1 531 0
 450 000c FA23     		movs	r3, #250
 451 000e 9B00     		lsls	r3, r3, #2
 452 0010 5843     		muls	r0, r3
 453              	.LVL52:
 454 0012 0190     		str	r0, [sp, #4]
 534:Generated_Source\PSoC4/I2CM_I2C_MASTER.c **** 
 455              		.loc 1 534 0
 456 0014 0D4B     		ldr	r3, .L39+4
 457 0016 1B68     		ldr	r3, [r3]
 458 0018 9B06     		lsls	r3, r3, #26
 459 001a 01D5     		bpl	.L38
 460 001c 1822     		movs	r2, #24
 461 001e 00E0     		b	.L35
 462              	.L38:
 463 0020 1022     		movs	r2, #16
 464              	.L35:
 534:Generated_Source\PSoC4/I2CM_I2C_MASTER.c **** 
 465              		.loc 1 534 0 is_stmt 0 discriminator 4
 466 0022 0B4B     		ldr	r3, .L39+8
 467 0024 1A60     		str	r2, [r3]
 468              	.L36:
 539:Generated_Source\PSoC4/I2CM_I2C_MASTER.c ****             locStatus |= I2CM_I2CMasterWaitOneUnit(&timeout);
 469              		.loc 1 539 0 is_stmt 1 discriminator 1
 470 0026 0B4B     		ldr	r3, .L39+12
 471 0028 1868     		ldr	r0, [r3]
 472 002a 1223     		movs	r3, #18
 473 002c FF33     		adds	r3, r3, #255
 474 002e 1840     		ands	r0, r3
 475 0030 0400     		movs	r4, r0
 476              	.LVL53:
 540:Generated_Source\PSoC4/I2CM_I2C_MASTER.c ****         }
ARM GAS  C:\Users\CHUNGN~1\AppData\Local\Temp\ccSpspjB.s 			page 31


 477              		.loc 1 540 0 discriminator 1
 478 0032 01A8     		add	r0, sp, #4
 479              	.LVL54:
 480 0034 FFF7FEFF 		bl	I2CM_I2CMasterWaitOneUnit
 481              	.LVL55:
 482 0038 2043     		orrs	r0, r4
 483              	.LVL56:
 542:Generated_Source\PSoC4/I2CM_I2C_MASTER.c **** 
 484              		.loc 1 542 0 discriminator 1
 485 003a F4D0     		beq	.L36
 545:Generated_Source\PSoC4/I2CM_I2C_MASTER.c ****     }
 486              		.loc 1 545 0
 487 003c FFF7FEFF 		bl	I2CM_I2CMasterHandleStatus
 488              	.LVL57:
 489 0040 00E0     		b	.L34
 490              	.LVL58:
 491              	.L37:
 492              	.LBE3:
 525:Generated_Source\PSoC4/I2CM_I2C_MASTER.c **** 
 493              		.loc 1 525 0
 494 0042 0420     		movs	r0, #4
 495              	.LVL59:
 496              	.L34:
 549:Generated_Source\PSoC4/I2CM_I2C_MASTER.c **** 
 497              		.loc 1 549 0
 498 0044 02B0     		add	sp, sp, #8
 499              		@ sp needed
 500 0046 10BD     		pop	{r4, pc}
 501              	.L40:
 502              		.align	2
 503              	.L39:
 504 0048 00000000 		.word	I2CM_state
 505 004c 64000640 		.word	1074135140
 506 0050 68000640 		.word	1074135144
 507 0054 000F0640 		.word	1074138880
 508              		.cfi_endproc
 509              	.LFE4:
 510              		.size	I2CM_I2CMasterSendStop, .-I2CM_I2CMasterSendStop
 511              		.section	.text.I2CM_I2CMasterWriteByte,"ax",%progbits
 512              		.align	2
 513              		.global	I2CM_I2CMasterWriteByte
 514              		.code	16
 515              		.thumb_func
 516              		.type	I2CM_I2CMasterWriteByte, %function
 517              	I2CM_I2CMasterWriteByte:
 518              	.LFB5:
 583:Generated_Source\PSoC4/I2CM_I2C_MASTER.c ****     uint32 errStatus = I2CM_I2C_MSTR_NOT_READY;
 519              		.loc 1 583 0
 520              		.cfi_startproc
 521              		@ args = 0, pretend = 0, frame = 8
 522              		@ frame_needed = 0, uses_anonymous_args = 0
 523              	.LVL60:
 524 0000 10B5     		push	{r4, lr}
 525              		.cfi_def_cfa_offset 8
 526              		.cfi_offset 4, -8
 527              		.cfi_offset 14, -4
 528 0002 82B0     		sub	sp, sp, #8
ARM GAS  C:\Users\CHUNGN~1\AppData\Local\Temp\ccSpspjB.s 			page 32


 529              		.cfi_def_cfa_offset 16
 530              	.LVL61:
 587:Generated_Source\PSoC4/I2CM_I2C_MASTER.c ****     {
 531              		.loc 1 587 0
 532 0004 0D4B     		ldr	r3, .L45
 533 0006 1B78     		ldrb	r3, [r3]
 534 0008 9B06     		lsls	r3, r3, #26
 535 000a 13D5     		bpl	.L44
 536              	.LBB4:
 590:Generated_Source\PSoC4/I2CM_I2C_MASTER.c **** 
 537              		.loc 1 590 0
 538 000c FA23     		movs	r3, #250
 539 000e 9B00     		lsls	r3, r3, #2
 540 0010 5943     		muls	r1, r3
 541              	.LVL62:
 542 0012 0191     		str	r1, [sp, #4]
 592:Generated_Source\PSoC4/I2CM_I2C_MASTER.c **** 
 543              		.loc 1 592 0
 544 0014 0A4B     		ldr	r3, .L45+4
 545 0016 1860     		str	r0, [r3]
 546              	.LVL63:
 547              	.L43:
 597:Generated_Source\PSoC4/I2CM_I2C_MASTER.c ****             locStatus |= I2CM_I2CMasterWaitOneUnit(&timeout);
 548              		.loc 1 597 0 discriminator 1
 549 0018 0A4B     		ldr	r3, .L45+8
 550 001a 1868     		ldr	r0, [r3]
 551 001c 0823     		movs	r3, #8
 552 001e FF33     		adds	r3, r3, #255
 553 0020 1840     		ands	r0, r3
 554 0022 0400     		movs	r4, r0
 555              	.LVL64:
 598:Generated_Source\PSoC4/I2CM_I2C_MASTER.c ****         }
 556              		.loc 1 598 0 discriminator 1
 557 0024 01A8     		add	r0, sp, #4
 558              	.LVL65:
 559 0026 FFF7FEFF 		bl	I2CM_I2CMasterWaitOneUnit
 560              	.LVL66:
 561 002a 2043     		orrs	r0, r4
 562              	.LVL67:
 600:Generated_Source\PSoC4/I2CM_I2C_MASTER.c **** 
 563              		.loc 1 600 0 discriminator 1
 564 002c F4D0     		beq	.L43
 603:Generated_Source\PSoC4/I2CM_I2C_MASTER.c ****     }
 565              		.loc 1 603 0
 566 002e FFF7FEFF 		bl	I2CM_I2CMasterHandleStatus
 567              	.LVL68:
 568 0032 00E0     		b	.L42
 569              	.LVL69:
 570              	.L44:
 571              	.LBE4:
 584:Generated_Source\PSoC4/I2CM_I2C_MASTER.c **** 
 572              		.loc 1 584 0
 573 0034 0420     		movs	r0, #4
 574              	.LVL70:
 575              	.L42:
 607:Generated_Source\PSoC4/I2CM_I2C_MASTER.c **** 
 576              		.loc 1 607 0
ARM GAS  C:\Users\CHUNGN~1\AppData\Local\Temp\ccSpspjB.s 			page 33


 577 0036 02B0     		add	sp, sp, #8
 578              		@ sp needed
 579 0038 10BD     		pop	{r4, pc}
 580              	.L46:
 581 003a C046     		.align	2
 582              	.L45:
 583 003c 00000000 		.word	I2CM_state
 584 0040 40020640 		.word	1074135616
 585 0044 000F0640 		.word	1074138880
 586              		.cfi_endproc
 587              	.LFE5:
 588              		.size	I2CM_I2CMasterWriteByte, .-I2CM_I2CMasterWriteByte
 589              		.section	.text.I2CM_I2CMasterReadByte,"ax",%progbits
 590              		.align	2
 591              		.global	I2CM_I2CMasterReadByte
 592              		.code	16
 593              		.thumb_func
 594              		.type	I2CM_I2CMasterReadByte, %function
 595              	I2CM_I2CMasterReadByte:
 596              	.LFB6:
 654:Generated_Source\PSoC4/I2CM_I2C_MASTER.c ****     uint32 errStatus = I2CM_I2C_MSTR_NOT_READY;
 597              		.loc 1 654 0
 598              		.cfi_startproc
 599              		@ args = 0, pretend = 0, frame = 8
 600              		@ frame_needed = 0, uses_anonymous_args = 0
 601              	.LVL71:
 602 0000 F0B5     		push	{r4, r5, r6, r7, lr}
 603              		.cfi_def_cfa_offset 20
 604              		.cfi_offset 4, -20
 605              		.cfi_offset 5, -16
 606              		.cfi_offset 6, -12
 607              		.cfi_offset 7, -8
 608              		.cfi_offset 14, -4
 609 0002 83B0     		sub	sp, sp, #12
 610              		.cfi_def_cfa_offset 32
 611 0004 0400     		movs	r4, r0
 612 0006 0D00     		movs	r5, r1
 613              	.LVL72:
 658:Generated_Source\PSoC4/I2CM_I2C_MASTER.c ****     {
 614              		.loc 1 658 0
 615 0008 164B     		ldr	r3, .L53
 616 000a 1B78     		ldrb	r3, [r3]
 617 000c 9B06     		lsls	r3, r3, #26
 618 000e 26D5     		bpl	.L52
 619              	.LBB5:
 662:Generated_Source\PSoC4/I2CM_I2C_MASTER.c **** 
 620              		.loc 1 662 0
 621 0010 FA23     		movs	r3, #250
 622 0012 9B00     		lsls	r3, r3, #2
 623 0014 5A43     		muls	r2, r3
 624              	.LVL73:
 625 0016 0192     		str	r2, [sp, #4]
 626              	.LVL74:
 627              	.L49:
 667:Generated_Source\PSoC4/I2CM_I2C_MASTER.c ****             rxNotEmpty = I2CM_GetRxInterruptSource() & I2CM_INTR_RX_NOT_EMPTY;
 628              		.loc 1 667 0 discriminator 1
 629 0018 134B     		ldr	r3, .L53+4
ARM GAS  C:\Users\CHUNGN~1\AppData\Local\Temp\ccSpspjB.s 			page 34


 630 001a 1868     		ldr	r0, [r3]
 631 001c 0223     		movs	r3, #2
 632 001e FF33     		adds	r3, r3, #255
 633 0020 1840     		ands	r0, r3
 634 0022 0700     		movs	r7, r0
 635              	.LVL75:
 668:Generated_Source\PSoC4/I2CM_I2C_MASTER.c ****             locStatus |= I2CM_I2CMasterWaitOneUnit(&timeout);
 636              		.loc 1 668 0 discriminator 1
 637 0024 114B     		ldr	r3, .L53+8
 638 0026 1B68     		ldr	r3, [r3]
 639 0028 0426     		movs	r6, #4
 640 002a 1E40     		ands	r6, r3
 641              	.LVL76:
 669:Generated_Source\PSoC4/I2CM_I2C_MASTER.c ****         }
 642              		.loc 1 669 0 discriminator 1
 643 002c 01A8     		add	r0, sp, #4
 644              	.LVL77:
 645 002e FFF7FEFF 		bl	I2CM_I2CMasterWaitOneUnit
 646              	.LVL78:
 647 0032 3843     		orrs	r0, r7
 648              	.LVL79:
 671:Generated_Source\PSoC4/I2CM_I2C_MASTER.c **** 
 649              		.loc 1 671 0 discriminator 1
 650 0034 3300     		movs	r3, r6
 651 0036 0343     		orrs	r3, r0
 652 0038 EED0     		beq	.L49
 674:Generated_Source\PSoC4/I2CM_I2C_MASTER.c ****         {
 653              		.loc 1 674 0
 654 003a 002E     		cmp	r6, #0
 655 003c 05D0     		beq	.L50
 676:Generated_Source\PSoC4/I2CM_I2C_MASTER.c ****             I2CM_ClearRxInterruptSource(I2CM_INTR_RX_ALL);
 656              		.loc 1 676 0
 657 003e 0C4B     		ldr	r3, .L53+12
 658 0040 1B68     		ldr	r3, [r3]
 659 0042 2B70     		strb	r3, [r5]
 677:Generated_Source\PSoC4/I2CM_I2C_MASTER.c ****         }
 660              		.loc 1 677 0
 661 0044 0B4A     		ldr	r2, .L53+16
 662 0046 094B     		ldr	r3, .L53+8
 663 0048 1A60     		str	r2, [r3]
 664              	.L50:
 681:Generated_Source\PSoC4/I2CM_I2C_MASTER.c **** 
 665              		.loc 1 681 0
 666 004a FFF7FEFF 		bl	I2CM_I2CMasterHandleStatus
 667              	.LVL80:
 683:Generated_Source\PSoC4/I2CM_I2C_MASTER.c ****         {
 668              		.loc 1 683 0
 669 004e 0028     		cmp	r0, #0
 670 0050 06D1     		bne	.L48
 685:Generated_Source\PSoC4/I2CM_I2C_MASTER.c ****             {
 671              		.loc 1 685 0
 672 0052 002C     		cmp	r4, #0
 673 0054 04D1     		bne	.L48
 687:Generated_Source\PSoC4/I2CM_I2C_MASTER.c ****             }
 674              		.loc 1 687 0
 675 0056 0422     		movs	r2, #4
 676 0058 074B     		ldr	r3, .L53+20
ARM GAS  C:\Users\CHUNGN~1\AppData\Local\Temp\ccSpspjB.s 			page 35


 677 005a 1A60     		str	r2, [r3]
 678 005c 00E0     		b	.L48
 679              	.LVL81:
 680              	.L52:
 681              	.LBE5:
 655:Generated_Source\PSoC4/I2CM_I2C_MASTER.c **** 
 682              		.loc 1 655 0
 683 005e 0420     		movs	r0, #4
 684              	.LVL82:
 685              	.L48:
 697:Generated_Source\PSoC4/I2CM_I2C_MASTER.c **** 
 686              		.loc 1 697 0
 687 0060 03B0     		add	sp, sp, #12
 688              		@ sp needed
 689              	.LVL83:
 690              	.LVL84:
 691 0062 F0BD     		pop	{r4, r5, r6, r7, pc}
 692              	.L54:
 693              		.align	2
 694              	.L53:
 695 0064 00000000 		.word	I2CM_state
 696 0068 000F0640 		.word	1074138880
 697 006c C00F0640 		.word	1074139072
 698 0070 40030640 		.word	1074135872
 699 0074 ED0F0000 		.word	4077
 700 0078 68000640 		.word	1074135144
 701              		.cfi_endproc
 702              	.LFE6:
 703              		.size	I2CM_I2CMasterReadByte, .-I2CM_I2CMasterReadByte
 704              		.section	.text.I2CM_I2CMasterGetReadBufSize,"ax",%progbits
 705              		.align	2
 706              		.global	I2CM_I2CMasterGetReadBufSize
 707              		.code	16
 708              		.thumb_func
 709              		.type	I2CM_I2CMasterGetReadBufSize, %function
 710              	I2CM_I2CMasterGetReadBufSize:
 711              	.LFB7:
 722:Generated_Source\PSoC4/I2CM_I2C_MASTER.c ****     return(I2CM_mstrRdBufIndex);
 712              		.loc 1 722 0
 713              		.cfi_startproc
 714              		@ args = 0, pretend = 0, frame = 0
 715              		@ frame_needed = 0, uses_anonymous_args = 0
 716              		@ link register save eliminated.
 723:Generated_Source\PSoC4/I2CM_I2C_MASTER.c **** }
 717              		.loc 1 723 0
 718 0000 014B     		ldr	r3, .L56
 719 0002 1868     		ldr	r0, [r3]
 724:Generated_Source\PSoC4/I2CM_I2C_MASTER.c **** 
 720              		.loc 1 724 0
 721              		@ sp needed
 722 0004 7047     		bx	lr
 723              	.L57:
 724 0006 C046     		.align	2
 725              	.L56:
 726 0008 00000000 		.word	I2CM_mstrRdBufIndex
 727              		.cfi_endproc
 728              	.LFE7:
ARM GAS  C:\Users\CHUNGN~1\AppData\Local\Temp\ccSpspjB.s 			page 36


 729              		.size	I2CM_I2CMasterGetReadBufSize, .-I2CM_I2CMasterGetReadBufSize
 730              		.section	.text.I2CM_I2CMasterGetWriteBufSize,"ax",%progbits
 731              		.align	2
 732              		.global	I2CM_I2CMasterGetWriteBufSize
 733              		.code	16
 734              		.thumb_func
 735              		.type	I2CM_I2CMasterGetWriteBufSize, %function
 736              	I2CM_I2CMasterGetWriteBufSize:
 737              	.LFB8:
 749:Generated_Source\PSoC4/I2CM_I2C_MASTER.c ****     return(I2CM_mstrWrBufIndex);
 738              		.loc 1 749 0
 739              		.cfi_startproc
 740              		@ args = 0, pretend = 0, frame = 0
 741              		@ frame_needed = 0, uses_anonymous_args = 0
 742              		@ link register save eliminated.
 750:Generated_Source\PSoC4/I2CM_I2C_MASTER.c **** }
 743              		.loc 1 750 0
 744 0000 014B     		ldr	r3, .L59
 745 0002 1868     		ldr	r0, [r3]
 751:Generated_Source\PSoC4/I2CM_I2C_MASTER.c **** 
 746              		.loc 1 751 0
 747              		@ sp needed
 748 0004 7047     		bx	lr
 749              	.L60:
 750 0006 C046     		.align	2
 751              	.L59:
 752 0008 00000000 		.word	I2CM_mstrWrBufIndex
 753              		.cfi_endproc
 754              	.LFE8:
 755              		.size	I2CM_I2CMasterGetWriteBufSize, .-I2CM_I2CMasterGetWriteBufSize
 756              		.section	.text.I2CM_I2CMasterClearReadBuf,"ax",%progbits
 757              		.align	2
 758              		.global	I2CM_I2CMasterClearReadBuf
 759              		.code	16
 760              		.thumb_func
 761              		.type	I2CM_I2CMasterClearReadBuf, %function
 762              	I2CM_I2CMasterClearReadBuf:
 763              	.LFB9:
 767:Generated_Source\PSoC4/I2CM_I2C_MASTER.c ****     I2CM_DisableInt();  /* Lock from interruption */
 764              		.loc 1 767 0
 765              		.cfi_startproc
 766              		@ args = 0, pretend = 0, frame = 0
 767              		@ frame_needed = 0, uses_anonymous_args = 0
 768 0000 10B5     		push	{r4, lr}
 769              		.cfi_def_cfa_offset 8
 770              		.cfi_offset 4, -8
 771              		.cfi_offset 14, -4
 768:Generated_Source\PSoC4/I2CM_I2C_MASTER.c **** 
 772              		.loc 1 768 0
 773 0002 0520     		movs	r0, #5
 774 0004 FFF7FEFF 		bl	CyIntDisable
 775              	.LVL85:
 770:Generated_Source\PSoC4/I2CM_I2C_MASTER.c ****     I2CM_mstrStatus    &= (uint16) ~I2CM_I2C_MSTAT_RD_CMPLT;
 776              		.loc 1 770 0
 777 0008 0022     		movs	r2, #0
 778 000a 054B     		ldr	r3, .L62
 779 000c 1A60     		str	r2, [r3]
ARM GAS  C:\Users\CHUNGN~1\AppData\Local\Temp\ccSpspjB.s 			page 37


 771:Generated_Source\PSoC4/I2CM_I2C_MASTER.c **** 
 780              		.loc 1 771 0
 781 000e 054A     		ldr	r2, .L62+4
 782 0010 1388     		ldrh	r3, [r2]
 783 0012 0121     		movs	r1, #1
 784 0014 8B43     		bics	r3, r1
 785 0016 1380     		strh	r3, [r2]
 773:Generated_Source\PSoC4/I2CM_I2C_MASTER.c **** }
 786              		.loc 1 773 0
 787 0018 0520     		movs	r0, #5
 788 001a FFF7FEFF 		bl	CyIntEnable
 789              	.LVL86:
 774:Generated_Source\PSoC4/I2CM_I2C_MASTER.c **** 
 790              		.loc 1 774 0
 791              		@ sp needed
 792 001e 10BD     		pop	{r4, pc}
 793              	.L63:
 794              		.align	2
 795              	.L62:
 796 0020 00000000 		.word	I2CM_mstrRdBufIndex
 797 0024 00000000 		.word	I2CM_mstrStatus
 798              		.cfi_endproc
 799              	.LFE9:
 800              		.size	I2CM_I2CMasterClearReadBuf, .-I2CM_I2CMasterClearReadBuf
 801              		.section	.text.I2CM_I2CMasterClearWriteBuf,"ax",%progbits
 802              		.align	2
 803              		.global	I2CM_I2CMasterClearWriteBuf
 804              		.code	16
 805              		.thumb_func
 806              		.type	I2CM_I2CMasterClearWriteBuf, %function
 807              	I2CM_I2CMasterClearWriteBuf:
 808              	.LFB10:
 790:Generated_Source\PSoC4/I2CM_I2C_MASTER.c ****     I2CM_DisableInt();  /* Lock from interruption */
 809              		.loc 1 790 0
 810              		.cfi_startproc
 811              		@ args = 0, pretend = 0, frame = 0
 812              		@ frame_needed = 0, uses_anonymous_args = 0
 813 0000 10B5     		push	{r4, lr}
 814              		.cfi_def_cfa_offset 8
 815              		.cfi_offset 4, -8
 816              		.cfi_offset 14, -4
 791:Generated_Source\PSoC4/I2CM_I2C_MASTER.c **** 
 817              		.loc 1 791 0
 818 0002 0520     		movs	r0, #5
 819 0004 FFF7FEFF 		bl	CyIntDisable
 820              	.LVL87:
 793:Generated_Source\PSoC4/I2CM_I2C_MASTER.c ****     I2CM_mstrStatus    &= (uint16) ~I2CM_I2C_MSTAT_WR_CMPLT;
 821              		.loc 1 793 0
 822 0008 0022     		movs	r2, #0
 823 000a 054B     		ldr	r3, .L65
 824 000c 1A60     		str	r2, [r3]
 794:Generated_Source\PSoC4/I2CM_I2C_MASTER.c **** 
 825              		.loc 1 794 0
 826 000e 054A     		ldr	r2, .L65+4
 827 0010 1388     		ldrh	r3, [r2]
 828 0012 0221     		movs	r1, #2
 829 0014 8B43     		bics	r3, r1
ARM GAS  C:\Users\CHUNGN~1\AppData\Local\Temp\ccSpspjB.s 			page 38


 830 0016 1380     		strh	r3, [r2]
 796:Generated_Source\PSoC4/I2CM_I2C_MASTER.c **** }
 831              		.loc 1 796 0
 832 0018 0520     		movs	r0, #5
 833 001a FFF7FEFF 		bl	CyIntEnable
 834              	.LVL88:
 797:Generated_Source\PSoC4/I2CM_I2C_MASTER.c **** 
 835              		.loc 1 797 0
 836              		@ sp needed
 837 001e 10BD     		pop	{r4, pc}
 838              	.L66:
 839              		.align	2
 840              	.L65:
 841 0020 00000000 		.word	I2CM_mstrWrBufIndex
 842 0024 00000000 		.word	I2CM_mstrStatus
 843              		.cfi_endproc
 844              	.LFE10:
 845              		.size	I2CM_I2CMasterClearWriteBuf, .-I2CM_I2CMasterClearWriteBuf
 846              		.section	.text.I2CM_I2CMasterStatus,"ax",%progbits
 847              		.align	2
 848              		.global	I2CM_I2CMasterStatus
 849              		.code	16
 850              		.thumb_func
 851              		.type	I2CM_I2CMasterStatus, %function
 852              	I2CM_I2CMasterStatus:
 853              	.LFB11:
 842:Generated_Source\PSoC4/I2CM_I2C_MASTER.c ****     uint32 status;
 854              		.loc 1 842 0
 855              		.cfi_startproc
 856              		@ args = 0, pretend = 0, frame = 0
 857              		@ frame_needed = 0, uses_anonymous_args = 0
 858 0000 10B5     		push	{r4, lr}
 859              		.cfi_def_cfa_offset 8
 860              		.cfi_offset 4, -8
 861              		.cfi_offset 14, -4
 845:Generated_Source\PSoC4/I2CM_I2C_MASTER.c **** 
 862              		.loc 1 845 0
 863 0002 0520     		movs	r0, #5
 864 0004 FFF7FEFF 		bl	CyIntDisable
 865              	.LVL89:
 847:Generated_Source\PSoC4/I2CM_I2C_MASTER.c **** 
 866              		.loc 1 847 0
 867 0008 074B     		ldr	r3, .L69
 868 000a 1C88     		ldrh	r4, [r3]
 869 000c A2B2     		uxth	r2, r4
 870 000e 1400     		movs	r4, r2
 871              	.LVL90:
 849:Generated_Source\PSoC4/I2CM_I2C_MASTER.c ****     {
 872              		.loc 1 849 0
 873 0010 064B     		ldr	r3, .L69+4
 874 0012 1B78     		ldrb	r3, [r3]
 875 0014 9B06     		lsls	r3, r3, #26
 876 0016 02D5     		bpl	.L68
 852:Generated_Source\PSoC4/I2CM_I2C_MASTER.c ****     }
 877              		.loc 1 852 0
 878 0018 0423     		movs	r3, #4
 879 001a 1A43     		orrs	r2, r3
ARM GAS  C:\Users\CHUNGN~1\AppData\Local\Temp\ccSpspjB.s 			page 39


 880              	.LVL91:
 881 001c 94B2     		uxth	r4, r2
 882              	.LVL92:
 883              	.L68:
 855:Generated_Source\PSoC4/I2CM_I2C_MASTER.c **** 
 884              		.loc 1 855 0
 885 001e 0520     		movs	r0, #5
 886 0020 FFF7FEFF 		bl	CyIntEnable
 887              	.LVL93:
 858:Generated_Source\PSoC4/I2CM_I2C_MASTER.c **** 
 888              		.loc 1 858 0
 889 0024 2000     		movs	r0, r4
 890              		@ sp needed
 891              	.LVL94:
 892 0026 10BD     		pop	{r4, pc}
 893              	.L70:
 894              		.align	2
 895              	.L69:
 896 0028 00000000 		.word	I2CM_mstrStatus
 897 002c 00000000 		.word	I2CM_state
 898              		.cfi_endproc
 899              	.LFE11:
 900              		.size	I2CM_I2CMasterStatus, .-I2CM_I2CMasterStatus
 901              		.section	.text.I2CM_I2CMasterClearStatus,"ax",%progbits
 902              		.align	2
 903              		.global	I2CM_I2CMasterClearStatus
 904              		.code	16
 905              		.thumb_func
 906              		.type	I2CM_I2CMasterClearStatus, %function
 907              	I2CM_I2CMasterClearStatus:
 908              	.LFB12:
 876:Generated_Source\PSoC4/I2CM_I2C_MASTER.c ****     uint32 status;
 909              		.loc 1 876 0
 910              		.cfi_startproc
 911              		@ args = 0, pretend = 0, frame = 0
 912              		@ frame_needed = 0, uses_anonymous_args = 0
 913 0000 10B5     		push	{r4, lr}
 914              		.cfi_def_cfa_offset 8
 915              		.cfi_offset 4, -8
 916              		.cfi_offset 14, -4
 879:Generated_Source\PSoC4/I2CM_I2C_MASTER.c **** 
 917              		.loc 1 879 0
 918 0002 0520     		movs	r0, #5
 919 0004 FFF7FEFF 		bl	CyIntDisable
 920              	.LVL95:
 882:Generated_Source\PSoC4/I2CM_I2C_MASTER.c ****     I2CM_mstrStatus = I2CM_I2C_MSTAT_CLEAR;
 921              		.loc 1 882 0
 922 0008 044B     		ldr	r3, .L72
 923 000a 1C88     		ldrh	r4, [r3]
 924 000c A4B2     		uxth	r4, r4
 925              	.LVL96:
 883:Generated_Source\PSoC4/I2CM_I2C_MASTER.c **** 
 926              		.loc 1 883 0
 927 000e 0022     		movs	r2, #0
 928 0010 1A80     		strh	r2, [r3]
 885:Generated_Source\PSoC4/I2CM_I2C_MASTER.c **** 
 929              		.loc 1 885 0
ARM GAS  C:\Users\CHUNGN~1\AppData\Local\Temp\ccSpspjB.s 			page 40


 930 0012 0520     		movs	r0, #5
 931 0014 FFF7FEFF 		bl	CyIntEnable
 932              	.LVL97:
 888:Generated_Source\PSoC4/I2CM_I2C_MASTER.c **** 
 933              		.loc 1 888 0
 934 0018 2000     		movs	r0, r4
 935              		@ sp needed
 936              	.LVL98:
 937 001a 10BD     		pop	{r4, pc}
 938              	.L73:
 939              		.align	2
 940              	.L72:
 941 001c 00000000 		.word	I2CM_mstrStatus
 942              		.cfi_endproc
 943              	.LFE12:
 944              		.size	I2CM_I2CMasterClearStatus, .-I2CM_I2CMasterClearStatus
 945              		.section	.text.I2CM_I2CReStartGeneration,"ax",%progbits
 946              		.align	2
 947              		.global	I2CM_I2CReStartGeneration
 948              		.code	16
 949              		.thumb_func
 950              		.type	I2CM_I2CReStartGeneration, %function
 951              	I2CM_I2CReStartGeneration:
 952              	.LFB13:
 920:Generated_Source\PSoC4/I2CM_I2C_MASTER.c **** #if(I2CM_CY_SCBIP_V0)
 953              		.loc 1 920 0
 954              		.cfi_startproc
 955              		@ args = 0, pretend = 0, frame = 0
 956              		@ frame_needed = 0, uses_anonymous_args = 0
 957              		@ link register save eliminated.
 958              	.LVL99:
 997:Generated_Source\PSoC4/I2CM_I2C_MASTER.c ****                 (I2CM_I2C_MASTER_CMD_M_NACK) : (0u);
 959              		.loc 1 997 0
 960 0000 054B     		ldr	r3, .L76
 961 0002 1B68     		ldr	r3, [r3]
 962 0004 2022     		movs	r2, #32
 963 0006 1340     		ands	r3, r2
 998:Generated_Source\PSoC4/I2CM_I2C_MASTER.c **** 
 964              		.loc 1 998 0
 965 0008 00D0     		beq	.L75
 966 000a 0823     		movs	r3, #8
 967              	.L75:
 997:Generated_Source\PSoC4/I2CM_I2C_MASTER.c ****                 (I2CM_I2C_MASTER_CMD_M_NACK) : (0u);
 968              		.loc 1 997 0 discriminator 4
 969 000c 0122     		movs	r2, #1
 970 000e 1343     		orrs	r3, r2
 971              	.LVL100:
1000:Generated_Source\PSoC4/I2CM_I2C_MASTER.c **** #endif /* (I2CM_CY_SCBIP_V1) */
 972              		.loc 1 1000 0 discriminator 4
 973 0010 024A     		ldr	r2, .L76+4
 974 0012 1360     		str	r3, [r2]
1002:Generated_Source\PSoC4/I2CM_I2C_MASTER.c **** 
 975              		.loc 1 1002 0 discriminator 4
 976              		@ sp needed
 977 0014 7047     		bx	lr
 978              	.L77:
 979 0016 C046     		.align	2
ARM GAS  C:\Users\CHUNGN~1\AppData\Local\Temp\ccSpspjB.s 			page 41


 980              	.L76:
 981 0018 64000640 		.word	1074135140
 982 001c 68000640 		.word	1074135144
 983              		.cfi_endproc
 984              	.LFE13:
 985              		.size	I2CM_I2CReStartGeneration, .-I2CM_I2CReStartGeneration
 986              		.section	.text.I2CM_I2CMasterWriteBuf,"ax",%progbits
 987              		.align	2
 988              		.global	I2CM_I2CMasterWriteBuf
 989              		.code	16
 990              		.thumb_func
 991              		.type	I2CM_I2CMasterWriteBuf, %function
 992              	I2CM_I2CMasterWriteBuf:
 993              	.LFB0:
 104:Generated_Source\PSoC4/I2CM_I2C_MASTER.c ****     uint32 errStatus;
 994              		.loc 1 104 0
 995              		.cfi_startproc
 996              		@ args = 0, pretend = 0, frame = 8
 997              		@ frame_needed = 0, uses_anonymous_args = 0
 998              	.LVL101:
 999 0000 F0B5     		push	{r4, r5, r6, r7, lr}
 1000              		.cfi_def_cfa_offset 20
 1001              		.cfi_offset 4, -20
 1002              		.cfi_offset 5, -16
 1003              		.cfi_offset 6, -12
 1004              		.cfi_offset 7, -8
 1005              		.cfi_offset 14, -4
 1006 0002 83B0     		sub	sp, sp, #12
 1007              		.cfi_def_cfa_offset 32
 1008 0004 0190     		str	r0, [sp, #4]
 1009 0006 0C00     		movs	r4, r1
 1010 0008 1700     		movs	r7, r2
 1011 000a 1D00     		movs	r5, r3
 1012              	.LVL102:
 109:Generated_Source\PSoC4/I2CM_I2C_MASTER.c ****     {
 1013              		.loc 1 109 0
 1014 000c 0029     		cmp	r1, #0
 1015 000e 17D0     		beq	.L83
 112:Generated_Source\PSoC4/I2CM_I2C_MASTER.c ****         {
 1016              		.loc 1 112 0
 1017 0010 2A4B     		ldr	r3, .L86
 1018              	.LVL103:
 1019 0012 1B78     		ldrb	r3, [r3]
 1020 0014 102B     		cmp	r3, #16
 1021 0016 08D1     		bne	.L80
 114:Generated_Source\PSoC4/I2CM_I2C_MASTER.c **** 
 1022              		.loc 1 114 0
 1023 0018 0520     		movs	r0, #5
 1024              	.LVL104:
 1025 001a FFF7FEFF 		bl	CyIntDisable
 1026              	.LVL105:
 117:Generated_Source\PSoC4/I2CM_I2C_MASTER.c ****                             I2CM_I2C_MSTR_BUS_BUSY : I2CM_I2C_MSTR_NO_ERROR;
 1027              		.loc 1 117 0
 1028 001e 284B     		ldr	r3, .L86+4
 1029 0020 1B68     		ldr	r3, [r3]
 1030 0022 DB07     		lsls	r3, r3, #31
 1031 0024 0ED5     		bpl	.L84
ARM GAS  C:\Users\CHUNGN~1\AppData\Local\Temp\ccSpspjB.s 			page 42


 1032 0026 0826     		movs	r6, #8
 1033 0028 0FE0     		b	.L79
 1034              	.LVL106:
 1035              	.L80:
 120:Generated_Source\PSoC4/I2CM_I2C_MASTER.c ****         {
 1036              		.loc 1 120 0
 1037 002a 244B     		ldr	r3, .L86
 1038 002c 1B78     		ldrb	r3, [r3]
 1039 002e 602B     		cmp	r3, #96
 1040 0030 0AD1     		bne	.L85
 122:Generated_Source\PSoC4/I2CM_I2C_MASTER.c ****                               errStatus  = I2CM_I2C_MSTR_NO_ERROR;
 1041              		.loc 1 122 0
 1042 0032 244A     		ldr	r2, .L86+8
 1043              	.LVL107:
 1044 0034 1388     		ldrh	r3, [r2]
 1045 0036 0821     		movs	r1, #8
 1046              	.LVL108:
 1047 0038 8B43     		bics	r3, r1
 1048 003a 1380     		strh	r3, [r2]
 1049              	.LVL109:
 123:Generated_Source\PSoC4/I2CM_I2C_MASTER.c ****         }
 1050              		.loc 1 123 0
 1051 003c 0026     		movs	r6, #0
 1052 003e 04E0     		b	.L79
 1053              	.LVL110:
 1054              	.L83:
 107:Generated_Source\PSoC4/I2CM_I2C_MASTER.c **** 
 1055              		.loc 1 107 0
 1056 0040 0426     		movs	r6, #4
 1057 0042 02E0     		b	.L79
 1058              	.LVL111:
 1059              	.L84:
 117:Generated_Source\PSoC4/I2CM_I2C_MASTER.c ****                             I2CM_I2C_MSTR_BUS_BUSY : I2CM_I2C_MSTR_NO_ERROR;
 1060              		.loc 1 117 0
 1061 0044 0026     		movs	r6, #0
 1062 0046 00E0     		b	.L79
 1063              	.LVL112:
 1064              	.L85:
 107:Generated_Source\PSoC4/I2CM_I2C_MASTER.c **** 
 1065              		.loc 1 107 0
 1066 0048 0426     		movs	r6, #4
 1067              	.LVL113:
 1068              	.L79:
 132:Generated_Source\PSoC4/I2CM_I2C_MASTER.c ****     {
 1069              		.loc 1 132 0
 1070 004a 002E     		cmp	r6, #0
 1071 004c 2FD1     		bne	.L81
 138:Generated_Source\PSoC4/I2CM_I2C_MASTER.c ****         I2CM_mstrWrBufIndexTmp = 0u;
 1072              		.loc 1 138 0
 1073 004e 2822     		movs	r2, #40
 1074 0050 1A4B     		ldr	r3, .L86
 1075 0052 1A70     		strb	r2, [r3]
 139:Generated_Source\PSoC4/I2CM_I2C_MASTER.c ****         I2CM_mstrWrBufIndex    = 0u;
 1076              		.loc 1 139 0
 1077 0054 0023     		movs	r3, #0
 1078 0056 1C4A     		ldr	r2, .L86+12
 1079 0058 1360     		str	r3, [r2]
ARM GAS  C:\Users\CHUNGN~1\AppData\Local\Temp\ccSpspjB.s 			page 43


 140:Generated_Source\PSoC4/I2CM_I2C_MASTER.c ****         I2CM_mstrWrBufSize     = cnt;
 1080              		.loc 1 140 0
 1081 005a 1C4A     		ldr	r2, .L86+16
 1082 005c 1360     		str	r3, [r2]
 141:Generated_Source\PSoC4/I2CM_I2C_MASTER.c ****         I2CM_mstrWrBufPtr      = (volatile uint8 *) wrData;
 1083              		.loc 1 141 0
 1084 005e 1C4B     		ldr	r3, .L86+20
 1085 0060 1F60     		str	r7, [r3]
 142:Generated_Source\PSoC4/I2CM_I2C_MASTER.c ****         I2CM_mstrControl       = (uint8) mode;
 1086              		.loc 1 142 0
 1087 0062 1C4B     		ldr	r3, .L86+24
 1088 0064 1C60     		str	r4, [r3]
 143:Generated_Source\PSoC4/I2CM_I2C_MASTER.c **** 
 1089              		.loc 1 143 0
 1090 0066 EAB2     		uxtb	r2, r5
 1091 0068 1B4B     		ldr	r3, .L86+28
 1092 006a 1A70     		strb	r2, [r3]
 145:Generated_Source\PSoC4/I2CM_I2C_MASTER.c **** 
 1093              		.loc 1 145 0
 1094 006c 019B     		ldr	r3, [sp, #4]
 1095 006e 5C00     		lsls	r4, r3, #1
 1096              	.LVL114:
 1097 0070 FF23     		movs	r3, #255
 1098 0072 1C40     		ands	r4, r3
 1099              	.LVL115:
 147:Generated_Source\PSoC4/I2CM_I2C_MASTER.c **** 
 1100              		.loc 1 147 0
 1101 0074 134A     		ldr	r2, .L86+8
 1102 0076 1388     		ldrh	r3, [r2]
 1103 0078 0221     		movs	r1, #2
 1104 007a 8B43     		bics	r3, r1
 1105 007c 1380     		strh	r3, [r2]
 149:Generated_Source\PSoC4/I2CM_I2C_MASTER.c ****         I2CM_ClearMasterInterruptSource(I2CM_INTR_MASTER_ALL);
 1106              		.loc 1 149 0
 1107 007e 4023     		movs	r3, #64
 1108 0080 164A     		ldr	r2, .L86+32
 1109 0082 1360     		str	r3, [r2]
 1110              	.LVL116:
 150:Generated_Source\PSoC4/I2CM_I2C_MASTER.c ****         I2CM_SetMasterInterruptMode    (I2CM_I2C_INTR_MASTER_MASK);
 1111              		.loc 1 150 0
 1112 0084 1649     		ldr	r1, .L86+36
 1113 0086 174A     		ldr	r2, .L86+40
 1114 0088 1160     		str	r1, [r2]
 151:Generated_Source\PSoC4/I2CM_I2C_MASTER.c **** 
 1115              		.loc 1 151 0
 1116 008a 1421     		movs	r1, #20
 1117 008c FF31     		adds	r1, r1, #255
 1118 008e 164A     		ldr	r2, .L86+44
 1119 0090 1160     		str	r1, [r2]
 156:Generated_Source\PSoC4/I2CM_I2C_MASTER.c **** 
 1120              		.loc 1 156 0
 1121 0092 164A     		ldr	r2, .L86+48
 1122 0094 1360     		str	r3, [r2]
 159:Generated_Source\PSoC4/I2CM_I2C_MASTER.c ****         {
 1123              		.loc 1 159 0
 1124 0096 EB07     		lsls	r3, r5, #31
 1125 0098 04D5     		bpl	.L82
ARM GAS  C:\Users\CHUNGN~1\AppData\Local\Temp\ccSpspjB.s 			page 44


 161:Generated_Source\PSoC4/I2CM_I2C_MASTER.c ****             I2CM_TX_FIFO_WR_REG = slaveAddress;
 1126              		.loc 1 161 0
 1127 009a FFF7FEFF 		bl	I2CM_I2CReStartGeneration
 1128              	.LVL117:
 162:Generated_Source\PSoC4/I2CM_I2C_MASTER.c ****         }
 1129              		.loc 1 162 0
 1130 009e 144B     		ldr	r3, .L86+52
 1131 00a0 1C60     		str	r4, [r3]
 1132 00a2 04E0     		b	.L81
 1133              	.L82:
 166:Generated_Source\PSoC4/I2CM_I2C_MASTER.c ****             I2CM_I2C_MASTER_GENERATE_START;
 1134              		.loc 1 166 0
 1135 00a4 124B     		ldr	r3, .L86+52
 1136 00a6 1C60     		str	r4, [r3]
 167:Generated_Source\PSoC4/I2CM_I2C_MASTER.c ****         }
 1137              		.loc 1 167 0
 1138 00a8 0222     		movs	r2, #2
 1139 00aa 124B     		ldr	r3, .L86+56
 1140 00ac 1A60     		str	r2, [r3]
 1141              	.LVL118:
 1142              	.L81:
 171:Generated_Source\PSoC4/I2CM_I2C_MASTER.c **** 
 1143              		.loc 1 171 0
 1144 00ae 0520     		movs	r0, #5
 1145 00b0 FFF7FEFF 		bl	CyIntEnable
 1146              	.LVL119:
 174:Generated_Source\PSoC4/I2CM_I2C_MASTER.c **** 
 1147              		.loc 1 174 0
 1148 00b4 3000     		movs	r0, r6
 1149 00b6 03B0     		add	sp, sp, #12
 1150              		@ sp needed
 1151              	.LVL120:
 1152              	.LVL121:
 1153              	.LVL122:
 1154 00b8 F0BD     		pop	{r4, r5, r6, r7, pc}
 1155              	.L87:
 1156 00ba C046     		.align	2
 1157              	.L86:
 1158 00bc 00000000 		.word	I2CM_state
 1159 00c0 64000640 		.word	1074135140
 1160 00c4 00000000 		.word	I2CM_mstrStatus
 1161 00c8 00000000 		.word	I2CM_mstrWrBufIndexTmp
 1162 00cc 00000000 		.word	I2CM_mstrWrBufIndex
 1163 00d0 00000000 		.word	I2CM_mstrWrBufSize
 1164 00d4 00000000 		.word	I2CM_mstrWrBufPtr
 1165 00d8 00000000 		.word	I2CM_mstrControl
 1166 00dc 800F0640 		.word	1074139008
 1167 00e0 17030000 		.word	791
 1168 00e4 000F0640 		.word	1074138880
 1169 00e8 080F0640 		.word	1074138888
 1170 00ec 880F0640 		.word	1074139016
 1171 00f0 40020640 		.word	1074135616
 1172 00f4 68000640 		.word	1074135144
 1173              		.cfi_endproc
 1174              	.LFE0:
 1175              		.size	I2CM_I2CMasterWriteBuf, .-I2CM_I2CMasterWriteBuf
 1176              		.section	.text.I2CM_I2CMasterReadBuf,"ax",%progbits
ARM GAS  C:\Users\CHUNGN~1\AppData\Local\Temp\ccSpspjB.s 			page 45


 1177              		.align	2
 1178              		.global	I2CM_I2CMasterReadBuf
 1179              		.code	16
 1180              		.thumb_func
 1181              		.type	I2CM_I2CMasterReadBuf, %function
 1182              	I2CM_I2CMasterReadBuf:
 1183              	.LFB1:
 214:Generated_Source\PSoC4/I2CM_I2C_MASTER.c ****     uint32 errStatus;
 1184              		.loc 1 214 0
 1185              		.cfi_startproc
 1186              		@ args = 0, pretend = 0, frame = 8
 1187              		@ frame_needed = 0, uses_anonymous_args = 0
 1188              	.LVL123:
 1189 0000 F0B5     		push	{r4, r5, r6, r7, lr}
 1190              		.cfi_def_cfa_offset 20
 1191              		.cfi_offset 4, -20
 1192              		.cfi_offset 5, -16
 1193              		.cfi_offset 6, -12
 1194              		.cfi_offset 7, -8
 1195              		.cfi_offset 14, -4
 1196 0002 83B0     		sub	sp, sp, #12
 1197              		.cfi_def_cfa_offset 32
 1198 0004 0190     		str	r0, [sp, #4]
 1199 0006 0C00     		movs	r4, r1
 1200 0008 1700     		movs	r7, r2
 1201 000a 1D00     		movs	r5, r3
 1202              	.LVL124:
 219:Generated_Source\PSoC4/I2CM_I2C_MASTER.c ****     {
 1203              		.loc 1 219 0
 1204 000c 0029     		cmp	r1, #0
 1205 000e 17D0     		beq	.L95
 222:Generated_Source\PSoC4/I2CM_I2C_MASTER.c ****         {
 1206              		.loc 1 222 0
 1207 0010 2F4B     		ldr	r3, .L98
 1208              	.LVL125:
 1209 0012 1B78     		ldrb	r3, [r3]
 1210 0014 102B     		cmp	r3, #16
 1211 0016 08D1     		bne	.L90
 224:Generated_Source\PSoC4/I2CM_I2C_MASTER.c **** 
 1212              		.loc 1 224 0
 1213 0018 0520     		movs	r0, #5
 1214              	.LVL126:
 1215 001a FFF7FEFF 		bl	CyIntDisable
 1216              	.LVL127:
 227:Generated_Source\PSoC4/I2CM_I2C_MASTER.c ****                             I2CM_I2C_MSTR_BUS_BUSY : I2CM_I2C_MSTR_NO_ERROR;
 1217              		.loc 1 227 0
 1218 001e 2D4B     		ldr	r3, .L98+4
 1219 0020 1B68     		ldr	r3, [r3]
 1220 0022 DB07     		lsls	r3, r3, #31
 1221 0024 0ED5     		bpl	.L96
 1222 0026 0826     		movs	r6, #8
 1223 0028 0FE0     		b	.L89
 1224              	.LVL128:
 1225              	.L90:
 230:Generated_Source\PSoC4/I2CM_I2C_MASTER.c ****         {
 1226              		.loc 1 230 0
 1227 002a 294B     		ldr	r3, .L98
ARM GAS  C:\Users\CHUNGN~1\AppData\Local\Temp\ccSpspjB.s 			page 46


 1228 002c 1B78     		ldrb	r3, [r3]
 1229 002e 602B     		cmp	r3, #96
 1230 0030 0AD1     		bne	.L97
 232:Generated_Source\PSoC4/I2CM_I2C_MASTER.c ****                               errStatus  =  I2CM_I2C_MSTR_NO_ERROR;
 1231              		.loc 1 232 0
 1232 0032 294A     		ldr	r2, .L98+8
 1233              	.LVL129:
 1234 0034 1388     		ldrh	r3, [r2]
 1235 0036 0821     		movs	r1, #8
 1236              	.LVL130:
 1237 0038 8B43     		bics	r3, r1
 1238 003a 1380     		strh	r3, [r2]
 1239              	.LVL131:
 233:Generated_Source\PSoC4/I2CM_I2C_MASTER.c ****         }
 1240              		.loc 1 233 0
 1241 003c 0026     		movs	r6, #0
 1242 003e 04E0     		b	.L89
 1243              	.LVL132:
 1244              	.L95:
 217:Generated_Source\PSoC4/I2CM_I2C_MASTER.c **** 
 1245              		.loc 1 217 0
 1246 0040 0426     		movs	r6, #4
 1247 0042 02E0     		b	.L89
 1248              	.LVL133:
 1249              	.L96:
 227:Generated_Source\PSoC4/I2CM_I2C_MASTER.c ****                             I2CM_I2C_MSTR_BUS_BUSY : I2CM_I2C_MSTR_NO_ERROR;
 1250              		.loc 1 227 0
 1251 0044 0026     		movs	r6, #0
 1252 0046 00E0     		b	.L89
 1253              	.LVL134:
 1254              	.L97:
 217:Generated_Source\PSoC4/I2CM_I2C_MASTER.c **** 
 1255              		.loc 1 217 0
 1256 0048 0426     		movs	r6, #4
 1257              	.LVL135:
 1258              	.L89:
 242:Generated_Source\PSoC4/I2CM_I2C_MASTER.c ****     {
 1259              		.loc 1 242 0
 1260 004a 002E     		cmp	r6, #0
 1261 004c 39D1     		bne	.L91
 248:Generated_Source\PSoC4/I2CM_I2C_MASTER.c ****         I2CM_mstrRdBufIndex = 0u;
 1262              		.loc 1 248 0
 1263 004e 2922     		movs	r2, #41
 1264 0050 1F4B     		ldr	r3, .L98
 1265 0052 1A70     		strb	r2, [r3]
 249:Generated_Source\PSoC4/I2CM_I2C_MASTER.c ****         I2CM_mstrRdBufSize  = cnt;
 1266              		.loc 1 249 0
 1267 0054 0022     		movs	r2, #0
 1268 0056 214B     		ldr	r3, .L98+12
 1269 0058 1A60     		str	r2, [r3]
 250:Generated_Source\PSoC4/I2CM_I2C_MASTER.c ****         I2CM_mstrRdBufPtr   = (volatile uint8 *) rdData;
 1270              		.loc 1 250 0
 1271 005a 214A     		ldr	r2, .L98+16
 1272 005c 1760     		str	r7, [r2]
 251:Generated_Source\PSoC4/I2CM_I2C_MASTER.c ****         I2CM_mstrControl    = (uint8) mode;
 1273              		.loc 1 251 0
 1274 005e 214B     		ldr	r3, .L98+20
ARM GAS  C:\Users\CHUNGN~1\AppData\Local\Temp\ccSpspjB.s 			page 47


 1275 0060 1C60     		str	r4, [r3]
 252:Generated_Source\PSoC4/I2CM_I2C_MASTER.c **** 
 1276              		.loc 1 252 0
 1277 0062 EBB2     		uxtb	r3, r5
 1278 0064 2049     		ldr	r1, .L98+24
 1279 0066 0B70     		strb	r3, [r1]
 254:Generated_Source\PSoC4/I2CM_I2C_MASTER.c **** 
 1280              		.loc 1 254 0
 1281 0068 019B     		ldr	r3, [sp, #4]
 1282 006a 5C00     		lsls	r4, r3, #1
 1283              	.LVL136:
 1284 006c FF23     		movs	r3, #255
 1285 006e 1C40     		ands	r4, r3
 1286 0070 0120     		movs	r0, #1
 1287 0072 0443     		orrs	r4, r0
 1288              	.LVL137:
 256:Generated_Source\PSoC4/I2CM_I2C_MASTER.c **** 
 1289              		.loc 1 256 0
 1290 0074 1849     		ldr	r1, .L98+8
 1291 0076 0B88     		ldrh	r3, [r1]
 1292 0078 8343     		bics	r3, r0
 1293 007a 0B80     		strh	r3, [r1]
 258:Generated_Source\PSoC4/I2CM_I2C_MASTER.c ****         I2CM_SetMasterInterruptMode    (I2CM_I2C_INTR_MASTER_MASK);
 1294              		.loc 1 258 0
 1295 007c 1B49     		ldr	r1, .L98+28
 1296 007e 1C4B     		ldr	r3, .L98+32
 1297 0080 1960     		str	r1, [r3]
 1298              	.LVL138:
 259:Generated_Source\PSoC4/I2CM_I2C_MASTER.c **** 
 1299              		.loc 1 259 0
 1300 0082 1421     		movs	r1, #20
 1301 0084 FF31     		adds	r1, r1, #255
 1302 0086 1B4B     		ldr	r3, .L98+36
 1303 0088 1960     		str	r1, [r3]
 264:Generated_Source\PSoC4/I2CM_I2C_MASTER.c ****         {
 1304              		.loc 1 264 0
 1305 008a 1368     		ldr	r3, [r2]
 1306 008c 072B     		cmp	r3, #7
 1307 008e 03D8     		bhi	.L92
 267:Generated_Source\PSoC4/I2CM_I2C_MASTER.c ****         }
 1308              		.loc 1 267 0
 1309 0090 0422     		movs	r2, #4
 1310 0092 194B     		ldr	r3, .L98+40
 1311 0094 1A60     		str	r2, [r3]
 1312 0096 08E0     		b	.L93
 1313              	.L92:
 272:Generated_Source\PSoC4/I2CM_I2C_MASTER.c ****             I2CM_SetRxInterruptMode(I2CM_INTR_RX_FULL);
 1314              		.loc 1 272 0
 1315 0098 184A     		ldr	r2, .L98+44
 1316 009a 1368     		ldr	r3, [r2]
 1317 009c 8021     		movs	r1, #128
 1318 009e 4900     		lsls	r1, r1, #1
 1319 00a0 0B43     		orrs	r3, r1
 1320 00a2 1360     		str	r3, [r2]
 273:Generated_Source\PSoC4/I2CM_I2C_MASTER.c ****         }
 1321              		.loc 1 273 0
 1322 00a4 0822     		movs	r2, #8
ARM GAS  C:\Users\CHUNGN~1\AppData\Local\Temp\ccSpspjB.s 			page 48


 1323 00a6 144B     		ldr	r3, .L98+40
 1324 00a8 1A60     		str	r2, [r3]
 1325              	.L93:
 277:Generated_Source\PSoC4/I2CM_I2C_MASTER.c ****         {
 1326              		.loc 1 277 0
 1327 00aa EB07     		lsls	r3, r5, #31
 1328 00ac 04D5     		bpl	.L94
 279:Generated_Source\PSoC4/I2CM_I2C_MASTER.c ****             I2CM_TX_FIFO_WR_REG = slaveAddress;
 1329              		.loc 1 279 0
 1330 00ae FFF7FEFF 		bl	I2CM_I2CReStartGeneration
 1331              	.LVL139:
 280:Generated_Source\PSoC4/I2CM_I2C_MASTER.c ****         }
 1332              		.loc 1 280 0
 1333 00b2 134B     		ldr	r3, .L98+48
 1334 00b4 1C60     		str	r4, [r3]
 1335 00b6 04E0     		b	.L91
 1336              	.L94:
 284:Generated_Source\PSoC4/I2CM_I2C_MASTER.c ****             I2CM_I2C_MASTER_GENERATE_START;
 1337              		.loc 1 284 0
 1338 00b8 114B     		ldr	r3, .L98+48
 1339 00ba 1C60     		str	r4, [r3]
 285:Generated_Source\PSoC4/I2CM_I2C_MASTER.c ****         }
 1340              		.loc 1 285 0
 1341 00bc 0222     		movs	r2, #2
 1342 00be 114B     		ldr	r3, .L98+52
 1343 00c0 1A60     		str	r2, [r3]
 1344              	.LVL140:
 1345              	.L91:
 289:Generated_Source\PSoC4/I2CM_I2C_MASTER.c **** 
 1346              		.loc 1 289 0
 1347 00c2 0520     		movs	r0, #5
 1348 00c4 FFF7FEFF 		bl	CyIntEnable
 1349              	.LVL141:
 292:Generated_Source\PSoC4/I2CM_I2C_MASTER.c **** 
 1350              		.loc 1 292 0
 1351 00c8 3000     		movs	r0, r6
 1352 00ca 03B0     		add	sp, sp, #12
 1353              		@ sp needed
 1354              	.LVL142:
 1355              	.LVL143:
 1356              	.LVL144:
 1357 00cc F0BD     		pop	{r4, r5, r6, r7, pc}
 1358              	.L99:
 1359 00ce C046     		.align	2
 1360              	.L98:
 1361 00d0 00000000 		.word	I2CM_state
 1362 00d4 64000640 		.word	1074135140
 1363 00d8 00000000 		.word	I2CM_mstrStatus
 1364 00dc 00000000 		.word	I2CM_mstrRdBufIndex
 1365 00e0 00000000 		.word	I2CM_mstrRdBufSize
 1366 00e4 00000000 		.word	I2CM_mstrRdBufPtr
 1367 00e8 00000000 		.word	I2CM_mstrControl
 1368 00ec 17030000 		.word	791
 1369 00f0 000F0640 		.word	1074138880
 1370 00f4 080F0640 		.word	1074138888
 1371 00f8 C80F0640 		.word	1074139080
 1372 00fc 60000640 		.word	1074135136
ARM GAS  C:\Users\CHUNGN~1\AppData\Local\Temp\ccSpspjB.s 			page 49


 1373 0100 40020640 		.word	1074135616
 1374 0104 68000640 		.word	1074135144
 1375              		.cfi_endproc
 1376              	.LFE1:
 1377              		.size	I2CM_I2CMasterReadBuf, .-I2CM_I2CMasterReadBuf
 1378              		.section	.text.I2CM_I2CMasterSendRestart,"ax",%progbits
 1379              		.align	2
 1380              		.global	I2CM_I2CMasterSendRestart
 1381              		.code	16
 1382              		.thumb_func
 1383              		.type	I2CM_I2CMasterSendRestart, %function
 1384              	I2CM_I2CMasterSendRestart:
 1385              	.LFB3:
 445:Generated_Source\PSoC4/I2CM_I2C_MASTER.c ****     uint32 errStatus = I2CM_I2C_MSTR_NOT_READY;
 1386              		.loc 1 445 0
 1387              		.cfi_startproc
 1388              		@ args = 0, pretend = 0, frame = 8
 1389              		@ frame_needed = 0, uses_anonymous_args = 0
 1390              	.LVL145:
 1391 0000 10B5     		push	{r4, lr}
 1392              		.cfi_def_cfa_offset 8
 1393              		.cfi_offset 4, -8
 1394              		.cfi_offset 14, -4
 1395 0002 82B0     		sub	sp, sp, #8
 1396              		.cfi_def_cfa_offset 16
 1397              	.LVL146:
 449:Generated_Source\PSoC4/I2CM_I2C_MASTER.c ****     {
 1398              		.loc 1 449 0
 1399 0004 154B     		ldr	r3, .L106
 1400 0006 1B78     		ldrb	r3, [r3]
 1401 0008 9B06     		lsls	r3, r3, #26
 1402 000a 23D5     		bpl	.L105
 1403              	.LBB6:
 452:Generated_Source\PSoC4/I2CM_I2C_MASTER.c **** 
 1404              		.loc 1 452 0
 1405 000c FA23     		movs	r3, #250
 1406 000e 9B00     		lsls	r3, r3, #2
 1407 0010 5A43     		muls	r2, r3
 1408              	.LVL147:
 1409 0012 0192     		str	r2, [sp, #4]
 454:Generated_Source\PSoC4/I2CM_I2C_MASTER.c **** 
 1410              		.loc 1 454 0
 1411 0014 4000     		lsls	r0, r0, #1
 1412              	.LVL148:
 1413 0016 FF24     		movs	r4, #255
 1414 0018 0440     		ands	r4, r0
 1415              	.LVL149:
 456:Generated_Source\PSoC4/I2CM_I2C_MASTER.c ****         {
 1416              		.loc 1 456 0
 1417 001a 0029     		cmp	r1, #0
 1418 001c 03D1     		bne	.L102
 458:Generated_Source\PSoC4/I2CM_I2C_MASTER.c ****         }
 1419              		.loc 1 458 0
 1420 001e 2422     		movs	r2, #36
 1421 0020 0E4B     		ldr	r3, .L106
 1422 0022 1A70     		strb	r2, [r3]
 1423 0024 04E0     		b	.L103
ARM GAS  C:\Users\CHUNGN~1\AppData\Local\Temp\ccSpspjB.s 			page 50


 1424              	.L102:
 462:Generated_Source\PSoC4/I2CM_I2C_MASTER.c ****                       slaveAddress |= I2CM_I2C_READ_FLAG;
 1425              		.loc 1 462 0
 1426 0026 2522     		movs	r2, #37
 1427 0028 0C4B     		ldr	r3, .L106
 1428 002a 1A70     		strb	r2, [r3]
 463:Generated_Source\PSoC4/I2CM_I2C_MASTER.c ****         }
 1429              		.loc 1 463 0
 1430 002c 0123     		movs	r3, #1
 1431 002e 1C43     		orrs	r4, r3
 1432              	.LVL150:
 1433              	.L103:
 471:Generated_Source\PSoC4/I2CM_I2C_MASTER.c ****         I2CM_TX_FIFO_WR_REG = slaveAddress;
 1434              		.loc 1 471 0
 1435 0030 FFF7FEFF 		bl	I2CM_I2CReStartGeneration
 1436              	.LVL151:
 472:Generated_Source\PSoC4/I2CM_I2C_MASTER.c **** 
 1437              		.loc 1 472 0
 1438 0034 0A4B     		ldr	r3, .L106+4
 1439 0036 1C60     		str	r4, [r3]
 1440              	.LVL152:
 1441              	.L104:
 477:Generated_Source\PSoC4/I2CM_I2C_MASTER.c ****             locStatus |= I2CM_I2CMasterWaitOneUnit(&timeout);
 1442              		.loc 1 477 0 discriminator 1
 1443 0038 0A4B     		ldr	r3, .L106+8
 1444 003a 1868     		ldr	r0, [r3]
 1445 003c 0823     		movs	r3, #8
 1446 003e FF33     		adds	r3, r3, #255
 1447 0040 1840     		ands	r0, r3
 1448 0042 0400     		movs	r4, r0
 1449              	.LVL153:
 478:Generated_Source\PSoC4/I2CM_I2C_MASTER.c ****         }
 1450              		.loc 1 478 0 discriminator 1
 1451 0044 01A8     		add	r0, sp, #4
 1452              	.LVL154:
 1453 0046 FFF7FEFF 		bl	I2CM_I2CMasterWaitOneUnit
 1454              	.LVL155:
 1455 004a 2043     		orrs	r0, r4
 1456              	.LVL156:
 480:Generated_Source\PSoC4/I2CM_I2C_MASTER.c **** 
 1457              		.loc 1 480 0 discriminator 1
 1458 004c F4D0     		beq	.L104
 484:Generated_Source\PSoC4/I2CM_I2C_MASTER.c ****     }
 1459              		.loc 1 484 0
 1460 004e FFF7FEFF 		bl	I2CM_I2CMasterHandleStatus
 1461              	.LVL157:
 1462 0052 00E0     		b	.L101
 1463              	.LVL158:
 1464              	.L105:
 1465              	.LBE6:
 446:Generated_Source\PSoC4/I2CM_I2C_MASTER.c **** 
 1466              		.loc 1 446 0
 1467 0054 0420     		movs	r0, #4
 1468              	.LVL159:
 1469              	.L101:
 488:Generated_Source\PSoC4/I2CM_I2C_MASTER.c **** 
 1470              		.loc 1 488 0
ARM GAS  C:\Users\CHUNGN~1\AppData\Local\Temp\ccSpspjB.s 			page 51


 1471 0056 02B0     		add	sp, sp, #8
 1472              		@ sp needed
 1473 0058 10BD     		pop	{r4, pc}
 1474              	.L107:
 1475 005a C046     		.align	2
 1476              	.L106:
 1477 005c 00000000 		.word	I2CM_state
 1478 0060 40020640 		.word	1074135616
 1479 0064 000F0640 		.word	1074138880
 1480              		.cfi_endproc
 1481              	.LFE3:
 1482              		.size	I2CM_I2CMasterSendRestart, .-I2CM_I2CMasterSendRestart
 1483              		.comm	I2CM_mstrWrBufIndexTmp,4,4
 1484              		.comm	I2CM_mstrWrBufIndex,4,4
 1485              		.comm	I2CM_mstrWrBufSize,4,4
 1486              		.comm	I2CM_mstrWrBufPtr,4,4
 1487              		.comm	I2CM_mstrRdBufIndex,4,4
 1488              		.comm	I2CM_mstrRdBufSize,4,4
 1489              		.comm	I2CM_mstrRdBufPtr,4,4
 1490              		.comm	I2CM_mstrControl,1,1
 1491              		.comm	I2CM_mstrStatus,2,2
 1492              		.text
 1493              	.Letext0:
 1494              		.file 2 "Generated_Source\\PSoC4/cytypes.h"
 1495              		.file 3 "Generated_Source\\PSoC4\\I2CM_I2C_PVT.h"
 1496              		.file 4 "Generated_Source\\PSoC4/CyLib.h"
