ARM GAS  C:\Users\CHUNGN~1\AppData\Local\Temp\ccagALy8.s 			page 1


   1              		.syntax unified
   2              		.cpu cortex-m0
   3              		.fpu softvfp
   4              		.eabi_attribute 20, 1
   5              		.eabi_attribute 21, 1
   6              		.eabi_attribute 23, 3
   7              		.eabi_attribute 24, 1
   8              		.eabi_attribute 25, 1
   9              		.eabi_attribute 26, 1
  10              		.eabi_attribute 30, 1
  11              		.eabi_attribute 34, 0
  12              		.eabi_attribute 18, 4
  13              		.thumb
  14              		.syntax unified
  15              		.file	"sysTickIsr.c"
  16              		.text
  17              	.Ltext0:
  18              		.cfi_sections	.debug_frame
  19              		.section	.text.SYSTICK_regSysTickISRCallback,"ax",%progbits
  20              		.align	2
  21              		.global	SYSTICK_regSysTickISRCallback
  22              		.code	16
  23              		.thumb_func
  24              		.type	SYSTICK_regSysTickISRCallback, %function
  25              	SYSTICK_regSysTickISRCallback:
  26              	.LFB32:
  27              		.file 1 "myLib\\sysTickISR\\sysTickIsr.c"
   1:myLib\sysTickISR/sysTickIsr.c **** /* ========================================
   2:myLib\sysTickISR/sysTickIsr.c ****  *
   3:myLib\sysTickISR/sysTickIsr.c ****  * Copyright YOUR COMPANY, THE YEAR
   4:myLib\sysTickISR/sysTickIsr.c ****  * All Rights Reserved
   5:myLib\sysTickISR/sysTickIsr.c ****  * UNPUBLISHED, LICENSED SOFTWARE.
   6:myLib\sysTickISR/sysTickIsr.c ****  *
   7:myLib\sysTickISR/sysTickIsr.c ****  * CONFIDENTIAL AND PROPRIETARY INFORMATION
   8:myLib\sysTickISR/sysTickIsr.c ****  * WHICH IS THE PROPERTY OF your company.
   9:myLib\sysTickISR/sysTickIsr.c ****  *
  10:myLib\sysTickISR/sysTickIsr.c ****  * ========================================
  11:myLib\sysTickISR/sysTickIsr.c **** */
  12:myLib\sysTickISR/sysTickIsr.c **** #include "sysTickIsr.h"
  13:myLib\sysTickISR/sysTickIsr.c **** uint32_t g_SysTime;
  14:myLib\sysTickISR/sysTickIsr.c **** 
  15:myLib\sysTickISR/sysTickIsr.c **** void SYSTICK_regSysTickISRCallback(void *func)
  16:myLib\sysTickISR/sysTickIsr.c **** {
  28              		.loc 1 16 0
  29              		.cfi_startproc
  30              		@ args = 0, pretend = 0, frame = 0
  31              		@ frame_needed = 0, uses_anonymous_args = 0
  32              	.LVL0:
  33 0000 70B5     		push	{r4, r5, r6, lr}
  34              		.cfi_def_cfa_offset 16
  35              		.cfi_offset 4, -16
  36              		.cfi_offset 5, -12
  37              		.cfi_offset 6, -8
  38              		.cfi_offset 14, -4
  39 0002 0500     		movs	r5, r0
  17:myLib\sysTickISR/sysTickIsr.c ****     CySysTickStart();
  40              		.loc 1 17 0
ARM GAS  C:\Users\CHUNGN~1\AppData\Local\Temp\ccagALy8.s 			page 2


  41 0004 FFF7FEFF 		bl	CySysTickStart
  42              	.LVL1:
  43              	.LBB2:
  18:myLib\sysTickISR/sysTickIsr.c ****     /* Find unused callback slot and assign the callback. */
  19:myLib\sysTickISR/sysTickIsr.c ****     for(uint8_t i = 0u; i < CY_SYS_SYST_NUM_OF_CALLBACKS; ++i)
  44              		.loc 1 19 0
  45 0008 0024     		movs	r4, #0
  46 000a 0BE0     		b	.L2
  47              	.LVL2:
  48              	.L5:
  20:myLib\sysTickISR/sysTickIsr.c ****     {
  21:myLib\sysTickISR/sysTickIsr.c ****         if (CySysTickGetCallback(i) == NULL)
  49              		.loc 1 21 0
  50 000c 2000     		movs	r0, r4
  51 000e FFF7FEFF 		bl	CySysTickGetCallback
  52              	.LVL3:
  53 0012 0028     		cmp	r0, #0
  54 0014 04D1     		bne	.L3
  22:myLib\sysTickISR/sysTickIsr.c ****         {
  23:myLib\sysTickISR/sysTickIsr.c ****             /* Set callback */
  24:myLib\sysTickISR/sysTickIsr.c ****             CySysTickSetCallback(i, func);
  55              		.loc 1 24 0
  56 0016 2900     		movs	r1, r5
  57 0018 2000     		movs	r0, r4
  58 001a FFF7FEFF 		bl	CySysTickSetCallback
  59              	.LVL4:
  25:myLib\sysTickISR/sysTickIsr.c ****             break;
  60              		.loc 1 25 0
  61 001e 03E0     		b	.L1
  62              	.L3:
  19:myLib\sysTickISR/sysTickIsr.c ****     {
  63              		.loc 1 19 0 discriminator 2
  64 0020 0134     		adds	r4, r4, #1
  65              	.LVL5:
  66 0022 E4B2     		uxtb	r4, r4
  67              	.LVL6:
  68              	.L2:
  19:myLib\sysTickISR/sysTickIsr.c ****     {
  69              		.loc 1 19 0 is_stmt 0 discriminator 1
  70 0024 042C     		cmp	r4, #4
  71 0026 F1D9     		bls	.L5
  72              	.L1:
  73              	.LBE2:
  26:myLib\sysTickISR/sysTickIsr.c ****         }
  27:myLib\sysTickISR/sysTickIsr.c ****     }
  28:myLib\sysTickISR/sysTickIsr.c **** }
  74              		.loc 1 28 0 is_stmt 1
  75              		@ sp needed
  76              	.LVL7:
  77              	.LVL8:
  78 0028 70BD     		pop	{r4, r5, r6, pc}
  79              		.cfi_endproc
  80              	.LFE32:
  81              		.size	SYSTICK_regSysTickISRCallback, .-SYSTICK_regSysTickISRCallback
  82 002a C046     		.section	.text.elapstime,"ax",%progbits
  83              		.align	2
  84              		.global	elapstime
ARM GAS  C:\Users\CHUNGN~1\AppData\Local\Temp\ccagALy8.s 			page 3


  85              		.code	16
  86              		.thumb_func
  87              		.type	elapstime, %function
  88              	elapstime:
  89              	.LFB33:
  29:myLib\sysTickISR/sysTickIsr.c **** 
  30:myLib\sysTickISR/sysTickIsr.c **** uint32_t elapstime(uint32_t newTime, uint32_t oldTime)
  31:myLib\sysTickISR/sysTickIsr.c **** {
  90              		.loc 1 31 0
  91              		.cfi_startproc
  92              		@ args = 0, pretend = 0, frame = 0
  93              		@ frame_needed = 0, uses_anonymous_args = 0
  94              		@ link register save eliminated.
  95              	.LVL9:
  32:myLib\sysTickISR/sysTickIsr.c ****     return (newTime - oldTime);
  96              		.loc 1 32 0
  97 0000 401A     		subs	r0, r0, r1
  98              	.LVL10:
  33:myLib\sysTickISR/sysTickIsr.c **** }
  99              		.loc 1 33 0
 100              		@ sp needed
 101 0002 7047     		bx	lr
 102              		.cfi_endproc
 103              	.LFE33:
 104              		.size	elapstime, .-elapstime
 105              		.comm	g_SysTime,4,4
 106              		.text
 107              	.Letext0:
 108              		.file 2 "c:\\program files (x86)\\cypress\\psoc creator\\4.2\\psoc creator\\import\\gnu\\arm\\5.4.
 109              		.file 3 "c:\\program files (x86)\\cypress\\psoc creator\\4.2\\psoc creator\\import\\gnu\\arm\\5.4.
 110              		.file 4 "Generated_Source\\PSoC4/CyLib.h"
